:020000041008E2
:4000000000780408EB0208100D00000051030810510308105103081051030810000000000000000000000000000000004D0308104D030810000000004D0308104D030810DA
:400040004D0308104D0308104D0308104D0308104D0308104D0308104D0308104D0308104D0308104D0308104D0308104D0308104D0308104D0308104D0308104D03081000
:400080004D0308104D0308104D0308104D0308104D0308104D0308104D0308104D0308104D0308104D0308104D0308104D0308104D0308104D0308104D0308104D030810C0
:4000C0004D0308104D0308104D0308104D0308104D0308104D0308104D0308104D0308104D0308104D0308104D0308104D0308104D0308104D0308104D0308104D03081080
:400100004D0308104D0308104D0308104D0308104D0308104D0308104D0308104D0308104D0308104D0308104D0308104D0308104D0308104D0308104D0308104D0308103F
:400140004D0308104D0308104D0308104D0308104D0308104D0308104D0308104D0308104D0308104D0308104D0308104D0308104D0308104D0308104D0308104D030810FF
:400180004D0308104D0308104D0308104D0308104D0308104D0308104D0308104D0308104D0308104D0308104D0308104D0308104D0308104D0308104D0308104D030810BF
:4001C0004D0308104D0308104D0308104D0308104D0308104D0308104D0308104D0308104D0308104D0308104D0308104D0308104D0308104D0308104D0308104D0308107F
:400200004D0308104D0308104D0308104D0308104D0308104D0308104D0308104D0308104D0308104D0308104D0308104D0308104D0308104D0308104D0308104D0308103E
:400240004D0308104D0308104D0308104D0308104D0308104D0308104D0308104D0308104D0308104D0308104D0308104D0308104D0308104D0308104D0308104D030810FE
:400280004D0308104D0308104D03081010B5054C237833B9044B13B10448AFF300800123237010BD4C49020800000000181C0810084B10B51BB108490848AFF30080084882
:4002C000036803B910BD074B002BFBD0BDE81040184700BF0000000050490208181C081018430208000000007047FFF7FDFF72B6104C114DAC4209DA21686268A368043B62
:40030000A2BFC858D050FAE70C34F3E70B490C4A00209142BCBF41F8040BFAE709480A490860BFF34F8F00F06FF900F049F900F01DF8FEE71C1C0810341C08104C49020879
:40034000604B02080040020808ED00E0FEE7FEE700B504207146084202D0EFF3098001E0EFF30880043000F09BFDFEE770B590B062B64FF470620021234800F0FBFD0022B4
:40038000224B1A6020BF224B1B78002BFAD000241F4B1B78002BFBD01C4B19684B1C1D4A1A4003D5013A62F0030201321A4B1B689A42EDD00091194A322103A800F0E2FD7C
:4003C000124B1B680133134D1D4003D5013D65F00305013500230FE02A01501B41011944094E06F811405900481C521B91010144220A725401339BB2B3F5F07FECD3013417
:40040000A4B2024B1D60C3E704000208080F02080000020803000080040F0208DC18081008B5012000F0B6FC08BD00BF704700BF5C4AD2F8803303F00F0303F1D00152F85C
:40044000212002F00702032A04D0042A05D092B9554914E0554A116811E003F1C002514951F8222002F01F02112A06D0132A04D04FF4FA4103E04E4901E04FF400418BBBA3
:40048000484BD3F8902502F00100D3F88825C2F30172D3F8883513F0405F07D0414BD3F88835C3F30173012B02D102E0012300E0002303B108B9032A46D13A48D0F88025A7
:4004C000C2F31103D0F88425C2F30C02D0F88005C0F300600130B1FBF2F202FB03F2B2FBF0F131E0012B2FD12E4BD3F8402602F00100D3F80026C2F30172D3F8003613F067
:40050000405F07D0274BD3F80036C3F30173012B02D102E0012300E0002303B108B9032A12D12048D0F8002602F07F02D0F80036C3F30423D0F80006C0F3044002FB01F2C2
:40054000B2FBF3F2B2FBF0F1164BD3F88033C3F3011321FA03F215494A601648D0F89030C3F3072301330069000E0130B2FBF0F08860B2FBF3F3CB600B6103F5742202F2D7
:400580003F220D48A0FB0202C2F387420A7503F2E7330A4AA2FB03239B098B61DB03CB61704700BF0000264000127A008C42020800366E010000214083DE1B43D34D621092
:4005C00008B50D4800F0D0FCFFF730FFFFF730FF00221146042000F0A5F9084800F038FA074B1B6893F8513013B1064800F0A0FA00F0E2F808BD00BF281B08106849020865
:40060000584B0208F818081008B500F0A6FC074AD2F8883043F47003C2F88830BFF34F8FBFF36F8F00F09DFC08BD00BF00ED00E01F4B98422DD00CD840282ED003D8E8B18E
:40064000102828D02FE0802829D0B0F5807F28D029E0184B984228D006D8B0F1204F0DD0154B984212D01EE0144B98420AD00133984209D0023B984215D101E0002070472C
:400680000F4870470F4870470F4870474FF4A0007047074870470D4870470D4870470D487047034870470C4870474FF4A400704706005200010000F0090000A0040000F0BB
:4006C000010052000200520003005200010050000200500005005200FF00520038B5124B1B6893F83130012B04D840F2C3110F4800F0C6FB0C4B1D682A6AB5F8B030134490
:400700002C46D5F8B420D358002B0BDB084B1868FFF78EFF6B6801229A6063689B68002BFBD138BD034838BD584B02082C190810E84A0208020050001A4B186128B10223B6
:400740000370FF23437000234380174B1B6893F850202AB300B583B0B3F93830ADF80030002301931149684600F04EFBBDF90030002B08DB590903F01F03012202FA03F345
:400780000B4A42F82130084B1B6893F8513023B102220849012000F077FA03B05DF804FB704700BFE84A0208584B02088943020800E100E04144020808B50248FFF7BCFF68
:4007C00008BD00BFFC4A020838B50B4B1B68D3F8B4301B58002B0DDA0D4604460B0C1B0423B140F2D521054800F04AFBA9B26160002038BD024838BD584B02086C19081020
:4008000001008A0038B50368002B01DA002300E0094B73B90D460446C2600B0C1B0423B140F2BB21054800F02BFBA9B2A160002038BD014838BD00BF01008A006C1908107C
:4008400038B504460D4619B99921084800F018FB074B1B68D3F8B4301B59002B03DAE3682B60002038BD034838BD00BFAC190810584B020801008A00254B1B6893F8313031
:4008800083423AD900293AD00B6813F01F0F38D170B50D4604461E4B1B6893F83130984204D340F2C3111B4800F0EAFA184B1B68186AB3F8B03004FB0304174E34602A6874
:4008C000D2080021686800F055FB00212046FFF77BFF346825B940F293310E4800F0D0FA2A4600212046FFF78DFF60B900210A4B1868FFF769FF40B970BD08487047074814
:40090000704706487047064870BD054870BD00BF584B02086C190810004B020803018A0001018A0010B504461346B2B9A9B9124B1B6893F83130984204D340F2C3110F487F
:4009400000F09EFA0C4B1B681A6AB3F8B03004FB03240B4B1C60002010BD43B149B1084A51609360111D2046FFF786FF10BD054810BD044810BD00BF584B02086C19081025
:40098000004B020803018A002DE9F0411B4B1B68DC68236883422CD90D464609A0EB4610012303FA00F819B900F0D7FA074600E00027124B18680368002B01DA002300E0B7
:4009C0000F4B83B9626852F8263018EA030F05D023EA080342F82630002400E0094C0021FFF7F2FE00E0084C25B9384600F0B9FA00E0064C2046BDE8F08100BF004B020811
:400A000001008A00020188000301880004018A000B4B1B68DB681A6882420CD94109A0EB4110012202FA00F05B6853F82130184203D004487047044870470448704700BFB5
:400A4000004B02080101880004018A0000018800024B1B680BB9014B186070470C4B02082DE9F8430446884691461D46089F2C4B1B681BB9B5212B4800F002FA284B1B68CC
:400A80002C2000FB04F01C18EEB21E50C5F3072363602D0CA560244B1B6893F831309E4204D340F2C311214800F0EAF91E4B1B68196AB3F8B02006FB02162661666893F81C
:400AC00032309E4204D340F2DF11184800F0D8F9154B1B681D6A803605EB46156561A668330C1B0423B14FF4FF71104800F0C8F9330C1B0423B140F2FF110C4800F0C0F9FC
:400B0000B3B243EA0646AE60C4F81C90C4F820800023A36117B1B7F90030A381BDE8F8830C4B0208EC190810584B02086C190810F0B58FB0044618B95221274800F0A0F9C0
:400B4000A369072B03D95621234800F099F9E36A1BB95821204800F093F9236B1BB959211D4800F08DF907AD04F114060FCE0FC537682F6002AD26460FCE0FC533682B602E
:400B8000164B1B68B3F93620079B1344ADF83030089B0D93A26AE16A0CAD00953B460A98FFF75EFF00210091069B0A460598FFF757FF216B284600F027F9BDF93030002B1C
:400BC00008DB590903F01F03012202FA03F3044A42F821300FB0F0BDEC190810584B020800E100E0F8B506460F461D4614461AB9FD211F4800F044F91E4B1B681BB9FE2147
:400C00001B4800F03DF91B4B1B682C2101FB063001FB07314B68012202FA03F31B04466802FA06F60269EAB18F69EFB91268002A01DA002200E0104AC2B922881343236083
:400C40000369DC6001238B614D620469330C1B0423B140F2BB21094800F012F9B2B2A2600020F8BD0648F8BD0648F8BD0548F8BDEC1908100C4B020801008A006C1908102B
:400C800004028A0007028A00F8B505460F4616460E4B1B6823B94FF4AF710D4800F0F0F80A4B1B682C2404FB0534236A23B94FF4B171074800F0E4F8E369B34204D9236A2C
:400CC00043F826700020F8BD0248F8BD0C4B0208EC1908100A028A0070B582B000230193044620B940F2D111284800F0C9F8236923B94FF4E971254800F0C2F8636923B911
:400D000040F2D311214800F0BBF8236A23B94FF4EA711E4800F0B4F86369DD682A0C20D012041A601B682069194B1B68D3F8B430C358002B15DA01A9FFF782FD60B9019819
:400D400003681E0CDBB2E269934206D2226A52F8233013B1984700E0002631462069FFF733FDADB275B16369ADB21D601B68636A1BB198470023636202E0A36A03B19847CF
:400D80000023A36163691B6802B070BDEC190810584B020810B50446074B1B6823B940F2B111064800F06CF8034B1B682C2000FB0430FFF791FF10BD0C4B0208EC190810A1
:400DC00038B50D4B9A680D4B9A420FD10D46044621B940F237110A4800F052F804F11003064A52F8230042F8235038BD1030054B53F8200038BD00BF00ED00E000400208EE
:400E00002C1A08100000081048B338B504460D464368072B03D93221134800F031F8B4F900306268002B08DB5201D2B203F1604303F5614383F8002305E003F00F0352019D
:400E4000D2B20A49CA540A4B9A680A4B9A4208D12946B4F90000FFF7B3FF002038BD06487047002038BD00BF2C1A081014ED00E000ED00E0004002080100560001BEFEE719
:400E800038B50D46044C18220146204600F0ACF8A5610020FFF7F2FFB8480208FEE700BF08B50268254BDA6142681A6282685A62C2689A620269DA6242691A6382695A6331
:400EC000C2699A631E4A916AD963D16A1964516A5964516B9964926BDA64F1EE103A13F0900F27D0026A154B1A65426A5A65826A9A65C26ADA65026B1A66426B5A66826BF2
:400F00009A66C26BDA66026C1A67426C5A67826C9A67C26CDA67026DC3F88020426DC3F88420826DC3F88820C26DC3F88C20026EC3F89020FFF7B2FF08BD00BFB8480208B8
:400F400000ED00E0000000000230800803D001300238FCD100BF00BF7047EFF3108072B6704780F310887047014B1860704700BF584B020802440346934202D003F8011B63
:400F8000FAE770470CB430B5164B0C1E9DB01D6804DA8B232B604FF0FF301EE04FF40273ADF8143014BF04F1FF332346049307934FF6FF7302900690ADF81630209A21AB8F
:400FC00002A92846019300F07BF8431CBCBF8B232B6014B1029B00221A701DB0BDE8304002B070470C43020810B5034642B111F8014B03F8014B013A002CF7D11A4400E012
:4010000010BD934202D003F8014BFAE710BD2DE9F0478E689E4282460C46914698463ED88A8912F4906F3AD0256809696F1A6569022305EB450595FBF3F57B1C43449D42F3
:4010400038BF1D4653050FD5294600F08DFB064698B13A46216900F013FBA38923F4906343F08003A38113E02A4600F0DBFB064670B92169504600F029FB0C23CAF8003053
:40108000A38943F04003A3814FF0FF30BDE8F087266165613E44ED1B2660A5604646464528BF464632464946206800F0F4FAA3689B1BA36023681E4426600020BDE8F08714
:4010C0002DE9F04F9DB0804603938B891C060D4616460DD50B695BB9402100F045FB2860286118B90C23C8F80030CDE040236B610023099320238DF82930DFF89CB13023DE
:401100008DF82A3037463C4614F8013B1BB9B7EB060910D003E0252BF9D02746F3E74B46324629464046FFF772FF013000F0A780099B4B4409933B78002B00F0A080002354
:401140004FF0FF3204930793059206938DF853301A930126052221784E4800F041FA671C049B38B14B4A801A06FA00F0184304903C46EFE7D90644BF20228DF853201A0793
:4011800044BF2B228DF8532022782A2A03D0079A00210A200BE0039A111D12680391002A10DA524243F00200079204900BE0274601343B78303B092B03D800FB0232012161
:4011C000F5E701B107923B782E2B1ED17B782A2B0AD1039B1A1D1B680392002BB8BF4FF0FF330237059310E000230593781C19460A24074601303A78303A092A03D804FB66
:4012000001210123F5E703B1059103223978224800F0E6F940B14023CBEB000003FA00F0049B18430490013739781C488DF8281006227E1C00F0D4F988B1194B33B9039BFE
:40124000073323F007030833039314E003AB00932A46144B04A94046AFF3008007E003AB00932A460F4B04A9404600F093F8B0F1FF3F824603D0099B5344099342E7AB899F
:401280005B0601D4099801E04FF0FF301DB0BDE8F08F00BFE21B0810E81B0810EC1B0810000000000F1008102DE9F04791461F460A698B68DDF820809342B8BF1346C9F808
:4012C000003091F8432006460C4612B10133C9F800302368990642BFD9F800300233C9F80030256815F0060510D104F1190A07E00123524639463046C04701301AD0013574
:40130000E368D9F800209B1A9D42F1DB94F843302268003318BF012392060FD5E1185A1C302081F84300224494F8451082F84310023303E04FF0FF30BDE8F08704F1430273
:4013400039463046C0470130F4D02268D9F80050E36802F00602042A08BF5D1B2269A3680CBF25EAE57500259342C4BF9B1AED184FF000091A344D4509D001232246394612
:401380003046C0470130D5D009F10109F3E70020BDE8F0872DE9F04317460A7E85B06E2A984606460C460C9B01F1430E00F0AE8011D8632A22D009D8002A00F0BB80582A21
:4013C00040F0CA8081F84520834955E0642A1ED0692A1CD0C0E0732A00F0B08009D86F2A2ED0702A40F0B8800A6842F020020A603EE0752A24D0782A3AD0ADE01A6801F134
:401400004205111D1960136884F84230A8E021681A6811F0800F02D0111D196008E011F0400F02F10401196002D0B2F9003000E01368002B3CDA2D225B4284F8432037E0E5
:4014400021681A6811F0800F02D0111D196007E011F0400F02F10401196001D0138800E01368227E5C496F2A14BF0A2208221BE078225A4984F845202268186812F0800F2E
:4014800000F104051D6003D1550601D5038800E00368D00744BF42F0200222601BB9226822F0200222601022002084F8430001E049490A226568A560002D08DB206820F0EC
:4014C000040020602BB9002D7DD175460CE0002B79D07546B3FBF2F002FB1033CB5C05F8013D03460028F5D1082A0BD12368DA0708D5236962689A42DEBF302305F8013C17
:4015000005F1FF35C5EB0E0323612EE008681A68496910F0800F03D0101D1860136808E010F0400F02F104001860136801D0198000E0196000232361754616E01A68111D1C
:401540001960156862680021284600F049F808B1401B6060636804E004F1420584F8422001232361002384F84330CDF800803B4603AA21463046FFF797FE013002D14FF076
:40158000FF3026E023692A4639463046C0470130F5D023689B0710D5002504F1190907E001234A4639463046C0470130E7D00135E368039A9B1A9D42F2DBE068039B9842FC
:4015C000B8BF184605E00B7884F8423004F142058AE705B0BDE8F083F31B0810041C081001F0FF01102A2BDB10F0070F08D010F8013B013A8B422DD010F0070F42B3F6D1AE
:40160000F0B441EA012141EA014122F007047FF000070023F0E80256083C85EA010586EA010685FA47F5A3FA87F586FA47F6A5FA87F68EB9EED1F0BC01F0FF0102F00702EB
:4016400032B110F8013B013A83EA010313B1F8D10020704701387047002D06BF35460338073815F0010F07D1013015F4807F02BF013015F4C03F0130F0BC0138704700BFB0
:4016800010B5431E0A44914204D011F8014B03F8014FF8E710BD884210B501EB020301D8421E0BE09842FBD28118D21AD34204D013F8014D01F8014DF8E710BD994204D00F
:4016C00011F8014B02F8014FF8E710BD38B50546002946D051F8043C0C1F002BB8BFE41800F0D6F81F4A1368114613B96360146032E0A3420ED92268A018834204BF1868B2
:401700005B68636004BF121822600C6024E0A24203D813465A68002AF9D118681918A1420BD12168014458188242196014D1106852685A60014419600EE002D90C232B6079
:401740000AE021686018824204BF10685268626004BF091821605C602846BDE8384000F098B838BD504B020870B5CD1C25F0030508350C2D38BF0C25002D064601DBA94274
:4017800002D90C23336046E000F082F8234B1C681A462146A1B10B685B1B0ED40B2B03D90B60CC18CD501EE08C420DBF63684B686360136018BF0C4615E00C464968E9E76B
:4017C000174C23681BB9304600F052F820602946304600F04DF8431C18D0C41C24F00304A0420DD12560304600F053F804F10B00231D20F00700C31A0ED05A42E25070BD98
:40180000211A304600F034F80130EBD10C233360304600F03EF8002070BD00BF504B02084C4B0208F8B5074615460E4621B91146BDE8F840FFF798BF1AB9FFF747FF2846BD
:40184000F8BD00F027F885420ED929463846FFF78BFF044650B131462A46FFF711FF31463846FFF733FF01E03046F8BD2046F8BD38B5064C002305460846236000F014F893
:40188000431C02D1236803B12B6038BD5C4B02087047704751F8040C0028BEBF091851F8043CC01804387047044A05491368002B08BF0B461844106018467047544B0208C1
:4018C000604B0208F8B500BFF8BC08BC9E467047F8B500BFF8BC08BC9E4670476375725F66725F723A2025642C207772697474656E3A202564200A00030000000100000096
:40190000010000000000000005036000040000000100000000000000010000000604600008000000C84A02082104081047656E6572617465645F536F757263655C50536FA0
:4019400043365C70646C5C647269766572732F7065726970686572616C2F6970632F63795F6970635F6472762E68000047656E6572617465645F536F757263655C50536F7D
:4019800043365C70646C5C647269766572735C7065726970686572616C5C6970635C63795F6970635F6472762E68000047656E6572617465645F536F757263655C50536FB6
:4019C00043365C70646C5C647269766572735C7065726970686572616C5C6970635C63795F6970635F6472762E63000047656E6572617465645F536F757263655C50536F7B
:401A000043365C70646C5C647269766572735C7065726970686572616C5C6970635C63795F6970635F706970652E630047656E6572617465645F536F757263655C50536FD8
:401A400043365C70646C5C647269766572735C7065726970686572616C5C737973696E745C63795F737973696E742E63000000000000204000002440000000400000000092
:401A800000002340000030400000314000009F40000022400000104002020202020202020210101D800017007500FF030602063604102000000000007FC000000004000039
:401AC000000000000019324B647D00804000080B100000000000FF012002001F00800004FF081018001000140018001C4044484C50000000081000000800000004000000B4
:401B0000041000000012000004210000002100000016000040114002C41300138013A013200000001C000000000021400000254000000140000034400000244000003140D4
:401B40000000324000001F410000234000001140010101010101010101101010800019005500F0000501053B04101C01010000000FC000000004000001010101011D3A57CA
:401B8000789600082000101208000000001F00000010000F002000023F06080E00080009000A000B24282C3034000000100000009000000088000000080000008000000058
:401BC00004F0000000F00000400200002005A000D00100018001A00120000000100000004300232D302B2000686C4C006566674546470030313233343536373839414243D1
:401C00004445460030313233343536373839616263646566000000000000000000000810004002088C0200003C1C08108C4202082C0600004C490208140200000048E80123
:401C400000127A0000093D0000127A0000127A0008000000401F00000000A00F0000000000000000000000000000000000000000000000000000000000000000E01B081051
:401C8000000000000000000000000000000000000000000000000000000000000000000000000000000000000000000000000000000000000000000000000000AC4202082C
:401CC000B10208108D0208100000000080B2C10050B3164B1B681A6AB3F8B030C3EBC303D358002BF5DA3E22114B1A6041F61E7204331A60A3F584730622C3F8182521F082
:401D00007F41C3F81C15D3F81C35084B1A68116AB2F8B030C3EBC3030B4400225A60054BD3F81C35002BFADA704700BF584B02080401264000002640F8B5274B1B6893F8D6
:401D40003130052B04D840F2C311244800F07CFA214F3A68166AB2F8B03003EB83031E4452684FF26003D458A4B200F065FA05463B681968D3F890208A58013C032C27D8C6
:401D8000032A0CD1164A127812F0FF0F07D10822B2601968D3F890208A58032AF9D01968D3F884208B588858C0F307221B0E581C02FB00000B4B03FB00F00B4B1B680B4A9C
:401DC000A2FB03239B09B0FBF3F08230FFF77EFF284600F019FAF8BD584B02082C1908100B00001640420F0090420208D34D62104378FF2B23D110B500F01EFA0446104B2E
:401E00001B6893F83130042B04D840F2C3110D4800F01AFA0A4B1A68136AB2F8B02003EB8203DB685A68136843F001031360136813F0010FFBD1204600F0E6F910BD70474B
:401E4000584B02082C1908102DE9F04707468846554B1B6893F83130012B04D840F2C311524800F0F1F9504B1B681C6AB3F8B0201444D3F8B420161993F85030002B79D09B
:401E80004B4B1B7813F0FF0F02D04FF0000901E04FF00109B9F1000F38D0434B1B6893F83130052B04D840F2C311404800F0CCF93D4B1A68116AB2F8B03003EB83030B44C5
:401EC000D2F8B420D358002B22DB002000F0A4F9384B98421ED00023374A12690121184600F0A2F918B1354D17E0013500E00025002000F091F92F4B984202D0304B9D4238
:401F0000F3D92F4B9D4207D92C4D06E0002504E02A4D02E0294D00E00025002D41D100F08BF98246274BD3F81C35002B10DA224A0121204600F090F960B94046FFF7C6FE7C
:401F400057B13368002BFCDB00F04EF9054604E01A4D02E0194D00E01B4DB9F1000F05D00121002000F048F90028F9D1504600F04BF916E000F060F980460F4A01212046BC
:401F800000F06AF938B947B13368002BFCDB00F02BF9054602E0094D00E00B4D404600F033F92846BDE8F087584B02082C1908100B00001601018800E84A02080500520005
:401FC000EF4902000000264001005000F0B47F4B1A6855684FF0B0535B7813F0FF0F04D04FF0B0535B78DBB200E02123212B55D1116AB2F8B030C3EBC303CC18CB58002B66
:40200000F6DAE36843F00103E360146AB2F8B030C3EBC3031C44E36813F0020F2DD0E3689EB21368D2F884105958090A090401F47F01D2F88870DB591B0A41EA03633343F7
:40204000E3601168D2F884208B5823F47F4343F410638B505D4A13681C68D3F88810635823F47F4343F41063635013681A68D3F884105158D3F88830D358544B1A68116AAC
:40208000B2F8B030C3EBC3030B4400215960116AB2F8B030C3EBC3030B445B684B4B19680C68D1F894301C44494A136943F004031361012801D030BF07E020BF454B1B7867
:4020C00003B120BF0122434B1A70236803F00303022BE9D00A6AB1F8B030C3EBC303D018D358002BF6DA4FF0B0535B7813F0FF0F04D04FF0B0535B78DBB200E02123212B1D
:4021000030D1C36813F0020F1FD00C68D1F88410635823F47F42C3681B0C1B0203F47F4313436350294B19680C68D1F88800235823F47F420D6AB1F8B030C3EBC3032B44EB
:40214000DB681B0E42EA03232350204B1A68136AB2F8B020C2EBC2021344DA6822F00102DA6026E0D5F80C311BBB1B490E681B4BD3F818451A4A106841F61E770F60062165
:40218000C3F818153E2111604422C3F81C25134BD3F81C35002BFADA4FF0AA33C5F80C310D4B1E60A3F58473C3F8184503F582731860064B1A68116AB2F8B030C3EBC30348
:4021C0000B4400225A60F0BC704700BF584B020800ED00E0104B02080801264000002640040126400000000001B40248844601BC604700BFDD06081001B40248844601BC06
:40220000604700BF8909081001B40248844601BC604700BF630F081001B40248844601BC604700BF110A081001B40248844601BC604700BFE50B081001B40248844601BC7F
:40224000604700BF5B0F081001B40248844601BC604700BF810E081001B40248844601BC604700BF05080810000000000000000000000000000000000000000000000000D2
:40228000000000000000000000000000000000000000000000000000000000000000000000000000000000000000000000000000000000000000000000000000000000001E
:4022C00000000000000000000000000000000000000000000000000000000000000000000000000000000000000000000000000000000000000000000000000000000000DE
:40230000000000000000000000000000000000000000000000000000000000000000000000000000000000000000000000000000000000000000000000000000000000009D
:40234000000000000000000000000000000000000000000000000000000000000000000000000000000000000000000000000000000000000000000000000000000000005D
:40238000000000000000000000000000000000000000000000000000000000000000000000000000000000000000000000000000000000000000000000000000000000001D
:4023C00000000000000000000000000000000000000000000000000000000000000000000000000000000000000000000000000000000000000000000000000000000000DD
:0200000490303A
:02000000716D20
:0200000490501A
:0C0000000005E2F021002101E2FB926DFE
:00000001FF