:020000041008E2
:4000000000780408EB0208100D00000051030810510308105103081051030810000000000000000000000000000000004D0308104D030810000000004D0308104D030810DA
:400040004D0308104D0308104D0308104D0308104D0308104D0308104D0308104D0308104D0308104D0308104D0308104D0308104D0308104D0308104D0308104D03081000
:400080004D0308104D0308104D0308104D0308104D0308104D0308104D0308104D0308104D0308104D0308104D0308104D0308104D0308104D0308104D0308104D030810C0
:4000C0004D0308104D0308104D0308104D0308104D0308104D0308104D0308104D0308104D0308104D0308104D0308104D0308104D0308104D0308104D0308104D03081080
:400100004D0308104D0308104D0308104D0308104D0308104D0308104D0308104D0308104D0308104D0308104D0308104D0308104D0308104D0308104D0308104D0308103F
:400140004D0308104D0308104D0308104D0308104D0308104D0308104D0308104D0308104D0308104D0308104D0308104D0308104D0308104D0308104D0308104D030810FF
:400180004D0308104D0308104D0308104D0308104D0308104D0308104D0308104D0308104D0308104D0308104D0308104D0308104D0308104D0308104D0308104D030810BF
:4001C0004D0308104D0308104D0308104D0308104D0308104D0308104D0308104D0308104D0308104D0308104D0308104D0308104D0308104D0308104D0308104D0308107F
:400200004D0308104D0308104D0308104D0308104D0308104D0308104D0308104D0308104D0308104D0308104D0308104D0308104D0308104D0308104D0308104D0308103E
:400240004D0308104D0308104D0308104D0308104D0308104D0308104D0308104D0308104D0308104D0308104D0308104D0308104D0308104D0308104D0308104D030810FE
:400280004D0308104D0308104D03081010B5054C237833B9044B13B10448AFF300800123237010BD884F020800000000B0D50910084B10B51BB108490848AFF300800848EE
:4002C000036803B910BD074B002BFBD0BDE81040184700BF000000008C4F0208B0D5091050490208000000007047FFF7FDFF72B6104C114DAC4209DA21686268A368043B90
:40030000A2BFC858D050FAE70C34F3E70B490C4A00209142BCBF41F8040BFAE709480A490860BFF34F8F00F0A3F900F07DF900F01DF8FEE7B4D50910CCD50910884F02082B
:400340007C6A02080040020808ED00E0FEE7FEE700B504207146084202D0EFF3098001E0EFF30880043006F093FDFEE770B590B062B64FF4C8620021374807F0FBF9374BAC
:400380004BF68032114642F2107001F059F9344B186018B93349344806F0E4FD0024334B1C60204607F05CFA07F0ECF9234607E0A3F1F00292012E4921F8132001331BB28B
:4003C000B3F5F07FF4DB20BF2A4B1B78002BFAD02949254806F0C6FD264B1B7883B91F4B4BF68032114642F2107001F029F91C4B18600028F0D11B491B4806F0B3FDEBE7E1
:400400001A4B1B6801331D4C84FB0312DC17C4EBA20404EB840462009C1A194B1B689C42DAD004EB84035D010B4E73190C4A10680193A023009301230D4A002101F00CF95A
:40044000735D009303460F4A322103A807F0C2F9064B1C60C0E700BF0400020898510208B06602084C8508100000664048060208B4660208000002086C85081067666666BC
:40048000440602087C85081008B5012006F07AFC08BD00BF704700BF5C4AD2F8803303F00F0303F1D00152F8212002F00702032A04D0042A05D092B9554914E0554A11681F
:4004C00011E003F1C002514951F8222002F01F02112A06D0132A04D04FF4FA4103E04E4901E04FF400418BBB484BD3F8902502F00100D3F88825C2F30172D3F8883513F027
:40050000405F07D0414BD3F88835C3F30173012B02D102E0012300E0002303B108B9032A46D13A48D0F88025C2F31103D0F88425C2F30C02D0F88005C0F300600130B1FB1D
:40054000F2F202FB03F2B2FBF0F131E0012B2FD12E4BD3F8402602F00100D3F80026C2F30172D3F8003613F0405F07D0274BD3F80036C3F30173012B02D102E0012300E028
:40058000002303B108B9032A12D12048D0F8002602F07F02D0F80036C3F30423D0F80006C0F3044002FB01F2B2FBF3F2B2FBF0F1164BD3F88033C3F3011321FA03F2154903
:4005C0004A601648D0F89030C3F3072301330069000E0130B2FBF0F08860B2FBF3F3CB600B6103F5742202F23F220D48A0FB0202C2F387420A7503F2E7330A4AA2FB032316
:400600009B098B61DB03CB61704700BF0000264000127A008C42020800366E010000214083DE1B43D34D621008B50D4806F094FCFFF730FFFFF730FF00221146042006F014
:4006400069F9084806F0FCF9074B1B6893F8513013B1064806F064FA06F0A6F808BD00BFB8D40910A44F0208746A02088885081008B506F06AFC074AD2F8883043F4700339
:40068000C2F88830BFF34F8FBFF36F8F06F061FC08BD00BF00ED00E02DE9F04194B007460D4690461E461A9C4022002104A807F061F83D230493952305934B220692079364
:4006C00051230C936FF000430D9364220E920F93012F40F2BB80022D40F2BA80042D00F2B980B91EEB1E03EB810214A800EBC20252F8402C424500F3AF8003EB810300EBD1
:40070000C30353F83C3C984500F3A880022F02D14FF0030C01E04FF0040C4FF0000E6BE0002214AB03EB8E0343F8502C032D2CD134F9081C34F9063C0B44591034F9040C25
:4007400034F9023C1844401017461BE0B4F90030B4F902201A44521002EB4203A3EB80030B4443F3CF0303FB03F314A901EB8E0858F8501C01EB631348F8503C0137043477
:4007800001461046272FE1DD34E034F90C1C34F90A3C0B4434F9081C0B44991034F9060C34F9043C034434F9020C1844801000271EE0B4F90030B4F902201A44B4F90430EA
:4007C0001A44921002EB4203A3EB80030B4443F3CF0303FB03F314A901EB8E0858F8501C01EB631348F8503C0137063401461046272FDEDD0EF1010EE64591DB00210C460A
:4008000013E03368726892109342B8BF134614AA02EB810252F8502C3260736003EB2313B3EBE20F00DA4C1C01316145E9DBB2684FEA6C0301339A4203DA002C03DD012043
:4008400002E0012000E00020B46008E0002006E0002004E0002002E0002000E0002014B0BDE8F0814368002001E05B080130002BFBD1704710B50446FFF7F4FFC0F11A00C2
:40088000A2682369002AA8BF013300EBC30010BD38B502460430536B14780CB9042100E000210B44116B0CB9032400E000240C1BA34201D91B1B00E01B1BDC00156A536ABF
:4008C0001D44FFF7D7FF2844201A38BDF8B504460D46FFF7C7FFC0F119066FF07F4131412768CB1962683A445FEA136E14BF4FF0010C4FF0000C5FEA126E14BF4FF0010EF0
:400900004FF0000E23EA010323F07F43F44513D122F07F4201EB030E724507D8C0F11A0649087B1823EA010323F07F43E268BB4238BF42F00102E260236032E02368B3F5E9
:400940007F0F01D3E3681BB3A368002B18DBE2681344AA6869688A4212D2511CA96013700EE0E3680BB1002100E0FF21AB686A68934202D25A1CAA6019702369013B2361AD
:400980002369002BEDDC6388A3600023E36002E023690133236123681B0223F07F432360083E082ECADC2368B3F57F0F01D3E3681BB3A368002B18DBE2681344AA686968C0
:4009C0008A4212D2511CA96013700EE0E3680BB1002100E0FF21AB686A68934202D25A1CAA6019702369013B23612369002BEDDC6388A3600023E36002E02369013323615B
:400A000023681B0223F07F432360A268C6F1080142FA01F32069D0B1AB68686883420ED2581CA8601A700AE0AB686A68934203D25A1CAA60FF221A702369013B23612369A8
:400A4000012BF1DC072E01DC002300E0FF23A8686A6890420AD2FF2242FA06F6027832400270AA688B4011780B431370F8BD00BF2DE9F041044616460F4611B94FF02008E1
:400A800001E04FF00008F51838220021204606F071FE27706FF07F43A3604FF0FF33E360C4F82080A662E56226636563002F4BD104F11C0204F12800AE4203D2731C2363FB
:400AC000337800E000231B046360216B8D4203D94E1C2663097800E0002143EA01236360216B8D4203D94D1C2563097800E000210B436360C368A16A591A5568EB109942AF
:400B0000A8BF1946A5EBC10555600CE013681B0A1360C3685D1EC56013F8015C136843EA0563136001390029F0D1516807290BDD93680B44202BA8BF20239360E36923FA9F
:400B400001F1E16100235360BDE8F08108B5FFF79FFE002800DC002008BD00BFF0B500F11C05036AC3F1200E9645A8BF9646BEF1000F06D001FA03F3C4692343C3612023BA
:400B8000036200F12806F368B4681C1B24EAE4746F68FB109C42A8BF1C46A7EBC4076F6009E0F3685F1EF7602F6803F8017C2B681B0A2B60013C002CF3D16B68072B01DD6E
:400BC00000236B6021FA0EF1C161CEEB02020262F0BD00BF2DE9F0418046071D00F11C0500F12806436B046B1C1B036AC3EBC40410E02246202CA8BF2022D8F820301344E1
:400C0000202B02DCC8F8203003E000214046FFF7A5FF203C002CECDCF368B2689A1A22EAE2726968CB109A42A8BF1A46A1EBC201696009E0F368591EF160296803F8011C62
:400C40002B681B0A2B60013A002AF3D16B68072B01DD00236B6031463846FFF737FEBDE8F08100BF30B4031D36E000F128011A68B2F57F0F01D3DA681AB39A68002A18DB55
:400C8000DC6822448C684D68AC4212D2651C8D6022700EE0DA680AB1002500E0FF258A684C68A24202D2541C8C6015701A69013A1A611A69002AEDDC5A889A600022DA60D5
:400CC00002E01A6901321A611A68120222F07F421A608268120282608268B2F5803FC4D330BC70472DE9F04184B00F46002972D01446042971D83C4B53F8202001F18053B2
:400D0000013B02EB031C0025AE462AE00CEB85021CF9253092F90110CE1A04EB8302D2ED007A013306E004EB830292ED007A77EE877A01338B42F6DB0DB9142300E00A2366
:400D400006FB03F607EE106AB8EEC77AF4EEC77AF1EE10FA03DB05F1010E5FFA8EFE0135EDB2BD42D2D3BE452CBF012500252FD21CF92E601C4A0EEB800302EB8303D3F8D9
:400D800010C002F150030FCB0DF1100808E90F0008EB8E0353ED046ACCEB0603013313E0CCEB030204EB820292ED007A04EB8302D2ED007A66EEA77AB4EEE77AF1EE10FADE
:400DC000CCBF01250025013315B9721C9342E7DD2DB1704604E0084602E0084600E0384604B0BDE8F08100BFBC85081004280BD8012894BF00230123002818BF013303288E
:400E000094BF1846581C70470020704738B5054614460846FFF7EAFF021E0DDD296A8B18202B05DC8C40EA691443EC612B6238BD21462846FFF792FE38BD00BFF0B587B0A4
:400E4000864614461D46C0EBC00319442B4B53F821602B4B53F82170002300930193294B0FCB0DF1180C0CE90F000CEB8E0E5EF8103CC3EB060E3B6800202CE0421C57F859
:400E80002210CA1A06EE902A04EB830292ED007A27EE077A013308E004EB8302D2ED007A67EEA77A37EE277A01338B42F4DBF8EEE66A87EE266AA5EC016A7045B4BF002215
:400EC000012206A901EB820252ED067A77EE867A42ED067A0130B042D0DBB3EE0E7ADDED007A67EE877A9DED017AB4EEE77AF1EE10FACCBF0120002007B0F0BD0CD808102F
:400F00008C4302081C87081040F6C41398420ED041F2883398420CD019B941F64C53984209D042F21073984207D1032070470020704701207047022070470420704700BFF4
:400F40000B4611B9B0F5FA5F1CD013B9B0F57A5F1AD01BB945F6C052904217D013B9B0F5FA4F15D01BB94BF68032904212D01BB14BF6803290420FD083B10A4B98420FD092
:400F800007207047002070470120704702207047032070470420704705207047072070470620704700770100F0B50378857800F2AC44D0F8A0644FEA460ED0F8A474BF0010
:400FC0000E4850F8256003FB0666002312E00EEB4300B1F90050255207EB83002044B1F9005007EE905AF8EEE77AC0ED007A013301EB4201B342EADBF0BD00BFE0D0091030
:40100000F0B50378847800F2AC45D0F8A0644FEA460ED0F8A474BF00104850F8246003FB0666002016E00EEB40030C682412EC5207EB80042C44D1ED007AF8EEE77A17EE87
:40104000903A13F0FF4F01D003F17C432360013001EB8201B042E6DBF0BD00BFE0D00910F0B50378847800F2AC45D0F8A0644FEA460ED0F8A474BF00154850F8246003FBA8
:401080000666002020E00C784B781B0443EA04238C7843EA04630EEB40044FEA234C25F804C007EB80042C4407EE903AF8EEE77A17EE903A13F0FF4F01D003F1784323607D
:4010C000013002EB42031944B042DCDBF0BD00BFE0D00910F0B50378847800F2AC4CD0F8A0544FEA450ED0F8A4740CEB8707164850F8246003FB0666002022E0044607EBAD
:4011000080050B6813F0FF4F01D003F1F06307EE903A2B600EEB4404FDEEE77A17EE903A47F6FE75AB4205DC084DAB42B8BF2B461BB201E047F6FF732CF80430013001EB2E
:401140008201B042DADBF0BDE0D009100080FFFF70B40678847800F1B803D0F8AC5003EB8505194B53F8244006FB044428E0D5ED007AF5EEC07AF1EE10FA08DBB6EE007A24
:4011800077EE877AFDEEE77A17EE903A07E0B6EE007A77EEC77AFDEEE77A17EE903A47F6FE70834205DC09488342B8BF03461BB201E047F6FF730B80013C043501EB420134
:4011C000002CD4DC70BC7047E0D009100080FFFF70B40578867800F1B803D0F8AC4003EB8404214B53F8260005FB000037E0D4ED007AF5EEC07AF1EE10FA11DB17EE903A84
:4012000013F0FF4F01D003F1806307EE903AB6EE007A77EE877AFDEEE77A17EE903A10E017EE903A13F0FF4F01D003F1806307EE903AB6EE007A77EEC77AFDEEE77A17EECB
:40124000903A0A4DAB4204DC094DAB42B8BF2B4600E0084B0B600138043401EB82010028C5DC70BC704700BFE0D00910FEFF7F00000080FFFFFF7F0030B40378847800F1DF
:40128000B805D0F8AC0005EB8005234850F8244003FB04443CE0D5ED007AF5EEC07AF1EE10FA11DB17EE903A13F0FF4F01D003F1806307EE903AB6EE007A77EE877AFDEEEB
:4012C000E77A17EE903A10E017EE903A13F0FF4F01D003F1806307EE903AB6EE007A77EEC77AFDEEE77A17EE903A0C48834204DC0B488342B8BF034600E00A4B0B701812BD
:4013000048701B148B70013C043502EB42031944002CC0DC30BC7047E0D00910FEFF7F00000080FFFFFF7F002DE9F04FCBB004468E460891174605784378059390F802A03C
:4013400000F2AC43D0F8A02403EB4208D0F8A46403EB8606394A52F82A1005FB011B4FEA6109D0F8A82403EB82000690CDF80080231D724651462846FFF78EF907903A1D71
:4013800009920092434604F110025146284601F02FFD78704FEA4900C9EB0B01024608EB4101C0EB080006F0CAF90196069800903346DDF8148042465146284602F050FBCA
:4013C0000AAB324641462846FFF738FD804610B1099801F091FE0AAADDF814B059462846FFF780FC3B4603F80C0B039602960193079B00930AABDDF820A0524659462846B0
:4014000003F0BAFA07F1280939780196CDF8009053464246284604F0D7FF7B7878370397029604F593640194CDF8009052465946284604F061FB4BB0BDE8F08FE0D009105B
:401440002DE9F04792B00C4691461A4690F80080467800F2AC43D0F8A47403EB87070D4615F878AB4B46012104A8FFF701FB5246314604A8FFF7CAFC2B463246414604A8EA
:4014800004F0DCFB04F1280104A805F051F861780C9A531C202B05DC91400B9A11430B910C9303E0012204A8FFF758FB04F10C0104A803F0ADFA63781BB1211D04A801F075
:4014C00025FE02970195CDF8009053463246414604A804F0EFFB04A8FFF77CFB12B0BDE8F08700BFF8B50E4617460378817800F1B802D0F8AC5002EB85050D4A52F82140B3
:4015000003FB044411E0286810F0FF4F01D0A0F1F060084906F068FE4FF07E5106F082FE3060013C043506EB8706002CEBDCF8BDE0D00910000080BF2DE9F04F83B00546AC
:401540008A4616460C9C1F1E00DC174629465046FFF7DAFC834629463046FFF7F1FC064629463846FFF7ECFC8046BBF1030F59D8062859D80196864258D8002C58D02E4B38
:4015800053F820600BFB0669761006EB090505EBD5756D10A9444FF496620021204606F0E9F884F800B09DF80430637084F80280C4F8A064C4F8A454C4F8A89404F2AC4015
:4015C0000AFB07F51D4E86FB0532ED17C5EBA24E40F2E24101FB07F186FB0163C917C1EBA3410EEB010303EBD3730EEB6303C5EBE24541F64C52924502D14FF4FA6101E020
:4016000040F2E24101FB07F70C4A82FB0712FF17C7EBA247EA191A449200002106F0AAF8204606E0002004E0002002E0002000E0002003B0BDE8F08FE0D0091083DE1B4341
:4016400000B583B0009313460A4601460020FFF773FF03B05DF804FBF0B5A3B0289D90B3044607784078042807D9461F06EB4706DFF868E05EF8366000E01426B54225DB24
:40168000042807D9053800EB4700144E06EBC000406801E04FF4C87085421ADC1046104A52F821601A4601462046B04701AA29462046FFF739FE299B2A4601A92046FFF775
:4016C000BFFE002007E04FF0FF3004E04FF0FF3001E04FF0FF3023B0F0BD00BF68D009102C8708102DE9F04F83B001919E466FF0110C002199E0514B0B4003D5013B63F05A
:401700000703013303EB83035C004D4B03EB44080F46002900DACF1DFF100CEB4707019B1F444FF000094D4640E0B7F90030B8F9004004FB0355B7F90230B8F9024004FB3B
:401740000355B7F90430B8F9044004FB0355B7F90630B8F9064004FB0354B7F90830B8F9085005FB0344B7F90A30B8F90A5005FB0344B7F90C30B8F90C5005FB0344B7F94A
:401780000E30B8F90E5005FB0345B7F91030B8F9104004FB0354B7F91230B8F9125005FB034509F10A09143708F11408B9F1090FBBDDD0E90089EF17224BA5FB03AB03FB38
:4017C00007BB18EB0A0849EB0B094FEA987343EA8903D0E902891C4C6E4204FB0766A5FB0445354418EB040849EB0509DF17174EA3FB064506FB075514EB080445EB090568
:40180000C0E90045124C5E4204FB0766A3FB0445354414EB0A0445EB0B05C0E9024503F500431B141380053102320EEB8E039942FFF661AF03B0BDE8F08F00BF07000080C5
:401840004C870810C61BE63E72C83382DB5DC77DBFEE2EC22DE9F04F83B001919E466FF0ED0C0021B5E05F4B0B4003D5013B63F001030133C3EB0313DC005B4B03EB440850
:4018800001EBD17727F001076744019B1F444FF000094D465EE0B7F90030B8F9004004FB0355B7F90230B8F9024004FB0355B7F90430B8F9044004FB0355B7F90630B8F9F7
:4018C000064004FB0354B7F90830B8F9085005FB0344B7F90A30B8F90A5005FB0344B7F90C30B8F90C5005FB0344B7F90E30B8F90E5005FB0344B7F91030B8F9105005FB53
:401900000344B7F91230B8F9125005FB0344B7F91430B8F9145005FB0344B7F91630B8F9165005FB0344B7F91830B8F9185005FB0345B7F91A30B8F91A4004FB0354B7F90C
:401940001C30B8F91C5005FB034509F10F091E3708F11E08B9F1770F9DDDD0E90089EF17224BA5FB03AB03FB07BB18EB0A0849EB0B094FEA987343EA8903D0E902891C4CBD
:401980006E4204FB0766A5FB0445354418EB040849EB0509DF17174EA3FB064506FB075514EB080445EB0905C0E90045124C5E4204FB0766A3FB0445354414EB0A0445EB79
:4019C0000B05C0E9024503F500431B1413800F310232CEEB0E139942FFF645AF03B0BDE8F08F00BF01000080EC870810C61BE63E72C83382DB5DC77DBFEE2EC270B401EB19
:401A0000420202381AE0B0F9004030F9025CB0F902302B444FF4715606FB03F344F62D0505FB043530F9043C30F9044F1C4441F6A97303FB04531B140B8002319142E2D36C
:401A400070BC70472DE9F04F099C03EB84082DE003F1040CA1F1020E81464FF0000A0026002712E0B9F900B0B1F9004004FB0BF4361947EBE4770135023109F1020900E099
:401A800000250F2DEEDD0AF1010ABAEB221FF7DB203647F10007B10941EA876107EE901AF8EEE77AC3ED007A634671464345CFD3BDE8F08F30B403681360012300250EE023
:401AC00092ED007A00EB8304D4ED007AB4EEE77AF1EE10FA02D5C2ED007A1D4601338B42EEDB284630BC704730B490ED006A82ED006AF7EE007A70EE277A0123002512E0D9
:401B000000EB8304D4ED006A27EEA67AB4EEC76AF1EE10FA04D5C2ED006AB0EE476A1D46013377EE807A8B42EADB284630BC70472DE9F041324C04EBC20230F904EC30F983
:401B400002CC841CB0F9007003EB410153E0B4F90080B2F90000B2F9025007FB05F508FB0055B2F904000CFB0055B2F9060000FB0E5E4FEAEE3EA3F800E0B4F902E0B2F915
:401B80000000B2F9026008FB06F60EFB0066B2F9040007FB0066B2F906000CFB0066F6135E80B4F904C0B2F90000B2F902500EFB05F50CFB0055B2F9040008FB0055B2F964
:401BC000066007FB0655ED139D80B4F90670B2F90050B2F902000CFB00F005FB0700B2F904500EFB0500B2F9065008FB0500C013D880083308348B42A9D3BDE8F08100BF66
:401C0000CC8908100B1D2C4A1A4003D5013A62F003020132294B03EB4213002907DA50ED047A93ED000A27EE800A04330AE0002906DDD0ED047A93ED070A27EE800A01E084
:401C40009FED1F0A50ED037A93ED007A27EE877A50ED027AD3ED015A67EEA55A77EE257A10ED017A93ED026A27EE066A77EE865AD0ED007AD3ED036A67EEA66A35EEA66A8F
:401C8000D0ED017A93ED047A27EE877A76EE076AD0ED027A93ED057A67EE877A36EEA77AD0ED037AD3ED066A67EEA67A77EE277A30EE270A704700BF03000080EC89081076
:401CC000000000002DE9F0432DED028B95B01E46941E6400202CB8BF202402325200E42AD4BFC4EB0202C4F1E402571C65426B0003F108050932009203AB0A464119FFF718
:401D0000A1FE02AA394607A8FFF7D4FE2518043C2C1B03AB03EB840700213846FFF772FFB0EE408A01244FF0000825E07E2D06DD04F001039C2DC8BF43F00103DBB9214690
:401D40003846FFF75FFFB4EEC08AF1EE10FA02D5B0EE408AA046202D0DDDC4F1000949463846FFF74FFFB4EEC08AF1EE10FA02D5B0EE408AC8460134032CD7DDA5EBD8753A
:401D8000B8F1000F01DA042300E00023984408EB850030607E2D01DC80380AE09C2D06DC4FEA680808EB450505F17E0001E005F21B1015B0BDEC028BBDE8F0832DE9F043F4
:401DC00099B08146209DDDF884E0229C239F002F02DCF7EE005A01E0DFED6A5AFE0F002FD4BF7642C6F1010607EE906AF8EEE77A07EE10EAB8EEC77A87EE875A161DC9EB12
:401E00000502B6EBA20F03DD8E1B05EB860601E0A5EB860601F18041013909EB810100273FE04FF0000C18AA02EB870242F860CC96ED006A03F1040CD3ED006AB14201D9CD
:401E4000043600E04E46002310E0FA1A04EB8308D8ED007A26EE277A18A800EB820252ED187A77EEC77A42ED187A01339F42ECDA002312E0FA1A03F1080804EB8808D8ED6C
:401E8000007A26EEA77A18A800EB820252ED187A77EE877A42ED187A01339F42EADA01376346062FBDDD00230793002764E096ED006AD5ED006AB14201D9043600E04E4607
:401EC0004FF0000C1AE0D31DCCEB03032E48034003D5013B63F00703013304EB8C08D8ED007A26EE277A18A800EB830353ED187A77EEC77A43ED187A0CF1010CBCF1070FE3
:401F0000E1DD4FF0000C1CE0D31DCCEB03031E48034003D5013B63F0070301330CF1080804EB8808D8ED007A26EEA77A18A800EB830353ED187A77EE877A43ED187A0CF179
:401F4000010CBCF1070FDFDD18AB03EB820353ED187A67EEA57A76EEE76AC5ED006A4FF0000C43F860CC013275EE855A043500E00022072A9BDD0837BE45F9DC19B0BDE8F8
:401F8000F08300BF00000000070000802DE9F04F2DED028BE9B080460C4616460293D0F884341F1F27EAE7771D1D612DD4BFC7EB0505C7F1610501354FF06209CDF8009033
:401FC00004AB22392046FFF73DFD67AA9FED8D0A494604A8FFF788FD8146039066AA294604AB03EB8700FFF765FD074409F11102A4EB420207F11105A4EB45059DED678A75
:40200000B5EEC08AF1EE10FA65D9A146A4464FF0000A0020002116E0BCF900E0B9F9003003FB0EF3C01841EBE3710BF1010B09F102090CF1020C01E04FF0000BBBF10F0F60
:40204000EADD0AF1010A4FEA261EF245F4DB203041F10001830943EA816307EE903AF8EEE77A92464FF0000B0020002115E0B2F900C0BAF9003003FB0CF3C01841EBE371EF
:4020800009F101090AF1020A023201E04FF00009B9F10F0FEBDD0BF1010BF345F6DB203041F10001830943EA816307EE103AB8EEC77A27EE276AF1EEC66AF4EE666AF1EE8B
:4020C00010FA05D016EE100A06F032F906EE900AC8EE268A01E0DFED4C8A9DED668AB5EEC08AF1EE10FA5ED920464FF0000C0022002314E0B4F90090B0F9001001FB09F1EE
:40210000521843EBE1730EF1010E0230023401E04FF0000EBEF10F0FECDD0CF1010C4FEA261EF445F4DB203243F10003920942EA836207EE902AF8EEE77A2E464FF0000C00
:402140000020002111E0B5F90040B6F9003003FB04F3C01841EBE37101320236023500E000220F2AEFDD0CF1010CF445F8DB203041F10001830943EA816307EE103AB8EE4F
:40218000C77A27EE276AF1EEC66AF4EE666AF1EE10FA05D016EE100A06F0CAF806EE900A88EE267A01E09FED187ADFED187A68EEA77AB4EEE77AF1EE10FA00D8039FC8F845
:4021C00084741137029B1F60B4EEE77AF1EE10FA09D8DFED0F7AF4EEE78AF1EE10FACCBF0120002008E0DFED0A7AB4EEE77AF1EE10FACCBF0120002069B0BDEC028BBDE875
:40220000F08F00BF3FE8A8BB000000009A99593F9A99193F2DE9F04F83B001919E466FF0250C002199E0514B0B4003D5013B63F00303013303EB83039C004D4B03EB4408EE
:402240000F46002900DACF1CBF100CEB4707019B1F444FF000094D4640E0B7F90030B8F9004004FB0355B7F90230B8F9024004FB0355B7F90430B8F9044004FB0355B7F9D9
:402280000630B8F9064004FB0354B7F90830B8F9085005FB0344B7F90A30B8F90A5005FB0344B7F90C30B8F90C5005FB0344B7F90E30B8F90E5005FB0345B7F91030B8F901
:4022C000104004FB0354B7F91230B8F9125005FB034509F10A09143708F11408B9F1130FBBDDD0E90089EF17224BA5FB03AB03FB07BB18EB0A0849EB0B094FEA987343EA89
:402300008903D0E902891C4C6E4204FB0766A5FB0445354418EB040849EB0509DF17174EA3FB064506FB075514EB080445EB0905C0E90045124C5E4204FB0766A3FB04456D
:40234000354414EB0A0445EB0B05C0E9024503F500431B141380053102320EEB8E039942FFF661AF03B0BDE8F08F00BF030000806C8A0810C61BE63E72C83382DB5DC77D3F
:40238000BFEE2EC22DE9F04F83B001919E466FF04D0C002197E0504B0B4003D5013B63F00103013303EB8303DC004C4B03EB440801EBD17727F001076744019B1F444FF050
:4023C00000094D4640E0B7F90030B8F9004004FB0355B7F90230B8F9024004FB0355B7F90430B8F9044004FB0355B7F90630B8F9064004FB0354B7F90830B8F9085005FB79
:402400000344B7F90A30B8F90A5005FB0344B7F90C30B8F90C5005FB0344B7F90E30B8F90E5005FB0345B7F91030B8F9104004FB0354B7F91230B8F9125005FB034509F106
:402440000A09143708F11408B9F1270FBBDDD0E90089EF17224BA5FB03AB03FB07BB18EB0A0849EB0B094FEA987343EA8903D0E902891C4C6E4204FB0766A5FB044535442A
:4024800018EB040849EB0509DF17174EA3FB064506FB075514EB080445EB0905C0E90045124C5E4204FB0766A3FB0445354414EB0A0445EB0B05C0E9024503F500431B1482
:4024C0001380053102320EEB8E039942FFF663AF03B0BDE8F08F00BF010000800C8B0810C61BE63E72C83382DB5DC77DBFEE2EC22DE9F04F83B001919E466FF0390C0021DD
:40250000B7E0604B0B4003D5013B63F007030133C3EB03135C005C4B03EB44080F46002900DACF1DFF100CEB4707019B1F444FF000094D465EE0B7F90030B8F9004004FBE8
:402540000355B7F90230B8F9024004FB0355B7F90430B8F9044004FB0355B7F90630B8F9064004FB0354B7F90830B8F9085005FB0344B7F90A30B8F90A5005FB0344B7F950
:402580000C30B8F90C5005FB0344B7F90E30B8F90E5005FB0344B7F91030B8F9105005FB0344B7F91230B8F9125005FB0344B7F91430B8F9145005FB0344B7F91630B8F9BC
:4025C000165005FB0344B7F91830B8F9185005FB0345B7F91A30B8F91A4004FB0354B7F91C30B8F91C5005FB034509F10F091E3708F11E08B9F11D0F9DDDD0E90089EF17FB
:40260000224BA5FB03AB03FB07BB18EB0A0849EB0B094FEA987343EA8903D0E902891C4C6E4204FB0766A5FB0445354418EB040849EB0509DF17174EA3FB064506FB0755A9
:4026400014EB080445EB0905C0E90045124C5E4204FB0766A3FB0445354414EB0A0445EB0B05C0E9024503F500431B1413800F310232CEEB0E139942FFF643AF03B0BDE8B7
:40268000F08F00BF07000080AC8B0810C61BE63E72C83382DB5DC77DBFEE2EC22DE9F04F83B001919E466FF0750C0021B7E0604B0B4003D5013B63F003030133C3EB031308
:4026C0009C005C4B03EB44080F46002900DACF1CBF100CEB4707019B1F444FF000094D465EE0B7F90030B8F9004004FB0355B7F90230B8F9024004FB0355B7F90430B8F905
:40270000044004FB0355B7F90630B8F9064004FB0354B7F90830B8F9085005FB0344B7F90A30B8F90A5005FB0344B7F90C30B8F90C5005FB0344B7F90E30B8F90E5005FB1A
:402740000344B7F91030B8F9105005FB0344B7F91230B8F9125005FB0344B7F91430B8F9145005FB0344B7F91630B8F9165005FB0344B7F91830B8F9185005FB0345B7F9D1
:402780001A30B8F91A4004FB0354B7F91C30B8F91C5005FB034509F10F091E3708F11E08B9F13B0F9DDDD0E90089EF17224BA5FB03AB03FB07BB18EB0A0849EB0B094FEAC0
:4027C000987343EA8903D0E902891C4C6E4204FB0766A5FB0445354418EB040849EB0509DF17174EA3FB064506FB075514EB080445EB0905C0E90045124C5E4204FB076658
:40280000A3FB0445354414EB0A0445EB0B05C0E9024503F500431B1413800F310232CEEB0E139942FFF643AF03B0BDE8F08F00BF030000808C8D0810C61BE63E72C83382B0
:40284000DB5DC77DBFEE2EC22DE9F04399B0209DDDF884E0229C239F002F02DCF7EE005A01E0DFED735AFE0F002FD4BF7642C6F1010607EE906AF8EEE77A07EE10EAB8EE61
:40288000C77A87EE875A961D2A1AB6EBA20F03DD8E1B05EB860601E0A5EB860601F18041013900EB8101002741E04FF0000C18AA02EB870242F860CC96ED006A03F1040CBA
:4028C000D3ED006AB14201D9043600E00646002311E0FA1A04EB8308D8ED007A26EE277A0DF1600808EB820252ED187A77EEC77A42ED187A01339F42EBDA002313E0FA1ACC
:4029000003F10C0804EB8808D8ED007A26EEA77A0DF1600808EB820252ED187A77EE877A42ED187A01339F42E9DA013763460A2FBBDD00230B93002774E096ED006AD5ED52
:40294000006AB14201D9043600E006464FF0000822E002F10B0CC8EB0C0C364B83FB0C394FEAEC73C3EB690303EB43034FEA8309C9EB0C0304EB880CDCED007A26EE277A6F
:402980000DF1600C0CEB830353ED187A77EEC77A43ED187A08F10108B8F10B0FD9DD4FF0000824E002F10B0CC8EB0C0C214B83FB0C394FEAEC73C3EB690303EB43034FEA0D
:4029C0008309C9EB0C0308F10C0C04EB8C0CDCED007A26EEA77A0DF1600C0CEB830353ED187A77EE877A43ED187A08F10108B8F10B0FD7DD18AB03EB820353ED187A67EEC1
:402A0000A57A76EEE76AC5ED006A4FF0000C43F860CC013275EE855A043500E000220B2A8BDD0C37BE45F9DC19B0BDE8F08300BF00000000ABAAAA2A2DE9F04399B081466A
:402A4000209DDDF884E0229C239F002F02DCF7EE005A01E0DFED6A5AFE0F002FD4BF7642C6F1010607EE906AF8EEE77A07EE10EAB8EEC77A87EE875A961CC9EB0502B6EB6E
:402A8000A20F03DD8E1B05EB860601E0A5EB860601F18041013909EB810100273FE04FF0000C18AA02EB870242F860CC96ED006A03F1040CD3ED006AB14201D9043600E0CF
:402AC0004E46002310E0FA1A04EB8308D8ED007A26EE277A18A800EB820252ED187A77EEC77A42ED187A01339F42ECDA002312E0FA1A03F1040804EB8808D8ED007A26EE70
:402B0000A77A18A800EB820252ED187A77EE877A42ED187A01339F42EADA01376346022FBDDD00230393002764E096ED006AD5ED006AB14201D9043600E04E464FF0000CC5
:402B40001AE0D31CCCEB03032E48034003D5013B63F00303013304EB8C08D8ED007A26EE277A18A800EB830353ED187A77EEC77A43ED187A0CF1010CBCF1030FE1DD4FF0AD
:402B8000000C1CE0D31CCCEB03031E48034003D5013B63F0030301330CF1040804EB8808D8ED007A26EEA77A18A800EB830353ED187A77EE877A43ED187A0CF1010CBCF139
:402BC000030FDFDD18AB03EB820353ED187A67EEA57A76EEE76AC5ED006A4FF0000C43F860CC013275EE855A043500E00022032A9BDD0437BE45F9DC19B0BDE8F08300BF00
:402C000000000000030000802DE9F04399B0209DDDF884E0229C239F002F02DCF7EE005A01E0DFED715AFE0F002FD4BF7642C6F1010607EE906AF8EEE77A07EE10EAB8EE35
:402C4000C77A87EE875AD61C2A1AB6EBA20F03DD8E1B05EB860601E0A5EB860601F18041013900EB8101002741E04FF0000C18AA02EB870242F860CC96ED006A03F1040CB7
:402C8000D3ED006AB14201D9043600E00646002311E0FA1A04EB8308D8ED007A26EE277A0DF1600808EB820252ED187A77EEC77A42ED187A01339F42EBDA002313E0FA1A08
:402CC00003F1060804EB8808D8ED007A26EEA77A0DF1600808EB820252ED187A77EE877A42ED187A01339F42E9DA01376346042FBBDD00230593002770E096ED006AD5EDA5
:402D0000006AB14201D9043600E006464FF0000C20E002F10508CCEB0808344B83FB0893A3EBE87303EB43034FEA4309C9EB080304EB8C08D8ED007A26EE277A0DF160080E
:402D400008EB830353ED187A77EEC77A43ED187A0CF1010CBCF1050FDBDD4FF0000C22E002F10508CCEB0808204B83FB0893A3EBE87303EB43034FEA4309C9EB08030CF127
:402D8000060804EB8808D8ED007A26EEA77A0DF1600808EB830353ED187A77EE877A43ED187A0CF1010CBCF1050FD9DD18AB03EB820353ED187A67EEA57A76EEE76AC5EDD5
:402DC000006A4FF0000C43F860CC013275EE855A043500E00022052A8FDD0637BE45F9DC19B0BDE8F08300BF00000000ABAAAA2A2DE9F04F2DED028BADF5057D83468846D7
:402E0000019114461F4600F1010A4FEA4A1602F120094FEA8A1AC6F5C0756D002A4609EB0A01484604F08BFC4D44AD4B03EB8803D3F8208833462A46394604F11000C047F5
:402E4000BBF1020F02D16FF0570901E06FF02F0905EB09030093771004F548784FEA4709C7F1B2056D002A4608EB0901404604F066FC45443A462946DDF800804046FEF7C6
:402E8000BDFDBBF1000F06D1CAEB08030093C9EB050576004F460023829383AB3A4629462046FFF773F80546002800F09F8082AB839A3146009F3846FEF704FF909B586053
:402EC00002AB002231463846FEF732FE829A901042AB02F003023146A7EB4000FEF728FE4FF0000C0022002342AF02A814E0B0F90080B7F9001001FB08F1521843EBE173FC
:402F00000EF1010E0237023001E04FF0000EBEF10F0FECDD0CF1010C4FEA261EF445F4DB203243F10003920942EA836207EE902AB8EEE78A4FF0000C0022002302AE37460D
:402F400011E0B7F90080B6F9001001FB08F1521843EBE17301300236023700E000200F28EFDD0CF1010CF445F8DB203243F10003920942EA836207EE902AF8EEE77A4FF06B
:402F8000000C0020002142AE374611E0B7F90080B6F9003003FB08F3C01841EBE37101320236023700E000220F2AEFDD0CF1010CF445F8DB203041F10001830943EA816325
:402FC00007EE103AB8EEC77A27EE276AF1EEC66AF4EE666AF1EE10FA05D016EE100A05F0A7F906EE900AC8EE267A01E0DFED3D7A2378D3B36168829A0B469142A8BF1346A1
:403000009142ACBFC3EB0103C3EB020394ED027A37EEC77A019A042A19D8D5B1DFED326AF4EEE67AF1EE10FA15DCDFED306AF4EEE67AF1EE10FA10DD072B10DCDFED2C6AC8
:40304000B4EEE67AF1EE10FA0BDC00230AE0002308E0002306E0012304E0002302E0002300E00123909A13702AE0019B042B1CD8EDB1BBF1030F08D0D4ED036A9FED1D7A2E
:40308000F4EEC76AF1EE10FA13DDD4ED026A9FED197AF4EEC76AF1EE10FA0CDDF4EEC77AF1EE10FA09DC002308E0002306E0002304E0002302E0002300E00123909A13700E
:4030C000909B1B782370829B6360A368E360C4ED027A28460DF5057DBDEC028BBDE8F08F4C870810000000006666663F3D0A573FCDCCCCBDD7A3703F00230370704700BF48
:4031000000EB80004300581C704700BF38B504460D460978026A531C202B05DC9140C2691143C161036202E00122FDF717FD6968226A02F10903202B05DC9140E269114309
:40314000E161236238BD09222046FDF707FD38BD2DE9F04F2DED048B89B0069307928C4A82FB0142C917C1EB620203920021D8E000EBC205D5ED006A00EB421494ED007A9E
:4031800036EE878A95ED015AD4ED017A75EE279A36EEC72A35EE675A00EB0215D5ED002A02EB4206F4000444D4ED007A32EEA70AD5ED016A94ED017A76EE873A72EEE72A7A
:4031C00036EEC77AD0ED007A78EE277A70EE277AC3ED007AD0ED017A79EEA77A73EEA77AC3ED017AD0ED007A9FED6A6A28EE064A77EE845ADFED686A65EE267A75EEA77A41
:40320000DFED660A60EE204A77EEA45A9FED643A67EE037A75EEA77AC3ED027AD0ED018A29EE861A78EE818ADFED5E5A62EE257A78EEA78A63EEA01A38EEA19ADFED5A7A05
:4032400062EEA78A79EE288AC3ED038AD0ED008A28EE208A38EE889A65EE038A79EE288A20EE060A38EE809A67EE258A79EE288AC3ED048AD0ED018A69EEA00A38EEA09ACD
:4032800062EE278A79EE288A23EE866A78EE868A62EEA63A78EEA33AC3ED053AD0ED003A38EE238A65EE273A78EE233A30EE230A67EE263A70EE233AC3ED063AD0ED013A37
:4032C00070EEA30A62EE033A70EEA33A36EE236A62EEA50A36EE206A83ED076AD0ED003A34EE234A65EE255A74EE255A74EEA54A67EE275A74EEA55AC3ED085A90ED016A01
:4033000031EE066A62EE266A36EE267A31EE877A62EE837A77EE277AC3ED097A0131083028338A423FF724AF00230593049341E11E4B049A53F8222008A8059900EB810355
:4033400053F8084C81F00103059300EB830353F8088C174B0398014683FB0113A3EBE073194603931768D2F804A03B010AEB03094B4401930B4603FB07F3DB00E2181344E3
:403380004FEAC70E08EB0E0CE644002102910AE1676666667A379E3E7178733FBD1B4FBF1879163F717873BF187916BF1845020856555555F50008EB050BD4ED006A92EDBD
:4033C000007A31010AEB0100D0ED007A27EE277A36EE877AD2ED016AD0ED017A66EEA77A77EE676A93ED007AD0ED027A67EE277A36EEA77AD3ED016AD0ED037A66EEA77AC4
:4034000077EE677ACBED007AD4ED016A92ED017AD0ED007A27EE277A36EE877AD2ED006AD0ED017A66EEA77A77EE276A93ED017AD0ED027A67EE277A36EEA77AD3ED006A77
:40344000D0ED037A66EEA77A77EE277ACBED017A0CEB050BD4ED006A92ED007A09EB0100D0ED007A27EE277A36EE877AD2ED016AD0ED017A66EEA77A77EE676A93ED007A2B
:40348000D0ED027A67EE277A36EEA77AD3ED016AD0ED037A66EEA77A77EE677ACBED007AD4ED016A92ED017AD0ED007A27EE277A36EE877AD2ED006AD0ED017A66EEA77A38
:4034C00077EE276A93ED017AD0ED027A67EE277A36EEA77AD3ED006AD0ED037A66EEA77A77EE277ACBED017A7544D4ED006A92ED007A01980144D1ED007A27EE277A36EE88
:40350000877AD2ED016AD1ED017A66EEA77A77EE676A93ED007AD1ED027A67EE277A36EEA77AD3ED016AD1ED037A66EEA77A77EE677AC5ED007AD4ED016A92ED017AD1EDDC
:40354000007A27EE277A36EE877A10460832D0ED006AD1ED017A66EEA77A77EE276A93ED017AD1ED027A67EE277A36EEA77A18460833D0ED006AD1ED037A66EEA77A77EE56
:40358000277AC5ED017A0136083400E00026B7423FF710AF02990131029107EB4700C10088448C448E44039902988142EEDC049B01330493039A531E1A427FF4B9AE4FF05E
:4035C00000099246DDF814B086E009EB4903049A1344484A52F8233008AA02EB8B0252F8080C8BF0010B08AA02EB8B0252F8087C4FEA6A0A1E68D3F804C00AFB06F300EBD1
:40360000C30307EBC60E4FF0000861E0E1007D18D0ED006A93ED007A0CEB0102D2ED007A67EE277A36EEA77AD3ED016AD2ED017A66EEA77A77EE677AC5ED007AD0ED016AFD
:4036400093ED017AD2ED007A67EE277A36EEA77AD3ED006AD2ED017A66EEA77A77EE277AC5ED017A7144D0ED006A93ED007AD2ED007A67EE277A36EEE77AD3ED016AD2ED5B
:40368000017A66EEA77A77EE277AC1ED007AD0ED016A93ED017AD2ED007A67EE277A36EEE77A1D460833D5ED006AD2ED017A66EEA77A77EE677AC1ED017A0134083000E0E0
:4036C0000024A642A2DC08F10108320117449644C245F5DC09F10109BAF1010F3FF775AF08AA02EB8B0353F8080C09B0BDEC048BBDE8F08FDC4402082DE9F04F85B0174633
:403700009846C0EBC0020A446F4C54F822506F4A52F8212000FB0226022802D16C4A52F8212032445210B10001916818940000EB040CB21A3B4607EB820206EBD676761022
:403740000E9901EB860144440F4696460646CDF808C003949B46434645E093ED007A05F1080CD5ED007A27EE277A5EED016A50ED017A66EEA77A77EE677A41ED017A02F1BC
:403780000809D2ED007AC3ED007A06F1080896ED007A67EE877ABA4617EE904A4AF8084B93ED017AD5ED017A27EE277A5EED026A50ED027A66EEA77A77EE677A41ED027A04
:4037C000D2ED017AC3ED017A96ED017A67EE877AC7ED017A083357460839AEF1080E4A46464608386546DE45B7D8DDF808C0039C9846019B9E440191434660E093ED007A6D
:4038000005F10808D5ED007A27EE277A54ED016A50ED017A66EEA77A77EE677A019941ED017A02F1080AD2ED007AC3ED007A06F10809D6ED006A67EEA66A5EED017A44ED35
:40384000017A1CED017A27EE877A76EE877ABB4617EE901A4BF8081B93ED017AD5ED017A27EE277A54ED026A50ED027A66EEA77A77EE677A019D45ED027AD2ED017AC3ED73
:40388000017AD6ED016A67EEA66A5EED027A44ED027A1CED027A27EE877A76EE877AC7ED017A083C08335F46A5F108020192AEF1080E5246ACF1080C4E46083845467245EC
:4038C0009CD305B0BDE8F08FFC430208E0D00910A8D00910F0B589B00B460568ED004C1946687719154449E00DF1080E96E803008EE8030014ED017ADDED027A67EE676A39
:40390000D3ED005A9DED036A25EE865A76EE856ACDED006A67EEA57A27EE067A77EE877ACDED017A083F97E803000DF1200E0EE9030014ED027ADDED075A67EE656AD3EDED
:40394000017A9DED066A27EE865A76EE856ACDED046A083367EEE57A27EE067A77EEC77ACDED057A9DE8030082E80300083D04A903C985E8030008320836083CA342B3D3B5
:4039800009B0F0BDF0B505686B104668DB001E44A6F108071944A1F1080002EB85052B463BE091ED016A96ED017A66EE077A0C46083194ED003A34460836D4ED003A23EEC3
:4039C000235A37EE855AD0ED006AD7ED017A66EEA75A90ED014A3C46083FD4ED004A64EE242A75EEE25A27EE037A26EE236A37EE467A67EE847A66EEA46A77EEA67A2C46EC
:403A000015EE10EA44F808EBC5ED015A03ED017A43ED027A0838083B25469342C1D8F0BD002319E0D0ED007A67EE807AC0ED007AD0ED017A67EE807AC0ED017AD0ED027A7C
:403A400067EE807AC0ED027AD0ED037A67EE807AC0ED037A01331030B3EBA10FE2DB7047F0B5ADF60C7D04469E46C0EBC0030B44264E56F82370264B53F82260013404FB62
:403A800006F653F8213004FB03F402AD0095DDF8203F7246FFF730FE2A4629463846FFF719FF04EBD471DDF8243F2A4649102846FFF74EFBDDF8242F01463846FFF762FF93
:403AC000B4421FD007EE906AB8EEE77A07EE904AF8EEE76AC7EE267AB1EEE70AB4EE400AF1EE10FA09D0F0EE667AC7EE276A16EE900A04F01DFC00EE100A3146DDF8240F1C
:403B0000FFF78EFF0DF60C7DF0BD00BF6C440208E0D0091070B400261CE001EB860400232360002313E000EB8302D2ED007A06EB03150A4A02EB850292ED007A27EE877A86
:403B4000D4ED007A77EE877AC4ED007A01330F2BE9DD01360F2EE0DD70BC70479C8F081070B400261CE001EB860400232360002313E000EB8302D2ED007A03EB06150A4A70
:403B800002EB850292ED007A27EE877AD4ED007A77EE877AC4ED007A01330F2BE9DD01360F2EE0DD70BC70479C8F0810F0B596460022CEF800200A60DFED225AB0EE655A93
:403BC0003DE05601204F3744204B1E4400249FED1D7AF0EE476A1CE0A300C518D5ED007AFD1895ED006A77EEC67A67EEA77A76EEA76A04F1080500EB8505D5ED007A334451
:403C000093ED006A77EEC67A67EEA77A37EE277A0134072CE0DD22B1B4EEE65AF1EE10FA02DD0A60B0EE665A22B1F4EEC75AF1EE10FA03DDCEF80020F0EE475A01321F2ACF
:403C4000BFDDF0BD000000000CD408100CD00810F0B5DDF814E0069F079E5BE0D7ED004A90ED006A34EE866A26EE066A96ED004A0C68640006EE904AF8EEE66A76EE847A86
:403C8000F7EE006A77EEA66A01254FF0000C23E000EB8504D4ED007A74EEA77A27EEA77A51F82540640007EE904AF8EEE77A77EE847AF7EE005A77EEA57A26EE875A66EECD
:403CC000275AB4EEE55AF1EE10FA04DDAC46F0EE676AB0EE476A01359542D9DB00EB8C04D4ED007A74EEA74AC7ED004A51F82C406400013407EE904AF8EEE77A96ED007A7F
:403D000077EE277AC6ED007A51F82C40013441F82C4001337345A1DBF0BD00BF70B52DED028B079C1E4E06EB40161E4D05EB41151D4901EBC3035B68069903EB810393EDAE
:403D4000008A21461046FFF70BFF00220DE09300F11891ED007A2344D3ED007A68EE277A77EE277AC3ED007A0132072AEFDD082211E002F18043083B05EB830393ED007ADD
:403D800004EB8203D3ED007A68EE277A77EE277AC3ED007A01320F2AEBDDBDEC028B70BD0CD408100CD00810A4CF0810F0B500EB8100002400E0013450F8047D0FB90E2C0B
:403DC000F9DD00251560FD0F1D7087EAE77CACEBE77C013420E050F8047D3FB1156893F800E04EEA45051560FD0F1D7004EB840504EB4505BCF10A0F94BF65440A35DFF8FD
:403E000020E05EF82550166835441560013487EAE776A6EBE776B4448C42DCDBF0BD00BFE4CC081038B504460D46012801DC0A2100E010212846FFF7B9FF34B9059B049A96
:403E4000062105F12800FFF7B1FF38BD2DE9F04FC1B08046894692469DF828B14B9FC0EBC0020A44DA4951F822601F2E07DC202494FBF6F406FB04F4C4F1200400E000246B
:403E80001F2E01DC351B01E0C6F14005002119E08A00501C02F1020E02F1030C1A44D2ED007A0DEB8C0CCCED007A0DEB8E0ECEED007A0DEB8000C0ED007A0DEB0112C2ED1A
:403EC000007A0131A142E3DB20460FE001194A00013203EB800EDEF800E00DEB8202C2F800E00DEBC102C2F800E0013062199042ECDBE80000EB04101146321B521B92001D
:403F000003EB8101684403F00FFCB24B03EB8903D3F80004DDED007AF0EE676A00239FEDAE5A4DE0F5EE005A67EEA57AF6EE004A26EEA47A77EE877A591C89000DEB0104D8
:403F400094ED004A24EE256A37EE867A9A008518D5ED007A67EE277A6A44C2ED007A35EE275A66EEA56A24EE247A36EE877A9A1C92000DEB0205D5ED007A67EEA56A37EE88
:403F8000267A0144D1ED006A67EE266AC4ED006A35EE265A67EEA44A36EE246A03330DEB8301D1ED006A66EEA55A36EE256A024492ED007A26EE077A85ED007A35EE075A38
:403FC0003E2BAFDDB5EE007A27EE877AB6EE086A26EE866A37EE067AD0ED3F7A27EE277A8DED3F7A35EE077A4FF03E51DFED7B7A67EE277A17EE900A04F0F6F80646002560
:4040000035E00DEB85043146206804F0EDF8C0F3C7537E3B20F0FF4040F07C5207EE902A9FED6F7A27EE877ADFED6E6A37EE267A27EE877ADFED6C6A37EE667A27EE877AC9
:40404000DFED6A6A37EE267A27EE877ADFED687A37EE677A07EE903AF8EEE77A77EE277AB6EE007A67EE877AC4ED007A01353F2DC7DDDDED007A9DED046A37EE866AF2EEEF
:40408000086A86EE267A9DED036A77EE867A77EEA77A87EEA66A37EE067ADDED017A9DED026A77EE867AB0EE086A67EE867A87EEA66A37EE066A87ED006A01223AE09300A1
:4040C000F818591E0DEB8101D1ED007A01320DEB021191ED007A37EE877AF2EE086AC7EE267A0DEB830191ED007AD91C0DEB8101D1ED005A37EE257A37EE077AC7EE265AEA
:4041000077EEA57A591C0DEB810191ED007A02330DEB8303D3ED005A37EE257AF0EE085A27EE257AC7EE265A77EEA57AC0ED007A36EE276A0E2AC2DDDDED3B5ADDED3F7A41
:4041400075EEA75AF2EE086A85EEA67ADDED3C5A77EEA57A77EEA77AC7EEA65A77EE257A9DED3D7ADDED3E5A37EE257AF0EE085A27EE257AC7EE265A77EEA57AC7ED0F7A82
:4041800036EE276AB9F1040F02D9DFED1A6A01E0DFED196AB9F1040F17D94FEACA0AB8F1020F04D840F27E4308FB033301E041F23013534509DAB8F1020F02D8F5EE007AF3
:4041C00001E0DFED0E7A66EEA76A00232BE000BF0CD808109C8F08100000000017B7D135E7BBA5BF1EC4A3406AC4064174B00141F55C60409A99193F9A99593F3333B33EE1
:404200009A99993E0000803D07EB830292ED007A5FED047A66EE277A77EE677A66EEA77AC2ED007A01330F2BEEDDBBF1000F68D0D7ED005A97ED014AD7ED024A97ED035A9A
:4042400075EE847A74EEA77AF0EE086A87EEA67A87ED007A75EE277AF5EE006A67EEA66AC7ED016A37EE267A02231BE09A1C07EB8202D2ED006A07EB830277EEA67AF1EE9D
:40428000043A87EEA36A82ED006A37EE067A013377EEE57AF0EE445AB0EE644AF0EE454AB0EE665A0D2BE1DDF5EE006A67EEA66AC7ED0E6A77EEE57AF0EE085A87EEA56AD9
:4042C00087ED0F6A76EE866A37EE266A002216E09300B8F1020F02D15FED376A01E0F6EE006A3B4493ED007A5FED3A7A66EE277A77EE677A66EEA77AC3ED007A01320F2AB5
:40430000E6DD41B0BDE8F08F38B504460D460023184604E054F8232002FB020001330F2BF8DD07EE900AB8EEE77AF1EEC77AF4EE677AF1EE10FA05D017EE100A03F0F8FFA5
:4043400007EE900AF7EE006A86EEA77A00230CE005EB830254F8231007EE901AF8EEE77A67EE877AC2ED007A01330F2BF0DD38BD2DE9F0472DED028BB6B01F46409C419DB9
:40438000429ED24B03EB4111D14B03EB42124FF0000C22E04FEA8C0E00EB0E03D3ED007A01EB0E0393ED007A77EEC77A36AB734443ED107A0CF108039B0000EB0308D8EDBF
:4043C000007A96449EED007A77EEC77A0DF1D80E734443ED107A0CF1010CBCF1070FD9DD16A926A8FFF796FB00239FEDBA7A0BE036AA02EB830252ED207AF0EEE77A42ED6B
:40440000307A37EE277A01330F2BF1DDB24917EE100A03F0E9FEF1EE047A07EE100AC7EE878A0023059304934FF00008C1462DE04FEA880A36AB534413ED308A68EE887AA8
:4044400017EE900A03F07CFE07EE900AFDEEE77A17EE900ABA44CAED307A8144F8EEE77A27EE887ADDED057A77EE877ACDED057A00FB00F007EE900AF8EEE77A9DED047A83
:4044800077EE277ACDED047A08F10108B8F10F0FCEDD07F1C00804AB029305AB0193062300934B461022414606A8FFF7D1FB07F1800943464A4607F58071D3F80080D3F8EF
:4044C00004C0D3F808E0D868C2F80080C2F804C0C2F808E0D060103310328B42EDD104AB029305AB01930823009306231022494606A8FFF7ADFB07F140084B46424609F19C
:404500004009D3F800C0D3F804E09868D968C2F800C0C2F804E09060D160103310324B45EFD10A20082326E081007A184FF0000EC2F840E0D2F880209B1A0DF1D80E71445C
:4045400011ED307A07EE902AF8EEE77A27EE877ADDED057A77EEC77ACDED057A02FB02F207EE902AF8EEE77A9DED047A77EE677ACDED047A01300F28D6DD04AA029205AAE6
:4045800001920A220092414606A8FFF761FB43463A4608F14008D3F800C0D3F804E09868D968C2F800C0C2F804E09060D160103310324345EFD104AB029305AB01930123AC
:4045C00000930023062207F1280110A8FFF740FB00211AE0930136A800EB810050ED207AF5EEC07AF1EE10FA04D53B4453F82100404202E03B4453F8210043F8210001325B
:4046000000E00022032AE5DD01310F29F9DD4FF0000807E04FEA881021183844FFF774FE08F10108B8F1030FF4DD002333602B6098469FED2A5A41E04046294B03EBC80E91
:404640000027BC46DFED255A27E0DEF8043003EB870393ED006A0022DFED1E6A12E0930036A9194411ED207A04EB80110B44D3ED007A66EE277A77EE677A67EEA77A76EE66
:40468000A76A01320F2AEADDF4EEE65AF1EE10FA02DDBC46F0EE665A0137DEF800309F42D3DBB4EEE55AF1EE10FA05DDC5F80080C6F800C0B0EE655A08F10108B8F1030FDE
:4046C000BADD36B0BDEC028BBDE8F0870CD408100CD0081000000000B3CE010C0000807FA4CF08102DE9F041C2B007468846489C499D1E4623B192ED007AB1EE477A01E0D7
:4047000092ED007A8DED037A8DED027A002142E03EB14B1C02EB830393ED006AB1EE466A04E04B1C02EB830393ED006A8B00981C76EE477AF4EE006A67EEA66A77EE266A9C
:404740000DF1080E0EEB8000C0ED006AD81CF5EE086A67EEA66A77EE266A0EEB8000C0ED006A0131F6EE046A67EEA66A77EE266A0EEB0110C0ED006A0533F6EE0C6A67EE7C
:40478000A67A77EE277A0EEB8303C3ED007AF0EE477AB0EE467A0E29BADD77EE677AF4EE006A67EEA66A77EE266ACDED406AF5EE086A67EEA67A37EE277A8DED417AC7EB98
:4047C000C7034344644A52F823601F2E08DC4FF0200E9EFBF6FE06FB0EFECEF1200E01E04FF0000E1F2E02DCCEEB060C01E0C6F1400C002223E0930002A901EB0211D1EDA0
:40480000007A591C02A800EB810191ED007A77EE877A991C00EB810191ED007A77EE877AD91C00EB810191ED007A77EE877AB5EE007A67EE877A0344C3ED007A0132724506
:40484000D9DB724617E002EB0E014B0002A800EBC101D1ED007A013300EB830393ED007A77EE877AB6EE007A67EE877A00EB8203C3ED007A01320EEB0C039A42E3DB1846B9
:40488000CEEB0602CCEB02024FEACC0101EB0E11920002AB194403EB800002F050FFC7EBC70747442D4B53F82770002002464EE002AB03EB8003D3ED007AB1EE677ADFED81
:4048C000286A77EE267ACDED017A019BDDED017A77EEE67A77EE677A9FED227A27EE877ADFED216A37EE267A27EE877ADFED1F6A37EE267A27EE877ADFED1D6A37EE267A48
:4049000067EE877AB7EE007A77EE877A03F0070E184901EB8E0191ED007A67EE877ADB1017EE901A01EBC35307EE103A09E09300E9182344D3ED007A67EE877AC1ED007AF3
:404940000132431C57F823309A42F0DB0130B042AEDB42B0BDE8F0810CD808108C4302080000C0490093243C2C26633D87FE753E1772313FB89308102DE9F041ADF5147DD7
:40498000074688469B9C84AD01959DF868620096FFF75CFA221D21462846FFF707F9234653F80C1B029304F10803019344AE009604AB62682846FFF7DBFCA2680195E36868
:4049C0000093134606EB821261682068FFF7A6F9A06804F11903019304F11403009304F1180304F1100204A901EB8011FFF71AFA9D9B01939C9B009300232A46414638469B
:404A0000FFF770FE0DF5147DBDE8F0812620704770B504460D460968026A531D202B05DC9140C2691143C161036202E00522FCF795F86968226A531D202B05DC9140E269BC
:404A40001143E161236203E005222046FCF786F8AE687610236A5A1C202A06DC06FA03F3E1690B43E361226204E0012231462046FCF774F8002E41D1A96811F0010105D1AC
:404A80006E6901366B7E03EB460302E0EE6806F001032A693A4E06FB0326EB6843FA01F1236A5A1C202A05DC9940E3691943E161226203E001222046FCF750F8297E226A80
:404AC000531C202B05DC9140E2691143E161236203E001222046FCF741F8236A03F11902202A05DC9E40E3691E43E661226270BD192231462046FCF731F870BDA96811F08F
:404B0000010101D12E6909E02E6906F5E70303F51853EE6806F0010606EB4306EB6843FA01F1236A9A1C202A05DC9940E3691943E161226203E002222046FCF70FF8297E70
:404B4000226A531C202B05DC9140E2691143E161236203E001222046FCF700F8216A01F11803202B06DC06FA01F1E2691143E161236270BD182231462046FBF7EFFF70BD12
:404B8000F477240030B4042801D9431E00E00346C90001339A00D5186C0091FBF4F1134469337329D4BF5B187333052801D9B52000E0FF209842A8BF184630BC704700BF7A
:404BC000F7EE007A04E01C309FED0A7A67EE877A0028F8DB04E01C38B2EE047A67EE877A1B28F8DC044B03EB800090ED000A27EE800A7047CDCCCC3DE89908102DE9F043E4
:404C000097B080460D4616461C461E9F0DF1040954223E49484602F087FD05EB4502930009EB030259F80310A14205DD04F1300303EB4303302219E05068844211DA01F19F
:404C4000300303EB4302C1EB000E611A831A03FB01F30EFB02330EEB4E0E4FEA0E12964604E09368A342A8BF2346302203EB620393FBF2F3042D21D9BC421FDDB8F1010FB8
:404C800001D8022000E00120B8FA88F84FEA5818B4F5027F01DB022200E0012208FB0200E41B04FB00F494FBF3F318443044FF28D4BFC6EB0000C6F1FF0023E0042D0AD87D
:404CC0009A1CBA1A944206DA1F9886424FF0FF30D8BF002016E0042D11D8BC4211DDFE2ECCBF00200120FD2E04DC3B449C4203DA002302E0002300E00123184402E000200D
:404D000000E0002017B0BDE8F08300BF589A0810F8B507460E461C46069D5042FFF750FF1D4B53F8260007FB0000286000232FE0042E02D9F6EE006A01E0F6EE046A04EB8F
:404D40008301D1ED007A67EE807AC1ED007A5A1C04EB8202D2ED007A60EE277AC2ED007A91ED007AB0EEC77AF4EEC76AF1EE10FA09D9F0EEE77AF4EEE76AF1EE10FA04D9D9
:404D80002A68023A02E0024600E002462A6002338342CDDBF8BD00BFC4D0091030B4042801D9431E00E003466AB1DC1C04EB8404A5008D4203DC052803D9002402E0002402
:404DC00000E001241470013303EB83039A00914203DD052803D9002002E0002000E0012030BC70472DE9F04F8BB005468846039111461E46149F159C0DF127024046FFF767
:404E0000CDFF0790774B53F8283005FB0333019314B14FEAC42B01E06FF0004B002300939946069305931C460493CE46B246BC46ABE0009B079A03EB42036B4A02EB832359
:404E400002938FE0039B042B02D9F6EE007A01E0F5EE087A0AEB890393ED007AB0EEC77A37EE877ABCEEC77A17EE106A09F101030AEB830393ED007AB0EEC77A77EE877A40
:404E8000FCEEE77A17EE905AA20002998F1815F1000818BF4FF00108002E18BF08F101080EEBC82E46EA0500830835D09DF82700B0B18A5C02EB021251004C4A11440A8C16
:404EC000A2F580529644012E01D1032200E00222012D08BF0132049911440491012100E0002123FA00F00DE00B46032928BF0323FB5C03EB03135A003C4B1A44138C9E44D4
:404F0000400801310028EFD10EEB013ECE40CD40032928BF032100E000217A5C06EB850302EB02121344314A32F813309E44B8F1000F06D0F34504DB09F102030693CDF811
:404F400014E02401E4B2012902D90C31C9B205E03544013115FB01F10131C9B20C44E4B209F10209019B9A1C009BC3F101010A41DCF800309342A8BF1346994502DADE4537
:404F80007FF760AF009B01330093009B012B7FF750AF069BCCF80030169B7BB19DF827303BB1059B049A03EBC2239B4503DB002302E0002300E00123169A13706FF00043B4
:404FC0009B4504D1059B049A03EBC2230593059B03F2FF70002801DA00F2FF70C0120BB0BDE8F08FC4D00910CCB408104C9B0810F0B4049F042928BF0421394C54F8214044
:40500000411C01FB04F4012801D9022500E00125022894BF2846681C12B1F6EE006A01E0F6EE046A01EB41014A00121A00210D469FED2C7A1BE003EB8206D6ED007AF0EE66
:40504000E77AF4EEE76AF1EE10FA01DD013100E00021B1EB400F09DD161A03EB8606D6ED007AF0EEE77A37EE277A013501323E46A742A8BF2646B242DDDB0EE00131B1EBD4
:40508000400F09DD161A03EB8606D6ED007AF0EEE77A37EE277A013501320619B242EDDBA5B1F3EE007A27EE277A07EE905AF8EEE77AC7EE276AF6EE007A76EEA77AFDEEEA
:4050C000E77A17EE900AC0F1080000E00820062802DC20EAE07000E00720F0BC704700BFC4D00910000000000C4B53F8213000FB0330202801DD052300E004234028C8BF4E
:4051000001338028C8BF0133B0F5807FC8BF0133B0F5007FD4BF1846581C7047C4D0091038B50D461446FFF7DFFF0330042D88BF0130621EB2F5A07F06DA054B83FB021339
:40514000D217C2EBA31200E00222104438BD00BF676666662DE9F0472DED068BADF57A7D81460E4690469A46B0EE40AADDF82C54E14B53F82170441C07FB04F7002F00DA92
:405180000337BF10042E40F2918020220021F2A802F0F0FA6FF00503F293F3930223F8930523F993731F03EB4903FAAA02EB830353F8202C4FEA4A1AC4EB441304EB830330
:4051C0009AFBF3F302EB0309B9F1160F05DCB9F1060FB8BF4FF0060901E04FF017090022DFEDC66A9FEDC67AF0EE477A3CE0130108EB0301D1ED005AF0EEE55A77EEA57A5E
:40520000B7EE005A36EE856A66EEA56A37EE267A191D4144D1ED005AF0EEE55A77EEA57A76EE056A26EE256A37EE067A03F108014144D1ED005AF0EEE55A77EEA57A36EE46
:40524000856A66EEA56A37EE267A0C334344D3ED005AF0EEE55A77EEA57A76EE056A26EE256A37EE067A0132BA42C0DBDFEDA56A67EEA67A06EE904AF8EEE66A26EE877A48
:40528000C7EE876A16EE900A03F004F807EE900AFDEEE77A17EE900A0828A8BF0820C0F1080007EE900AF8EEE7AA03E0DFED93AA4FF000090024002035E0230108EB03021A
:4052C00092ED009A29EE099A1A1D4244D2ED009A69EEA99A03F108024244D2ED008A68EEA88A0C33434493ED008A28EE088A19EE101A02F079FF19EE901A02F075FF18EEA6
:40530000901A02F071FF18EE101A02F06DFF39EE299A78EE898A38EE288A02AB03EB840383ED008A0134BC42C7DB07EE100AF1EEC77AF4EE677AF1EE10FA03D002F0F8FF10
:4053400007EE900AF0EE678A042E46D9C9F1000917EE903A13F0FF4F01D003EBC95307EE903AF1EE6AAADFED686A3AEEA67A8DED017A019B9DED017A37EE667A3AEEC77A24
:40538000DFED626A67EE266A9FED616A76EE866A67EE266A9FED5F6A76EE866A67EE266A9FED5D6A76EE866A27EE267AF7EE006A37EE267A03F00701584A02EB810292ED56
:4053C000318A27EE088ADB1018EE102A02EBC35308EE103A27EE888A01E09FED488A00242BE00DF1080808EB8403D3ED007A4C4978EE277A17EE900A02F0F6FE07EE900AD6
:4054000067EEA77A17EE900A820DA2F1FE01C0F3844EC0F38F00414B03EB8E0EBEF8E4304CF2A90202FB0132BEF8E63000FB03F302EB234348F824300134BC42D1DBDDF81E
:40544000203407EE903AF8EEE77A37EE8AAAF6EE007A7AEE277AFDEEE77A17EE909ADDF82434C3F1FF0A07F1FF3E54464FF0800C33E0CCEB04084BF2DB6101FB08F1774612
:4054800000E0013F002F1ADB02AB53F827309942F7DC3A46002014E002AB53F822305B1A09D4B3F52C1F02DA03F5E02304E0A3F590135B0000E01B4B1844013A01E03A46F9
:4054C0000020002AE8DA184B03FB09F3984201DDBE4600E044464FEA6C0CBCF1000FC8DC042E02D99FED118A01E09FED118AC5F800A080272CE000BFC4D009100000000054
:40550000ACC52737CDCCCC3F0000C0490093243C2C26633D87FE753E1772313FE8990810FFE6DB2E33B302006666010000FEFF4A00FEFF462E68F61B3046FFF741FB28EEAE
:40554000000AF4EEC08AF1EE10FA00D52E607F10002FEFDC2B689C4206DBF5EE408AF1EE10FA03D1012302E0012300E00023DDF82824137003B12C6820460DF57A7DBDEC43
:40558000068BBDE8F08700BF08B5026AD31C202B05DC9140C2691143C161036208BD0322FBF7DCFA08BD00BF2DE9F04F2DED048B83B082460E469946DDF84080019212B117
:4055C000B6EE009A01E0B6EE049AF6EE009A69EE299A4FF0000B4DE009EB8405D5ED008AB0EEE88AB4EEC89AF1EE10FA37DC18EE100A02F089FE07EE900A38EE678AB4EE81
:40560000C89AF1EE10FACCBF01270027F5EEC08AF1EE10FA4CBF012300235F40DAF820305A1C202A09DC07FA03F3DAF81C100B43CAF81C30CAF8202004E001223946504608
:40564000FBF78CFA013E95ED007A17B1F1EE697A01E0F0EE697A77EE877AC5ED007A013400E00024444501DA002EB5DC69EE899A0BF1010B019B0BB1142300E001239B4568
:4056800001DA002EEDDC03B0BDEC048BBDE8F08F2DE9F04F89B082460C46154606929DF850100291002219462846FFF777FB0790B84B53F8253004FB0333059300230193D1
:4056C0009B4600935FE1019B079A03EB4203B24A02EB8323049346E1069B042B02D9F6EE007A01E0F5EE087A129B03EB8B0999ED007AB0EEC77A37EE877ABCEEC77A17EEC6
:40570000106A0BF10103129A02EB8303039393ED007AB0EEC77A77EE877AFCEEE77A17EE905A009B9B00049AD71846EA05085FEA980800F09B80029A4AB3049AD35C03EB79
:4057400003139900954B1944DAF808309B0AB1F84000DAF8042003FB0022CAF80420B1F8421003FB01F3CAF80830DAF8101041EA1261CAF8101022F07F42CAF80420B3F5EF
:40578000803F06D25046FBF76DFA012402E0002400E00124029B28FA03F84346A8461D4658E026FA04F101F00101DAF82020531C202B08DC9140DAF81C201143CAF81C108E
:4057C000CAF8203003E001225046FBF7C7F928FA04F101F00101DAF82020531C202B08DC9140DAF81C201143CAF81C10CAF8203003E001225046FBF7B1F92346032C28BFA5
:405800000323FB5C03EB03139900644B1944DAF808309B0AB1F84000DAF8042003FB0022CAF80420B1F8421003FB01F3CAF80830DAF8101041EA1261CAF8101022F07F4282
:40584000CAF80420B3F5803F02D25046FBF70AFA6D080134002DA4D14546029BDE40DD40C3EB0408032C28BF032402E04FF000084446D6B1D9ED007AF5EEC07AF1EE10FA55
:405880004CBF01210021DAF82020531C202B08DC9140DAF81C201143CAF81C10CAF8203003E001225046FBF759F9DDB1039BD3ED007AF5EEC07AF1EE10FA4CBF012100211D
:4058C000DAF82020531C202B08DC9140DAF81C201143CAF81C10CAF8203003E001225046FBF73CF926FA08F625FA08F53B5D03EB03139A00294B1A4406EB8501DAF808303F
:405900009B0A02EB810032F82110DAF8042003FB0122CAF80420418803FB01F3CAF80830DAF8101041EA1261CAF8101022F07F42CAF80420B3F5803F02D25046FBF792F9CE
:40594000009B1B01DBB2012C02D90C34E4B205E02E44013416FB04F40134E4B21C44E3B200930BF1020B059B0233019AC2F101021341139A9342A8BF13469B45FFF6ACAE29
:40598000019B01330193019B012B7FF79CAE09B0BDE8F08FC4D00910CCB40810CCA308102DE9F04F2DED028B83B007460E4601929946002494E0019B13B1F6EE007A01E0D9
:4059C000F5EE087A09EB840ADAED008AF0EEE88A77EEA88AFCEEE88A651C09EB850595ED008AB0EEC88A77EE887AFCEEE77A17EE90BA18EE903A43EA0B039B086FD006F14C
:405A0000FF38002E11DD18EE903A03F001013A6A531C202B05DC9140FA691143F9613B6203E001223846FBF799F818EE903A012B1ED1023EB8F1000F19DDDAED007AF5EE8C
:405A4000C07AF1EE10FA4CBF012100213A6A531C202B06DC9140FA691143F9613B62B04606E001223846FBF779F8B04600E0B04608F1FF36B8F1000F0FDD0BF001013A6AD7
:405A8000531C202B05DC9140FA691143F9613B6203E001223846FBF761F8BBF1010F1ED1A8F10208002E19DDD5ED007AF5EEC07AF1EE10FA4CBF012100213A6A531C202B9D
:405AC00006DC9140FA691143F9613B62464606E001223846FBF742F8464600E0464602340E9B9C4202DA002E3FF765AF03B0BDEC028BBDE8F08F00BF2DE9F04F2DED028B35
:405B000087B082460D4690469946139FD400FFF707FB241A2846FBF769F9241A4846FDF7EFFA241AFEF772FF241A129800F0CAFC201AA0F10B0497ED008AD7ED017AF8EEE8
:405B4000E77A394978EE277A17EE900A02F04CFB364902F067FBDFED367A28EE278ADFED357A07EE100A67EE277A38EE278A41462846FFF707F8814604AB03930DF11703E8
:405B8000029301900094B0EE480A4346149A29465046FFF7DFFA8346159B1E1D0096149B024629465046FFF7B3F80023029301930096149B424629465046FFF713F90346E0
:405BC0009DF817200AB19FED1C8A87ED008A9DF817200AB9E21A00E000227A60049A4A440192009409EB0B0229465046FFF706F8074630B10096149B024629465046FFF784
:405C000087F85F444F44159B43F8087B029301940096149B424629465046FFF7E3F807B0BDEC028BBDE8F08F000020C200002042CDCC4C3FCDCC4C3E0000000070B5044669
:405C400008461D461146FFF74FFA696849100129B8BF01210139266A8319202B05DCB140E2691143E161236203E002462046FAF775FF297A226A531C202B05DC9140E2692B
:405C80001143E161236203E001222046FAF766FF2968226A02F10803202B05DC9140E2691143E161236270BD08222046FAF756FF70BD00BF2DE9F04685B004468946924628
:405CC00019460D9B1D7A5E68042A94BF0027012700960E9B3A464846FFF78AF901462046FFF752FC029501960E9B00930C9B524649462046FFF7CCFC2046FAF727FF014699
:405D000035B100960E9B3A462046FFF749FE05E000960E9B3A462046FFF746FC05B0BDE8F08600BF0130C0EB0010C300B3EBC10FCCBF0120002070472DE9F04FCBB0044690
:405D40000F4615469946702200212EA801F012FDC94B2E9303F10C022F9203F11802309203F12402319203F1300232923392349203F13C02359203F14802369203F1540208
:405D8000379203F16002389203F1740239923A923B9203F188023C9203F198023D9203F1A8023E9203F1B8023F9203F1D402409203F1F002439203F58072449203F588728D
:405DC000459203F59072469203F59E73479348934993C4EBC4033B444AAA02EB830353F8706C24B1022F05D84FF0000A04E04FF0000A01E04FF0010A0AF1010A012C02D94B
:405E00004FF0030801E04FF00208346809EB84040027C4E06C22002101A801F0ABFC4FF0000C2CE056F8043F09EB830E002021E004EB8001C4EB0E03C0EBA3032246DFEDD8
:405E40008F6A0AE092ED007AD1ED007A67EE277A76EEA76A5B460431043203F1FF3B002BF0D100EB4003634401AA02EB8303C3ED006A0130A842DBDD0CF1010C7446C445D0
:405E8000D0DB07EBC70293004AAA134407EE908AF8EEE77A43ED2E7AB8F1020F37D1DDED016A9DED026A01232EE0F5EE406AF1EE10FA1BD0B5EE406AF1EE10FA19D0590078
:405EC00019448A0001A90A44D2ED007A87EEA67AD2ED015AC5EE867A37EE277A664A02EB8302D2ED567A67EE277A04E0DFED637A01E0DFED627A07EBC7021A444AA901EBAD
:405F0000820242ED2E7A0133AB42CEDD46E0DDED016A9DED026ADDED035A01223CE0F5EE406AF1EE10FA26D0B5EE406AF1EE10FA24D0F5EE405AF1EE10FA22D051001144EF
:405F40008B0001A90B44D3ED007A87EEA67A93ED015AC5EE067A37EE277A93ED025AC5EE257A37EE277A444B03EB8203D3ED567A67EE277A07E0DFED417A04E0DFED3F7AA7
:405F800001E0DFED3E7A07EBC70313444AA901EB830343ED2E7A0132AA42C0DD01375745FFF638AF0020B2E0C3001A189400559A144403449A004AAB1A4412ED2E6A549B84
:405FC00003EB800686ED006A4FF07E532360012193E000EBC0030B444AAA02EB830353ED2E6AF1EE666A012211E004EB820393ED007A8B1A00EBC0073B444AAF07EB830374
:4060000053ED2E7A67EE277A76EEE76A01329142EBDCC6EE865A65EEA57AB7EE007A77EE677A26EE276A012311E09A00A71897ED007ACF1A04EB8707D7ED007A65EEA77A6C
:4060400077EE277A01AF3A44C2ED007A01339942EBDC4F1C01AB03EB8103C3ED005A00EBC0033B444AAA02EB830353ED2E6AF1EE666A012218E000BFFCD009100000000080
:4060800001AB03EB820393ED007ABB1A00EBC00E73440DF5947E0EEB830353ED2E7A67EE277A76EEE76A0132BA42E9DBC6EE865A65EEA57AB7EE007A77EE677A26EE276A59
:4060C000012313E09A0004EB020E0DF1040C624492ED007AFA1A0CEB8202D2ED007A65EEA77A77EE277ACEED007A0133BB42E9DB023104EB8707C7ED005AA9427FF769AFA0
:4061000096ED007AC7EE067AC6ED007A01305045FFF64AAF4BB0BDE8F08F00BFF0EE006A76EEC06A9FED0C0A66EE806A76EEA66AB7EE007A77EE666A01230AE027EE267A2D
:4061400000EB8302D2ED007A67EE877AC2ED007A0133082BF2DD70479899193EF0B58FB001F1804E0EF1FF3E02EB8E0E00EB810393ED006A8EED006A26EE066AF7EE007AF8
:4061800037EEC66A002417E007AD05EB8405661C00EB860797ED007ADEED007A1B1B00EB8303D3ED006A67EEA67A77EE677A87EE867A85ED007A34464B1E9C42E4DB881EF2
:4061C00007AC2EE000F00101CB005B1A9E006E448300D718234493ED006A87ED006A26EE066AF7EE007A37EEC66A002115E08B00F518234493ED007AD7ED007A431E5B1A60
:4062000004EB8303D3ED006A67EEA67A77EE677A87EE867A85ED007A01318842E7DC013834460028CEDC236813600FB0F0BD00BF2DE9F04111604FF0000C3DE04FEA8C0E43
:4062400000EB0E08D8ED007AF0EEE77A03EB0E079FED1B7AF4EEC77AF1EE10FA01DB042400E0002443F80E40002602E0013601343C60032E0ADC3C68124D05EB840595EDB9
:406280005F7AF4EEC77AF1EE10FAEFDAD8ED007AF5EEC07AF1EE10FA04D553F80E40644243F80E4053F80E4014B91468013C00E00C4614600CF1010C8C45BFDBBDE8F081FA
:4062C00000303D3FFCD0091070B4002313E050F8235085EAE576A6EBE576094C04EB8604D4ED677A02EB8304002D01DAF1EE677AC4ED007A01338B42E9DB70BC704700BF24
:40630000FCD009102DE9F04F89B017461C46129E054620B1022905D84FF0000804E04FF0000801E04FF0010808F10109042928BF0421244B53F82130013505FB03F343FA0C
:4063400008F805EB450520220021684601F012FA002332E003F1010A0AFB08FC184607EB830157F8233033B323E006EB850EDEED006AB0EE667A002215E093000DF1200B2F
:406380009B445BED087A0BED087A04EB401B5B4493ED006A26EE867A37EE877A67EE867A76EEA76A01320B689A42E6DBCEED006A01356545D9DB534665464B45CADB09B0B5
:4063C000BDE8F08FC4D009102DE9F04FA9B0064688469146329D1946FFF7A4FC287126B1B8F1020F03D8002302E0002300E0012301332B60012E02D84FF0040A01E04FF003
:40640000080A14AB019326AB0093339B524641463046FFF791FC002444E0A31C002245F82320B9F1000F3CD128AB03EB840313ED020AF7EE087AB4EEE70AF1EE10FA30D9FE
:406440002B796BB1F0EE007AB4EEE70AF1EE10FA06D504EBC403980014AB1844FFF75EFE04EBC40398004FEA441B04AB03EB0B073A46514614AB1844FFF770FE0BF1100BB0
:4064800005EB0B0304F1020B039305EB8B0251463846FFF7CDFE3A4655F82B100398FFF713FF01342B689C42B7DB339B009304AB05F1080241463046FFF724FF29B0BDE86C
:4064C000F08F00BFF0B400252E4626E0AB1C50F82370002F07DD02797B1E03EBC203124A32F8131000E0002101F5006100230DE003EBC502043250F82220083203EB0314DA
:4065000022440A4C34F8122011440133BB42EFDB01F2FF7106EBE126013503689D42D5DB3046F0BC704700BF3CCC08100CC908102DE9F04104468846002667E0B31C58F8D6
:406540002370002FD4BF00210121226A531C202B05DC9140E2691143E161236203E001222046FAF7FBFA002F4FDD98F8043003EB03139A00284B1A44791EA3689B0A02EB11
:40658000810032F82120616803FB02126260418803FB01F3A360216941EA1261216122F07F426260B3F5803F2CD22046FAF75AFB002528E005EB05139A00184B1A4405EBC4
:4065C000C603043358F823100831A3689B0A02EB810032F82120616803FB02126260418803FB01F3A360216941EA1261216122F07F426260B3F5803F02D22046FAF732FBFD
:40660000013500E00025BD42D4DB0136D8F800309E4293DBBDE8F0815CCC08101CCA08101F4B98422DD00CD840282ED003D8E8B1102828D02FE0802829D0B0F5807F28D01D
:4066400029E0184B984228D006D8B0F1204F0DD0154B984212D01EE0144B98420AD00133984209D0023B984215D101E0002070470F4870470F4870470F4870474FF4A0003B
:406680007047074870470D4870470D4870470D487047034870470C4870474FF4A400704706005200010000F0090000A0040000F0010052000200520003005200010050001B
:4066C0000200500005005200FF00520038B5124B1B6893F83130012B04D840F2C3110F4800F0C6FB0C4B1D682A6AB5F8B03013442C46D5F8B420D358002B0BDB084B18685B
:40670000FFF78EFF6B6801229A6063689B68002BFBD138BD034838BD746A0208BCD2091024510208020050001A4B186128B102230370FF23437000234380174B1B6893F812
:4067400050202AB300B583B0B3F93830ADF80030002301931149684600F04EFBBDF90030002B08DB590903F01F03012202FA03F30B4A42F82130084B1B6893F8513023B1ED
:4067800002220849012000F077FA03B05DF804FB704700BF24510208746A0208C149020800E100E0794A020808B50248FFF7BCFF08BD00BF3851020838B50B4B1B68D3F8FC
:4067C000B4301B58002B0DDA0D4604460B0C1B0423B140F2D521054800F04AFBA9B26160002038BD024838BD746A0208FCD2091001008A0038B50368002B01DA002300E0B4
:40680000094B73B90D460446C2600B0C1B0423B140F2BB21054800F02BFBA9B2A160002038BD014838BD00BF01008A00FCD2091038B504460D4619B99921084800F018FB55
:40684000074B1B68D3F8B4301B59002B03DAE3682B60002038BD034838BD00BF3CD30910746A020801008A00254B1B6893F8313083423AD900293AD00B6813F01F0F38D1FC
:4068800070B50D4604461E4B1B6893F83130984204D340F2C3111B4800F0EAFA184B1B68186AB3F8B03004FB0304174E34602A68D2080021686800F05DFF00212046FFF738
:4068C0007BFF346825B940F293310E4800F0D0FA2A4600212046FFF78DFF60B900210A4B1868FFF769FF40B970BD084870470748704706487047064870BD054870BD00BFCC
:40690000746A0208FCD209103C51020803018A0001018A0010B504461346B2B9A9B9124B1B6893F83130984204D340F2C3110F4800F09EFA0C4B1B681A6AB3F8B03004FB58
:4069400003240B4B1C60002010BD43B149B1084A51609360111D2046FFF786FF10BD054810BD044810BD00BF746A0208FCD209103C51020803018A002DE9F0411B4B1B685B
:40698000DC68236883422CD90D464609A0EB4610012303FA00F819B900F0D7FA074600E00027124B18680368002B01DA002300E00F4B83B9626852F8263018EA030F05D081
:4069C00023EA080342F82630002400E0094C0021FFF7F2FE00E0084C25B9384600F0B9FA00E0064C2046BDE8F08100BF3C51020801008A00020188000301880004018A0027
:406A00000B4B1B68DB681A6882420CD94109A0EB4110012202FA00F05B6853F82130184203D004487047044870470448704700BF3C5102080101880004018A00000188004D
:406A4000024B1B680BB9014B18607047485102082DE9F8430446884691461D46089F2C4B1B681BB9B5212B4800F002FA284B1B682C2000FB04F01C18EEB21E50C5F30723C2
:406A800063602D0CA560244B1B6893F831309E4204D340F2C311214800F0EAF91E4B1B68196AB3F8B02006FB02162661666893F832309E4204D340F2DF11184800F0D8F9BF
:406AC000154B1B681D6A803605EB46156561A668330C1B0423B14FF4FF71104800F0C8F9330C1B0423B140F2FF110C4800F0C0F9B3B243EA0646AE60C4F81C90C4F8208048
:406B00000023A36117B1B7F90030A381BDE8F883485102087CD30910746A0208FCD20910F0B58FB0044618B95221274800F0A0F9A369072B03D95621234800F099F9E36A33
:406B40001BB95821204800F093F9236B1BB959211D4800F08DF907AD04F114060FCE0FC537682F6002AD26460FCE0FC533682B60164B1B68B3F93620079B1344ADF83030B5
:406B8000089B0D93A26AE16A0CAD00953B460A98FFF75EFF00210091069B0A460598FFF757FF216B284600F027F9BDF93030002B08DB590903F01F03012202FA03F3044AE3
:406BC00042F821300FB0F0BD7CD30910746A020800E100E0F8B506460F461D4614461AB9FD211F4800F044F91E4B1B681BB9FE211B4800F03DF91B4B1B682C2101FB06302D
:406C000001FB07314B68012202FA03F31B04466802FA06F60269EAB18F69EFB91268002A01DA002200E0104AC2B92288134323600369DC6001238B614D620469330C1B04E2
:406C400023B140F2BB21094800F012F9B2B2A2600020F8BD0648F8BD0648F8BD0548F8BD7CD309104851020801008A00FCD2091004028A0007028A00F8B505460F4616465A
:406C80000E4B1B6823B94FF4AF710D4800F0F0F80A4B1B682C2404FB0534236A23B94FF4B171074800F0E4F8E369B34204D9236A43F826700020F8BD0248F8BD4851020850
:406CC0007CD309100A028A0070B582B000230193044620B940F2D111284800F0C9F8236923B94FF4E971254800F0C2F8636923B940F2D311214800F0BBF8236A23B94FF49E
:406D0000EA711E4800F0B4F86369DD682A0C20D012041A601B682069194B1B68D3F8B430C358002B15DA01A9FFF782FD60B9019803681E0CDBB2E269934206D2226A52F897
:406D4000233013B1984700E0002631462069FFF733FDADB275B16369ADB21D601B68636A1BB198470023636202E0A36A03B198470023A36163691B6802B070BD7CD30910A2
:406D8000746A020810B50446074B1B6823B940F2B111064800F06CF8034B1B682C2000FB0430FFF791FF10BD485102087CD3091038B50D4B9A680D4B9A420FD10D460446F3
:406DC00021B940F237110A4800F052F804F11003064A52F8230042F8235038BD1030054B53F8200038BD00BF00ED00E000400208BCD309100000081048B338B504460D4641
:406E00004368072B03D93221134800F031F8B4F900306268002B08DB5201D2B203F1604303F5614383F8002305E003F00F035201D2B20A49CA540A4B9A680A4B9A4208D1E2
:406E40002946B4F90000FFF7B3FF002038BD06487047002038BD00BFBCD3091014ED00E000ED00E0004002080100560001BEFEE738B50D46044C18220146204600F0DCFC86
:406E8000A5610020FFF7F2FFF04E0208FEE700BF08B50268254BDA6142681A6282685A62C2689A620269DA6242691A6382695A63C2699A631E4A916AD963D16A1964516A64
:406EC0005964516B9964926BDA64F1EE103A13F0900F27D0026A154B1A65426A5A65826A9A65C26ADA65026B1A66426B5A66826B9A66C26BDA66026C1A67426C5A67826C13
:406F00009A67C26CDA67026DC3F88020426DC3F88420826DC3F88820C26DC3F88C20026EC3F89020FFF7B2FF08BD00BFF04E020800ED00E0000000000230800803D0013048
:406F40000238FCD100BF00BF7047EFF3108072B6704780F310887047014B1860704700BF746A020830B4036813F4006F01D0802200E04022002408E0D0F80832C3F3080357
:406F80009A42F9D0C0F8405201340D5D002DF3D130BC704781F0004102E000BF83F0004330B54FEA41044FEA430594EA050F08BF90EA020F1FBF54EA000C55EA020C7FEA00
:406FC000645C7FEA655C00F0E2804FEA5454D4EB5555B8BF6D420CDD2C4480EA020281EA030382EA000083EA010180EA020281EA0303362D88BF30BD11F0004F4FEA0131A1
:407000004FF4801C4CEA113102D0404261EB410113F0004F4FEA03334CEA133302D0524263EB430394EA050F00F0A780A4F10104D5F1200E0DDB02FA0EFC22FA05F2801810
:4070400041F1000103FA0EF2801843FA05F359410EE0A5F120050EF1200E012A03FA0EFC28BF4CF0020C43FA05F3C01851EBE37101F0004507D54FF0000EDCF1000C7EEB02
:4070800000006EEB0101B1F5801F1BD3B1F5001F0CD349085FEA30004FEA3C0C04F101044FEA445212F5800F80F09A80BCF1004F08BF5FEA500C50F1000041EB045141EA15
:4070C000050130BD5FEA4C0C404141EB010111F4801FA4F10104E9D191F0000F04BF01460020B1FA81F308BF2033A3F10B03B3F120020CDA0C3208DD02F1140CC2F10C021D
:4071000001FA0CF021FA02F10CE002F11402D8BFC2F1200C01FA02F120FA0CFCDCBF41EA0C019040E41AA2BF01EB0451294330BD6FEA04041F3C1CDA0C340EDC04F114044A
:40714000C4F1200220FA04F001FA02F340EA030021FA04F345EA030130BDC4F10C04C4F1200220FA02F001FA04F340EA0300294630BD21FA04F0294630BD94F0000F83F443
:40718000801306BF81F480110134013D4EE77FEA645C18BF7FEA655C29D094EA050F08BF90EA020F05D054EA000C04BF1946104630BD91EA030F1EBF0021002030BD5FEA5D
:4071C000545C05D14000494128BF41F0004130BD14F580043CBF01F5801130BD01F0004545F0FE4141F470014FF0000030BD7FEA645C1ABF194610467FEA655C1CBF0B4674
:40720000024650EA013406BF52EA033591EA030F41F4002130BD00BF90F0000F04BF0021704730B54FF4806404F132044FF000054FF0000150E700BF90F0000F04BF002181
