:020000041000EA
:4000000000000208230100100D0000008501001000000000000000000000000000000000000000000000000000000000810100100000000000000000810100108101001029
:400040008101001081010010810100108101001081010010810100108101001081010010810100108101001081010010810100108101001081010010810100108101001060
:400080008101001081010010810100108101001081010010810100108101001081010010810100108101001081010010810100108101001081010010810100108101001020
:4000C00010B5064C2378002B07D1054B002B02D0044800E000BF0123237010BDD4410008000000008C4F0210084B10B5002B03D00749084800E000BF07480368002B00D17A
:4001000010BD064B002BFBD09847F9E700000000D84100088C4F0210C00C0008000000007047FFF7FDFF72B60F4C104DAC4209DA21686268A368043B02DBC858D050FAE715
:400140000C34F3E70A490B4A0020521A02DD043A8850FCDC084809490860BFF34F8F00F039FA00F09DF8FEE77C6A0410946A0410D4410008005400080000000808ED00E0DB
:40018000FEE7FEE700B504207146084202D0EFF3098001E0EFF30880043008F0CFFBFEE710B58EB0354B984243D007D880235B0198420DD0324B98422BD056E0314B984255
:4001C00013D0314B984241D0304B98424DD104E00021002009F0B0FE4DE000222C4B1A700021002009F0A8FE45E02A4C022220000DF015FC23882382274B1B685B88A3810D
:40020000230014336360A0232381207829F0ECFE31E0204B1B7801AC237000236370A3800233E370A37025F050F8200029F014FF21E00B78002B04D1164B187829F0D4FE83
:4002400019E0144B187829F0CFFE14E00A89124B1B68DB889A420ED10B681B78012B0AD101220B4B1A7040BF05E003000B4A322101A80DF0B9FC0EB010BDC046152000006B
:4002800009200000015000000C5000000840000000000208F0410008A009000870E7001070B582B062B64A480AF018FF0400494A49494A4809F024F8002802D001200DF0CB
:4002C0007FFB464A1368802109060B43136001E045F09EFF424B1B78022BF9D1002C06D10022404B1A70404800F0FAF903E03E213E4808F0EDFA00223D4B1A6000240CE0BE
:400300003C480DF073FB03003B490A003B4801F0CFFAA2003A4BD0500134002CF0DD45F077FF304B1B78002BF9D0314B1B68354A12689342F3D0344A52783449895C00297B
:40034000EDD1002A02D132498A5C00E00022012AE5D90133DA17920F9B1803210B409B1A234A13600024284D143518E0002C01DAA12600E0A0261E4B1A6813019A1A930164
:40038000244AD31862009A18A1001D4BC858019500960123002101F097FAAD190134002CE4DD194B1A0014325A605B78174AD25C002AB4D1002B02D1154AD35C00E00023AE
:4003C000012BACD9104804302BF07CFFA7E7C046A1010010C4530008F43D0210000066409C53000800000208000008107CE70010040F02081815000080BB00001027000094
:400400008C530008080F0208F0410008B4530008A45300080400020810B5002007F0B0FE10BDC04670B56249E0239B00CB580F2213401A00D0329200525807210A40032AF6
:4004400005D0042A06D0002A12D15A4814E05A4A106811E01A00C0329200554952581F210A40112A06D0132A04D0FA20C00103E0524801E080200002002B36D14C4BB222E9
:40048000D2009A5801211140B125ED005A59120F032422405B591B0F1C4207D0444C63591B0F03242340012B02D102E0012300E00023002B01D0002901D1032A4BD13C4B03
:4004C000B022D2009D58AD03AD0B3D495958C904C90C9C58240E01231C4001340AF01EFE684321000AF01AFE35E0012B33D1304BC822D2009A5801251540C024E4001A592F
:40050000120F03210A401B591B0F194207D028490B591B0F03210B40012B02D102E0012300E00023002B01D0002D01D1032A12D11F4DC022D200AB587F210B40A958090AB9
:400540001F263140AC58240C344058430AF0E6FD21000AF0E3FDE0239B00154AD3581B0903221340D840144C6060164B1D692D0AFC32154001351969090E01310AF0CEFD47
:40058000A06029000AF0CAFD0500E06020610E4BC0180E490AF0C2FD20750D4BE818FA2189000AF0BBFDA061C003E06170BDC0460000264000127A00C000000800366E0170
:4005C00084050000000021403F420F0040420F00E703000010B5284808F08CFE274CB022D200A3585B005B08A350E0218900635830208343635080235B04A350204A214BB3
:40060000E250A02292010433E250FF221E4BE25008F05EFEC0225200A35801218B43A35006F0C6FFFFF7FEFEB0235B055B78002B04D0B0235B055B78DBB200E02123212BF3
:4006400003D1124B0022DA605A60114C22008021042007F0F5FA2000103007F0CFFB0D4B1A685123D35C002B02D00B4807F03CFC07F0BAF810BDC046C438021000002640FC
:4006800001000200840500008C050000E0002340A44200089453000888E700108023024AD3580320184070470000214010B508F0D8F9084980228C58074B2340074C2343FE
:4006C0008B508823034AD358DB06FAD508F0CDF910BDC04600002140FCFF00000100FA0570B50500830504D0E821FF310F4808F0EFF808F0B6F90400FFF7D0FF032801D1FD
:40070000FFF7D4FF0A4AB0239B00D55080215058084B03400848034353508823044AD358DB06FAD5200008F0A0F970BDBCE7001000002140FCFF00000300FA05F0B55746EC
:400740004E464546E0B496B007008846150099461E9C4022002106A80DF07FF93D230693583307934B2208920993443B0E936E4B0F93193210921193012F00D8C5E0434654
:40078000022B00D8C3E0042B00D9C2E0B91E033B8A00D218D20006A81258AA4200DDBAE08900CB18DB00844663445B689D4200DDB3E0022F02D103239C4601E004239C4651
:4007C000002775E0BB00002202A95A504346032B30D12300083B00229A5EA31F00215B5ED3185D10231F00229A5EA31E00215B5ED218521000201AE00023E15E0226A35F36
:40080000C91849104B005E189300F31A5B19DB101BB25B435B11BD0002AEAE590196B246534402AEAB510130043415000A002728E2DD3CE023000C3B00229A5E23000A3B03
:4008400000215B5ED3182200083A0021525ED3189D10A31F00229A5E231F00215B5ED218A31E00215B5E9A18921000201DE00023E15E0226A35FC9180426A35F5918891055
:400880004B005E189300F31A5B19DB101BB25B435B11BD0002AEAE590196B246534402AEAB510130063415000A002728DFDD0137674587DB0021002414E04B465B689A1049
:4008C0004B461B68934200DA13008A0002A81258484602604360D21018111B189A4200DD4C1C01316145E8DB63465B1001334A4692689A4203DA002C03DD012002E001203C
:4009000000E000204B469C6008E0002006E0002004E0002002E0002000E0002016B01CBC90469946A246F0BDFFFFFF7F4368002001E05B080130002BFBD1704710B50400FB
:40094000FFF7F4FF1A23181AA368DB43DB0F22699B18DB00C01810BD70B502000430536B1478002C01D1042100E00021CB18116B002C01D1033400E000240C1BA34201D907
:400980001C1B00E01C1BE400156A536AED18FFF7D5FF2818201A70BDF8B54F464646C0B404000D00FFF7C2FF80461926361A6648304123689C46C21863686344170E791E60
:4009C0008F41F9B28946190E4F1EB941C9B282431202120A1B021B0A894511D181188B4208D81A264346F61A400863461A1882431202120A62459B415B42E1680B43E3608C
:400A0000226034E0514B22689A4202D9E368002B25D0A368002B1ADBE26894466344AA6869688A4213D2511CA96013700FE0E368002B01D0002200E0FF22AB6869688B424B
:400A400002D2591CA9601A702369013B23612369002BECDC6388A3600023E36002E023690133236123681B041B0A2360083E082EC8DC364B22689A4202D9E368002B25D0B6
:400A8000A368002B1ADBE26894466344AA6869688A4213D2511CA96013700FE0E368002B01D0002200E0FF22AB6869688B4202D2591CA9601A702369013B23612369002BCA
:400AC000ECDC6388A3600023E36002E023690133236123681B041B0A2360A2680821891B13000B41206900281AD0AB68686883420ED2581CA8601A700AE0AB686A6893425F
:400B000003D25A1CAA60FF221A702369013B23612369012BF1DC072E01DC002300E0FF23AA68686882420AD2FF2030410400107820401070AA688B4011780B4313700CBC30
:400B400090469946F8BDC046FFFFFF00FFFFFE00F0B5474680B404000F001600002902D12022904601E000229046F5183822002120000CF072FF27702C4BA36001235B42A9
:400B8000E36043462362A662E56226636563002F49D122001C3220002830AE4203D2731C2363337800E0002319046160236B9D4203D95E1C26631B7800E000231B020B4360
:400BC0006360216B8D4203D94D1C2563097800E000210B4363605368DD10C168A66A891BA94200DD2900CD005B1B53600BE013681B0A1360C368013BC3601B781B06156852
:400C00002B43136001390029F1D1516807290ADD9368CB18202B00DD20239360E369CB40E3610023536004BC9046F0BDFFFFFF0010B5FFF791FE002800DC002010BDC046B0
:400C4000F0B5474680B4884605001C35036A2027FF1A974200DD1700002F07D0414699400B00C1690B43C3612023036206002836F368B1685C1A00D500246B68D9108C42CA
:400C800000DD0C00E1005B1A6B6008E0F368013BF360297819702B681B0A2B60013C002CF4D16B68072B01DD00236B604146F940C161D21B026204BC9046F0BDF0B5474644
:400CC00080B40700031D984605001C3506002836436B026B9C1AE400036AE41A0EE02200202C00DD20223B6AD318202B01DC3B6203E000213800FFF7A3FF203C002CEEDCEB
:400D0000F368B2689A1A00D500226B68D9108A4200DD0A00D1005B1A6B6008E0F368013BF360297819702B681B0A2B60013A002AF4D16B68072B01DD00236B603100404622
:400D4000FFF72AFE04BC9046F0BDC04630B5031D38E0010028311E4A1C68944202D9DA68002A25D09A68002A1ADBDC68A44662448C684D68AC4213D2651C8D6022700FE037
:400D8000DA68002A01D0002400E0FF248A684D68AA4202D2551C8D6014701A69013A1A611A69002AECDC5A889A600022DA6002E01A6901321A611A681204120A1A60826875
:400DC00012028260034A81689142C2D930BDC046FFFFFE00FFFF0000F0B55F4656464D464446F0B489B002908A461700002900D184E0042900D983E08300464A9A58464BB6
:400E000053441B0193469B440023984601932EE043469B005B4400241C5701269E57331B9946A300FD58013406E0A300D959281C0AF066FC051C0134B442F6DB4346002BA8
:400E400001D1142000E00A204B46434318000BF053FA011C281C0AF007FB002803D04346581CC3B2019343460133DBB29846D045CED30024019B524693426441E4B218002F
:400E8000534537D29B001A005B4603929B5698462049029B9B00844663449B00CB181B69994604A80B005033050046CB46C51B682B60039B1B58029343464A469D1A0135CF
:400EC00012E04B46EB1A9B00DE59AB00D95902980AF056FF011C0124301C0AF0BBFA002800D10024E4B20135002C03D1434601339D42E6DD002C05D0019804E0080002E0E5
:400F0000080000E0504609B03CBC90469946A246AB46F0BDD4E70010FFFFFF0F04280DD803005A1E93410121814289414A429A18032383429B415B42D01800E00020704720
:400F400070B5050014000800FFF7E8FF00280EDD2A6A1318202B05DC9440EA691443EC612B6204E0020021002800FFF769FE70BDF0B55F4656464D464446F0B489B0170048
:400F80009A46C3001B1A59188900354BCB580193344BCB589B4600230293039304AB324A190070CA70C112680A608000C358019AD31A99465B461C680023984638E04346FB
:400FC00001339B005A46D658331B0093A300F858011C0AF0D5FE051C01340AE0A300F858011C0AF0CDFE011C281C0AF089FB051C0134B442F2DB00980BF07EF9011C281C1E
:401000000AF0F4FC011C534601C39A464346DD174B46DB0F4246484682425D41AD0002ABE8580AF06DFB02ABE85001239C46E044019B9845C3DB039D0C4902980AF0A0FEB3
:40104000011C0124281C0AF005FA002800D10024E0B209B03CBC90469946A246AB46F0BD243A0110C001000834E900100000F0410B4B98420CD00B4B98420BD0002902D1AD
:40108000094B984208D0094B984207D1032006E0002004E0012002E0022000E004207047C4090000881300004C1D000010270000002903D1FA235B01984221D0002903D1F1
:4010C000FA239B0198421DD0002902D1144B98421AD0002903D1FA23DB01984216D0002902D1104B984213D0002902D00D4B984210D0002910D00C4B98420FD007200EE04C
:4011000000200CE001200AE0022008E0032006E0042004E0052002E0072000E006207047C05D000080BB000000770100F8B55F4656464D464446F0B40E00934603788278B7
:40114000154947180C39415849008A461349415889008946920012495258013353439846002510E06B0053440021725EFA52AC004C443C190023F05E0BF0BEF82060013572
:401180005B465B00F6184545ECDB3CBC90469946A246AB46F8BDC046AC040000A4040000F8320210F8B55F4656464D464446F0B40E00934603788278184947180C39415856
:4011C00049008A461649415889008946920015495258013353439846002517E06B00534432681212FA52AC004C443C1930680BF083F80300FF22D205024202D0FC231B062C
:40120000C318236001355B469B00F6184545E5DB3CBC90469946A246AB46F8BDAC040000A4040000F8320210F8B55F4656464D464446F0B40E009046037882781C494718EB
:401240000C39415849008B461A49415889008A4692001949525801335343994600251EE03078000273781B040343B078000618436B005B440214FA52AC0054443C190BF034
:401280003BF80300FF22D205024202D0F8231B06C3182360013543465B004344F6184D45DEDB3CBC90469946A246AB46F8BDC046AC040000A4040000F8320210F8B55F462F
:4012C00056464D464446F0B40E009346077883781D4A924682440C3A8258520091461B4A82589200524490469B00194A9B5801375F43002520E02C00AB00434432681000AD
:40130000FF21C905114202D0F021C9045018186064004C4454440AF0CDFF0E4B984205DC0D4B984200DA180000B200E00B48208001355B469B00F618BD42DCDB3CBC9046C9
:401340009946A246AB46F8BDAC040000A4040000F8320210FE7F00000080FFFFFF7F0000F0B5474680B40E009046047883780200B832AC214558AD0055199B00174A9B58D2
:4013800001345C4325E02F680021381C0AF06CF8002807D0FC218905381C0AF0B1F90AF089FF06E0FC218905381C0AF0FDFD0AF081FF0B4B984205DC0A4B984200DA180041
:4013C00000B200E008483080013C043543465B00F618002CD7DC04BC9046F0BDF8320210FE7F00000080FFFFFF7F0000F0B5474680B40F009046057883780200B832AC21A0
:401400004658B60096199B001E4A9B5801355D4332E034680021201C0AF026F800280ED02000FF23DB05234202D08023DB04E018FC2189050AF064F90AF03CFF0DE020009D
:40144000FF23DB05234202D08023DB04E018FC2189050AF0A9FD0AF02DFF0B4B984204DC0A4B984202DA180000E009483860013D043643469B00FF18002DCADC04BC904630
:40148000F0BDC046F8320210FEFF7F00000080FFFFFF7F00F0B5474680B40C009046067883780200B832AC214758BF00D7199B00204A9B5801365E4337E03D680021281C0C
:4014C00009F0D2FF00280ED02800FF23DB052B4202D08023DB04E818FC2189050AF010F90AF0E8FE0DE02800FF23DB052B4202D08023DB04E818FC2189050AF055FD0AF0DA
:40150000D9FE0D4B984204DC0C4B984202DA180000E00B482070031263700014A070013E043743465B004344E418002EC5DC04BC9046F0BDF8320210FEFF7F00000080FFA4
:40154000FFFF7F00F0B55F4656464D464446F0B4CBB00400089115000378180063780693A3780793414EA2199423DB00E158490057183F4BE3589B00D618079B99003D4B80
:40158000CB58411C59438A4659108B469523DB00E3589B0090469844231D0097089A07990590FFF7CBF809902A1D914622001032494600913B000799059801F09DFE68706C
:4015C0005A465200B81A51465B46C91A490079180CF02EFA0196424600923300069A0799059F380002F0ACFE0AAB320006993800FFF7BEFC0790002802D0484602F042F8B9
:401600000AAA0699059F3800FFF7E6FB2870039602962B000C330193099B00930AAB089A06990597380003F0BFFE2B0028331F00297801960093089B079A059805F04EFD9B
:401640006B787835039502969325ED00AC46644401940097089A0699059805F035F84BB03CBC90469946A246AB46F0BDAC040000A4040000F8320210F0B54F4680B496B0C9
:401680000E0017001A00037805934478264D4119264BC3589B00894699443078050006903B00012108A8FFF753FA2A00210008A8FFF746FC350078352B002200059908A839
:4016C00005F0AEF83100283108A805F0C3FD7178109A531C202B06DC91400F9A079211430F91109303E0012208A8FFF7A9FA31000C3108A803F0A6FE7378002B03D0311D4C
:4017000008A801F0C9FF4B46029301950097069B2200059908A805F0BFF808A8FFF7CEFA16B004BC9146F0BDAC040000A4040000F8B50E001700047883780200B832AC215E
:401740004558AD0055199B000D4A9B5801345C4313E02B681800FF22D2051A4201D0094A981809490CF012FEFE2189050CF024FE3060013C0435BB00F618002CE9DCF8BD94
:40178000F8320210000080F8000080BFF0B55F4656464D46E0B482B00500009101921E1E0A9C00DC160029000098FFF761FC070029000198FFF77CFC0190824629003000FD
:4017C000FFF776FC0500032F56D8062856D8824556D8002C56D082002E4BD2587B1C534351108A46CA18D10F8A18511089469B46CB449622D200002120000CF02EF92770ED
:401800006B461B796370A5709423DB005146E150214B4946E15004335946E1501F4B9946A144009D75431E49280009F001FD07001C4870431A4909F0FBFC3818C20F10182B
:4018400040103F181849280009F0F2FC0500174B009A9A4202D1FA20C00000E0114870430F4909F0E5FC2A18BA189200002148460CF0F3F8200006E0002004E0002002E061
:40188000002000E0002002B01CBC91469A46A346F0BDC046F8320210A4040000AC04000040420F00E204000080841E004C1D000000B583B0009313000A0001000020FFF7E6
:4018C00065FF03B000BDC046F0B5A3B006001500002831D007784078042806D9421F7C00A218D200194C125900E01422289C944225DB042807D9421F78008018C000134A0D
:401900001018426801E0C82252002898904219DC89000F4A8F581A0029003000B84701AA28993000FFF70EFE299B289A01A93000FFF7A2FE002007E00120404204E00120B3
:40194000404201E00120404223B0F0BD8032021044E90010F0B55F4656464D464446F0B485B0824603919346002291469846A2E04B46DB17580F4A46121807210A40121A34
:401980009000821850004000514A101819404944C91049001239039B9C466144002400273EE00023CA5E0025435F5343DF190223CA5E0225435F5A43BF180423CA5E042527
:4019C000435F5A43BF180623CA5E0625435F5343FF180823CA5E0825435F5343FA180A23CF5E0A25435F7B43D7180C23CA5E0C25435F5343FA180E23CF5E0E25435F7B43A1
:401A0000D7181023CA5E1025435F5343FA181223CF5E1225435F7B43D7180A3414311430092CBEDD53461C685D68FB171900294A00233800029109F041FD02000B0000921A
:401A40000193A4185D41AB00A40F1C4350468568C668214A01235B423800029909F02EFD2D184E4137002E00E5171C4A00232000290009F023FD36184F4153461E605F6013
:401A8000174A01235B422000290009F017FD009A019B8018594153469860D96080231B029C46644424145B461C8005239C46E144033B9C46E34443469B004344994500DAE4
:401AC00056E705B03CBC90469946A246AB46F0BD64E90010C61BE63E72C83382DB5DC77DBFEE2EC2F0B55F4656464D464446F0B485B0824603919346002291469846BEE0D1
:401B00004B46D90F5A18012313405B1A1A01D31AD8004000614B20331818494449104900EE39039B9C466144002400275CE00023CA5E0025435F5343DF190223CA5E022569
:401B4000435F5A43BF180423CA5E0425435F5A43BF180623CA5E0625435F5343FA180823CF5E0825435F7B43D7180A23CA5E0A25435F5343FA180C23CF5E0C25435F7B436C
:401B8000D7180E23CA5E0E25435F5343FA181023CF5E1025435F7B43D7181223CA5E1225435F5343FA181423CF5E1425435F7B43D7181623CA5E1625435F5343FA18182391
:401BC000CF5E1825435F7B43D7181A23CA5E1A25435F5343FA181C23CF5E1C25435F7B43D7180F341E311E30772CA0DD53461C685D68FB1719002A4A00233800029109F0DA
:401C00005DFC02000B0000920193A4185D41AB00A40F1C4350468568C668224A01235B423800029909F04AFC2D184E4137002E00E5171D4A00232000290009F03FFC361887
:401C40004F4153461E605F60184A01235B422000290009F033FC009A019B8018594153469860D96080231B029C46644424145B461C800F239C46E1440D3B9C46E344434666
:401C80001B0142469B1A994500DA39E705B03CBC90469946A246AB46F0BDC046E4E90010C61BE63E72C83382DB5DC77DBFEE2EC270B552008A1802381CE00023C65E0F4B2B
:401CC00073431D00831E00269E5F0224035FF318F124A4016343EE18031F00241C5F0425435FE318064D2C005C4333191B140B80043002319142E0D370BDC0462D48000014
:401D0000A91F0000F0B55F4656464D464446F0B487B005900F009B46109B9B009846D8445B46039393463EE0039B04339946BB1E0493059E002300200021CA46C1469846EA
:401D40003A0037001CE000217B5E9C460021535E61464B431C00DD1700980199001969410090019101360232023702E00026009001910F2EE7DD0098019901239C46E044C1
:401D80005B461B119845F1DBC84620220023801859418B06800918430AF0AEFA039B186053460393049F039B4345BDD307B03CBC90469946A246AB46F0BDC046F0B54F4629
:401DC00080B482B0060089461700036813600124002301930AE0A3009D59291C386809F025FB002801D03D60019401344C45F2DB019802B004BC9146F0BDC046F0B54746D1
:401E000080B486B00700884604921E00036802933360FE218905101C09F072FC019001240023059316E0A300DD59291C019809F0A7FF0390011C029809F0F8FA002803D0EF
:401E40003560039B0293059401340499019809F057FC01904445E6DB059806B004BC9046F0BDC046F0B557464E464546E0B40D00D20038498A18011F0024095F841E002767
:401E8000E75F861C0024045F6D00AC469C4459E00020355EA9460020155E48464543A8460220155E6543A8440420155E7D43A8440620155E69434144C91319800220315EA6
:401EC0000020155E4D43A8460220155E48464543A8440420155E6543A8440620155E6F434744FF135F800420375E0020155E7D43A8460220155E4D43A8440420155E484618
:401F00004543A8440620155E65432C004444E4139C800620345E0020155E6543A8460220155E7D43A8440420155E4D434544AA460625505F4D46454328005044C013D88087
:401F4000083308366345A3D31CBC90469946A246F0BDC046E4EB0010F8B505000B1DDC17A20F9B18032423409C1A63012D4C2034E418002909DA0300103B1868271D21687E
:401F800009F0FEFE061C3C0008E0002905DDE169006909F0F5FE061C00E000262B000C3B1868216809F0ECFE071C2B00083B1868616809F0E5FE011C381C09F0A1FB071CD7
:401FC0002B1F1868A16809F0DBFE011C381C09F097FB071CE168286809F0D2FE011C381C09F08EFB071C2169686809F0C9FE011C381C09F085FB071C6169A86809F0C0FEAD
:40200000011C381C09F07CFB071CE868A16909F0B7FE011C381C09F073FB011C301C09F06FFBF8BDE4EB0010F0B599B00D001F00941E6400202C00DA202402325200E42A2E
:4020400000DDE422121B561C63425900083141180932009207AB2A00FFF754FE06AA31000BA8FFF7ABFE2618043C341BA400230007AA94466344039300211800FFF76CFF34
:402080000290012400252CE07E2E09DD01239C2E00DC0023012222401343DBB2002B1FD121000398FFF758FF0490011C029809F0BDF9002802D0049B02932500202E0FDDA6
:4020C0006342049319000398FFF746FF0590011C029809F0ABF9002802D0059A0292049D0134032CD0DDE80F301A002D01DA042300E00023EB1882009A183A607E2802DC25
:40210000803A100008E09C2804DC40005B10C0187E3001E01C30FF3019B0F0BDF0B55F4656464D464446F0B49FB004900F0016001D00289B9A462A9C2B9A002A03DCFE2322
:402140009B05029301E000230293D017801AC30FD00F181A0AF0D0F8009029980AF0CCF8011C009809F042FC0390331D52460499521A9210934204DDFB1A9B0053449B466C
:4021800003E09B005246D31A9B46664B9C466744BF00049B9946B9440026D046A24634003FE0A300002206A95A505B461E682B1D05932B680093D94503D904239C46E344D7
:4021C00001E0049B9B460025019656460EE0671BAB009959019809F0D3FD011CBF0006ABF85809F0E1FE06ABF8500135AC42EEDA0025370010E0661B2B0008339B00D9591D
:40220000009809F0BDFD011CB60006ABF05809F077FA06ABF0500135AC42ECDABA460134059D062CBDDD5446C24600230D930023984643460593270068E05B461B680193F1
:4022400053461B6800934B465B4503D904239C46E34401E0049B9B46002515E0FB1D5B1BDC17620F9B18072423409C1AAB009959019809F085FD011CA40006ABE05809F0BA
:4022800093FE06ABE0500135072DE7DD002517E0FB1D5B1BDC17640F1B19072213401C1B2B0008339B009959009809F069FD011CA40006ABE05809F023FA06ABE0500135C6
:4022C000072DE5DD53461D1DBC0006ABE35801930299181C09F054FD011C009809F064FE53461860002306AAA35001370399029809F006FA0290AA4602E000233E001F008E
:40230000072F9ADD3700059B08330593299B059A9342F2DC1FB03CBC90469946A246AB46F0BDC046FFFFFF3FF0B55F4656464D464446F0B4F7B008900E0005920993B64BD4
:40234000C3581A00043A904601D5002290460433612B00DD612342469F1A01376223009312AB059A310022393000FFF7CBFC75ABAA4A622112A8FFF741FD06904246900089
:4023800012AA9446604474AA3900FFF717FD030043441F000B93069B11335B00F31A984611377F00F71B759B07930021181C09F047F8002878D1B146B44600239A4600207B
:4023C00000213200BB464F461CE000217B5E99460021535E49464B431C00DD1702980399001969410290039101360232023702E00026029003910F2EE7DD029803990123D4
:402400009946CA44059B1B119A45F1DB5F469B46664620220023801859418B068009184309F06AFF0A9000239C4600220023B94647464046B2461CE00023F95E8846002343
:40244000C15E434659430C00CD17029A039B12196B410292039301360230023702E00026029203930F2EE7DD029A039B01218846C444DC45F3DB4F465646202000218018CD
:4024800059418B068009184309F036FF041C0A9D291C201C09F074FC0BF0FCFF011C079809F0A4FA079001E000230793749B0A930021181C08F0C4FF002878D100239C467E
:4024C00000220023BA463700B046059989461EE00023C15E88460023F95E434659430C00CD17029A039B12196B410292039301360237023003E000260292039340460F2E8D
:40250000E6DD029A039B804601218B46DC44494609118C45EFDB57460D0020200021801859418B068009184309F0E6FE059000239C4600220023B846A94655461EE000236A
:40254000E95E88460023C15E434659430E00CF17029A039B92197B410292039301340230023503E000244046029203930F2CE6DD8046029A039B01218A46D444CC45F1DBE6
:4025800020200021801859418B068009184309F0B3FE051C059C211C281C09F0F1FB0BF079FF011C0A9809F021FA041C00E000241B49079809F0E4FB051C011C201C08F08A
:4025C0003FFF002801D0069800E00B98124B089AD0501130099B1860291C201C08F030FF002809D001240F49079808F033FF002800D10024E0B208E001250A49201C08F0D4
:4026000029FF002800D10025E8B277B03CBC90469946A246AB46F0BD840400003FE8A8BB9A99593F9A99193FF0B55F4656464D464446F0B485B082460391934600229146EE
:402640009846A3E04B46DB17980F4A46121803210A40121A9000821890004000524A2032101819404944891049002639039B9C466144002400273EE00023CA5E0025435FA4
:402680005343DF190223CA5E0225435F5A43BF180423CA5E0425435F5A43BF180623CA5E0625435F5343FF180823CA5E0825435F5343FA180A23CF5E0A25435F7B43D71807
:4026C0000C23CA5E0C25435F5343FA180E23CF5E0E25435F7B43D7181023CA5E1025435F5343FA181223CF5E1225435F7B43D7180A3414311430132CBEDD53461C685D68E3
:40270000FB171900294A00233800029108F0D6FE02000B0000920193A4185D41AB00A40F1C4350468568C668214A01235B423800029908F0C3FE2D184E4137002E00E51759
:402740001C4A00232000290008F0B8FE36184F4153461E605F60184A01235B422000290008F0ACFE009A019B8018594153469860D96080231B029C46644424145B461C8026
:4027800005239C46E144033B9C46E34443469B004344994500DA55E705B03CBC90469946A246AB46F0BDC04664EC0010C61BE63E72C83382DB5DC77DBFEE2EC2F0B55F465F
:4027C00056464D464446F0B485B0824603919346002291469846A0E04B46D90F5A18012313405B1A9A00D318D8004000514B403318184944491049004E39039B9C4661442D
:40280000002400273EE00023CA5E0025435F5343DF190223CA5E0225435F5A43BF180423CA5E0425435F5A43BF180623CA5E0625435F5343FF180823CA5E0825435F5343F4
:40284000FA180A23CF5E0A25435F7B43D7180C23CA5E0C25435F5343FA180E23CF5E0E25435F7B43D7181023CA5E1025435F5343FA181223CF5E1225435F7B43D7180A34BC
:4028800014311430272CBEDD53461C685D68FB171900294A00233800029108F00FFE02000B0000920193A4185D41AB00A40F1C4350468568C668214A01235B423800029934
:4028C00008F0FCFD2D184E4137002E00E5171C4A00232000290008F0F1FD36184F4153461E605F60174A01235B422000290008F0E5FD009A019B8018594153469860D960CF
:4029000080231B029C46644424145B461C8005239C46E144033B9C46E34443469B004344994500DA58E705B03CBC90469946A246AB46F0BDE4EC0010C61BE63E72C8338204
:40294000DB5DC77DBFEE2EC2F0B55F4656464D464446F0B485B0824603919346002291469846C1E04B46DB17580F4A46121807210A40121A1001821A50004000614A6032F9
:40298000101819404944C91049003A39039B9C466144002400275CE00023CA5E0025435F5343DF190223CA5E0225435F5A43BF180423CA5E0425435F5A43BF180623CA5EBF
:4029C0000625435F5343FA180823CF5E0825435F7B43D7180A23CA5E0A25435F5343FA180C23CF5E0C25435F7B43D7180E23CA5E0E25435F5343FA181023CF5E1025435FD7
:402A00007B43D7181223CA5E1225435F5343FA181423CF5E1425435F7B43D7181623CA5E1625435F5343FA181823CF5E1825435F7B43D7181A23CA5E1A25435F5343FA1857
:402A40001C23CF5E1C25435F7B43D7180F341E311E301D2CA0DD53461C685D68FB171900294A00233800029108F028FD02000B0000920193A4185D41AB00A40F1C43504649
:402A80008568C668214A01235B423800029908F015FD2D184E4137002E00E5171C4A00232000290008F00AFD36184F4153461E605F60184A01235B422000290008F0FEFCDA
:402AC000009A019B8018594153469860D96080231B029C46644424145B461C800F239C46E1440D3B9C46E34443461B0142469B1A994500DA36E705B03CBC90469946A2465A
:402B0000AB46F0BD64ED0010C61BE63E72C83382DB5DC77DBFEE2EC2F0B55F4656464D464446F0B485B0824603919346002291469846C1E04B46DB17980F4A4612180321F8
:402B40000A40121A1001821A90004000614A4032101819404944891049007639039B9C466144002400275CE00023CA5E0025435F5343DF190223CA5E0225435F5A43BF18D0
:402B80000423CA5E0425435F5A43BF180623CA5E0625435F5343FA180823CF5E0825435F7B43D7180A23CA5E0A25435F5343FA180C23CF5E0C25435F7B43D7180E23CA5EEA
:402BC0000E25435F5343FA181023CF5E1025435F7B43D7181223CA5E1225435F5343FA181423CF5E1425435F7B43D7181623CA5E1625435F5343FA181823CF5E1825435F7D
:402C00007B43D7181A23CA5E1A25435F5343FA181C23CF5E1C25435F7B43D7180F341E311E303B2CA0DD53461C685D68FB171900294A00233800029108F040FC02000B008A
:402C400000920193A4185D41AB00A40F1C4350468568C668214A01235B423800029908F02DFC2D184E4137002E00E5171C4A00232000290008F022FC36184F4153461E6034
:402C80005F60184A01235B422000290008F016FC009A019B8018594153469860D96080231B029C46644424145B461C800F239C46E1440D3B9C46E34443461B0142469B1A82
:402CC000994500DA36E705B03CBC90469946A246AB46F0BD64EF0010C61BE63E72C83382DB5DC77DBFEE2EC2F0B55F4656464D464446F0B49FB004900F0016001D00289B18
:402D00009A462A9C2B9A002A03DCFE239B05029301E000230293D017801AC30FD00F181A09F0EAFA0090299809F0E6FA011C009808F05CFE0390B31D52460499521A921018
:402D4000934204DDFB1A9B0053449B4603E09B005246D31A9B46654B9C466744BF00049B9946B9440026D046A24634003FE0A300002206A95A505B461E682B1D05932B68EB
:402D80000093D94503D904239C46E34401E0049B9B460025019656460EE0671BAB009959019808F0EDFF011CBF0006ABF85809F0FBF806ABF8500135AC42EEDA0025370009
:402DC00010E0661B2B000C339B00D959009808F0D7FF011CB60006ABF05808F091FC06ABF0500135AC42ECDABA460134059D0A2CBDDD5446C24600231193002398464346FF
:402E00000593270066E05B461B68019353461B6800934B465B4503D904239C46E34401E0049B9B46002414E038000B30001B0C2108F0E4FA0D00A3009959019808F0A0FF0D
:402E4000011CAD0006ABE85809F0AEF806ABE85001340B2CE8DD002416E038000B30001B0C2108F0CBFA0D0023000C339B009959009808F085FF011CAD0006ABE85808F089
:402E80003FFC06ABE85001340B2CE6DD53461D1DBC0006ABE35801930299181C08F070FF011C009809F080F853461860002306AAA35001370399029808F022FC0290AA4677
:402EC00002E000233E001F000B2F9CDD3700059B0C330593299B059A9342F2DC1FB03CBC90469946A246AB46F0BDC046FFFFFF3FF0B55F4656464D464446F0B49FB004903B
:402F00000F0016001D00289B9A462A9C2B9A002A03DCFE239B05029301E000230293D017801AC30FD00F181A09F0E6F90090299809F0E2F9011C009808F058FD0390B31C64
:402F400052460499521A9210934204DDFB1A9B0053449B4603E09B005246D31A9B46654B9C466744BF00049B9946B9440026D046A24634003EE0A300002206A95A505B46A0
:402F80001E682B1D05932B680093D94503D904239C46E34401E0049B9B460025019656460EE0671BAB009959019808F0E9FE011CBF0006ABF85808F0F7FF06ABF850013523
:402FC000AC42EEDA002537000FE0661B2B1D9B00D959009808F0D4FE011CB60006ABF05808F08EFB06ABF0500135AC42EDDABA460134059D022CBEDD5446C24600230993AE
:403000000023984643460593270067E05B461B68019353461B6800934B465B4503D904239C46E34401E0049B9B46002515E0FB1C5B1BDC17A20F9B18032423409C1AAB0012
:403040009959019808F09CFE011CA40006ABE05808F0AAFF06ABE0500135032DE7DD002516E0FB1C5B1BDC17A40F1B19032213401C1B2B1D9B009959009808F081FE011CAB
:40308000A40006ABE05808F03BFB06ABE0500135032DE6DD53461D1DBC0006ABE35801930299181C08F06CFE011C009808F07CFF53461860002306AAA3500137039902989E
:4030C00008F01EFB0290AA4602E000233E001F00032F9BDD3700059B04330593299B059A9342F2DC1FB03CBC90469946A246AB46F0BDC046FFFFFF3FF0B55F4656464D46C8
:403100004446F0B49FB004900F0016001D00289B9A462A9C2B9A002A03DCFE239B05029301E000230293D017801AC30FD00F181A09F0E2F80090299809F0DEF8011C00980A
:4031400008F054FC0390F31C52460499521A9210934204DDFB1A9B0053449B4603E09B005246D31A9B46634B9C466744BF00049B9946B9440026D046A24634003EE0A300D2
:40318000002206A95A505B461E682B1D05932B680093D94503D904239C46E34401E0049B9B460025019656460EE0671BAB009959019808F0E5FD011CBF0006ABF85808F02F
:4031C000F3FE06ABF8500135AC42EEDA002537000FE0661BAB1D9B00D959009808F0D0FD011CB60006ABF05808F08AFA06ABF0500135AC42EDDABA460134059D042CBEDD75
:403200005446C24600230B930023984643460593270063E05B461B68019353461B6800934B465B4503D904239C46E34401E0049B9B46002413E0781D001B062108F0DEF8DE
:403240000D00A3009959019808F09AFD011CAD0006ABE85808F0A8FE06ABE8500134052CE9DD002414E0781D001B062108F0C6F80D00A31D9B009959009808F081FD011CEC
:40328000AD0006ABE85808F03BFA06ABE8500134052CE8DD53461D1DBC0006ABE35801930299181C08F06CFD011C009808F07CFE53461860002306AAA35001370399029884
:4032C00008F01EFA0290AA4602E000233E001F00052F9FDD3700059B06330593299B059A9342F2DC1FB03CBC90469946A246AB46F0BDC046FFFFFF3FF0B55F4656464D46BF
:403300004446F0B4CD4CA5448A460791934602930590431C5A0120205844814698010890C0235B0000929B1A5B009846484401001A0048460AF07CFBC84450468300C04AD1
:40334000D318186A814658461030009B42460299C847059A022A02D15820404201E030204042030043440293009A51108946C8239B005B4449008A46B2224946521A5100DC
:403380008846180019005144424606930AF050FB06988446E0444A4641460298FEF788FC059900290BD1029B08995B1A0293434651465B1A9846009A53000093894600238D
:4033C0008C938DAB4A4641465846FEF7ADFF06900890002800D1C9E08CAB8D9A0099884602988146FEF720FE989B58600CAB002241464846FEF736FD8C9B981040004A4677
:40340000101A03221A404CAB4146FEF72BFD00239A46002200234CA989460CA9029603970F00DC46C3461FE00023F95E88460023F15E434659430C00CD17009A019B1219EC
:403440006B410092019301300236023704E000214E460092019308000F28E5DDB146009A019B01218846C244594609118A45EEDB8846E34620200021801859418B06800900
:40348000184308F039FF099000239946002000210CADAC461EE000216B5E9C460021535E61464B431E00DF1700980199801979410090019101340232023503E0002462461F
:4034C000009001910F2CE6DD94460098019901239A46D144C145F1DB20220023801859418B068009184308F007FF02900027002200234CADAC46B9462F001EE00023C15E54
:403500008C460023F95E634659430C00CD17009A019B12196B410092019301360237023003E000266046009201930F2EE6DD8446009A019B01218A46D144C145F1DB202047
:403540000021801859418B068009184308F0D4FE041C029D291C201C08F012FC0AF09AFF011C099808F042FA051C00E000255B461B78002B3AD05B465B688C991A008B42EF
:4035800000DA0A008B4200DD0B00D61A5B469968281C08F009FD041C079B042B18D8089B002B17D02749281C07F054FF002813D12549281C07F04EFF00280FD0072E0FDCE1
:4035C0002249201C07F046FF00280BD100230AE0002308E0002306E0012304E0002302E0002300E00123989A137036E0079B042B1BD8089B002B1AD0059B032B06D0144947
:403600005B46D86807F026FF002812D010495B46986807F01FFF00280DD00D49281C07F019FF002816D1002315E0002313E0002311E000230FE000230DE0C046C4FDFFFF8E
:4036400064F100106666663F3D0A573FCDCCCCBDD7A3703F0123989A1370989B1B785A4613705B468C9A5A609A68DA609D6006988F239B009D443CBC90469946A246AB467E
:40368000F0BDC046002303707047C04683001B18580001307047C04670B504000D000978026A531C202B05DC9140C2691143C161036202E00122FDF7C3FA6968226A13004D
:4036C0000933202B05DC9140E2691143E161236203E009222000FDF7B3FA70BDF0B55F4656464D464446F0B48FB0040008001F000C930D92052107F09BFD09900023984691
:403700008346BA4627006BE15B46DD007D192C685E01BE1933680093191C201C07F0F0FF02906D687668311C281C07F0E9FF03900099201C08F038FC0090311C281C08F088
:4037400033FC01905B461D017D192C685B005B44DE00BE1933680693191C201C07F0D0FF04906D687668311C281C07F0C9FF05900699201C08F018FC0690311C281C08F054
:4037800013FC051C3968029807F0BAFF011C049807F0B6FF534618607968039807F0B0FF011C059E301C07F0ABFF534658603C68A949029808F0E4FA0790011C201C07F06B
:4037C0009FFF041CA549019808F0DAFA011C201C07F096FF041CA249049808F0D1FA0890011C201C07F08CFF041C9E49281C08F0C7FA011C201C07F083FF524690607C68B4
:403800009549039808F0BCFA0A90011C201C07F077FF041C9449009808F0B2FA011C201C07F06EFF041C8E490596301C08F0A8FA0B90011C201C07F063FF041C8B490698B4
:4038400008F09EFA011C201C07F05AFF5246D0603C688349029808F093FA061C011C201C07F04EFF041C7F49019808F089FA011C201C07F045FF041C7749049808F080FA7B
:403880000290011C201C07F03BFF041C7649281C08F076FA011C201C07F032FF524610617C686F49039808F06BFA0390011C201C07F026FF041C6D49009808F061FA011C5D
:4038C000201C07F01DFF041C6349059808F058FA0490011C201C07F013FF041C5F49069808F04EFA011C201C07F00AFF524650613968301C07F004FF041C5C49019808F04B
:403900003FFA011C201C07F0FBFE011C029807F0F7FE041C5149281C08F032FA011C201C07F0EEFE524690617968039807F0E8FE041C4C49009808F023FA011C201C07F070
:40394000DFFE011C049807F0DBFE041C4649069E301C08F015FA011C201C07F0D1FE5246D0613968079807F0CBFE041C3E49019808F006FA011C201C07F0C2FE011C08984E
:4039800007F0BEFE041C3949281C08F0F9F9011C201C07F0B5FE5246106279680A9807F0AFFE041C2D49009808F0EAF9011C201C07F0A6FE011C0B9807F0A2FE041C29496A
:4039C000301C08F0DDF9011C201C07F099FE5346586201239C46E044083727339C46E244C34500DD90E600230A930B9376E10B9B9B001F4A9C580A9A93000CA95B589A467B
:403A000001235A400A9293005B581D0002930321099807F00DFC099023681A00019363681900059313018C469C44614606916344079303005343DB009B46D3445B441E00B3
:403A4000D300AC469C446246039263440493002308935F463BE1C0467A379E3E7178733FBD1B4FBF1879163F717873BF187916BF4C0300084B46DB00029A904600939C4682
:403A8000E04451460D68494609018B46059959440C000968386808F073F9011C281C07F02FFE051C6168786808F06AF9011C281C08F07AFA051CA168306808F061F9011C08
:403AC000281C07F01DFE051CE168706808F058F9011C281C08F068FA4146086051464D682168786808F04CF9011C281C07F008FE051C6168386808F043F9011C281C07F0D5
:403B0000FFFD051CA168706808F03AF9011C281C07F0F6FD051CE168306808F031F9011C281C07F0EDFD414648600399009B9C466144884652461568069A5A441400116810
:403B4000386808F01DF9011C281C07F0D9FD051C6168786808F014F9011C281C08F024FA051CA168306808F00BF9011C281C07F0C7FD051CE168706808F002F9011C281CB3
:403B800008F012FA42461060524655682168786808F0F6F8011C281C07F0B2FD051C6168386808F0EDF8011C281C07F0A9FD051CA168706808F0E4F8011C281C07F0A0FD2E
:403BC000051CE168306808F0DBF8011C281C07F097FD42465060009B049A94466344984653461D68079B5B441C001968386808F0C7F8011C281C07F083FD051C6168786847
:403C000008F0BEF8011C281C08F0CEF9051CA168306808F0B5F8011C281C07F071FD051CE168706808F0ACF8011C281C08F0BCF94346186053465D682168786808F0A0F845
:403C4000011C281C07F05CFD051C6168386808F097F8011C281C07F053FD051CA168706808F08EF8011C281C07F04AFD051CE168306808F085F8011C281C07F041FD434625
:403C8000586001239C46E14407339C46E2440837083601E000239946019B4B4500DDE9E6089B01330893019B5A009C466244D300029A94469C4462460292039A94469C44FB
:403CC00062460392049A94469C4463460493099B089A9342DEDC0B9B01330B93099A1300013B134200D082E600230493A2E0049A5300944663440B9A944663449B00554A15
:403D00009B580A998A000CA81658012251400A918A00125811000092099A52100992186883465B68029314004443E4003419C3008C46634401930023039374E04346DB000D
:403D40009946009B4B449A463768029B4B441D001968206808F014F8011C381C07F0D0FC071C6968606808F00BF8011C381C08F01BF95346186077682968606808F000F8C4
:403D8000011C381C07F0BCFC071C6968206807F0F7FF011C381C07F0B3FC53465860019B9C46E14437682968206807F0E9FF011C381C08F0F9F8071C6968606807F0E0FFEC
:403DC000011C381C07F09CFC4B46186077682968606807F0D5FF011C381C08F0E5F8071C6968206807F0CCFF011C381C08F0DCF84B46586001239C46E0440836083401E028
:403E000000239846C34599DC039B013303935B461B01009A94469C4462460092019A94469C4463460193099B039A9342E8DC049B01330493099B012B00DD58E70A9B9B004F
:403E40000CAA98580FB03CBC90469946A246AB46F0BDC04610030008F0B55F4656464D464446F0B489B091469B46C3001B1A5B189B00914A9D588A00904BD258431C534397
:403E8000022802D189008E4A8A58D2185210990007918C46AC4461469400A444604602909A1A92004A449046DE0FF6187610B6003300129A9446634422005A4406929A46AF
:403EC00044460F004A46059289465E469B4654E02968306807F054FF0090231F18684B46043B196807F04CFF011C009808F05CF85B46043B1860434618683060396807F098
:403F00003FFF5346186008235B429C46E34410339C46AC44634600936968706807F030FF0190083C4B46083B1D001968206807F027FF011C019808F037F85A46106008233D
:403F40005344019308229446B4446246039208224244049241464868706008218946B944796807F00DFF51464860039E019B9A46049A90464F46A946009D059B9C42A7D8C9
:403F80004B4601935B46B346079A9446A444624600924646069A90465C469B4681E02968206807F0EDFE039004235B4243449946019B043B19684A46106807F0E1FE011CB0
:403FC000039807F0F1FF5A46131F186030682060396807F0D5FE0390009B043B18684A461060029A131F196807F0CAFE011C039807F086FB51460860082040428446E344AD
:4040000010308446AC44604603906968606807F0B7FE051C082149428C46E04401998946E144494609684046006807F0A9FE011C281C07F0B9FF59460860082151440191BC
:4040400008208446A444604604900825AC46B44465460595706860600824A446BC4464460694796807F08CFE041C009B083B1E00186843461860029A083A1500116807F07C
:404080007FFE011C201C07F03BFB53465860049C01998A460096059E0295069F4B460193039D009B9E4200D279E709B03CBC90469946A246AB46F0BD30020008F832021059
:4040C000C0320210F0B55F4656464D464446F0B48DB08B4616000368DA008C1843689F189246B244B8462700D146B24675E0082294469C446246009206AD290011CB11C1A7
:404100003B1F1E68802109067018069A0192111C07F036FE041C594609680B1C6D68291C0293181C07F02CFE011C201C07F0E8FA04AC04900299019807F022FE0190291CEA
:40414000301C07F01DFE011C019807F0D9FA6060082149428C46E0440AAB1900404660C860C1674439688022120601918C46624410000B9A0292111C07F002FE061C5D4618
:404180006D680A990391281C07F0FAFD011C301C07F0B6FA08AE089008239C46E34480231B06E918029807F0EBFD051C0399019807F0E6FD011C281C07F0F6FE706051460E
:4041C00021CC21C1082149428C46E144494611CE11C108218C46E244009BBB4587D30DB03CBC90469946A246AB46F0BDF0B55F4656464D464446F0B48BB0914603685A1071
:404200004068D200804690440820404240448B4693445E46083E9B004B4407004546CA4699465C46984659E063686A680192111C0093181C07F0A4FD049021680B1C2968B5
:4042400003910293181C07F09BFD011C049807F057FA089032687B680593191C0492101C07F08EFD099072683B680793191C0692101C07F085FD011C099807F095FE099028
:404280000299019807F07CFD01900399009807F077FD011C019807F087FE83460699059807F06EFD00900799049807F069FD011C009807F025FA4B46089A1A60099A5A6093
:4042C0004346043B5A461A60043B18600834083E0835083F984608239C46E144D045A3D80BB03CBC90469946A246AB46F0BDC046F0B583B004000D00019200261AE0019F4F
:40430000391C206807F03CFD2060391C606807F037FD60600197391CA06807F031FDA060230010331F000199E06807F029FDE06001363C00AB109E42E1DB03B0F0BDC046DA
:40434000F0B5294CA5440393C3001B1A5B189B00264C1F59264C92001259431C16005E438A0014595C4304AD0095F2231B0102AA944663441B68039AFFF76EFD2A00290021
:404380003800FFF79FFEE10F09194910194B02AA944663441B682A002800FFF79FF90100144B02AA944663441A683800FFF71EFFB44215D0300007F09FFF051C200007F0A1
:4043C0009BFF011C281C07F011FB0AF063F8021C3100084B02A8844663441868FFF788FF054B9D44F0BDC046ECF0FFFFA0020008F8320210240F0000140F0000F0B5474684
:4044000080B407008846002617E0B500454400232B6000240EE0A300D85923019B199B00084A995807F0ACFC011C286807F068F9286001340F2CEEDD01360F2EE5DD04BC71
:404440009046F0BDB4F10010F0B5474680B407008846002617E0B500454400232B6000240EE0A300D85933011B199B00084A995807F086FC011C286807F042F9286001347F
:404480000F2CEEDD01360F2EE5DD04BC9046F0BDB4F10010F0B55F4656464D464446F0B485B0002313600B6098460023039302930700C346914688464AE05B465B01294A70
:4044C0009E18294A9A46924400240023019300931DE0A5007159785907F066FD011C07F04FFC011C009807F00BF90090230008339B00D8595346595907F056FD011C07F066
:404500003FFC011C019807F0FBF801900134072CDFDD5B46002B05D00099029806F09AFF002804D043465A461A60009B02935B46002B05D00199039806F08CFF002804D066
:404540004B465A461A60019B039301239C46E3445B461F2BB1DD05B03CBC90469946A246AB46F0BD2436011024320110F0B55F4656464D464446F0B489B09246139A9046C3
:40458000149A91460D000700C346984666E05B461B6805933968181C07F0B2F8011C07F0EFFB03904B461B681C1C06932B68580007F0A2FE211C07F0A3F8FE21890507F098
:4045C0009FF804900124002307932E0028E0A5007959059807F094F8011C07F0D1FB01907059400007F088FE069907F089F8FE21890507F085F8051C0199049807F0C0FBA9
:404600000290291C039807F0BBFB011C029806F021FF002803D007940495019B039301345445D4DB3500079B9C003959059807F067F85B461860341923685800013007F047
:404640005BFE011C4B46186807F05AF84B46186023680133236001239C46E044129B984595DB09B03CBC90469946A246AB46F0BDF0B557464E46C0B483B00B9E40011F4C3D
:404680008146A14449011E4FCF19DB001D49CB1859680A9B9B00CB58019331001000FFF7D3FE00250EE0AC004B461B599A4634192168019807F064FB011C504607F020F8A0
:4046C00020600135072DEEDD082510E0AC000E4BEB189B00DB59994634192168019807F04FFB011C484607F00BF8206001350F2DECDD03B00CBC91469A46F0BD24360110D8
:4047000024320110BC310110F8FFFF3FF0B5474680B49C468B00C018002400E0013404380768002F01D10E2CF8DD00231360FB0F65462B70FB17FF185F40013421E0043820
:404740000368002B08D015686D006646367835431560DD0F664635703E000A2F00D90A26A5002D196D002D19AD19AD00074EAD591668B046454415600134DD175B196B40B7
:40478000FF188C42DBDB04BC9046F0BDFC2E011070B505000C00012801DC0A2100E010212000FFF7B3FF002D06D120002830059B049A0621FFF7AAFF70BDC046F0B55F46A3
:4047C00056464D464446F0B4C7B08346894604921C0050AB1B780393519B9846C3001B1A4B449B00E94A9D581F2D05DC2900202006F004FE0B0000E000231F2D02DCEA1A99
:40480000944602E04022521B94460022AA460EE09100481C8E1CCF1C0959BF0006AD7951B6007151800041511001415101329A42EEDB180067460AE0C1184A00013286005B
:404840003659920006AD5651C9004E510130DA199042F1DB55461801FA00801806AA92465044D91989006118EA1AD21B920009F0D6F84B469B00C64A9C58069B0093002669
:40488000002201921D1C270075E0FA218905281C07F076FA051CFC218905009807F070FA011C281C06F02CFF041C731C9B009A4606AB5246D558FA218905281C07F060FA15
:4048C0000290011C201C06F01BFFB400E15907F057FA011C06AAA050019806F011FF0190FA218905009807F04BFA041CFC218905281C07F045FA011C201C06F001FF0090F9
:40490000B31C9C0006AAA558FA218905281C07F037FA011C009806F0F3FE5246D15907F02FFA011C06AA53469850019806F0E8FE0190FC218905281C07F022FA011C0298BF
:4049400006F0DEFE02900336B30006AA9B580093FA218905181C07F013FA011C029806F0CFFEE15907F00CFA011C06ABE050019806F0C6FE01903E2E87DD281CFA21890580
:4049800007F0FEF9051CFD218905009807F0F8F9011C281C06F0B4FEFC25795907F0F0F9011C06AB5851019806F0AAFE794907F0E7F9BE21890509F0E9FC019000273BE07B
:4049C000BE0006ABF35800930199181C09F0DEFCC30DFF251D407E3D6F4C2040FC24A40504436E49201C07F0CBF96D4906F088FE011C201C07F0C4F96A4907F0D5FA011C0F
:404A0000201C07F0BDF9684906F07AFE011C201C07F0B6F9654907F0C7FA041C280007F06BFC011C201C06F06BFEFC21890507F0A7F906ABF05001373F2FC1DD069C0A9BED
:404A40000093191C201C06F05BFE594906F0CEFF051C099B0093191C201C06F051FE011C06F04EFE524906F0C1FF011C281C06F047FE041C0798089906F042FE4D4907F001
:404A80007FF94B4906F0B2FF011C201C06F038FE009042461060012745463AE0BC002E19631E9B0006AA985801373B01995806F027FE3F4906F09AFF0190A30006AA98583F
:404AC000E31C9B00995806F01BFE011C06F018FE374906F08BFF011C019806F011FE0190631C9B0006AA98580234A400A15806F007FE304907F044F92D4906F077FF011C73
:404B0000019806F0FDFD011C3060009806F0F8FD00900E2FC2DDA846EC2306AAD0581033D458211C06F0ECFD214906F05FFF061CF02306AAD158201C06F0E2FD011C06F000
:404B4000DFFD1B4906F052FF011C301C06F0D8FD041CF42306AAD0580433D15806F0D0FD144907F00DF9124906F040FF011C201C06F0C6FD011C2B00D863009806F0C0FD7E
:404B800000904B46042B19D90B4D18E0243A0110B4F5001017B7D135FFFF7F80E7BBA5BF1EC4A3406AC4064174B00141F55C604000004041000040409A99193F634D4B4606
:404BC000042B16D9049BDB005A46022A03D8511C5F4A4A4300E05F4A9A420ADA5B46022B02D8FA21890500E05B49281C07F0C8F8051C00270195464611E0BC0034192568C9
:404C0000F6218905009807F0BBF8011C281C07F0CBF9011C019807F0B3F8206001370F2FEBDDB046039B002B00D187E03368009372680292B1680C1C0391F1680E1C0491DB
:404C4000111C181C06F05CFD011C201C06F058FD051C424906F0CAFE041C43461860291C301C06F04DFD061CFA21890507F088F8011C43465860201C06F042FD02270190B9
:404C8000301C46461DE0BB1C9B00F458BB00F518211C06F035FD3249059006F0A7FE011C2860019806F02CFD019001370099059807F07AF9029B0093039B0293049B03932B
:404CC00004940D2FDFDD019DB046FA218905061C07F056F8041C434698630099301C07F063F91E4906F082FE011C4346D863201C06F006FD011C281C06F002FD00270190A3
:404D00005D4619E0BC00022D02D1164B009302E0FC239B05009344442668F6218905019807F02EF8011C301C07F03EF9011C009807F026F8206001370F2FE3DD47B03CBC7A
:404D400090469946A246AB46F0BDC0469A99593F7E040000301100003333B33E000040400000A0409A99993EF0B583B005000F000022002404E09300EB585B43E4180132EA
:404D80000F2AF8DD200007F0B7FA09F083FB011CFE20800506F02AFE0190002409E0A300FE18E85807F0A8FA019906F0E9FF306001340F2CF3DD03B0F0BDC046F0B55F46A0
:404DC00056464D464446F0B4BDB082461C00469B98464901B44B8B469B445201B34BD31805930025A14613E0AF005B46D9595346D85907F0D9F82CAC38512E000836B600E3
:404E0000059BD9595346F05807F0CEF830510135072DE9DD4C461CA92CA8FFF7EFFA0025002009E0AB001CAA9958490049080CAA995006F065FC01350F2DF3DD9C4909F007
:404E4000A5FA011C9B4806F0D1FD069000230B930A9300250026A14625E0AC000CABE3580593191C069806F08BFF09F041FA07F021FA07004C442300C0229850361807F00C
:404E80003BFA059906F07CFF011C0B9806F038FC0B903800784307F02FFA011C0A9806F02FFC0A9001350F2DD7DD4C464F46C0370AAB02930BAD019506230093330010229F
:404EC00039000CA8FFF752FB4B468033402239001F00180008F0A3FD0AAB0293019508230093023B102239000CA8FFF73FFB40239C46CC446346604605934022390008F0DB
:404F00008EFD0A2608271EE0B300E21800211164803155587F1B0CAA9B589946280007F0EBF9494606F02CFF011C0B9807F03CF80B902800684307F0DFF9011C0A9807F035
:404F400033F80A9001360F2EDEDD0AAE02960BAD01950A2300933B000A22059F39000CA8FFF704FB40223900200008F058FD2100283102960195012300930023062216A882
:404F8000FFF7F4FA002718E0B501BB001CAA9858002106F04BFA002804D06319BA00D258524202E06319BA00D258B900CA50013600E00026032EE7DD01370F2FF9DD0025C3
:404FC000464605E0A80131182018FFF7CDFE0135032DF7DD0023489A1360479A13609946FF23DB050993370054E04B46DB00324A9B46934400239A460893FF23DB0507938D
:405000003E004F4630E053469B005A465268D3580693002400230593350015E0A2001CABD658BB01EB18D158069806F0A9FE011C301C06F0B9FF011C06F0A2FE011C0598F4
:4050400006F05EFB059001340F2CE7DD2E00059C211C079806F0FEF9002802D053460893079401239C46E2445B461B689A45CADB3700079C211C099806F0ECF9002806D052
:40508000479B4A461A60489B089A1A6009944B46013399464B46032BA7DD3DB03CBC90469946A246AB46F0BD2436011024320110B3CE010C0000A040BC310110F0B55F46D9
:4050C00056464D464446F0B4C7B0029003919146191E509A9346519A904607D04B461B688022120694466344009302E04B461B680093009B0793069300252F008A465B464F
:405100005093434651934BE05346002B08D07B1C9B004A469D5880231B069C46654403E07B1C9B004A46D558BE00B31C9B46009C211C281C06F038FFF8218905019006F09A
:405140001FFE011C0094201C06F0DAFA06AC5B469B001851F31C9B46FB218905019806F00FFE011C009806F0CBFA5B469B00185101378349019806F003FE011C009806F07A
:40518000BFFA3B01185105367E49019806F0F8FD011C009806F0B4FAB3001851009C00950E2FB1DD509B9B46519B9846211C009D281C06F0F9FE041CF821890506F0E0FD5F
:4051C000011C281C06F09CFAF82304AA08215218D050FB218905201C06F0D2FD011C281C06F08EFAFC2304AA08215218D050029AD3009B1A039A944663449B00624A9B58C0
:4052000099461F2B05DC1900202006F0F7F80D0000E000254B461F2B02DC5B1B9A4603E040274B46FB1A9A46002618E0B70006AC330118597B1C9B00195906F061FABB1C3D
:405240009B00195906F05CFAFB1C9B00195906F057FAFA21890506F093FD38510136AE42E4DB2E00574610E07219530006ACD200105901339B00195906F042FAFC21890528
:4052800006F07EFDB30018510136EB199E42EBDBE81980004B465A1BD21B92002D01F9006D1806AB59199C46604408F0C1FB029AD3009B1A039A944663449B00334A9F5820
:4052C00000260024CA4651E0B30006AA9D5880231B069C4665442E49281C06F011FA0590059B994605982A4906F05EFE011C281C06F05AFE051C274906F042FD264906F070
:40530000FFF9011C281C06F03BFD244906F0F8F9011C281C06F034FD214906F0F1F9011C281C06F02DFDFE21890506F0E9F907234A4613409B001B4AD318D96906F020FD6D
:405340004B46DD10ED052B18009309E0A3004246D5185A46D058009906F012FD28600134731C9B00DB599C42F0DB01365645ABDB47B03CBC90469946A246AB46F0BDC04634
:405380000000203F0000603F243A0110C00100080000C0490093243C2C26633D87FE753E1772313FB4F50010F0B5244CA5440F009CA909789D9C86AD0195009139000590AB
:4053C000FFF7FCF9221D21002800FFF763F823000C330293043B019346AE009606AB626821682800FFF7EAFCA3689A01B2180195E3680093A36861682068FFF739F9A0681D
:40540000810106AB9C466144230018332200103226001936019614340094FFF7B9F99F9B01939E9B009300232A0039000598FFF745FE97239B009D44F0BDC046A4FDFFFFD2
:405440002620704770B504000D000968026A531D202B05DC9140C2691143C161036202E00522FBF7EDFB6968226A531D202B05DC9140E2691143E161236203E0052220006C
:40548000FBF7DEFBAB685E10226A531C202B07DC310091400A00E1690A43E261236204E0012231002000FBF7CBFB002E41D10123AA68134005D16A69561C76006A7EB618EC
:4054C00002E00126EA681640394A56432A6994466644E9681941226A531C202B05DC9140E2691143E161236203E001222000FBF7A7FB297E226A531C202B05DC9140E2691B
:405500001143E161236203E001222000FBF798FB226A13001933202B05DC9640E2691643E661236243E0192231002000FBF788FB3DE00123AA68134001D12E6908E02A699A
:405540001C498C46624452000126E9680E409619E9681941226A931C202B05DC9140E2691143E161236203E002222000FBF768FB297E226A531C202B05DC9140E269114384
:40558000E161236203E001222000FBF759FB226A13001833202B05DC9640E2691643E661236204E0182231002000FBF749FB70BDF477240000A6730070B50500042801D9B2
:4055C000441E00E00400C8000134A6003319590005F02EFE34196934732800DD73202418052D01D9B52000E0FF20A04200DD200070BDC04610B50400FE20800503E01C343A
:40560000084906F0BDFB002CF9DB03E01C3C064906F0B6FB1B2CF9DCA400044BE15806F0AFFB10BDCDCCCC3D0000204100FC0010F0B5474680B496B005000E0017001C0084
:4056400054224049703101A808F0E9F972009219930001AAD2181168A14205DD230030335800C01830211BE0536898469C4211DA0A003032500080185A1A130043439C46DD
:40568000611A43461B1A4B436344180053009A18110105E0936820009C4200DD180030214B10C01805F0C4FD0100042E1DD91C9B9C421ADD012D01D8022000E001206B42B4
:4056C0006B41214A944201DD022500E001255D4345191C9BE01A684305F0AAFD2818C019FF2800DDFF20C01B28E0042E0BD88B1C1C9AD31A9C4206DA01201D9B9F4200DCEA
:40570000002040421AE0042E15D81C9B9C4214DDF80F0023FE22BA424341FD2F06DC1C9A944661448C4203DA002002E0002000E00120C01802E0002000E0002016B004BCED
:405740009046F0BD00FC001007020000F0B55F4656464D464446F0B483B004008B469A460C9F5042FFF746FF00905B469A00214BD35801345C43A1463C60002631E05B46F9
:40578000042B03D9FC239B05019301E01A4B0193B50055440099286806F0F2FA2860741CA40054442168009806F0EAFA80462060296849004908019C201C05F041FE002863
:4057C0000AD1434659004908201C05F039FE002804D13B68023B02E04B4600E04B463B6002364E45CBDB03B03CBC90469946A246AB46F0BDDC3202100000203F30B50428F0
:4058000001D9431E00E00300002A0DD0DC1CA5002C19A5008D4203DC052803D9002402E0002400E00124147001339A00D3189A00914203DD052803D9002002E0002000E041
:40584000012030BDF0B55F4656464D464446F0B491B004000D000791110098461A9B9B460EABDA1D2800FFF7C9FF0D90AA008B4BD35801345C4305941B9B002B02D0DB0229
:40588000039301E0864B03930023049300260C930B9319000A93994643460893C5E00D9B5B00049A944663449B027E4A9B1806938A46A5E0079B042B02D9FC25AD0501E007
:4058C000FB25AD05B300089FF95849004908281C05F016FF05F01EFE04000190731C9B00F95849004908281C05F00AFF05F012FE53469900069B9C46614425006B1E9D415B
:4059000003005A1E9341EB180293DA024A44230003439B0843D00EAD07352D780995002D1CD00F783D01A9464F447F005E4DA84647443F8C5D4DAC466744D219012C01D1BE
:40594000023400E00224471E7D427D4167190A9CA446BC4464460A94012700E00027099CE3401D000DE03B00032F00D90323CB5C1C01E3185C004C4B1C19238CD2186D08CF
:405980000137002DEFD13B03D218019BFB400193F840B846032F04D90323984601E0002398464346C95C8300019CA44663440C01A4466144CB185B003B495B5A99469144DE
:4059C000029B002B06D0039B4B4503DBB31C0C934B460B9353461A01D2B24346012B03D940460C30C3B207E0019B9C4660444346013358430130C3B29B18DBB29A46023601
:405A0000059B023301220499521A5946096813418B4200DD0B009E4203DA039B994500DC48E75146049B01330493049B012B00DC35E75B460C9A1A601C9B002B13D00EAB05
:405A400007331B78002B09D00A9BDB020B9A94466344039A9A4203DB002302E0002300E001231C9A13700E4B039A9A4206D10A9BDB020B9A94469C4463460B930B9B0C4A24
:405A800094466344D8174005400DC018C01211B03CBC90469946A246AB46F0BDDC320210FFFFFF7FE416011064FD001000F0FFFFFF070000F0B55F464E46C0B483B09B46D4
:405AC0000B1C042900D90423DBB29B003D495958431C59438946012801D9022400E0012402218142804140422618002A03D0FC229205019201E0344A01925A00D3185C00BC
:405B0000A41B00250027002300931BE0A3005A46D15849004908019805F09CFC002801D0013500E0002573009D420ADDA31B9B005A46D15849004908009805F0E1FD009059
:405B4000013701340A9B4B4500DD4B469C42DDDB0FE0013573009D420ADDA31B9B005A46D15849004908009805F0CAFD0090013701344B46F3189C42EBDB002F15D083211C
:405B8000C905009806F0FCF8041C380006F0B4FB011C201C05F02AFFFC21890505F0B0FD06F088FB0823181A00E00820062803DC002802DA002000E0072003B00CBC91466C
:405BC0009B46F0BDDC3202100000203F10B58900104BCB5801304343202B01DD052400E004240120402B00DC002020180124802B00DC00240019012180225200934200DC4B
:405C0000002140180122802189008B4200DC0022801810BDDC32021070B50D001600FFF7D5FF03300424AC42A44164422418701E4023FF33984203DCA02105F0F9FA00E0C7
:405C40000220001970BDC046F0B55F4656464D464446F0B4E94CA5440500080017009846FFAA3C32126893468A00E54BD3586A1C91465343DA1703210A40D3189E10059020
:405C8000042800D8B9E0F8AC20220021200007F0E4FE06235B42F89363600833A3610333E361059B053B6A00D3189B001C59434658014B465901C91A8900494405F0B8FAC8
:405CC0002418162C05DCA246062C04DA06239A4601E017239A46002500230093C94B02930193D046DA46B3463E002F0063E03D0173595C006408211C019805F001FD039024
:405D0000FE218905009805F0FBFC0190211C009806F036F8011C029805F0F2FC02902B1DF45864006408211C039805F0E9FC0390FE218905019805F0E3FC0090211C019853
:405D400006F01EF8011C029805F0DAFC01902B000833F45864006408211C039805F0D0FC0290FE218905009805F0CAFC0390211C009806F005F8011C019805F0C1FC049000
:405D80002B000C33F45864006408211C029805F0B7FC0190FE218905039D281C05F0B0FC0090211C281C05F0EBFF011C049805F0A7FC029001375F4599DB37005E46D34604
:405DC000C2469149019805F0DBFF041C484606F093FA029905F0D4FF011C201C05F006FE08F020FB06F066FA082800DD08200823181A06F081FA804603E00023984600233A
:405E00009A46002500230393D1463B002F0035001E0036E03C013159081C05F0B1FF0090231DF058011C05F0ABFF019023000833F058011C05F0A4FF02900C343059011CF2
:405E400005F09EFF041C0099039808F09FFA019908F09CFA029908F099FA211C08F096FA03900199009805F04BFC011C029805F047FC011C201C05F043FCBA0008ABD0508E
:405E80000137AF42C6DB2E00039808F003FB0190059B042B48D94B465C420300FF22D205024201D0E40523181C1C80231B0643441D005649181C05F023FC0790079F079812
:405EC000524906F071F8011C281C06F06DF8051C4F4905F055FF4F4905F012FC011C281C05F04EFF4C4905F00BFC011C281C05F047FF4A4905F004FC011C281C05F040FF62
:405F0000FE21890505F0FCFB07233B409B00444AD318596C05F034FFFF10FF053918201C05F02EFF041C00E00024002529E0AF0006AB08229B18DB590093191C201C05F0A4
:405F4000DFFB384908F022FA011C05F019FF810DFE39830C1F22134080080204100C324A51439B002E4AD31864229A5A511866331A88424312148B1806AA08215218D35115
:405F80000135B542D3DBFFAB2C33186806F0B4F9FFAB3033196805F0B3FBFC21890505F0AFFB06F087F98046FF23FFAA343212689B1A9C46731E0093E146802750E04B462E
:405FC000DC1B1A496143009800E0013800283ADB830008AA9B589942F7DC0200002634E0930008AD5B595B1A29D4114DAB4221DCE025ED02AA46534422E0C046FCFBFFFF75
:40600000DC320210ACC52737CDCCCC3F0000C0490093243C2C26633D87FE753E1772313F80FC0010FFE6DB2EA9C00000DBB60000FFFF2A002B4DAA4653445B0000E02A4B63
:40604000F618013A01E002000026002AC8DA274B424653439E4201DD009000E0A1467F10002FACDC059B042B01D9214C00E0214C5B4662461A6080255F4610E03B685E1B9B
:406080003000FFF7B7FA011C201C05F079FE011C019805F0CBF9002800D03E606D10002DECDCBB463B68994507DB0021019805F0B7F9002803D0012302E0012300E00023E2
:4060C000FFAA383212681370002B02D05B461B6899464846084B9D443CBC90469946A246AB46F0BD0000EEFF33B302006666010000FEFF4A00FEFF460404000010B5026A36
:40610000D31C202B05DC9140C2691143C161036202E00322FAF794FD10BDC046F0B55F4656464D464446F0B487B08146884605929B46109B9A46002A03D0FC239B0501934B
:4061400001E03F4B0193FC218905019805F018FE0390002304935FE0B4005C4427687D006D08291C019805F075F9002844D1281C08F07EF9011C281C05F016FF011C012591
:40618000019805F067F9002800D10025EDB201236A46D3720021381C05F048F9002802D100236A46D3726B46DB7A5D404B461A6A531C202B09DC290091400A004946C96941
:4061C0000A434946CA610B6204E0012229004846FAF736FD01235B429C46E0442168002D06D0039B8022120694466344180000E0039805F085FA2060013600E000265645BE
:4062000002DA4346002BA7DC0199039805F0B8FD0390049B01330493059B002B01D0142300E00123049A9A4202DA4346002BE5DC07B03CBC90469946A246AB46F0BDC046DD
:406240000000203FF0B55F4656464D464446F0B489B007000C001500069214AA11780391002219002800FFF7C9FA0790AA00B14BD35801345C430494002302930093019375
:406280004CE1079B5B00029A944663449B02AA4A9B18059331E1069B042B02D9FC24A40501E0FB24A405009DAB00129A92469A4453461B6859004908201C05F021FA05F0DB
:4062C00029F980462B0001339B00129A914699444B461B6859004908201C05F011FA05F019F90600019B9B00059A93469B4445460543AD0800D186E0039B002B21D05B46AD
:406300001B781A01D31899008C4BC918BB689A0A40310B8853437868844663447B6049884A43BA60190E3869014339611B021B0A7B60834B9A4206D83800FAF707FD0124D1
:4063400002E0002400E00124039BDD4033004646984649E03300E340012119403A6A531C202B05DC9140FA691143F9613B6203E001223800FAF764FC4346E340012119404C
:406380003A6A531C202B05DC9140FA691143F9613B6203E001223800FAF752FC2300032C00D903235A46D35C1A01D3189900634BC918BB689A0A40310B8853437868844649
:4063C00063447B6049884A43BA60190E3869014339611B021B0A7B60594B9A4202D83800FAF7B4FC6D080134002DB3D14346B0461E004246039BDA409046DE40E51A032C53
:4064000003D9032401E0002500244346002B1BD05346186801239A46002105F007F8002801D100239A463A6A531C202B07DC514691400A00F9690A43FA613B6204E0012200
:4064400051463800FAF7FCFB002E1BD04B46186801239946002104F0E9FF002801D1002399463A6A531C202B07DC494691400A00F9690A43FA613B6204E00122494638001F
:40648000FAF7DEFB4346EB409846EE405B461B5D1A01D3189A00294BD218B3004344B968890A9B00D21813884B437868844663447B6052884A43BA60190E3869014339614C
:4064C0001B021B0A7B601E4B9A4202D83800FAF73DFC019B1A01D2B2012C03D923000C33DCB204E04644013466430136F4B2A418E3B20193009B02330093049B0233012262
:406500000299521A1341139A934200DD1300009A9A4200DABFE6029B01330293029B012B00DCAEE609B03CBC90469946A246AB46F0BDC046DC320210E4160110E4050110E3
:40654000FFFF0000F0B55F4656464D464446F0B483B082468846019299460025A5E0019B002B02D0FC27BF0501E0FB27BF05AE004E44336859004908381C05F0C1F804F0CF
:40658000C9FF834600906C1CA4004C44226851004908381C05F0B4F804F0BCFF07005A465B4603439B087FD001235B4243449B464346002B12DD0121114053461A6A531CE3
:4065C000202B07DC91405246D26911435246D161136203E001225046FAF732FB009B012B23D1033B9C46E0445B46002B1CDD30680126002104F01AFF002800D10026534613
:406600001A6A531C202B08DC96405246D26916435246D6611362C34607E0012231005046FAF70EFBC34600E0C34601235B425B4498465B46002B12DD0121394053461A6A7B
:40664000531C202B07DC91405246D26911435246D161136203E001225046FAF7F1FA012F22D15E46023E4346002B1CDD20680124002104F0DBFE002800D1002453461A6A45
:40668000531C202B08DC94405246D26914435246D4611362B04607E0012221005046FAF7CFFAB04600E0B04602350C9B9D4203DA4346002B00DD52E703B03CBC90469946FB
:4066C000A246AB46F0BDC046F0B55F464E46C0B48DB00C001E00159B9946D70008920690FFF79AFA3F1A2000FAF718FC3F1A3000FCF7CCFF3E1AFEF7A3FE361A149800F096
:406700006FFD301A05000B3D4A461668506805F0F3FD011C301C04F0F3FF3D4907F036FE3C4907F049FE071C3B49301C05F028FB061C3A49381C05F023FB011C301C04F074
:40674000DFFF099008992000FEF736FF07000AAB04931F2604AB9C46664403960290099A01920095089B169A079421000698FFF76BFA834617990C1D0094169B020007995D
:406780000698FEF7E3FF0023029301930094169B089A07990698FFF755F803003278002A01D0002200E0099A49460A601F2204A98C4662441278002A01D1EA1A00E0002278
:4067C00049464A605A46BA180A9979180191009507990698FEF72CFF061E06D00094169B020007990698FEF7B1FF5E44BF19179B1F600833029301950094169B089A079979
:406800000698FFF71FF80DB00CBC91469B46F0BD000020C200002042CDCC4C3FCDCC4C3E70B5040008001D001100FFF7CFF96B685910002900DC01210139266A8319202B07
:4068400005DCB140E2691143E161236203E002002000FAF7F5F9297A226A531C202B05DC9140E2691143E161236203E001222000FAF7E6F92968226A13000833202B05DC6E
:406880009140E2691143E161236203E008222000FAF7D6F970BDC046F0B587B004900800170019000D9B1D7A5E6804249442A441644200960E9B22000590FFF7FBF801006B
:4068C0000498FFF71BFC029501960E9B00930C9B3A000599049F3800FFF7B4FC3800FAF7A7F90100002D06D000960E9B22000498FFF728FE05E000960E9B22000498FFF7C7
:406900000DFC07B0F0BDC046C90001300301181AC3000120994200DB0020C0B27047C046F0B55F4656464D464446F0B4D5B005000E000692049338AC70220021200007F0AF
:406940008CF8E34B38931A000C3262601A001832A2601A002432E2601A00303222616261A2611A003C32E2611A00483222621A00543262621A006032A2627433E36223633A
:406980006363D44B1A000832A2631A001832E2631A00283222641A00383262641A005432A26470336365CC4BA3651A001032E2651A00203222663C336366A366E366EB0070
:4069C0005B1B9B199B001B590293002D03D0022E03D8002302E0002300E0012301330793012D02D90323039301E002230393029B1B6801939B00049A904698440023059309
:406A0000069B9A46E7E06C2200210BA807F025F800239B4639E0029B043302931B689B00049A9446634401930023994626E04B469A004244019B41465B1A9B1049465B1A41
:406A4000414600240DE00E1D0868171D116805F097F9011C201C04F053FE041C2B003A0031005D1E002BEED14B465B004B445B449B000BAA9C5001239C46E144D145D6DDAE
:406A800001239C46E344019B9846039B9B45C2DB059AD300944663449C00039D280005F02BFC26ABE050022D3ED10B9D0C9B01930126544634E00021281C04F0B1FC00287C
:406AC00022D10021019804F0ABFC00281ED10BAF730099469A199300D859291C04F086FF08904B469B199A00BA185068019904F07DFF011C089804F003FEB300764AD318DB
:406B0000996D05F03DF902E0002000E00020059AD300944663449B199B0026AA98500136A642C8DDA24653E00B9C0C9B01930D9B08930125059E574647E00021201C04F046
:406B40006FFC002835D10021019804F069FC002831D10021089804F063FC00282DD10BAB99466B009B465A1993004A469858211C04F03CFF09905B465B199A00914401997B
:406B80004B46586804F032FF011C099804F0B8FD09904B469868089904F028FF011C099804F0AEFDAB004C4AD318996D05F0E8F804E0002002E0002000E00020F3009B1901
:406BC0005B199B0026AA98500135BD42B5DDBA46059B01330593059B079A934200DA12E70026CCE0F30099198A005F998D1826ABD3581A1C0293B3005E998C4663449B4649
:406C000019000A60FE239B052B600124A9463500A9E0EB005B191B199B0026AA9B58802212069F18012601974F4610E0B300D859A21BEB005B199B189B0026AA995805F009
:406C40009FF8011C019805F0AFF901900136B442ECDCB946019F029E311C381C04F0C6FE0190011C05F08CF8011CFE20800505F09BF9011C301C05F083F802900127A8461B
:406C80004D460FE0BE0073599946E31B9B005959019805F075F8011C484604F031FD0BABF0500137BC42EDDCA9464546671CA3000BAA01999950EB005B19DB199B0026AA4B
:406CC0009B5880221206944663440193012617E0143302109433021014340210B2000BABD058BA1BEB005B199B189B0026AA995805F046F8011C019805F056F90190013660
:406D0000BE42EBDB029E311C019804F06FFE0190011C05F035F8011CFE20800505F044F9011C301C05F02CF802900126A846A24610E0B3004A46D4180BAA9D58BB1B9B0099
:406D40009958019805F01CF8011C281C04F0D8FC20600136BE42ECDB454654460234BF004B46019ADA51069B9C4200DC51E72E0002995C46206804F039FE20600136079B5E
:406D80009E4200DA2EE755B03CBC90469946A246AB46F0BDF0B583B00E00011C8020C00505F002F9104904F0EBFF011C04F0A8FC011CFE20800505F0F7F801900127FE2508
:406DC000AD050CE00199281C04F0DAFF051CBC003419011C206804F0D3FF20600137082FF0DD03B0F0BDC0469899193EF0B55F4656464D464446F0B491B005000F00924637
:406E00003A4BCB189B00914699448B0018584B461860011C04F0B4FF011CFE20800505F0C3F80190002217E0940009A98C466444561CB100495988469B1A9B0059594B46D3
:406E4000186804F09DFF011C404605F0ADF8019904F0CCFD206032007B1E9A42E4DBBD1E09AE34E001232B40DA00D31A9A0002AB9C4662441700AB00D3469B44F0585B461A
:406E80001860011C04F07CFF011CFE20800505F08BF80190002416E0A300FA189046F35899466B1E1B1B9B0099595B46186804F067FF011C484605F077F8019904F096FD3F
:406EC000434618600134A542E6DC013D3E00002DC8DC336801935346019A1A6011B03CBC90469946A246AB46F0BDC046FFFFFF3FF0B55F4656464D464446F0B483B00190E8
:406F0000009193469A4613001960002398463BE043469D00019B9946A9444B461B685F007F0855441D49381C04F09EFA002801D0042300E000232B60002602E001360134D6
:406F40002C60032E09DC2C68A300154AD318D96F381C04F089FA0028F0D14B461868002104F064FA002802D02B685B422B602B68002B03D15B461B68013B00E0009B5A46AC
:406F8000136001239C46E044009B9845C0DB03B03CBC90469946A246AB46F0BD00303D3F14340210F0B5002511E0AC000659F717F3197B409B00074FFB18DB691419002EF7
:406FC00003DA80263606B4466344236001358D42EBDBF0BD94340210F0B55F4656464D464446F0B491B006920793002803D0022903D8002202E0002200E00122531C049312
:407000000B1C042900D90423DBB29B0032495B5801304343134105934300984680442022002108A806F019FD00234AE05A1C03920599514302919A469B00069AD5182B6847
:40704000002B3BD02E00079B9B4634E043469B001A9A914699444B461B6800930193002425004B46C14698461BE0AA0008ABD7580199D15053465B015B44D458211C0098B8
:4070800004F07EFE011C381C04F03AFB0190211C381C04F075FE011C009804F031FB0090013533689D42E0DB4346C846009A1A6001239C46E044029B9845C7DB039B029A42
:4070C0009046049A9342B1DB11B03CBC90469946A246AB46F0BDC046DC320210F0B5574680B4AAB004000D0002919246309F1900FFF70AFC3871002C03D0022D03D800239C
:4071000002E0002300E0012301333B60012C02D80423039301E00823039316AB019328AB0093319B039A02992000FFF7F9FB002645E0B31C9B000022DA515346002B3DD174
:40714000B30028AA9D58FF218905281C04F078F9002833D13B79002B0FD08021C905281C04F064F9002808D0F3009B19990016AB9C466144281CFFF70DFEF3009B19980044
:4071800016AB9C466044750106AB9C46AC446346049362460399FFF729FE10357A191000B31C9D007A190590030003990498FFF79FFEE959049A0598FFF7F4FE01363B6865
:4071C0009E42B6DB3A000832319B009306AB02992000FFF701FF2AB004BC9246F0BDC046F0B5002500272AE0AB1C9B001E58002E07DD0279731ED200D3185B00124A9C5A69
:4072000000E0002480231B019C46644400210EE0EB005B1804339B001B5808331A000B015B189B185B00094A9B5AE4180131B142EEDB074B9C466444E4123F190135036870
