:020000041000EA
:4000000000000208230100100D0000008501001000000000000000000000000000000000000000000000000000000000810100100000000000000000810100108101001029
:400040008101001081010010810100108101001081010010810100108101001081010010810100108101001081010010810100108101001081010010810100108101001060
:400080008101001081010010810100108101001081010010810100108101001081010010810100108101001081010010810100108101001081010010810100108101001020
:4000C00010B5064C2378002B07D1054B002B02D0044800E000BF0123237010BDD44100080000000034520210084B10B5002B03D00749084800E000BF07480368002B00D1CF
:4001000010BD064B002BFBD09847F9E700000000D841000834520210C00C0008000000007047FFF7FDFF72B60F4C104DAC4209DA21686268A368043B02DBC858D050FAE76A
:400140000C34F3E70A490B4A0020521A02DD043A8850FCDC084809490860BFF34F8F00F07FFA00F0C5F8FEE7246D04103C6D0410D4410008FC5300080000000808ED00E01C
:40018000FEE7FEE700B504207146084202D0EFF3098001E0EFF30880043008F015FCFEE730B58FB00C00404B984258D007D880235B0198420AD03D4B984231D06CE03C4B6C
:4001C00098420CD03B4B984215D065E03A493B4809F0DAF80021002009F00AFF62E03849364809F0D1F80022364B1A700021002009F0FEFE56E0344D022228000DF06BFCDE
:400200002B882B82314B1B685B88AB81A0232B812F492A4809F0B8F828782AF039F841E02C49264809F0B0F8274B1B7801AC237000236370A3800233E370A37025F099F91E
:4002400020002AF05DF8002804D023491B4809F09BF827E02149194809F096F822E02049164809F091F82378002B0CD11D49134809F08AF8144B18782AF00AF80122114B8B
:400280001A7040BF0EE018490C4809F07DF80E4B187829F0FDFF05E00300144A322101A80DF0FEFC0FB030BD1520000009200000084000000150000028E800100000664004
:4002C0003CE8001000000208F0410008A009000864E8001078E800109CE80010CCE80010F0E8001008E9001024E900104CE9001070B582B062B652480AF04CFF0400514A7A
:400300005149524809F058F8002802D001200DF0B3FB4E48036880221206134303604C4909F032F801E046F0C7F84A4B1B78022BF9D1002C06D10022474B1A70474800F099
:4003400015FA03E03C21464808F008FB0322454B1A60002412E044480DF0A4FB030043490A00434801F0EAFAA300424A9850002803D14149354809F007F80134002CEADD05
:4003800046F09AF8344B1B78002BF9D0354B1B683A4A12689342F3D00133DA17920F9B1803210B409B1A2F4A13603549274808F0EBFF0024334D143518E0002C01DAA126CB
:4003C00000E0A026274B1A6813019A1A93012E4AD31862009A18A100264BC858019500960123002101F0B6FAAD190134002CE4DD244B1A0014325A605B78244AD25C002A42
:40040000BED1002B02D1224AD35C00E00023012BB6D920490D4808F0B7FF1A4804302CF0A5F81D4B984204D11C49084808F0ACFFA6E70028A4D01A49044808F0A5FF9FE7B2
:40044000A1010010C05300089C4002100000664058E9001098530008000002080000081068E90010040F02081815000080BB0000102700008C53000874E90010080F020823
:4004800094E90010F041000804000208B0530008A0530008A4E9001001001600B4E90010F4E9001010B5002007F0B0FE10BDC04670B56249E0239B00CB580F2213401A0088
:4004C000D0329200525807210A40032A05D0042A06D0002A12D15A4814E05A4A106811E01A00C0329200554952581F210A40112A06D0132A04D0FA20C00103E0524801E0CB
:4005000080200002002B36D14C4BB222D2009A5801211140B125ED005A59120F032422405B591B0F1C4207D0444C63591B0F03242340012B02D102E0012300E00023002BDF
:4005400001D0002901D1032A4BD13C4BB022D2009D58AD03AD0B3D495958C904C90C9C58240E01231C4001340AF034FE684321000AF030FE35E0012B33D1304BC822D2008E
:400580009A5801251540C024E4001A59120F03210A401B591B0F194207D028490B591B0F03210B40012B02D102E0012300E00023002B01D0002D01D1032A12D11F4DC02265
:4005C000D200AB587F210B40A958090A1F263140AC58240C344058430AF0FCFD21000AF0F9FDE0239B00154AD3581B0903221340D840144C6060164B1D692D0AFC3215408D
:4006000001351969090E01310AF0E4FDA06029000AF0E0FD0500E06020610E4BC0180E490AF0D8FD20750D4BE818FA2189000AF0D1FDA061C003E06170BDC04600002640CA
:4006400000127A00C000000800366E0184050000000021403F420F0040420F00E703000010B5284808F08AFE274CB022D200A3585B005B08A350E0218900635830208343B9
:40068000635080235B04A350204A214BE250A02292010433E250FF221E4BE25008F05CFEC0225200A35801218B43A35006F0C6FFFFF7FEFEB0235B055B78002B04D0B02327
:4006C0005B055B78DBB200E02123212B03D1124B0022DA605A60114C22008021042007F0F5FA2000103007F0CFFB0D4B1A685123D35C002B02D00B4807F03CFC07F0BAF893
:4007000010BDC0466C3B02100000264001000200840500008C050000E0002340A44200089053000830EA00108023024AD3580320184070470000214010B508F0D6F90849DA
:4007400080228C58074B2340074C23438B508823034AD358DB06FAD508F0CBF910BDC04600002140FCFF00000100FA0570B50500830504D0E821FF310F4808F0EFF808F0FF
:40078000B4F90400FFF7D0FF032801D1FFF7D4FF0A4AB0239B00D55080215058084B03400848034353508823044AD358DB06FAD5200008F09EF970BD64EA0010000021408F
:4007C000FCFF00000300FA05F0B557464E464546E0B496B007008846150099461E9C4022002106A80DF095F93D230693583307934B2208920993443B0E936E4B0F931932FB
:4008000010921193012F00D8C5E04346022B00D8C3E0042B00D9C2E0B91E033B8A00D218D20006A81258AA4200DDBAE08900CB18DB00844663445B689D4200DDB3E0022F19
:4008400002D103239C4601E004239C46002775E0BB00002202A95A504346032B30D12300083B00229A5EA31F00215B5ED3185D10231F00229A5EA31E00215B5ED218521096
:4008800000201AE00023E15E0226A35FC91849104B005E189300F31A5B19DB101BB25B435B11BD0002AEAE590196B246534402AEAB510130043415000A002728E2DD3CE0C9
:4008C00023000C3B00229A5E23000A3B00215B5ED3182200083A0021525ED3189D10A31F00229A5E231F00215B5ED218A31E00215B5E9A18921000201DE00023E15E022602
:40090000A35FC9180426A35F591889104B005E189300F31A5B19DB101BB25B435B11BD0002AEAE590196B246534402AEAB510130063415000A002728DFDD0137674587DBE6
:400940000021002414E04B465B689A104B461B68934200DA13008A0002A81258484602604360D21018111B189A4200DD4C1C01316145E8DB63465B1001334A4692689A4291
:4009800003DA002C03DD012002E0012000E000204B469C6008E0002006E0002004E0002002E0002000E0002016B01CBC90469946A246F0BDFFFFFF7F4368002001E05B0816
:4009C0000130002BFBD1704710B50400FFF7F4FF1A23181AA368DB43DB0F22699B18DB00C01810BD70B502000430536B1478002C01D1042100E00021CB18116B002C01D100
:400A0000033400E000240C1BA34201D91C1B00E01C1BE400156A536AED18FFF7D5FF2818201A70BDF8B54F464646C0B404000D00FFF7C2FF80461926361A664830412368A8
:400A40009C46C21863686344170E791E8F41F9B28946190E4F1EB941C9B282431202120A1B021B0A894511D181188B4208D81A264346F61A400863461A1882431202120A1B
:400A800062459B415B42E1680B43E360226034E0514B22689A4202D9E368002B25D0A368002B1ADBE26894466344AA6869688A4213D2511CA96013700FE0E368002B01D0A5
:400AC000002200E0FF22AB6869688B4202D2591CA9601A702369013B23612369002BECDC6388A3600023E36002E023690133236123681B041B0A2360083E082EC8DC364B0E
:400B000022689A4202D9E368002B25D0A368002B1ADBE26894466344AA6869688A4213D2511CA96013700FE0E368002B01D0002200E0FF22AB6869688B4202D2591CA9602A
:400B40001A702369013B23612369002BECDC6388A3600023E36002E023690133236123681B041B0A2360A2680821891B13000B41206900281AD0AB68686883420ED2581C87
:400B8000A8601A700AE0AB686A68934203D25A1CAA60FF221A702369013B23612369012BF1DC072E01DC002300E0FF23AA68686882420AD2FF203041040010782040107079
:400BC000AA688B4011780B4313700CBC90469946F8BDC046FFFFFF00FFFFFE00F0B5474680B404000F001600002902D12022904601E000229046F5183822002120000CF06D
:400C000088FF27702C4BA36001235B42E36043462362A662E56226636563002F49D122001C3220002830AE4203D2731C2363337800E0002319046160236B9D4203D95E1C10
:400C400026631B7800E000231B020B436360216B8D4203D94D1C2563097800E000210B4363605368DD10C168A66A891BA94200DD2900CD005B1B53600BE013681B0A136002
:400C8000C368013BC3601B781B0615682B43136001390029F1D1516807290ADD9368CB18202B00DD20239360E369CB40E3610023536004BC9046F0BDFFFFFF0010B5FFF7FB
:400CC00091FE002800DC002010BDC046F0B5474680B4884605001C35036A2027FF1A974200DD1700002F07D0414699400B00C1690B43C3612023036206002836F368B168BD
:400D00005C1A00D500246B68D9108C4200DD0C00E1005B1A6B6008E0F368013BF360297819702B681B0A2B60013C002CF4D16B68072B01DD00236B604146F940C161D21BA3
:400D4000026204BC9046F0BDF0B5474680B40700031D984605001C3506002836436B026B9C1AE400036AE41A0EE02200202C00DD20223B6AD318202B01DC3B6203E00021B3
:400D80003800FFF7A3FF203C002CEEDCF368B2689A1A00D500226B68D9108A4200DD0A00D1005B1A6B6008E0F368013BF360297819702B681B0A2B60013A002AF4D16B6835
:400DC000072B01DD00236B6031004046FFF72AFE04BC9046F0BDC04630B5031D38E0010028311E4A1C68944202D9DA68002A25D09A68002A1ADBDC68A44662448C684D68C4
:400E0000AC4213D2651C8D6022700FE0DA68002A01D0002400E0FF248A684D68AA4202D2551C8D6014701A69013A1A611A69002AECDC5A889A600022DA6002E01A690132C5
:400E40001A611A681204120A1A60826812028260034A81689142C2D930BDC046FFFFFE00FFFF0000F0B55F4656464D464446F0B489B002908A461700002900D184E0042974
:400E800000D983E08300464A9A58464B53441B0193469B440023984601932EE043469B005B4400241C5701269E57331B9946A300FD58013406E0A300D959281C0AF07CFC11
:400EC000051C0134B442F6DB4346002B01D1142000E00A204B46434318000BF069FA011C281C0AF01DFB002803D04346581CC3B2019343460133DBB29846D045CED300240E
:400F0000019B524693426441E4B21800534537D29B001A005B4603929B5698462049029B9B00844663449B00CB181B69994604A80B005033050046CB46C51B682B60039B00
:400F40001B58029343464A469D1A013512E04B46EB1A9B00DE59AB00D95902980AF06CFF011C0124301C0AF0D1FA002800D10024E4B20135002C03D1434601339D42E6DD92
:400F8000002C05D0019804E0080002E0080000E0504609B03CBC90469946A246AB46F0BD7CEA0010FFFFFF0F04280DD803005A1E93410121814289414A429A1803238342A5
:400FC0009B415B42D01800E00020704770B5050014000800FFF7E8FF00280EDD2A6A1318202B05DC9440EA691443EC612B6204E0020021002800FFF769FE70BDF0B55F465D
:4010000056464D464446F0B489B017009A46C3001B1A59188900354BCB580193344BCB589B4600230293039304AB324A190070CA70C112680A608000C358019AD31A994694
:401040005B461C680023984638E0434601339B005A46D658331B0093A300F858011C0AF0EBFE051C01340AE0A300F858011C0AF0E3FE011C281C0AF09FFB051C0134B442CC
:40108000F2DB00980BF094F9011C281C0AF00AFD011C534601C39A464346DD174B46DB0F4246484682425D41AD0002ABE8580AF083FB02ABE85001239C46E044019B98457D
:4010C000C3DB039D0C4902980AF0B6FE011C0124281C0AF01BFA002800D10024E0B209B03CBC90469946A246AB46F0BDCC3C0110C0010008DCEB00100000F0410B4B9842CB
:401100000CD00B4B98420BD0002902D1094B984208D0094B984207D1032006E0002004E0012002E0022000E004207047C4090000881300004C1D000010270000002903D1CE
:40114000FA235B01984221D0002903D1FA239B0198421DD0002902D1144B98421AD0002903D1FA23DB01984216D0002902D1104B984213D0002902D00D4B984210D000298F
:4011800010D00C4B98420FD007200EE000200CE001200AE0022008E0032006E0042004E0052002E0072000E006207047C05D000080BB000000770100F8B55F4656464D46BC
:4011C0004446F0B40E00934603788278154947180C39415849008A461349415889008946920012495258013353439846002510E06B0053440021725EFA52AC004C443C1940
:401200000023F05E0BF0D4F8206001355B465B00F6184545ECDB3CBC90469946A246AB46F8BDC046AC040000A4040000A0350210F8B55F4656464D464446F0B40E0093464F
:4012400003788278184947180C39415849008A461649415889008946920015495258013353439846002517E06B00534432681212FA52AC004C443C1930680BF099F80300D0
:40128000FF22D205024202D0FC231B06C318236001355B469B00F6184545E5DB3CBC90469946A246AB46F8BDAC040000A4040000A0350210F8B55F4656464D464446F0B48F
:4012C0000E009046037882781C4947180C39415849008B461A49415889008A4692001949525801335343994600251EE03078000273781B040343B078000618436B005B448D
:401300000214FA52AC0054443C190BF051F80300FF22D205024202D0F8231B06C3182360013543465B004344F6184D45DEDB3CBC90469946A246AB46F8BDC046AC040000D8
:40134000A4040000A0350210F8B55F4656464D464446F0B40E009346077883781D4A924682440C3A8258520091461B4A82589200524490469B00194A9B5801375F43002553
:4013800020E02C00AB00434432681000FF21C905114202D0F021C9045018186064004C4454440AF0E3FF0E4B984205DC0D4B984200DA180000B200E00B48208001355B4658
:4013C0009B00F618BD42DCDB3CBC90469946A246AB46F8BDAC040000A4040000A0350210FE7F00000080FFFFFF7F0000F0B5474680B40E009046047883780200B832AC2121
:401400004558AD0055199B00174A9B5801345C4325E02F680021381C0AF082F8002807D0FC218905381C0AF0C7F90AF09FFF06E0FC218905381C0AF013FE0AF097FF0B4B86
:40144000984205DC0A4B984200DA180000B200E008483080013C043543465B00F618002CD7DC04BC9046F0BDA0350210FE7F00000080FFFFFF7F0000F0B5474680B40F009F
:401480009046057883780200B832AC214658B60096199B001E4A9B5801355D4332E034680021201C0AF03CF800280ED02000FF23DB05234202D08023DB04E018FC21890599
:4014C0000AF07AF90AF052FF0DE02000FF23DB05234202D08023DB04E018FC2189050AF0BFFD0AF043FF0B4B984204DC0A4B984202DA180000E009483860013D04364346DA
:401500009B00FF18002DCADC04BC9046F0BDC046A0350210FEFF7F00000080FFFFFF7F00F0B5474680B40C009046067883780200B832AC214758BF00D7199B00204A9B58BE
:4015400001365E4337E03D680021281C09F0E8FF00280ED02800FF23DB052B4202D08023DB04E818FC2189050AF026F90AF0FEFE0DE02800FF23DB052B4202D08023DB040F
:40158000E818FC2189050AF06BFD0AF0EFFE0D4B984204DC0C4B984202DA180000E00B482070031263700014A070013E043743465B004344E418002EC5DC04BC9046F0BD3E
:4015C000A0350210FEFF7F00000080FFFFFF7F00F0B55F4656464D464446F0B4CBB00400089115000378180063780693A3780793414EA2199423DB00E158490057183F4BA5
:40160000E3589B00D618079B99003D4BCB58411C59438A4659108B469523DB00E3589B0090469844231D0097089A07990590FFF7CBF809902A1D9146220010324946009140
:401640003B000799059801F09DFE68705A465200B81A51465B46C91A490079180CF044FA0196424600923300069A0799059F380002F0ACFE0AAB320006993800FFF7BEFC91
:401680000790002802D0484602F042F80AAA0699059F3800FFF7E6FB2870039602962B000C330193099B00930AAB089A06990597380003F0BFFE2B0028331F002978019684
:4016C0000093089B079A059805F04EFD6B787835039502969325ED00AC46644401940097089A0699059805F035F84BB03CBC90469946A246AB46F0BDAC040000A404000085
:40170000A0350210F0B54F4680B496B00E0017001A00037805934478264D4119264BC3589B00894699443078050006903B00012108A8FFF753FA2A00210008A8FFF746FC9A
:40174000350078352B002200059908A805F0AEF83100283108A805F0C3FD7178109A531C202B06DC91400F9A079211430F91109303E0012208A8FFF7A9FA31000C3108A81C
:4017800003F0A6FE7378002B03D0311D08A801F0C9FF4B46029301950097069B2200059908A805F0BFF808A8FFF7CEFA16B004BC9146F0BDAC040000A4040000F8B50E0057
:4017C0001700047883780200B832AC214558AD0055199B000D4A9B5801345C4313E02B681800FF22D2051A4201D0094A981809490CF028FEFE2189050CF03AFE3060013C49
:401800000435BB00F618002CE9DCF8BDA0350210000080F8000080BFF0B55F4656464D46E0B482B00500009101921E1E0A9C00DC160029000098FFF761FC07002900019849
:40184000FFF77CFC0190824629003000FFF776FC0500032F56D8062856D8824556D8002C56D082002E4BD2587B1C534351108A46CA18D10F8A18511089469B46CB44962219
:40188000D200002120000CF044F927706B461B796370A5709423DB005146E150214B4946E15004335946E1501F4B9946A144009D75431E49280009F017FD07001C4870434E
:4018C0001A4909F011FD3818C20F101840103F181849280009F008FD0500174B009A9A4202D1FA20C00000E0114870430F4909F0FBFC2A18BA189200002148460CF009F9F6
:40190000200006E0002004E0002002E0002000E0002002B01CBC91469A46A346F0BDC046A0350210A4040000AC04000040420F00E204000080841E004C1D000000B583B075
:40194000009313000A0001000020FFF765FF03B000BDC046F0B5A3B006001500002831D007784078042806D9421F7C00A218D200194C125900E01422289C944225DB042833
:4019800007D9421F78008018C000134A1018426801E0C82252002898904219DC89000F4A8F581A0029003000B84701AA28993000FFF70EFE299B289A01A93000FFF7A2FE74
:4019C000002007E00120404204E00120404201E00120404223B0F0BD28350210ECEB0010F0B55F4656464D464446F0B485B0824603919346002291469846A2E04B46DB176F
:401A0000580F4A46121807210A40121A9000821850004000514A101819404944C91049001239039B9C466144002400273EE00023CA5E0025435F5343DF190223CA5E022575
:401A4000435F5A43BF180423CA5E0425435F5A43BF180623CA5E0625435F5343FF180823CA5E0825435F5343FA180A23CF5E0A25435F7B43D7180C23CA5E0C25435F534395
:401A8000FA180E23CF5E0E25435F7B43D7181023CA5E1025435F5343FA181223CF5E1225435F7B43D7180A3414311430092CBEDD53461C685D68FB171900294A0023380000
:401AC000029109F057FD02000B0000920193A4185D41AB00A40F1C4350468568C668214A01235B423800029909F044FD2D184E4137002E00E5171C4A00232000290009F0D2
:401B000039FD36184F4153461E605F60174A01235B422000290009F02DFD009A019B8018594153469860D96080231B029C46644424145B461C8005239C46E144033B9C46ED
:401B4000E34443469B004344994500DA56E705B03CBC90469946A246AB46F0BD0CEC0010C61BE63E72C83382DB5DC77DBFEE2EC2F0B55F4656464D464446F0B485B08246FD
:401B800003919346002291469846BEE04B46D90F5A18012313405B1A1A01D31AD8004000614B20331818494449104900EE39039B9C466144002400275CE00023CA5E0025AB
:401BC000435F5343DF190223CA5E0225435F5A43BF180423CA5E0425435F5A43BF180623CA5E0625435F5343FA180823CF5E0825435F7B43D7180A23CA5E0A25435F534347
:401C0000FA180C23CF5E0C25435F7B43D7180E23CA5E0E25435F5343FA181023CF5E1025435F7B43D7181223CA5E1225435F5343FA181423CF5E1425435F7B43D7181623F9
:401C4000CA5E1625435F5343FA181823CF5E1825435F7B43D7181A23CA5E1A25435F5343FA181C23CF5E1C25435F7B43D7180F341E311E30772CA0DD53461C685D68FB17E5
:401C800019002A4A00233800029109F073FC02000B0000920193A4185D41AB00A40F1C4350468568C668224A01235B423800029909F060FC2D184E4137002E00E5171D4A55
:401CC00000232000290009F055FC36184F4153461E605F60184A01235B422000290009F049FC009A019B8018594153469860D96080231B029C46644424145B461C800F23AD
:401D00009C46E1440D3B9C46E34443461B0142469B1A994500DA39E705B03CBC90469946A246AB46F0BDC0468CEC0010C61BE63E72C83382DB5DC77DBFEE2EC270B5520097
:401D40008A1802381CE00023C65E0F4B73431D00831E00269E5F0224035FF318F124A4016343EE18031F00241C5F0425435FE318064D2C005C4333191B140B800430023148
:401D80009142E0D370BDC0462D480000A91F0000F0B55F4656464D464446F0B487B005900F009B46109B9B009846D8445B46039393463EE0039B04339946BB1E0493059E95
:401DC000002300200021CA46C14698463A0037001CE000217B5E9C460021535E61464B431C00DD1700980199001969410090019101360232023702E00026009001910F2E08
:401E0000E7DD0098019901239C46E0445B461B119845F1DBC84620220023801859418B06800918430AF0C4FA039B186053460393049F039B4345BDD307B03CBC9046994638
:401E4000A246AB46F0BDC046F0B54F4680B482B0060089461700036813600124002301930AE0A3009D59291C386809F03BFB002801D03D60019401344C45F2DB019802B0F0
:401E800004BC9146F0BDC046F0B5474680B486B00700884604921E00036802933360FE218905101C09F088FC019001240023059316E0A300DD59291C019809F0BDFF039064
:401EC000011C029809F00EFB002803D03560039B0293059401340499019809F06DFC01904445E6DB059806B004BC9046F0BDC046F0B557464E464546E0B40D00D200384934
:401F00008A18011F0024095F841E0027E75F861C0024045F6D00AC469C4459E00020355EA9460020155E48464543A8460220155E6543A8440420155E7D43A8440620155E65
:401F400069434144C91319800220315E0020155E4D43A8460220155E48464543A8440420155E6543A8440620155E6F434744FF135F800420375E0020155E7D43A846022054
:401F8000155E4D43A8440420155E48464543A8440620155E65432C004444E4139C800620345E0020155E6543A8460220155E7D43A8440420155E4D434544AA460625505FF5
:401FC0004D46454328005044C013D880083308366345A3D31CBC90469946A246F0BDC0468CEE0010F8B505000B1DDC17A20F9B18032423409C1A63012D4C2034E4180029CF
:4020000009DA0300103B1868271D216809F014FF061C3C0008E0002905DDE169006909F00BFF061C00E000262B000C3B1868216809F002FF071C2B00083B1868616809F09F
:40204000FBFE011C381C09F0B7FB071C2B1F1868A16809F0F1FE011C381C09F0ADFB071CE168286809F0E8FE011C381C09F0A4FB071C2169686809F0DFFE011C381C09F0BA
:402080009BFB071C6169A86809F0D6FE011C381C09F092FB071CE868A16909F0CDFE011C381C09F089FB011C301C09F085FBF8BD8CEE0010F0B599B00D001F00941E640049
:4020C000202C00DA202402325200E42A00DDE422121B561C63425900083141180932009207AB2A00FFF754FE06AA31000BA8FFF7ABFE2618043C341BA400230007AA94468D
:402100006344039300211800FFF76CFF0290012400252CE07E2E09DD01239C2E00DC0023012222401343DBB2002B1FD121000398FFF758FF0490011C029809F0D3F900289D
:4021400002D0049B02932500202E0FDD6342049319000398FFF746FF0590011C029809F0C1F9002802D0059A0292049D0134032CD0DDE80F301A002D01DA042300E000237E
:40218000EB1882009A183A607E2802DC803A100008E09C2804DC40005B10C0187E3001E01C30FF3019B0F0BDF0B55F4656464D464446F0B49FB004900F0016001D00289BE2
:4021C0009A462A9C2B9A002A03DCFE239B05029301E000230293D017801AC30FD00F181A0AF0E6F8009029980AF0E2F8011C009809F058FC0390331D52460499521A9210F3
:40220000934204DDFB1A9B0053449B4603E09B005246D31A9B46664B9C466744BF00049B9946B9440026D046A24634003FE0A300002206A95A505B461E682B1D05932B6835
:402240000093D94503D904239C46E34401E0049B9B460025019656460EE0671BAB009959019809F0E9FD011CBF0006ABF85809F0F7FE06ABF8500135AC42EEDA0025370057
:4022800010E0661B2B0008339B00D959009809F0D3FD011CB60006ABF05809F08DFA06ABF0500135AC42ECDABA460134059D062CBDDD5446C24600230D9300239846434660
:4022C0000593270068E05B461B68019353461B6800934B465B4503D904239C46E34401E0049B9B46002515E0FB1D5B1BDC17620F9B18072423409C1AAB009959019809F0A0
:402300009BFD011CA40006ABE05809F0A9FE06ABE0500135072DE7DD002517E0FB1D5B1BDC17640F1B19072213401C1B2B0008339B009959009809F07FFD011CA40006AB43
:40234000E05809F039FA06ABE0500135072DE5DD53461D1DBC0006ABE35801930299181C09F06AFD011C009809F07AFE53461860002306AAA35001370399029809F01CFA34
:402380000290AA4602E000233E001F00072F9ADD3700059B08330593299B059A9342F2DC1FB03CBC90469946A246AB46F0BDC046FFFFFF3FF0B55F4656464D464446F0B4F1
:4023C000F7B008900E0005920993B64BC3581A00043A904601D5002290460433612B00DD612342469F1A01376223009312AB059A310022393000FFF7CBFC75ABAA4A622124
:4024000012A8FFF741FD06904246900012AA9446604474AA3900FFF717FD030043441F000B93069B11335B00F31A984611377F00F71B759B07930021181C09F05DF80028A5
:4024400078D1B146B44600239A46002000213200BB464F461CE000217B5E99460021535E49464B431C00DD1702980399001969410290039101360232023702E000260290E5
:4024800003910F2EE7DD0298039901239946CA44059B1B119A45F1DB5F469B46664620220023801859418B068009184309F080FF0A9000239C4600220023B946474640461D
:4024C000B2461CE00023F95E88460023C15E434659430C00CD17029A039B12196B410292039301360230023702E00026029203930F2EE7DD029A039B01218846C444DC45E6
:40250000F3DB4F46564620200021801859418B068009184309F04CFF041C0A9D291C201C09F08AFC0CF012F8011C079809F0BAFA079001E000230793749B0A930021181CE4
:4025400008F0DAFF002878D100239C4600220023BA463700B046059989461EE00023C15E88460023F95E434659430C00CD17029A039B12196B4102920393013602370230BB
:4025800003E000260292039340460F2EE6DD029A039B804601218B46DC44494609118C45EFDB57460D0020200021801859418B068009184309F0FCFE059000239C460022AA
:4025C0000023B846A94655461EE00023E95E88460023C15E434659430E00CF17029A039B92197B410292039301340230023503E000244046029203930F2CE6DD8046029A1F
:40260000039B01218A46D444CC45F1DB20200021801859418B068009184309F0C9FE051C059C211C281C09F007FC0BF08FFF011C0A9809F037FA041C00E000241B49079875
:4026400009F0FAFB051C011C201C08F055FF002801D0069800E00B98124B089AD0501130099B1860291C201C08F046FF002809D001240F49079808F049FF002800D10024D8
:40268000E0B208E001250A49201C08F03FFF002800D10025E8B277B03CBC90469946A246AB46F0BD840400003FE8A8BB9A99593F9A99193FF0B55F4656464D464446F0B494
:4026C00085B0824603919346002291469846A3E04B46DB17980F4A46121803210A40121A9000821890004000524A2032101819404944891049002639039B9C466144002418
:4027000000273EE00023CA5E0025435F5343DF190223CA5E0225435F5A43BF180423CA5E0425435F5A43BF180623CA5E0625435F5343FF180823CA5E0825435F5343FA1807
:402740000A23CF5E0A25435F7B43D7180C23CA5E0C25435F5343FA180E23CF5E0E25435F7B43D7181023CA5E1025435F5343FA181223CF5E1225435F7B43D7180A3414318A
:402780001430132CBEDD53461C685D68FB171900294A00233800029108F0ECFE02000B0000920193A4185D41AB00A40F1C4350468568C668214A01235B423800029908F0B9
:4027C000D9FE2D184E4137002E00E5171C4A00232000290008F0CEFE36184F4153461E605F60184A01235B422000290008F0C2FE009A019B8018594153469860D96080238A
:402800001B029C46644424145B461C8005239C46E144033B9C46E34443469B004344994500DA55E705B03CBC90469946A246AB46F0BDC0460CEF0010C61BE63E72C833827A
:40284000DB5DC77DBFEE2EC2F0B55F4656464D464446F0B485B0824603919346002291469846A0E04B46D90F5A18012313405B1A9A00D318D8004000514B40331818494497
:40288000491049004E39039B9C466144002400273EE00023CA5E0025435F5343DF190223CA5E0225435F5A43BF180423CA5E0425435F5A43BF180623CA5E0625435F5343F5
:4028C000FF180823CA5E0825435F5343FA180A23CF5E0A25435F7B43D7180C23CA5E0C25435F5343FA180E23CF5E0E25435F7B43D7181023CA5E1025435F5343FA1812235E
:40290000CF5E1225435F7B43D7180A3414311430272CBEDD53461C685D68FB171900294A00233800029108F025FE02000B0000920193A4185D41AB00A40F1C4350468568D9
:40294000C668214A01235B423800029908F012FE2D184E4137002E00E5171C4A00232000290008F007FE36184F4153461E605F60174A01235B422000290008F0FBFD009A75
:40298000019B8018594153469860D96080231B029C46644424145B461C8005239C46E144033B9C46E34443469B004344994500DA58E705B03CBC90469946A246AB46F0BDC0
:4029C0008CEF0010C61BE63E72C83382DB5DC77DBFEE2EC2F0B55F4656464D464446F0B485B0824603919346002291469846C1E04B46DB17580F4A46121807210A40121A74
:402A00001001821A50004000614A6032101819404944C91049003A39039B9C466144002400275CE00023CA5E0025435F5343DF190223CA5E0225435F5A43BF180423CA5E54
:402A40000425435F5A43BF180623CA5E0625435F5343FA180823CF5E0825435F7B43D7180A23CA5E0A25435F5343FA180C23CF5E0C25435F7B43D7180E23CA5E0E25435FA5
:402A80005343FA181023CF5E1025435F7B43D7181223CA5E1225435F5343FA181423CF5E1425435F7B43D7181623CA5E1625435F5343FA181823CF5E1825435F7B43D718E6
:402AC0001A23CA5E1A25435F5343FA181C23CF5E1C25435F7B43D7180F341E311E301D2CA0DD53461C685D68FB171900294A00233800029108F03EFD02000B000092019372
:402B0000A4185D41AB00A40F1C4350468568C668214A01235B423800029908F02BFD2D184E4137002E00E5171C4A00232000290008F020FD36184F4153461E605F60184A7C
:402B400001235B422000290008F014FD009A019B8018594153469860D96080231B029C46644424145B461C800F239C46E1440D3B9C46E34443461B0142469B1A994500DA2D
:402B800036E705B03CBC90469946A246AB46F0BD0CF00010C61BE63E72C83382DB5DC77DBFEE2EC2F0B55F4656464D464446F0B485B0824603919346002291469846C1E06E
:402BC0004B46DB17980F4A46121803210A40121A1001821A90004000614A4032101819404944891049007639039B9C466144002400275CE00023CA5E0025435F5343DF19D2
:402C00000223CA5E0225435F5A43BF180423CA5E0425435F5A43BF180623CA5E0625435F5343FA180823CF5E0825435F7B43D7180A23CA5E0A25435F5343FA180C23CF5EB8
:402C40000C25435F7B43D7180E23CA5E0E25435F5343FA181023CF5E1025435F7B43D7181223CA5E1225435F5343FA181423CF5E1425435F7B43D7181623CA5E1625435F12
:402C80005343FA181823CF5E1825435F7B43D7181A23CA5E1A25435F5343FA181C23CF5E1C25435F7B43D7180F341E311E303B2CA0DD53461C685D68FB171900294A002327
:402CC0003800029108F056FC02000B0000920193A4185D41AB00A40F1C4350468568C668214A01235B423800029908F043FC2D184E4137002E00E5171C4A00232000290087
:402D000008F038FC36184F4153461E605F60184A01235B422000290008F02CFC009A019B8018594153469860D96080231B029C46644424145B461C800F239C46E1440D3BB5
:402D40009C46E34443461B0142469B1A994500DA36E705B03CBC90469946A246AB46F0BD0CF20010C61BE63E72C83382DB5DC77DBFEE2EC2F0B55F4656464D464446F0B4E9
:402D80009FB004900F0016001D00289B9A462A9C2B9A002A03DCFE239B05029301E000230293D017801AC30FD00F181A09F000FB0090299809F0FCFA011C009808F072FE13
:402DC0000390B31D52460499521A9210934204DDFB1A9B0053449B4603E09B005246D31A9B46654B9C466744BF00049B9946B9440026D046A24634003FE0A300002206A909
:402E00005A505B461E682B1D05932B680093D94503D904239C46E34401E0049B9B460025019656460EE0671BAB009959019809F003F8011CBF0006ABF85809F011F906ABAD
:402E4000F8500135AC42EEDA0025370010E0661B2B000C339B00D959009808F0EDFF011CB60006ABF05808F0A7FC06ABF0500135AC42ECDABA460134059D0A2CBDDD54461B
:402E8000C246002311930023984643460593270066E05B461B68019353461B6800934B465B4503D904239C46E34401E0049B9B46002414E038000B30001B0C2108F0FAFAF0
:402EC0000D00A3009959019808F0B6FF011CAD0006ABE85809F0C4F806ABE85001340B2CE8DD002416E038000B30001B0C2108F0E1FA0D0023000C339B009959009808F02C
:402F00009BFF011CAD0006ABE85808F055FC06ABE85001340B2CE6DD53461D1DBC0006ABE35801930299181C08F086FF011C009809F096F853461860002306AAA350013735
:402F40000399029808F038FC0290AA4602E000233E001F000B2F9CDD3700059B0C330593299B059A9342F2DC1FB03CBC90469946A246AB46F0BDC046FFFFFF3FF0B55F4616
:402F800056464D464446F0B49FB004900F0016001D00289B9A462A9C2B9A002A03DCFE239B05029301E000230293D017801AC30FD00F181A09F0FCF90090299809F0F8F9DC
:402FC000011C009808F06EFD0390B31C52460499521A9210934204DDFB1A9B0053449B4603E09B005246D31A9B46654B9C466744BF00049B9946B9440026D046A246340083
:403000003EE0A300002206A95A505B461E682B1D05932B680093D94503D904239C46E34401E0049B9B460025019656460EE0671BAB009959019808F0FFFE011CBF0006AB1C
:40304000F85809F00DF806ABF8500135AC42EEDA002537000FE0661B2B1D9B00D959009808F0EAFE011CB60006ABF05808F0A4FB06ABF0500135AC42EDDABA460134059DAE
:40308000022CBEDD5446C246002309930023984643460593270067E05B461B68019353461B6800934B465B4503D904239C46E34401E0049B9B46002515E0FB1C5B1BDC17B7
:4030C000A20F9B18032423409C1AAB009959019808F0B2FE011CA40006ABE05808F0C0FF06ABE0500135032DE7DD002516E0FB1C5B1BDC17A40F1B19032213401C1B2B1D69
:403100009B009959009808F097FE011CA40006ABE05808F051FB06ABE0500135032DE6DD53461D1DBC0006ABE35801930299181C08F082FE011C009808F092FF5346186040
:40314000002306AAA35001370399029808F034FB0290AA4602E000233E001F00032F9BDD3700059B04330593299B059A9342F2DC1FB03CBC90469946A246AB46F0BDC046B2
:40318000FFFFFF3FF0B55F4656464D464446F0B49FB004900F0016001D00289B9A462A9C2B9A002A03DCFE239B05029301E000230293D017801AC30FD00F181A09F0F8F894
:4031C0000090299809F0F4F8011C009808F06AFC0390F31C52460499521A9210934204DDFB1A9B0053449B4603E09B005246D31A9B46634B9C466744BF00049B9946B9446A
:403200000026D046A24634003EE0A300002206A95A505B461E682B1D05932B680093D94503D904239C46E34401E0049B9B460025019656460EE0671BAB009959019808F04C
:40324000FBFD011CBF0006ABF85808F009FF06ABF8500135AC42EEDA002537000FE0661BAB1D9B00D959009808F0E6FD011CB60006ABF05808F0A0FA06ABF0500135AC424D
:40328000EDDABA460134059D042CBEDD5446C24600230B930023984643460593270063E05B461B68019353461B6800934B465B4503D904239C46E34401E0049B9B4600248D
:4032C00013E0781D001B062108F0F4F80D00A3009959019808F0B0FD011CAD0006ABE85808F0BEFE06ABE8500134052CE9DD002414E0781D001B062108F0DCF80D00A31D34
:403300009B009959009808F097FD011CAD0006ABE85808F051FA06ABE8500134052CE8DD53461D1DBC0006ABE35801930299181C08F082FD011C009808F092FE5346186027
:40334000002306AAA35001370399029808F034FA0290AA4602E000233E001F00052F9FDD3700059B06330593299B059A9342F2DC1FB03CBC90469946A246AB46F0BDC046A9
:40338000FFFFFF3FF0B55F4656464D464446F0B4CD4CA5448A460791934602930590431C5A0120205844814698010890C0235B0000929B1A5B009846484401001A0048463C
:4033C0000AF092FBC84450468300C04AD318186A814658461030009B42460299C847059A022A02D15820404201E030204042030043440293009A51108946C8239B005B44DF
:4034000049008A46B2224946521A51008846180019005144424606930AF066FB06988446E0444A4641460298FEF788FC059900290BD1029B08995B1A0293434651465B1A0D
:403440009846009A53000093894600238C938DAB4A4641465846FEF7ADFF06900890002800D1C9E08CAB8D9A0099884602988146FEF720FE989B58600CAB0022414648466D
:40348000FEF736FD8C9B981040004A46101A03221A404CAB4146FEF72BFD00239A46002200234CA989460CA9029603970F00DC46C3461FE00023F95E88460023F15E434692
:4034C00059430C00CD17009A019B12196B410092019301300236023704E000214E460092019308000F28E5DDB146009A019B01218846C244594609118A45EEDB8846E34640
:4035000020200021801859418B068009184308F04FFF099000239946002000210CADAC461EE000216B5E9C460021535E61464B431E00DF170098019980197941009001912A
:4035400001340232023503E000246246009001910F2CE6DD94460098019901239A46D144C145F1DB20220023801859418B068009184308F01DFF02900027002200234CADCE
:40358000AC46B9462F001EE00023C15E8C460023F95E634659430C00CD17009A019B12196B410092019301360237023003E000266046009201930F2EE6DD8446009A019B80
:4035C00001218A46D144C145F1DB20200021801859418B068009184308F0EAFE041C029D291C201C08F028FC0AF0B0FF011C099808F058FA051C00E000255B461B78002B78
:403600003AD05B465B688C991A008B4200DA0A008B4200DD0B00D61A5B469968281C08F01FFD041C079B042B18D8089B002B17D02749281C07F06AFF002813D12549281C25
:4036400007F064FF00280FD0072E0FDC2249201C07F05CFF00280BD100230AE0002308E0002306E0012304E0002302E0002300E00123989A137036E0079B042B1BD8089B45
:40368000002B1AD0059B032B06D014495B46D86807F03CFF002812D010495B46986807F035FF00280DD00D49281C07F02FFF002816D1002315E0002313E0002311E000237A
:4036C0000FE000230DE0C046C4FDFFFF0CF400106666663F3D0A573FCDCCCCBDD7A3703F0123989A1370989B1B785A4613705B468C9A5A609A68DA609D6006988F239B00F6
:403700009D443CBC90469946A246AB46F0BDC046002303707047C04683001B18580001307047C04670B504000D000978026A531C202B05DC9140C2691143C161036202E0A9
:403740000122FDF7C3FA6968226A13000933202B05DC9140E2691143E161236203E009222000FDF7B3FA70BDF0B55F4656464D464446F0B48FB0040008001F000C930D921B
:40378000052107F0B1FD0990002398468346BA4627006BE15B46DD007D192C685E01BE1933680093191C201C08F006F802906D687668311C281C07F0FFFF03900099201CC2
:4037C00008F04EFC0090311C281C08F049FC01905B461D017D192C685B005B44DE00BE1933680693191C201C07F0E6FF04906D687668311C281C07F0DFFF05900699201C62
:4038000008F02EFC0690311C281C08F029FC051C3968029807F0D0FF011C049807F0CCFF534618607968039807F0C6FF011C059E301C07F0C1FF534658603C68A9490298F8
:4038400008F0FAFA0790011C201C07F0B5FF041CA549019808F0F0FA011C201C07F0ACFF041CA249049808F0E7FA0890011C201C07F0A2FF041C9E49281C08F0DDFA011CFD
:40388000201C07F099FF524690607C689549039808F0D2FA0A90011C201C07F08DFF041C9449009808F0C8FA011C201C07F084FF041C8E490596301C08F0BEFA0B90011CB6
:4038C000201C07F079FF041C8B49069808F0B4FA011C201C07F070FF5246D0603C688349029808F0A9FA061C011C201C07F064FF041C7F49019808F09FFA011C201C07F082
:403900005BFF041C7749049808F096FA0290011C201C07F051FF041C7649281C08F08CFA011C201C07F048FF524610617C686F49039808F081FA0390011C201C07F03CFFEE
:40394000041C6D49009808F077FA011C201C07F033FF041C6349059808F06EFA0490011C201C07F029FF041C5F49069808F064FA011C201C07F020FF524650613968301CB8
:4039800007F01AFF041C5C49019808F055FA011C201C07F011FF011C029807F00DFF041C5149281C08F048FA011C201C07F004FF524690617968039807F0FEFE041C4C4900
:4039C000009808F039FA011C201C07F0F5FE011C049807F0F1FE041C4649069E301C08F02BFA011C201C07F0E7FE5246D0613968079807F0E1FE041C3E49019808F01CFA04
:403A0000011C201C07F0D8FE011C089807F0D4FE041C3949281C08F00FFA011C201C07F0CBFE5246106279680A9807F0C5FE041C2D49009808F000FA011C201C07F0BCFE69
:403A4000011C0B9807F0B8FE041C2949301C08F0F3F9011C201C07F0AFFE5346586201239C46E044083727339C46E244C34500DD90E600230A930B9376E10B9B9B001F4A42
:403A80009C580A9A93000CA95B589A4601235A400A9293005B581D0002930321099807F023FC099023681A00019363681900059313018C469C4461460691634407930300D0
:403AC0005343DB009B46D3445B441E00D300AC469C446246039263440493002308935F463BE1C0467A379E3E7178733FBD1B4FBF1879163F717873BF187916BF4C0300082F
:403B00004B46DB00029A904600939C46E04451460D68494609018B46059959440C000968386808F089F9011C281C07F045FE051C6168786808F080F9011C281C08F090FA0D
:403B4000051CA168306808F077F9011C281C07F033FE051CE168706808F06EF9011C281C08F07EFA4146086051464D682168786808F062F9011C281C07F01EFE051C6168CB
:403B8000386808F059F9011C281C07F015FE051CA168706808F050F9011C281C07F00CFE051CE168306808F047F9011C281C07F003FE414648600399009B9C4661448846BD
:403BC00052461568069A5A4414001168386808F033F9011C281C07F0EFFD051C6168786808F02AF9011C281C08F03AFA051CA168306808F021F9011C281C07F0DDFD051C44
:403C0000E168706808F018F9011C281C08F028FA42461060524655682168786808F00CF9011C281C07F0C8FD051C6168386808F003F9011C281C07F0BFFD051CA16870687B
:403C400008F0FAF8011C281C07F0B6FD051CE168306808F0F1F8011C281C07F0ADFD42465060009B049A94466344984653461D68079B5B441C001968386808F0DDF8011C14
:403C8000281C07F099FD051C6168786808F0D4F8011C281C08F0E4F9051CA168306808F0CBF8011C281C07F087FD051CE168706808F0C2F8011C281C08F0D2F943461860FD
:403CC00053465D682168786808F0B6F8011C281C07F072FD051C6168386808F0ADF8011C281C07F069FD051CA168706808F0A4F8011C281C07F060FD051CE168306808F066
:403D00009BF8011C281C07F057FD4346586001239C46E14407339C46E2440837083601E000239946019B4B4500DDE9E6089B01330893019B5A009C466244D300029A944625
:403D40009C4462460292039A94469C4462460392049A94469C4463460493099B089A9342DEDC0B9B01330B93099A1300013B134200D082E600230493A2E0049A5300944628
:403D800063440B9A944663449B00554A9B580A998A000CA81658012251400A918A00125811000092099A52100992186883465B68029314004443E4003419C3008C4663448B
:403DC00001930023039374E04346DB009946009B4B449A463768029B4B441D001968206808F02AF8011C381C07F0E6FC071C6968606808F021F8011C381C08F031F9534687
:403E0000186077682968606808F016F8011C381C07F0D2FC071C6968206808F00DF8011C381C07F0C9FC53465860019B9C46E14437682968206807F0FFFF011C381C08F0E6
:403E40000FF9071C6968606807F0F6FF011C381C07F0B2FC4B46186077682968606807F0EBFF011C381C08F0FBF8071C6968206807F0E2FF011C381C08F0F2F84B4658600E
:403E800001239C46E0440836083401E000239846C34599DC039B013303935B461B01009A94469C4462460092019A94469C4463460193099B039A9342E8DC049B0133049376
:403EC000099B012B00DD58E70A9B9B000CAA98580FB03CBC90469946A246AB46F0BDC04610030008F0B55F4656464D464446F0B489B091469B46C3001B1A5B189B00914A64
:403F00009D588A00904BD258431C5343022802D189008E4A8A58D2185210990007918C46AC4461469400A444604602909A1A92004A449046DE0FF6187610B6003300129A6E
:403F40009446634422005A4406929A4644460F004A46059289465E469B4654E02968306807F06AFF0090231F18684B46043B196807F062FF011C009808F072F85B46043BC5
:403F80001860434618683060396807F055FF5346186008235B429C46E34410339C46AC44634600936968706807F046FF0190083C4B46083B1D001968206807F03DFF011CCD
:403FC000019808F04DF85A46106008235344019308229446B4446246039208224244049241464868706008218946B944796807F023FF51464860039E019B9A46049A904640
:404000004F46A946009D059B9C42A7D84B4601935B46B346079A9446A444624600924646069A90465C469B4681E02968206807F003FF039004235B4243449946019B043B76
:4040400019684A46106807F0F7FE011C039808F007F85A46131F186030682060396807F0EBFE0390009B043B18684A461060029A131F196807F0E0FE011C039807F09CFBE2
:4040800051460860082040428446E34410308446AC44604603906968606807F0CDFE051C082149428C46E04401998946E144494609684046006807F0BFFE011C281C07F085
:4040C000CFFF5946086008215144019108208446A444604604900825AC46B44465460595706860600824A446BC4464460694796807F0A2FE041C009B083B1E00186843469C
:404100001860029A083A1500116807F095FE011C201C07F051FB53465860049C01998A460096059E0295069F4B460193039D009B9E4200D279E709B03CBC90469946A246E5
:40414000AB46F0BD30020008A035021068350210F0B55F4656464D464446F0B48DB08B4616000368DA008C1843689F189246B244B8462700D146B24675E0082294469C4480
:404180006246009206AD290011CB11C13B1F1E68802109067018069A0192111C07F04CFE041C594609680B1C6D68291C0293181C07F042FE011C201C07F0FEFA04AC049085
:4041C0000299019807F038FE0190291C301C07F033FE011C019807F0EFFA6060082149428C46E0440AAB1900404660C860C1674439688022120601918C46624410000B9AB2
:404200000292111C07F018FE061C5D466D680A990391281C07F010FE011C301C07F0CCFA08AE089008239C46E34480231B06E918029807F001FE051C0399019807F0FCFD53
:40424000011C281C07F00CFF7060514621CC21C1082149428C46E144494611CE11C108218C46E244009BBB4587D30DB03CBC90469946A246AB46F0BDF0B55F4656464D463B
:404280004446F0B48BB0914603685A104068D200804690440820404240448B4693445E46083E9B004B4407004546CA4699465C46984659E063686A680192111C0093181C8D
:4042C00007F0BAFD049021680B1C296803910293181C07F0B1FD011C049807F06DFA089032687B680593191C0492101C07F0A4FD099072683B680793191C0692101C07F046
:404300009BFD011C099807F0ABFE09900299019807F092FD01900399009807F08DFD011C019807F09DFE83460699059807F084FD00900799049807F07FFD011C009807F03E
:404340003BFA4B46089A1A60099A5A604346043B5A461A60043B18600834083E0835083F984608239C46E144D045A3D80BB03CBC90469946A246AB46F0BDC046F0B583B0F3
:4043800004000D00019200261AE0019F391C206807F052FD2060391C606807F04DFD60600197391CA06807F047FDA060230010331F000199E06807F03FFDE06001363C005B
:4043C000AB109E42E1DB03B0F0BDC046F0B5294CA5440393C3001B1A5B189B00264C1F59264C92001259431C16005E438A0014595C4304AD0095F2231B0102AA94466344B8
:404400001B68039AFFF76EFD2A0029003800FFF79FFEE10F09194910194B02AA944663441B682A002800FFF79FF90100144B02AA944663441A683800FFF71EFFB44215D049
:40444000300007F0B5FF051C200007F0B1FF011C281C07F027FB0AF079F8021C3100084B02A8844663441868FFF788FF054B9D44F0BDC046ECF0FFFFA0020008A03502108B
:40448000240F0000140F0000F0B5474680B407008846002617E0B500454400232B6000240EE0A300D85923019B199B00084A995807F0C2FC011C286807F07EF92860013439
:4044C0000F2CEEDD01360F2EE5DD04BC9046F0BD5CF40010F0B5474680B407008846002617E0B500454400232B6000240EE0A300D85933011B199B00084A995807F09CFCDE
:40450000011C286807F058F9286001340F2CEEDD01360F2EE5DD04BC9046F0BD5CF40010F0B55F4656464D464446F0B485B0002313600B6098460023039302930700C346D1
:40454000914688464AE05B465B01294A9E18294A9A46924400240023019300931DE0A5007159785907F07CFD011C07F065FC011C009807F021F90090230008339B00D8590D
:404580005346595907F06CFD011C07F055FC011C019807F011F901900134072CDFDD5B46002B05D00099029806F0B0FF002804D043465A461A60009B02935B46002B05D096
:4045C0000199039806F0A2FF002804D04B465A461A60019B039301239C46E3445B461F2BB1DD05B03CBC90469946A246AB46F0BDCC380110CC340110F0B55F4656464D46E9
:404600004446F0B489B09246139A9046149A91460D000700C346984666E05B461B6805933968181C07F0C8F8011C07F005FC03904B461B681C1C06932B68580007F0B8FE85
:40464000211C07F0B9F8FE21890507F0B5F804900124002307932E0028E0A5007959059807F0AAF8011C07F0E7FB01907059400007F09EFE069907F09FF8FE21890507F0B7
:404680009BF8051C0199049807F0D6FB0290291C039807F0D1FB011C029806F037FF002803D007940495019B039301345445D4DB3500079B9C003959059807F07DF85B46A3
:4046C0001860341923685800013007F071FE011C4B46186807F070F84B46186023680133236001239C46E044129B984595DB09B03CBC90469946A246AB46F0BDF0B5574651
:404700004E46C0B483B00B9E40011F4C8146A14449011E4FCF19DB001D49CB1859680A9B9B00CB58019331001000FFF7D3FE00250EE0AC004B461B599A46341921680198A7
:4047400007F07AFB011C504607F036F820600135072DEEDD082510E0AC000E4BEB189B00DB59994634192168019807F065FB011C484607F021F8206001350F2DECDD03B07E
:404780000CBC91469A46F0BDCC380110CC34011064340110F8FFFF3FF0B5474680B49C468B00C018002400E0013404380768002F01D10E2CF8DD00231360FB0F65462B7044
:4047C000FB17FF185F40013421E004380368002B08D015686D006646367835431560DD0F664635703E000A2F00D90A26A5002D196D002D19AD19AD00074EAD591668B04643
:40480000454415600134DD175B196B40FF188C42DBDB04BC9046F0BDA431011070B505000C00012801DC0A2100E010212000FFF7B3FF002D06D120002830059B049A06214D
:40484000FFF7AAFF70BDC046F0B55F4656464D464446F0B4C7B08346894604921C0050AB1B780393519B9846C3001B1A4B449B00E94A9D581F2D05DC2900202006F01AFE22
:404880000B0000E000231F2D02DCEA1A944602E04022521B94460022AA460EE09100481C8E1CCF1C0959BF0006AD7951B6007151800041511001415101329A42EEDB180012
:4048C00067460AE0C1184A00013286003659920006AD5651C9004E510130DA199042F1DB55461801FA00801806AA92465044D91989006118EA1AD21B920009F0ECF84B4659
:404900009B00C64A9C58069B00930026002201921D1C270075E0FA218905281C07F08CFA051CFC218905009807F086FA011C281C06F042FF041C731C9B009A4606AB5246C4
:40494000D558FA218905281C07F076FA0290011C201C06F031FFB400E15907F06DFA011C06AAA050019806F027FF0190FA218905009807F061FA041CFC218905281C07F0BD
:404980005BFA011C201C06F017FF0090B31C9C0006AAA558FA218905281C07F04DFA011C009806F009FF5246D15907F045FA011C06AA53469850019806F0FEFE0190FC2138
:4049C0008905281C07F038FA011C029806F0F4FE02900336B30006AA9B580093FA218905181C07F029FA011C029806F0E5FEE15907F022FA011C06ABE050019806F0DCFE2E
:404A000001903E2E87DD281CFA21890507F014FA051CFD218905009807F00EFA011C281C06F0CAFEFC25795907F006FA011C06AB5851019806F0C0FE794907F0FDF9BE2164
:404A4000890509F0FFFC019000273BE0BE0006ABF35800930199181C09F0F4FCC30DFF251D407E3D6F4C2040FC24A40504436E49201C07F0E1F96D4906F09EFE011C201C41
:404A800007F0DAF96A4907F0EBFA011C201C07F0D3F9684906F090FE011C201C07F0CCF9654907F0DDFA041C280007F081FC011C201C06F081FEFC21890507F0BDF906AB28
:404AC000F05001373F2FC1DD069C0A9B0093191C201C06F071FE594906F0E4FF051C099B0093191C201C06F067FE011C06F064FE524906F0D7FF011C281C06F05DFE041C35
:404B00000798089906F058FE4D4907F095F94B4906F0C8FF011C201C06F04EFE009042461060012745463AE0BC002E19631E9B0006AA985801373B01995806F03DFE3F49B0
:404B400006F0B0FF0190A30006AA9858E31C9B00995806F031FE011C06F02EFE374906F0A1FF011C019806F027FE0190631C9B0006AA98580234A400A15806F01DFE30493E
:404B800007F05AF92D4906F08DFF011C019806F013FE011C3060009806F00EFE00900E2FC2DDA846EC2306AAD0581033D458211C06F002FE214906F075FF061CF02306AA13
:404BC000D158201C06F0F8FD011C06F0F5FD1B4906F068FF011C301C06F0EEFD041CF42306AAD0580433D15806F0E6FD144907F023F9124906F056FF011C201C06F0DCFDCF
:404C0000011C2B00D863009806F0D6FD00904B46042B19D90B4D18E0CC3C01105CF8001017B7D135FFFF7F80E7BBA5BF1EC4A3406AC4064174B00141F55C60400000404198
:404C4000000040409A99193F634D4B46042B16D9049BDB005A46022A03D8511C5F4A4A4300E05F4A9A420ADA5B46022B02D8FA21890500E05B49281C07F0DEF8051C00278F
:404C80000195464611E0BC0034192568F6218905009807F0D1F8011C281C07F0E1F9011C019807F0C9F8206001370F2FEBDDB046039B002B00D187E033680093726802925D
:404CC000B1680C1C0391F1680E1C0491111C181C06F072FD011C201C06F06EFD051C424906F0E0FE041C43461860291C301C06F063FD061CFA21890507F09EF8011C4346C1
:404D00005860201C06F058FD02270190301C46461DE0BB1C9B00F458BB00F518211C06F04BFD3249059006F0BDFE011C2860019806F042FD019001370099059807F090F9F1
:404D4000029B0093039B0293049B039304940D2FDFDD019DB046FA218905061C07F06CF8041C434698630099301C07F079F91E4906F098FE011C4346D863201C06F01CFD40
:404D8000011C281C06F018FD002701905D4619E0BC00022D02D1164B009302E0FC239B05009344442668F6218905019807F044F8011C301C07F054F9011C009807F03CF839
:404DC000206001370F2FE3DD47B03CBC90469946A246AB46F0BDC0469A99593F7E040000301100003333B33E000040400000A0409A99993EF0B583B005000F00002200244C
:404E000004E09300EB585B43E41801320F2AF8DD200007F0CDFA09F099FB011CFE20800506F040FE0190002409E0A300FE18E85807F0BEFA019906F0FFFF306001340F2CAA
:404E4000F3DD03B0F0BDC046F0B55F4656464D464446F0B4BDB082461C00469B98464901B44B8B469B445201B34BD31805930025A14613E0AF005B46D9595346D85907F036
:404E8000EFF82CAC38512E000836B600059BD9595346F05807F0E4F830510135072DE9DD4C461CA92CA8FFF7EFFA0025002009E0AB001CAA9958490049080CAA995006F088
:404EC0007BFC01350F2DF3DD9C4909F0BBFA011C9B4806F0E7FD069000230B930A9300250026A14625E0AC000CABE3580593191C069806F0A1FF09F057FA07F037FA070049
:404F00004C442300C0229850361807F051FA059906F092FF011C0B9806F04EFC0B903800784307F045FA011C0A9806F045FC0A9001350F2DD7DD4C464F46C0370AAB02935D
:404F40000BAD0195062300933300102239000CA8FFF752FB4B468033402239001F00180008F0B9FD0AAB0293019508230093023B102239000CA8FFF73FFB40239C46CC444F
:404F80006346604605934022390008F0A4FD0A2608271EE0B300E21800211164803155587F1B0CAA9B589946280007F001FA494606F042FF011C0B9807F052F80B90280012
:404FC000684307F0F5F9011C0A9807F049F80A9001360F2EDEDD0AAE02960BAD01950A2300933B000A22059F39000CA8FFF704FB40223900200008F06EFD210028310296E6
:405000000195012300930023062216A8FFF7F4FA002718E0B501BB001CAA9858002106F061FA002804D06319BA00D258524202E06319BA00D258B900CA50013600E000263C
:40504000032EE7DD01370F2FF9DD0025464605E0A80131182018FFF7CDFE0135032DF7DD0023489A1360479A13609946FF23DB050993370054E04B46DB00324A9B469344E0
:4050800000239A460893FF23DB0507933E004F4630E053469B005A465268D3580693002400230593350015E0A2001CABD658BB01EB18D158069806F0BFFE011C301C06F049
:4050C000CFFF011C06F0B8FE011C059806F074FB059001340F2CE7DD2E00059C211C079806F014FA002802D053460893079401239C46E2445B461B689A45CADB3700079C0B
:40510000211C099806F002FA002806D0479B4A461A60489B089A1A6009944B46013399464B46032BA7DD3DB03CBC90469946A246AB46F0BDCC380110CC340110B3CE010C5E
:405140000000A04064340110F0B55F4656464D464446F0B4C7B0029003919146191E509A9346519A904607D04B461B688022120694466344009302E04B461B680093009BF3
:405180000793069300252F008A465B465093434651934BE05346002B08D07B1C9B004A469D5880231B069C46654403E07B1C9B004A46D558BE00B31C9B46009C211C281C7D
:4051C00006F04EFFF8218905019006F035FE011C0094201C06F0F0FA06AC5B469B001851F31C9B46FB218905019806F025FE011C009806F0E1FA5B469B001851013783496C
:40520000019806F019FE011C009806F0D5FA3B01185105367E49019806F00EFE011C009806F0CAFAB3001851009C00950E2FB1DD509B9B46519B9846211C009D281C06F0DB
:405240000FFF041CF821890506F0F6FD011C281C06F0B2FAF82304AA08215218D050FB218905201C06F0E8FD011C281C06F0A4FAFC2304AA08215218D050029AD3009B1A97
:40528000039A944663449B00624A9B5899461F2B05DC1900202006F00DF90D0000E000254B461F2B02DC5B1B9A4603E040274B46FB1A9A46002618E0B70006AC330118591A
:4052C0007B1C9B00195906F077FABB1C9B00195906F072FAFB1C9B00195906F06DFAFA21890506F0A9FD38510136AE42E4DB2E00574610E07219530006ACD200105901336E
:405300009B00195906F058FAFC21890506F094FDB30018510136EB199E42EBDBE81980004B465A1BD21B92002D01F9006D1806AB59199C46604408F0D7FB029AD3009B1AA0
:40534000039A944663449B00334A9F5800260024CA4651E0B30006AA9D5880231B069C4665442E49281C06F027FA0590059B994605982A4906F074FE011C281C06F070FEAB
:40538000051C274906F058FD264906F015FA011C281C06F051FD244906F00EFA011C281C06F04AFD214906F007FA011C281C06F043FDFE21890506F0FFF907234A4613404F
:4053C0009B001B4AD318D96906F036FD4B46DD10ED052B18009309E0A3004246D5185A46D058009906F028FD28600134731C9B00DB599C42F0DB01365645ABDB47B03CBC89
:4054000090469946A246AB46F0BDC0460000203F0000603FCC3C0110C00100080000C0490093243C2C26633D87FE753E1772313F5CF80010F0B5244CA5440F009CA90978F5
:405440009D9C86AD0195009139000590FFF7FCF9221D21002800FFF763F823000C330293043B019346AE009606AB626821682800FFF7EAFCA3689A01B2180195E3680093C7
:40548000A36861682068FFF739F9A068810106AB9C466144230018332200103226001936019614340094FFF7B9F99F9B01939E9B009300232A0039000598FFF745FE972394
:4054C0009B009D44F0BDC046A4FDFFFF2620704770B504000D000968026A531D202B05DC9140C2691143C161036202E00522FBF7EDFB6968226A531D202B05DC9140E26963
:405500001143E161236203E005222000FBF7DEFBAB685E10226A531C202B07DC310091400A00E1690A43E261236204E0012231002000FBF7CBFB002E41D10123AA6813406D
:4055400005D16A69561C76006A7EB61802E00126EA681640394A56432A6994466644E9681941226A531C202B05DC9140E2691143E161236203E001222000FBF7A7FB297E96
:40558000226A531C202B05DC9140E2691143E161236203E001222000FBF798FB226A13001933202B05DC9640E2691643E661236243E0192231002000FBF788FB3DE0012320
:4055C000AA68134001D12E6908E02A691C498C46624452000126E9680E409619E9681941226A931C202B05DC9140E2691143E161236203E002222000FBF768FB297E226AC6
:40560000531C202B05DC9140E2691143E161236203E001222000FBF759FB226A13001833202B05DC9640E2691643E661236204E0182231002000FBF749FB70BDF47724006F
:4056400000A6730070B50500042801D9441E00E00400C8000134A6003319590005F044FE34196934732800DD73202418052D01D9B52000E0FF20A04200DD200070BDC046F9
:4056800010B50400FE20800503E01C34084906F0D3FB002CF9DB03E01C3C064906F0CCFB1B2CF9DCA400044BE15806F0C5FB10BDCDCCCC3D00002041A8FE0010F0B5474639
:4056C00080B496B005000E0017001C0054224049703101A808F0FFF972009219930001AAD2181168A14205DD230030335800C01830211BE0536898469C4211DA0A0030325E
:40570000500080185A1A130043439C46611A43461B1A4B436344180053009A18110105E0936820009C4200DD180030214B10C01805F0DAFD0100042E1DD91C9B9C421ADD1D
:40574000012D01D8022000E001206B426B41214A944201DD022500E001255D4345191C9BE01A684305F0C0FD2818C019FF2800DDFF20C01B28E0042E0BD88B1C1C9AD31AD0
:405780009C4206DA01201D9B9F4200DC002040421AE0042E15D81C9B9C4214DDF80F0023FE22BA424341FD2F06DC1C9A944661448C4203DA002002E0002000E00120C018A1
:4057C00002E0002000E0002016B004BC9046F0BDA8FE001007020000F0B55F4656464D464446F0B483B004008B469A460C9F5042FFF746FF00905B469A00214BD358013441
:405800005C43A1463C60002631E05B46042B03D9FC239B05019301E01A4B0193B50055440099286806F008FB2860741CA40054442168009806F000FB804620602968490040
:405840004908019C201C05F057FE00280AD1434659004908201C05F04FFE002804D13B68023B02E04B4600E04B463B6002364E45CBDB03B03CBC90469946A246AB46F0BD4D
:40588000843502100000203F30B5042801D9431E00E00300002A0DD0DC1CA5002C19A5008D4203DC052803D9002402E0002400E00124147001339A00D3189A00914203DD91
:4058C000052803D9002002E0002000E0012030BDF0B55F4656464D464446F0B491B004000D000791110098461A9B9B460EABDA1D2800FFF7C9FF0D90AA008B4BD358013466
:405900005C4305941B9B002B02D0DB02039301E0864B03930023049300260C930B9319000A93994643460893C5E00D9B5B00049A944663449B027E4A9B1806938A46A5E01E
:40594000079B042B02D9FC25AD0501E0FB25AD05B300089FF95849004908281C05F02CFF05F034FE04000190731C9B00F95849004908281C05F020FF05F028FE53469900D6
:40598000069B9C46614425006B1E9D4103005A1E9341EB180293DA024A44230003439B0843D00EAD07352D780995002D1CD00F783D01A9464F447F005E4DA84647443F8CBB
:4059C0005D4DAC466744D219012C01D1023400E00224471E7D427D4167190A9CA446BC4464460A94012700E00027099CE3401D000DE03B00032F00D90323CB5C1C01E31854
:405A00005C004C4B1C19238CD2186D080137002DEFD13B03D218019BFB400193F840B846032F04D90323984601E0002398464346C95C8300019CA44663440C01A446614452
:405A4000CB185B003B495B5A99469144029B002B06D0039B4B4503DBB31C0C934B460B9353461A01D2B24346012B03D940460C30C3B207E0019B9C46604443460133584353
:405A80000130C3B29B18DBB29A460236059B023301220499521A5946096813418B4200DD0B009E4203DA039B994500DC48E75146049B01330493049B012B00DC35E75B4625
:405AC0000C9A1A601C9B002B13D00EAB07331B78002B09D00A9BDB020B9A94466344039A9A4203DB002302E0002300E001231C9A13700E4B039A9A4206D10A9BDB020B9A03
:405B000094469C4463460B930B9B0C4A94466344D8174005400DC018C01211B03CBC90469946A246AB46F0BD84350210FFFFFF7F8C1901100C00011000F0FFFFFF070000BA
:405B4000F0B55F464E46C0B483B09B460B1C042900D90423DBB29B003D495958431C59438946012801D9022400E0012402218142804140422618002A03D0FC229205019268
:405B800001E0344A01925A00D3185C00A41B00250027002300931BE0A3005A46D15849004908019805F0B2FC002801D0013500E0002573009D420ADDA31B9B005A46D158C5
:405BC00049004908009805F0F7FD0090013701340A9B4B4500DD4B469C42DDDB0FE0013573009D420ADDA31B9B005A46D15849004908009805F0E0FD0090013701344B4642
:405C0000F3189C42EBDB002F15D08321C905009806F012F9041C380006F0CAFB011C201C05F040FFFC21890505F0C6FD06F09EFB0823181A00E00820062803DC002802DA8E
:405C4000002000E0072003B00CBC91469B46F0BD843502100000203F10B58900104BCB5801304343202B01DD052400E004240120402B00DC002020180124802B00DC002486
:405C80000019012180225200934200DC002140180122802189008B4200DC0022801810BD8435021070B50D001600FFF7D5FF03300424AC42A44164422418701E4023FF33FE
:405CC000984203DCA02105F00FFB00E00220001970BDC046F0B55F4656464D464446F0B4E94CA5440500080017009846FFAA3C32126893468A00E54BD3586A1C91465343D4
:405D0000DA1703210A40D3189E100590042800D8B9E0F8AC20220021200007F0FAFE06235B42F89363600833A3610333E361059B053B6A00D3189B001C59434658014B469E
:405D40005901C91A8900494405F0CEFA2418162C05DCA246062C04DA06239A4601E017239A46002500230093C94B02930193D046DA46B3463E002F0063E03D0173595C005B
:405D80006408211C019805F017FD0390FE218905009805F011FD0190211C009806F04CF8011C029805F008FD02902B1DF45864006408211C039805F0FFFC0390FE2189056E
:405DC000019805F0F9FC0090211C019806F034F8011C029805F0F0FC01902B000833F45864006408211C039805F0E6FC0290FE218905009805F0E0FC0390211C009806F038
:405E00001BF8011C019805F0D7FC04902B000C33F45864006408211C029805F0CDFC0190FE218905039D281C05F0C6FC0090211C281C06F001F8011C049805F0BDFC029050
:405E400001375F4599DB37005E46D346C2469149019805F0F1FF041C484606F0A9FA029905F0EAFF011C201C05F01CFE08F036FB06F07CFA082800DD08200823181A06F039
:405E800097FA804603E00023984600239A46002500230393D1463B002F0035001E0036E03C013159081C05F0C7FF0090231DF058011C05F0C1FF019023000833F058011CF8
:405EC00005F0BAFF02900C343059011C05F0B4FF041C0099039808F0B5FA019908F0B2FA029908F0AFFA211C08F0ACFA03900199009805F061FC011C029805F05DFC011C4B
:405F0000201C05F059FCBA0008ABD0500137AF42C6DB2E00039808F019FB0190059B042B48D94B465C420300FF22D205024201D0E40523181C1C80231B0643441D0056498C
:405F4000181C05F039FC0790079F0798524906F087F8011C281C06F083F8051C4F4905F06BFF4F4905F028FC011C281C05F064FF4C4905F021FC011C281C05F05DFF4A4997
:405F800005F01AFC011C281C05F056FFFE21890505F012FC07233B409B00444AD318596C05F04AFFFF10FF053918201C05F044FF041C00E00024002529E0AF0006AB08220B
:405FC0009B18DB590093191C201C05F0F5FB384908F038FA011C05F02FFF810DFE39830C1F22134080080204100C324A51439B002E4AD31864229A5A511866331A884243A3
:4060000012148B1806AA08215218D3510135B542D3DBFFAB2C33186806F0CAF9FFAB3033196805F0C9FBFC21890505F0C5FB06F09DF98046FF23FFAA343212689B1A9C46D8
:40604000731E0093E146802750E04B46DC1B1A496143009800E0013800283ADB830008AA9B589942F7DC0200002634E0930008AD5B595B1A29D4114DAB4221DCE025ED02C5
:40608000AA46534422E0C046FCFBFFFF84350210ACC52737CDCCCC3F0000C0490093243C2C26633D87FE753E1772313F28FF0010FFE6DB2EA9C00000DBB60000FFFF2A00B8
:4060C0002B4DAA4653445B0000E02A4BF618013A01E002000026002AC8DA274B424653439E4201DD009000E0A1467F10002FACDC059B042B01D9214C00E0214C5B4662463C
:406100001A6080255F4610E03B685E1B3000FFF7B7FA011C201C05F08FFE011C019805F0E1F9002800D03E606D10002DECDCBB463B68994507DB0021019805F0CDF900284F
:4061400003D0012302E0012300E00023FFAA383212681370002B02D05B461B6899464846084B9D443CBC90469946A246AB46F0BD0000EEFF33B302006666010000FEFF4A31
:4061800000FEFF460404000010B5026AD31C202B05DC9140C2691143C161036202E00322FAF794FD10BDC046F0B55F4656464D464446F0B487B08146884605929B46109B7F
:4061C0009A46002A03D0FC239B05019301E03F4B0193FC218905019805F02EFE0390002304935FE0B4005C4427687D006D08291C019805F08BF9002844D1281C08F094F94D
:40620000011C281C05F02CFF011C0125019805F07DF9002800D10025EDB201236A46D3720021381C05F05EF9002802D100236A46D3726B46DB7A5D404B461A6A531C202B7A
:4062400009DC290091400A004946C9690A434946CA610B6204E0012229004846FAF736FD01235B429C46E0442168002D06D0039B8022120694466344180000E0039805F06A
:406280009BFA2060013600E00026564502DA4346002BA7DC0199039805F0CEFD0390049B01330493059B002B01D0142300E00123049A9A4202DA4346002BE5DC07B03CBC9B
:4062C00090469946A246AB46F0BDC0460000203FF0B55F4656464D464446F0B489B007000C001500069214AA11780391002219002800FFF7C9FA0790AA00B14BD3580134CA
:406300005C43049400230293009301934CE1079B5B00029A944663449B02AA4A9B18059331E1069B042B02D9FC24A40501E0FB24A405009DAB00129A92469A4453461B682F
:4063400059004908201C05F037FA05F03FF980462B0001339B00129A914699444B461B6859004908201C05F027FA05F02FF90600019B9B00059A93469B4445460543AD087B
:4063800000D186E0039B002B21D05B461B781A01D31899008C4BC918BB689A0A40310B8853437868844663447B6049884A43BA60190E3869014339611B021B0A7B60834BCB
:4063C0009A4206D83800FAF707FD012402E0002400E00124039BDD4033004646984649E03300E340012119403A6A531C202B05DC9140FA691143F9613B6203E00122380038
:40640000FAF764FC4346E340012119403A6A531C202B05DC9140FA691143F9613B6203E001223800FAF752FC2300032C00D903235A46D35C1A01D3189900634BC918BB6838
:406440009A0A40310B8853437868844663447B6049884A43BA60190E3869014339611B021B0A7B60594B9A4202D83800FAF7B4FC6D080134002DB3D14346B0461E004246C4
:40648000039BDA409046DE40E51A032C03D9032401E0002500244346002B1BD05346186801239A46002105F01DF8002801D100239A463A6A531C202B07DC514691400A003E
:4064C000F9690A43FA613B6204E0012251463800FAF7FCFB002E1BD04B46186801239946002104F0FFFF002801D1002399463A6A531C202B07DC494691400A00F9690A43A1
:40650000FA613B6204E0012249463800FAF7DEFB4346EB409846EE405B461B5D1A01D3189A00294BD218B3004344B968890A9B00D21813884B437868844663447B60528852
:406540004A43BA60190E3869014339611B021B0A7B601E4B9A4202D83800FAF73DFC019B1A01D2B2012C03D923000C33DCB204E04644013466430136F4B2A418E3B20193EE
:40658000009B02330093049B023301220299521A1341139A934200DD1300009A9A4200DABFE6029B01330293029B012B00DCAEE609B03CBC90469946A246AB46F0BDC0462E
:4065C000843502108C1901108C080110FFFF0000F0B55F4656464D464446F0B483B082468846019299460025A5E0019B002B02D0FC27BF0501E0FB27BF05AE004E443368C9
:4066000059004908381C05F0D7F804F0DFFF834600906C1CA4004C44226851004908381C05F0CAF804F0D2FF07005A465B4603439B087FD001235B4243449B464346002B58
:4066400012DD0121114053461A6A531C202B07DC91405246D26911435246D161136203E001225046FAF732FB009B012B23D1033B9C46E0445B46002B1CDD30680126002169
:4066800004F030FF002800D1002653461A6A531C202B08DC96405246D26916435246D6611362C34607E0012231005046FAF70EFBC34600E0C34601235B425B4498465B46F2
:4066C000002B12DD0121394053461A6A531C202B07DC91405246D26911435246D161136203E001225046FAF7F1FA012F22D15E46023E4346002B1CDD20680124002104F006
:40670000F1FE002800D1002453461A6A531C202B08DC94405246D26914435246D4611362B04607E0012221005046FAF7CFFAB04600E0B04602350C9B9D4203DA4346002BC7
:4067400000DD52E703B03CBC90469946A246AB46F0BDC046F0B55F464E46C0B48DB00C001E00159B9946D70008920690FFF79AFA3F1A2000FAF718FC3F1A3000FCF7CCFF79
:406780003E1AFEF7A3FE361A149800F06FFD301A05000B3D4A461668506805F009FE011C301C05F009F83D4907F04CFE3C4907F05FFE071C3B49301C05F03EFB061C3A4975
:4067C000381C05F039FB011C301C04F0F5FF099008992000FEF736FF07000AAB04931F2604AB9C46664403960290099A01920095089B169A079421000698FFF76BFA8346AD
:4068000017990C1D0094169B020007990698FEF7E3FF0023029301930094169B089A07990698FFF755F803003278002A01D0002200E0099A49460A601F2204A98C466244C3
:406840001278002A01D1EA1A00E0002249464A605A46BA180A9979180191009507990698FEF72CFF061E06D00094169B020007990698FEF7B1FF5E44BF19179B1F6008331E
:40688000029301950094169B089A07990698FFF71FF80DB00CBC91469B46F0BD000020C200002042CDCC4C3FCDCC4C3E70B5040008001D001100FFF7CFF96B685910002984
:4068C00000DC01210139266A8319202B05DCB140E2691143E161236203E002002000FAF7F5F9297A226A531C202B05DC9140E2691143E161236203E001222000FAF7E6F9D6
:406900002968226A13000833202B05DC9140E2691143E161236203E008222000FAF7D6F970BDC046F0B587B004900800170019000D9B1D7A5E6804249442A441644200969D
:406940000E9B22000590FFF7FBF801000498FFF71BFC029501960E9B00930C9B3A000599049F3800FFF7B4FC3800FAF7A7F90100002D06D000960E9B22000498FFF728FED4
:4069800005E000960E9B22000498FFF70DFC07B0F0BDC046C90001300301181AC3000120994200DB0020C0B27047C046F0B55F4656464D464446F0B4D5B005000E0006929C
:4069C000049338AC70220021200007F0A2F8E34B38931A000C3262601A001832A2601A002432E2601A00303222616261A2611A003C32E2611A00483222621A005432626281
:406A00001A006032A2627433E36223636363D44B1A000832A2631A001832E2631A00283222641A00383262641A005432A26470336365CC4BA3651A001032E2651A002032CA
:406A400022663C336366A366E366EB005B1B9B199B001B590293002D03D0022E03D8002302E0002300E0012301330793012D02D90323039301E002230393029B1B68019331
:406A80009B00049A9046984400230593069B9A46E7E06C2200210BA807F03BF800239B4639E0029B043302931B689B00049A9446634401930023994626E04B469A0042444C
:406AC000019B41465B1A9B1049465B1A414600240DE00E1D0868171D116805F0ADF9011C201C04F069FE041C2B003A0031005D1E002BEED14B465B004B445B449B000BAA9B
:406B00009C5001239C46E144D145D6DD01239C46E344019B9846039B9B45C2DB059AD300944663449C00039D280005F041FC26ABE050022D3ED10B9D0C9B01930126544647
:406B400034E00021281C04F0C7FC002822D10021019804F0C1FC00281ED10BAF730099469A199300D859291C04F09CFF08904B469B199A00BA185068019904F093FF011CB3
:406B8000089804F019FEB300764AD318996D05F053F902E0002000E00020059AD300944663449B199B0026AA98500136A642C8DDA24653E00B9C0C9B01930D9B089301255F
:406BC000059E574647E00021201C04F085FC002835D10021019804F07FFC002831D10021089804F079FC00282DD10BAB99466B009B465A1993004A469858211C04F052FFA2
:406C000009905B465B199A00914401994B46586804F048FF011C099804F0CEFD09904B469868089904F03EFF011C099804F0C4FDAB004C4AD318996D05F0FEF804E0002004
:406C400002E0002000E00020F3009B195B199B0026AA98500135BD42B5DDBA46059B01330593059B079A934200DA12E70026CCE0F30099198A005F998D1826ABD3581A1CB8
:406C80000293B3005E998C4663449B4619000A60FE239B052B600124A9463500A9E0EB005B191B199B0026AA9B58802212069F18012601974F4610E0B300D859A21BEB0068
:406CC0005B199B189B0026AA995805F0B5F8011C019805F0C5F901900136B442ECDCB946019F029E311C381C04F0DCFE0190011C05F0A2F8011CFE20800505F0B1F9011C19
:406D0000301C05F099F802900127A8464D460FE0BE0073599946E31B9B005959019805F08BF8011C484604F047FD0BABF0500137BC42EDDCA9464546671CA3000BAA0199CB
:406D40009950EB005B19DB199B0026AA9B5880221206944663440193012617E0BC3502103C360210BC360210B2000BABD058BA1BEB005B199B189B0026AA995805F05CF8E5
:406D8000011C019805F06CF901900136BE42EBDB029E311C019804F085FE0190011C05F04BF8011CFE20800505F05AF9011C301C05F042F802900126A846A24610E0B30080
:406DC0004A46D4180BAA9D58BB1B9B009958019805F032F8011C281C04F0EEFC20600136BE42ECDB454654460234BF004B46019ADA51069B9C4200DC51E72E0002995C4627
:406E0000206804F04FFE20600136079B9E4200DA2EE755B03CBC90469946A246AB46F0BDF0B583B00E00011C8020C00505F018F9104905F001F8011C04F0BEFC011CFE206E
:406E4000800505F00DF901900127FE25AD050CE00199281C04F0F0FF051CBC003419011C206804F0E9FF20600137082FF0DD03B0F0BDC0469899193EF0B55F4656464D4689
:406E80004446F0B491B005000F0092463A4BCB189B00914699448B0018584B461860011C04F0CAFF011CFE20800505F0D9F80190002217E0940009A98C466444561CB100CF
:406EC000495988469B1A9B0059594B46186804F0B3FF011C404605F0C3F8019904F0E2FD206032007B1E9A42E4DBBD1E09AE34E001232B40DA00D31A9A0002AB9C466244F8
:406F00001700AB00D3469B44F0585B461860011C04F092FF011CFE20800505F0A1F80190002416E0A300FA189046F35899466B1E1B1B9B0099595B46186804F07DFF011CEC
:406F4000484605F08DF8019904F0ACFD434618600134A542E6DC013D3E00002DC8DC336801935346019A1A6011B03CBC90469946A246AB46F0BDC046FFFFFF3FF0B55F4649
:406F800056464D464446F0B483B00190009193469A4613001960002398463BE043469D00019B9946A9444B461B685F007F0855441D49381C04F0B4FA002801D0042300E041
:406FC00000232B60002602E0013601342C60032E09DC2C68A300154AD318D96F381C04F09FFA0028F0D14B461868002104F07AFA002802D02B685B422B602B68002B03D159
:407000005B461B68013B00E0009B5A46136001239C46E044009B9845C0DB03B03CBC90469946A246AB46F0BD00303D3FBC360210F0B5002511E0AC000659F717F3197B40F4
:407040009B00074FFB18DB691419002E03DA80263606B4466344236001358D42EBDBF0BD3C370210F0B55F4656464D464446F0B491B006920793002803D0022903D8002250
:4070800002E0002200E00122531C04930B1C042900D90423DBB29B0032495B5801304343134105934300984680442022002108A806F02FFD00234AE05A1C039205995143D2
:4070C00002919A469B00069AD5182B68002B3BD02E00079B9B4634E043469B001A9A914699444B461B6800930193002425004B46C14698461BE0AA0008ABD7580199D1509F
:4071000053465B015B44D458211C009804F094FE011C381C04F050FB0190211C381C04F08BFE011C009804F047FB0090013533689D42E0DB4346C846009A1A6001239C464E
:40714000E044029B9845C7DB039B029A9046049A9342B1DB11B03CBC90469946A246AB46F0BDC04684350210F0B5574680B4AAB004000D0002919246309F1900FFF70AFCCB
:407180003871002C03D0022D03D8002302E0002300E0012301333B60012C02D80423039301E00823039316AB019328AB0093319B039A02992000FFF7F9FB002645E0B31CD9
:4071C0009B000022DA515346002B3DD1B30028AA9D58FF218905281C04F08EF9002833D13B79002B0FD08021C905281C04F07AF9002808D0F3009B19990016AB9C46614462
:40720000281CFFF70DFEF3009B19980016AB9C466044750106AB9C46AC446346049362460399FFF729FE10357A191000B31C9D007A190590030003990498FFF79FFEE9595D
