:020000041000EA
:4000000000000208230100100D0000008501001000000000000000000000000000000000000000000000000000000000810100100000000000000000810100108101001029
:400040008101001081010010810100108101001081010010810100108101001081010010810100108101001081010010810100108101001081010010810100108101001060
:400080008101001081010010810100108101001081010010810100108101001081010010810100108101001081010010810100108101001081010010810100108101001020
:4000C00010B5064C2378002B07D1054B002B02D0044800E000BF0123237010BD9C3B00080000000078860010084B10B5002B03D00749084800E000BF07480368002B00D197
:4001000010BD064B002BFBD09847F9E700000000A03B00087886001088060008000000007047FFF7FDFF72B60F4C104DAC4209DA21686268A368043B02DBC858D050FAE770
:400140000C34F3E70A490B4A0020521A02DD043A8850FCDC084809490860BFF34F8F00F097FA00F0FBF8FEE768A1021080A102109C3B0008C84D00080000000808ED00E05A
:40018000FEE7FEE700B504207146084202D0EFF3098001E0EFF30880043001F025FEFEE730B58FB00C00554B984244D00BD8544B984245D0534B984261D080235B01984235
:4001C00000D08FE00AE0504B98421CD04F4B98426ED04F4B984200D084E008E04D494E4802F0E2FA0021002003F012F984E04B49494802F0D9FA0022494B1A70002100202B
:4002000003F006F978E0474D0222280005F07FFF2B882B82444B1B685B88AB812B0014336B60A1232B8141493B4802F0BDFA28780DF050FA60E03E49374802F0B5FA5BE034
:400240003C49354802F0B0FA364B1B7801AC237000236370A3800233E370A37008F0ABFB20000DF06FFA002804D033492A4802F09BFA41E03149284802F096FA3CE0304921
:40028000254802F091FA2378002B08D12D49224802F08AFA234B18780DF01CFA2CE02A491D4802F081FA1F4B18780DF013FA23E02649194802F078FA22891B4B1B68DB88CB
:4002C0009A4219D123681B78012B15D12049124802F06AFA0122124B1A7000221D4B1A7040BF09E003001C4A322101A805F020FF01A9094802F058FA0FB030BD074000003E
:400300000920000015200000015000000C50000008400000086A0010000066401C6A001000000208B83B00086C030008446A0010586A0010686A00108C6A0010BC6A001082
:40034000E06A0010F86A0010146B00103C6B00105C6B0010584D0008746B001070B562B6474804F027F90400464A4749474802F033FA002802D0012005F0A4FE434803689E
:400380008022120613430360414902F00DFA01E029F0B4FA3F4B1B78022BF9D1002C06D100223D4B1A703D4800F0F8F903E039213B4801F0E3FC00233A4A13603A4A13703D
:4003C00029F09CFA344B1B78002BF9D0354B1A68364B1B689A42F3D0354B5B78354AD25C002AEDD1002B02D1334AD35C00E00023012BE5D93149254802F0D6F9294C23687C
:40040000581C0A2104F066FA2160294C264B1A78B423E2548B0059184B012949C91825001435A022280005F072FE65606378214AD25C002AC4D1002B02D11F4AD35C00E0FD
:400440000023012BBCD91A4804300FF0B1FA1D4B984204D11C490D4802F0A6F9B0E7002804D01A49094802F09FF9A9E70E4A1378013313701649054802F096F9A0E7C04641
:40048000A10100108C4D0008A875001000006640806B0010644D00080000020800000810906B001044060208584D000848060208B83B00087C4D00086C4D00089C6B0010F8
:4004C0000400020801001600AC6B0010EC6B0010286C001010B5002001F0A8F810BDC04670B56249E0239B00CB580F2213401A00D0329200525807210A40032A05D0042A4D
:4005000006D0002A12D15A4814E05A4A106811E01A00C0329200554952581F210A40112A06D0132A04D0FA20C00103E0524801E080200002002B36D14C4BB222D2009A5867
:4005400001211140B125ED005A59120F032422405B591B0F1C4207D0444C63591B0F03242340012B02D102E0012300E00023002B01D0002901D1032A4BD13C4BB022D20062
:400580009D58AD03AD0B3D495958C904C90C9C58240E01231C40013404F02CF86843210004F028F835E0012B33D1304BC822D2009A5801251540C024E4001A59120F0321C9
:4005C0000A401B591B0F194207D028490B591B0F03210B40012B02D102E0012300E00023002B01D0002D01D1032A12D11F4DC022D200AB587F210B40A958090A1F26314088
:40060000AC58240C3440584303F0F4FF210003F0F1FFE0239B00154AD3581B0903221340D840144C6060164B1D692D0AFC32154001351969090E013103F0DCFFA0602900F8
:4006400003F0D8FF0500E06020610E4BC0180E4903F0D0FF20750D4BE818FA21890003F0C9FFA061C003E06170BDC0460000264000127A00C000000800366E018405000034
:40068000000021403F420F0040420F00E703000010B5284802F082F8274CB022D200A3585B005B08A350E0218900635830208343635080235B04A350204A214BE250A0229D
:4006C00092010433E250FF221E4BE25002F054F8C0225200A35801218B43A35000F0BEF9FFF7FEFEB0235B055B78002B04D0B0235B055B78DBB200E02123212B03D1124B20
:400700000022DA605A60114C22008021042000F0EDFC2000103000F0C7FD0D4B1A685123D35C002B02D00B4800F034FE00F0B2FA10BDC046787000100000264001000200B3
:40074000840500008C050000E0002340703C00085C4D00083C6C00108023024AD3580320184070470000214010B501F0CEFB084980228C58074B2340074C23438B50882308
:40078000034AD358DB06FAD501F0C3FB10BDC04600002140FCFF00000100FA0570B50500830504D0E821FF310F4801F0E7FA01F0ACFB0400FFF7D0FF032801D1FFF7D4FF24
:4007C0000A4AB0239B00D55080215058084B03400848034353508823044AD358DB06FAD5200001F096FB70BD706C001000002140FCFF00000300FA05FEE7C04630B587B006
:400800008649A022D2008B58032083438B50844A116808688823CB58C31818688149084018601368186884241B59C01803681B021B0A80256D042B43036010680568035980
:40084000EB1818680140196013683E229A5C002A06D07248E02189004258753CA24342503E229A5C002A06D06C48E021890042583024A24342503E229B5C002B07D0674962
:40088000E02292008B588020000603438B500021012000F0FDFE0021022000F0F9FE0021032000F0F5FE0021042000F0F1FE0021002000F0EDFE01A85B4903000A0032CAE6
:4008C00032C312CA12C300F037FF002802D00420FFF792FF5149554A8B588020000603438B50534800F0E4FF002802D00420FFF783FF4A4C4F4BE1584F4A0A40E250E158E9
:400900004E4A0A40E250E25880252D062A43E250043BE1584A4A0A40E250E158494A0A40802189010A43E250E258802109020A43E250454A1168454B0B40802149000B432A
:400940001360002001F0FAFE414BE2581543E550E158012291430A43E2506421002001F05BFA2F4B1B683F229A5C052A03D90021384A986881509A6874215B5AD21811688C
:40098000284B0B408C2189010B431360244B1B687322995C703A8A40110070229A5C7220185C82400A43802109060A438021C900986842509A6852583F229A5C132A06D9CB
:4009C00070229A5C01210A402349986842509A6874215B5AD2185168124B0B40C42189010B4353600E4B1A687323D35C032199407023D35C7220105C1C008440214301203C
:400A000003400B43802109060B438021C9009068435093685B5807B030BDC046000026405C4D0008FF00FFFF986C0010087F0000400D030004050000FEFCFFFFFFFF00FFDD
:400A4000FFF0FFFFFF8FFFFF00002740FFFCFFFF0C050000140C00004C0C000070B58AB09621002001F0D8F901F0AEF9002814D101F09AF9C0235B00244AD358DB0705D461
:400A80001100234A8B585B005B088B501F49204A8B588020000603438B50012001F0E6FD1C4A516C1C4B0B40E82189010B435364536C1B0AFF2213403A2B07D1154A516CAD
:400AC000164B0B40E82189010B435364FFF796FE01AD134C2A002300143343CB43C243CB43C243CB43C229000E4800F0DFF92A002300383313CB13C213CB13C213CB13C236
:400B00002900094800F0D2F90AB070BD000026400C05000000002740FF00FFFFFFC5FFDF986C00108002324000033240C00543425841C0B27047C046214B984230D00ED861
:400B4000402831D004D800281FD010282AD031E080282BD080235B00984229D02AE0194B984229D007D8A0231B0698420DD0164B984212D01EE0154B98420AD0144B98423F
:400B800009D0144B984215D101E0002016E0124814E0124812E0124810E0A020C0030DE007480BE00F4809E00F4807E00F4805E0034803E00E4801E0A420C0037047C04655
:400BC00006005200010000F0090000A0040000F0050000F0030000F0010052000200520003005200010050000200500005005200FF00520070B5124B1A683123D35C002B2E
:400C000004D1C421FF310F4801F0B8F80C4B1D682C00B423EB582A6A944663441B68002B0BDB094B1868FFF787FF6B6801229A6063689B68002BFBD100E0044870BDC046A3
:400C40005C4D0008F46C0010003E00080200500010B50D4B1861002805D002230370FD33437000234380094B1B6850229A5C002A08D051229B5C002B04D04F3A0449002027
:400C800000F042FC10BDC046003E00085C4D00080107000810B502481430FFF7D9FF10BD003E000870B504000D00FFF73FFF002836D0002D36D0FFF713FC1B4B1B4A1A60E3
:400CC00000225A609C60DD60194B1B6852329A5C002A1FD01A6884215B58D31819681A68120AFF2313405A1C0B0E01335343114C5C43114B1868FA21890003F07BFC0100CC
:400D0000200003F077FC0D4BC1188020400005F073FE08E000218020400005F06DFE02E0074800E0064870BD003E0008000100055C4D0008C0EA2101C400000848260000DE
:400D40000600520010B5FFF755FF10BD10B50400FFF7ECFE00283ED0FFF7C2FBE02252051E4B1A601E4B1B78002B05D01B4A1368802149000B431360184B5C6000229A60AF
:400D8000DA60184B1B6854329A5C002A1ED01A6884215B58D31819681A68120AFF2313405A1C0B0E013353430F4C5C430F4B1868FA21890003F01EFC0100200003F01AFC1E
:400DC0000B4BC118002005F017FE05E00021002005F012FE00E0074810BDC046003E00080B0000165C4D000860F59000C4000008980800000600520070B504000D00FFF780
:400E000095FE002842D0002D42D0FFF769FBC022D204204B1A60204B1B78002B05D01D4A1368802149000B4313601A4B802252005A609C60DD60194B1B68AD3A9A5C002AEA
:400E40001FD01A6884215B58D31819681A68120AFF2313405A1C0B0E01335343104C5C43104B1868FA21890003F0C4FB0100200003F0C0FBE1239B00C118002005F0BCFD90
:400E800007E00021002005F0B7FD02E0064800E0054870BD003E00080B0000165C4D0008808D5B00C40000080600520070B505000C0000285DD000295DD0FF230A689A43E1
:400EC00003D099212D4800F059FFFF2322699A4303D09A21294800F051FFA3685B0D03D09B21264800F04AFF63685B0A03D09C21224800F043FFE3695B0F03D09D211F482C
:400F000000F03CFF236A5B0F03D09E211B4800F035FF1B4A11688B69EB1ADB0949691B01CB18216829607D211068415C6918E06808607E211068415C6918206908607F214E
:400F40001068415C6918606908607C211068415C6918A06808606168A961116880228A5CAD18A2692A60E2691A60226A5A60002002E0044800E0034870BDC046346D001071
:400F80005C4D000801005A0070B504000D000A4B1A68B423D3581B181B68002B0ADA0B0C03D00649064800F0E9FE2D042D0C6560002000E0034870BD5C4D0008D5020000C4
:400FC000B46D001001008A0070B505000C000368002B01DA002300E0084B002B0BD1EA60230C03D00649074800F0C8FE2404240CAC60002000E0014870BDC04601008A0026
:40100000BB020000B46D001070B505000C1E03D19921084800F0B2FE074B1A68B423D3585B191B68002B03DAEB682360002000E0024870BDF46D00105C4D000801008A0021
:4010400070B504000D00234B1A683123D35C834236D9002936D00B68DB0635D13123D35C984204D3C421FF311B4800F087FE194B1B681A6AB0215B5A5C431419174E346093
:401080002B68DA080021686805F04AF800212000FFF77AFF3468002D03D111490E4800F06DFE2A0000212000FFF78EFF00280DD10A4B18680021FFF767FF002808D108E00C
:4010C000084806E0074804E0064802E0064800E0054870BD5C4D0008B46D0010183E00089303000003018A0001018A0010B50400002A17D1002915D1124B1A683123D35C73
:40110000984204D3C421FF310F4800F037FE0D4B1B681A6AB0215B5A5C4314190B4B1C6000200EE0002A09D0002909D0074B59609A60191D2000FFF783FF02E0044800E0F6
:40114000034810BD5C4D0008B46D0010183E000803018A00F0B583B00D001C4B1B68DC68236883422DD947097B01C01A012383401E00002903D100F0C8FE019001E000232D
:401180000193124B18680368002B01DA002300E00F4B002B0ED16368BF00DF193B68334203D133433B60002400E00A4C0021FFF7EBFE00E0084C002D04D1019800F0A9FEA7
:4011C00000E0064C200003B0F0BDC046183E000801008A00020188000301880004018A00F0B583B00D001C4B1B68DC68236883422DD947097B01C01A012383401E0000296B
:4012000003D100F082FE019001E000230193124B18680368002B01DA002300E00F4B002B0ED16368BF00DF193B68334203D0B3433B60002400E00A4C0021FFF7A5FE00E09A
:40124000084C002D04D1019800F063FE00E0064C200003B0F0BDC046183E000801008A00020188000301880004018A000A4B1B68DA68136883420BD943095901401A012187
:40128000814052689B009B580B4203D0034802E0034800E003487047183E00080101880004018A0000018800034B1B68002B01D1014B18607047C046243E0008F0B54746C0
:4012C00080B404000F0090461E002D4B1B68002B03D1B5212B4800F051FD294B1B682C2060431C18FF22150035402560330A13406360360CA660244B1A683123D35C9D42FA
:4013000004D3C421FF31214800F038FD1E4B1A68B023D35A6B43116A8C466344236166683223D35C9E4204D3E021FF31174800F025FD154B1B681D6A80367601AD19656154
:40134000A668330C04D0FF214900104800F016FD330C03D00E490D4800F010FD3604330C1E43AE604346E36127620023A361069B002B02D000229B5EA38104BC9046F0BD48
:40138000243E0008346E00105C4D0008B46D0010FF010000F0B58FB0041E03D15221294800F0ECFC6368032B03D95421254800F0E5FCE36A002B03D15821224800F0DEFC18
:4013C000236B002B03D159211E4800F0D7FC07AA1300210061C961C321C921C302AD290023001433C1CBC1C141CB41C10821535E0CAE3380144B1B6836215B5E07998C46B3
:401400006344B370089B0D930B9B0A980096A26AE16AFFF753FF2B69E868002200920021FFF74CFF216B300000F03AFC0023F25E002A05DB1F231A401E3B9340034A136041
:401440000FB0F0BD346E00105C4D000800E100E0F8B505000F0016001C00002A03D1FD21224800F08BFC224B1B68002B03D1FE211E4800F083FC1E4B1B682C21280048431D
:40148000181879435918012213004D68AB401B044568AA4015000269002A20D08F69002F1FD11268002A01DA002200E0114A002A19D132681204120C134333600369DE6041
:4014C00001238B614C6204692B0C03D00A490B4800F054FC2A04120CA260002004E0084802E0084800E00748F8BDC046346E0010243E000801008A00BB020000B46D00107E
:4015000004028A0007028A0070B504000D0016000F4B1B68002B04D1AF2149000D4800F02DFC0B4B1B682C2060431C18236A002B04D1B1214900074800F020FCE369B34298
:4015400004D9236AB6009D51002000E0024870BD243E0008346E00100A028A0070B582B0040000230193002804D1D221FF312D4800F004FC2369002B04D1E921490029484D
:4015800000F0FCFB6369002B04D1D421FF31254800F0F4FB236A002B04D1EA214900214800F0ECFB6269D5682B0C24D01B041360136820691C4B1A68B423D358C3181B68D4
:4015C000002B18DA01A9FFF71FFD00280ED1019803681E0CFF221340E269934207D29B00226AD358002B02D0984700E0002631002069FFF7C9FC2D042D0C0FD063691D6035
:401600001B68636A002B03D098470023636203E0A36A002B00D098470023A36163691B6802B070BD346E00105C4D000810B50400084B1B68002B04D1B221FF31064800F033
:401640009DFB044B1B682C2060431818FFF786FF10BDC046243E0008346E001010B50400094B1B689B6CC340DB0703D4BE21074800F084FB044B1B681B691034A402E358FC
:401680000F20184010BDC0465C4D0008746E0010134B1A683C23D35C83421DD9042904D94B1EFF3B9BB2132B18D8FF290CD91F2319400C4A0300C0339B009950D0308000E4
:4016C0000423835000200AE007231940D0308000044BC150002002E0034800E0024870475C4D00080000264001004A0010B504000E4B1A683C23D35C834204D8A121490015
:401700000B4800F03BFB2300D0339B00094A985807231840042807D1C034A400A3581B30184080235B00184310BDC0465C4D0008B46E00100000264070B5041E03D14A494D
:401740004A4800F01BFBB023DB00494AD358002B00DA87E0474B22689A4203D94649434800F00CFB23689B039B0BE279002A02D08022520400E000221343B022D2003C4975
:401780008B50A2883D4B9A4204D98C218900374800F0F4FA22893A4B9A4203D93949334800F0ECFAA388DB04D90C23891B04364A13400B43354A2E498B50A37A0F2B04D9B5
:4017C0008E218900294800F0D9FAE37A0F2B03D92F49264800F0D2FAA289284B9A4203D92C49224800F0CAFAA37A0F211940E27A1201FF2313400B43A289120226490A40AF
:401800001343A27B1207C02189050A401343B122D20017498B50A379042B03D91F49134800F0ACFA228A164B9A4204D9912189000E4800F0A3FA0E4819494558194B1D40B3
:40184000A3791B02E022D20013402B4343504558154B1D40238A1B040B4A13402B434350002000E0114870BD1F020000B46E001000002640FFFF030029020000FF1F0000AF
:40188000FF010000310200000000FF0184050000390200003A02000000FF1F00430200008C050000FFF8FFFFFFFF00FE03004A0070B505003149324A8B58802000060343D4
:4018C0008B502C0003E0012000F04CFA013CB223DB002A4AD3585B0701D4002CF3D12749B122D2008858274B03408020800503438B50002D01D0002C0CD02049B022D200F1
:401900008B588020000603438B5003E0012000F029FA013CB223DB00184AD358DB0701D4002CF3D1002D01D0002C08D01349B122D2008B58C020800503438B5013E00F4B0C
:40194000B121C90058580F4A02408020800502435A5008395A58520052085A5008495A58520052085A50002D03D0002C03D0002002E0002000E0044870BDC04600002640E5
:401980008C050000FFFFFFCF02004A00F0B5564CA04200D9A2E0A24200D9A1E0534B994200D99FE00124524B1C70FF2805D80F2505400E340F26072321E04E4B984205D82E
:4019C0000F2303400F240026002518E0040A0F2323401D00484B984208D80001FF2318402B000343FF240026002508E00402F020000120402B000343404C00260025FF2AC5
:401A00000DD81201FF2002401543E020C0021843F0231E43F0231B0323439C4625E03548824207D81004F022120310401843224394461AE0100A0004F0273F03384018435D
:401A40002D4B9A4209D81205F0231B0413401843FF231B0423439C4607E01206F0231B051A401043264B23439C46264B1A68176AB023D45AE200131BFB181B68002BF4DA05
:401A80001B4B5B78002B04D01F4B204AD358002B18DA1F4A1F4B1A601F4A204B1A601B4AA324E4001359B3431D4315511C4C13596546AB43184310510D4B5960124BD15047
:401AC000002000E017480F4B1A68146AB023D15ACA00531AE31800225A6004E0114802E0104800E00F48F0BD0F060000FFFFFF00283E0008FF040000FF0500000F0F000021
:401B000000000F0F5C4D00081C050000000026401F1F0000080126403D3D0000040126401405000001004A0070B50022264B1A70264B1C68226AB023E55AEC00631BD3182F
:401B40001C68002CF4DA224A1468224A944206D1214A1468214A944203D0002502E0002500E00125A422D2001D4CA4582402240A00225A60002D24D0002C23D000280FD144
:401B8000114B58680A000023002102F0C9FE6208002380185941220002F0A2FE040011E00A0000232000002102F0BAFE064B5A685408002500196941002302F091FE040083
:401BC00000E00024200070BD283E00085C4D0008080126401F1F0000040126403D3D00000000264070B505000C001A4B1B6828229A5C012A15D1820807211000884327D189
:401C00009200AD1AED00FF20A8401B6820339A181168AC4023004B40184004004C40146016E03A229B5EDBB2994203D176210A4800F0A4F8074B1B681B68072215408022EC
:401C4000120615438022920194466444A400E55070BDC0465C4D00083C6F001070B504000D000B4B9A680B4B9A420CD1002904D13821FF31084800F081F81034054BA400B0
:401C8000E058E55003E01034A400044BE05870BD00ED00E0000000083C6F001000000010F0B5474680B482B0061E01914AD04368032B03D93221264800F060F80023F05E01
:401CC000002804DBB178FFF78DFF002400E0214C0023F15E7368002912DB88081E4FC0308000C55903221140C900FC3290468A4095439A01434613408B402B43C35116E034
:401D000089B20F220A40083A92080632920013481018476803221140C900FF252A008A4097439A012B0013408B403B4343600B4B9A680B4B9A4206D10023F05E0199FFF77D
:401D40008DFF00E0034C200002B004BC9046F0BD3C6F00100100560000E100E000ED00E00000000810B5034B1B78584300F0C4F810BDC046D400000801BEFEE770B50D0079
:401D8000044C18220100200004F004FAA5610020FFF7F2FFA00B0008024B1B685B6801229A6070475C4D0008054B802212069A649B6C002B01DB002000E002487047C04691
:401DC0000000274003004600054B8022120198585B68FF221A4202D08023DB021843704700002640FEE7C04610B50A4B0268DA6142681A6282685A62C2689A620269DA62F1
:401E000042691A6382695A63C2699A63FFF7EAFF10BDC046A00B0008F0B5474680B4002801D0192300E064238B429B415B42304D2C682268A826A45BA41822680327BA4328
:401E40003B401A4322602C682268A45BA2181668284CA046264016602C682668AA229446A25A96193268BA43134333602A6813686546525BD3181A68444614401C60002836
:401E800005D010291BD921291BD8012024E0184B1B6855229A5C914215D956229A5C914213D957229A5C914211D958229A5C91420FD959229B5C99420DD804200CE00020C4
:401EC0000AE0022008E0002006E0012004E0022002E0032000E00520054A1268526813680F218B430343136004BC9046F0BDC0465C4D0008FFFCFFFF0230800803D0013051
:401F00000238FCD1C046C0467047EFF3108072B6704780F31088704710B5B0235B059B899BB2002B04D0B0235B059B899BB201E080235B0080225200934215D1184C23683B
:401F40001968683A9B58C9180B680F208343963A13430B6021680C689C23CB58E318196881430A431A6019E00D4C2368196898229B58C918B02040050A4BC2580A4B134073
:401F80000A681343C022920013430B60226811689C23D358CB18054A82581A6010BDC0465C4D000848180000FFFCFFFF4418000030B5B0235B059B899BB2002B04D0B0231D
:401FC0005B059B899BB201E080235B0080225200934215D1184C23681968683A9B58C9180B680F208343953A13430B6021680C689C23CB58E318196881430A431A6019E0C5
:402000000D4D2B68196898229B58C918B0246405C12040012258094B13400A681343C022920013430B602A6811689C23D358CB1822581A6030BDC0465C4D0008FFFCFFFFBE
:40204000B0235B059B899BB2002B04D0B0235B059B899BB201E080235B008022520093420DD1104B1B681A6898215B58D21811680D4B0B40C021C9010B43136011E0094B10
:402080001B68196898229B58C918084BB0225205D258074B13400A681343C022920013430B6070475C4D0008FF8FFFFF18180000FFFCFFFF30B5B0235B059B899BB2002B75
:4020C00004D0B0235B059B899BB201E080235B008022520093420DD1134B1B681A6898215B58D2181168114B0B408021C9010B43136018E00C4D2B68196898229B58C918EA
:40210000B02464050A4822580A4B13400A681343C022920013430B602A6811689C23D358CB1822581A6030BD5C4D0008FF8FFFFF4C180000FFFCFFFF10B5B0235B059B8982
:402140009BB2002B04D0B0235B059B899BB201E080235B0080225200934217D10020FFF77DFAB0235B055B78002B04D0B0235B055B78DBB200E02123222B03D8002803D172
:40218000013004E0012002E0002000E0012010BD10B50400012803D910491148FFF7EEFD002C03D10F4B5869C00F00E000200E4B1A684423D35C002B0ED0012C0CD1094BF6
:4021C0009B695B0005D4074B9B69002B03DA012002E0012000E0002010BDC04662070000806F0010000026405C4D000870B504000D00154B1A684423D35C002B22D00728D9
:4022000003D912491248FFF7B9FD0F4B1A684423D35C002B04D00F4B9B690722134000E0002321009C420DD00A4882690726B243344014438461002D04D0994202D9C82089
:40224000FFF790FD70BDC0465C4D0008CC070000806F00100000264030B5021E22D0C368002B21D00368002B20D00579A900104BCC582300002103E0934205D019005B69A7
:40228000002BF9D1012000E0002000280FD0002C03D1AD00064BEA5000E04A6111610023536104E0002002E0002000E0002030BD343E000810B5021E28D00479A100144B2E
:4022C000C9580B0002E0934204D05B69002BFAD1002000E00120002819D08A420DD14B69002B05D0A4000A4AA35000221A610EE0A4000022064BE25009E01A69596951613E
:402300005A69002A03D01B69136100E0002010BD343E000830B585B004000D00022807D9042805D0032803D02A492B48FFF726FD6B1EDBB2012B07D9042D05D0082D03D03B
:4023400026492548FFF71AFDA400254BE458042D13D0012D1CD112E0A3682B420BD1E3681A6802925B6801930393290002A8236898471B4B5C61646902E0002000E0002032
:40238000002C24D0174B9842E6D1012DE4D11EE0022D01D104E01C006369002BFBD104E00F4B5C69002C00D0246900200DE0A3682B4209D1E3681A6802925B68019303932C
:4023C000290002A8236898472469002CEFD105B030BDC046B2090000806F0010B3090000343E0008FF00420070B50500012804D9E02149001B48FFF7C1FC1B4B1B68002BAA
:4024000005D001210020FFF785FF040000E00024002C20D1FFF779FD0600134B1B68002B03D004210020FFF775FF104A136904218B431361012D01D030BF00E020BF3000CC
:40244000FFF767FD084B1B68002B09D008210020FFF760FF04E002210020FFF75BFF044C200070BD806F0010343E000800ED00E0FF00420010B5FFF748FD074B5A6807498B
:402480000A40E824A40122435A605A68114059605B68FFF73EFD10BD00002640FF00FC0FF8B50700012803D93D493E48FFF766FCB0235B055B78002B04D0B0235B055B78DD
:4024C000DBB200E021239DB2B0235B059B899BB2002B04D0B0235B059E89B6B201E0802676000020FFF7BAF8002814D180235B009E4212D1222D12D82B4B1B685C682B487B
:4025000021582B4B19403B068022520413400B432350002404E0274C02E0264C00E0254C80235B009E4201D1222D03D880235B009E4232D01C4B1A683123D35C002B04D1C0
:40254000C421FF311C48FFF719FC174B1B681D6A80235B009E4203D1002F05D0174A06E0002F03D0164A02E0164A00E0164A01212800FEF729FD00280FD10B4B1A68B4236E
:40258000D3585B191B68002BF7DBEB681B0E1B06A0221206934200D100242000F8BDC0464C0A0000806F00105C4D000818F00000FFFFFFFE04004200F46C001001010030EF
:4025C0000300000C010000300100000C70B50400022805D0052803D020492148FFF7CEFBFFF7AAFD002836D0FFF78FFC0600022C07D10120FFF754FF051E0FD1FFF78CFC92
:402600000CE018494B6907229343043A13434B613420FFF7A7FBFFF74DFD0025002D16D110494B69072293431A000723234013434B61022C02D1FFF703FD08E09120FFF7BA
:4026400091FBFFF7B5FC0020FFF72AFF05003000FFF75FFC00E0044D280070BD02070000806F00100000264003004200F8B50500012804D9822109012948FFF77FFBFFF7ED
:402680005BFD002849D0FFF740FC0700002D11D10021244B244AD150E823DB00B0225205D65CF6B20120FFF7FBFE041E19D1FFF733FC16E0B02252051C4BD0581A4B19497B
:4026C00058501B49565CF6B21A481A581F218A4314390A431A500320FFF744FBFFF7EAFC0024002C15D11049124A8B581F20834306401E438E50002D02D1FFF7A1FC08E088
:402700000720FFF72FFBFFF753FC0020FFF7C8FE04003800FFF7FDFB00E0074C2000F8BD806F0010307F00000000264010180000410700001CFF000003004200042805D119
:402740000B4A116804230B4313600FE0094B1A681168A023D358CB180006C022920410401860034A136804218B4313607047C04610E000E05C4D00080749C02252008B587B
:402780009B009B088020C00503438B508B588020000603438B50704700002640014B18607047C0465C4D000830B503681B0501D5802200E0402200240AE082239B00C358C9
:4027C000DB05DB0D9A42F8D090239B00C55001340D5D002DF1D130BDF8B505000C001600002800D1BDE1002900D1BCE10B78022B03D93F21C148FFF7C1FA637B023BDBB23F
:40280000062B03D94021BD48FFF7B8FAA37B002B07D0022B05D0032B03D04121B748FFF7ADFA2123E35C012B03D94221B348FFF7A5FA2823E35C012B03D94321AF48FFF7FB
:402840009DFA2378012B06D86268083A082393429B415B4208E0A37F002B05D063685A1E062393429B415B42002B03D04521A348FFF784FAA368053B042B03D946219F486C
:40288000FFF77CFA6369FF2B03D947219B48FFF775FAA369FF2B03D948219848FFF76EFAA37C002B0FD02378002B07D1A368092B06D1A37B002B05D0012304E0012302E068
:4028C000012300E00023002B03D04A218B48FFF755FA8B4B626B1A4203D04C218748FFF74DFA884BE26B1A4203D04D218348FFF745FA2378022B02D1A37F002B02D06368A3
:402900005A1E00E00022237F002B02D08021490200E00021A368082B02D880231B0100E0002319430F2313400B438022920413432B60226B2B681B0501D5802300E0402373
:402940009A4203D362216D48FFF718FAA26B2B681B0501D5802300E040239A4203D363216648FFF70BFA626A2B681B0501D5802300E040239A4203D364216048FFF7FEF903
:4029800023781B06C022920413402B64637F002B01D0402200E00022A37C002B02D08023DB0000E000231A43237C002B02D08021490000E000210A43637C002B02D0802174
:4029C000890000E000210A43E36A013B1B04F020000303401343627B013A07210A4013431900A27B120130231A400B001343AB64237B002B02D08022520000E00022E37B77
:402A0000002B04D12378022B03D1013B02E0012300E00023002B02D080239B0000E000231343A268013A0F273A401343C02292009446AB50FF2260691040A3691A04FF2109
:402A400009040A400243C4239B00EA50E26A6346EB583B4003339A4201D3102A03D97A212648FFF78BF9E37F002B04D02378012B03D0002302E0002300E00123002B02D0A8
:402A80008020400000E00020627B013A0723134001001943A27B120130231A400B0013436B64237B002B02D08021490000E00021A3685A1E0F2313400B432278012A02D1C3
:402AC0008022520200E00022134380229200AB50FF23226B1340C1229200AB502023E35C002B02D08022920400E000222123E35C012B09D180235B0407E0C046B471001081
:402B000092F4FFFF8CF8FFFF002313432822A25C012A02D18022520200E000221343FF21626A0A4013432B65A36B0B4081229200AB500F4B626B13400E4AAB50E26B0E4B6A
:402B400013400E4AAB50002E0FD0002373603360B360F3603362F3623363094B7363002004E0084802E0074800E00020F8BDC0466D0B0000C80F000073070000880F000069
:402B8000EFCDAB000160AA0070B5012902D0082944D049E0294B1B78012B47D00320FEF765FB274B984243D001F0E2FC012841D0022005F006FF0500FFF7A7F9214B18604F
:402BC00026F0A0FE0400062817D0022D0AD1022013F04CFD032C01D0052C10D1002810D0194C13E0012013F041FD022C0BD000280BD1FFF7F9FB144C08E0002406E0124C15
:402C000004E0002402E0104C00E00F4C0E4B9C4211D10C4B1868FFF77CF90CE0094B1868FFF777F9002406E0074C04E0064C02E0054C00E0044C200070BDC046644D000890
:402C4000010188006C3E0008FF00420010B50248FFF730FB10BDC046E000000810B5002817D00D4B5860C36A002B01D00A4A936000240A4B1C700A4B1C700A4B1C600A4B8C
:402C80001C7000F0BDFB094B1C70094B1C70002000E0084810BDC0466C3E0008784D00087C4D0008804D00087D4D0008634D0008684D00080100160030B59BB015AD142252
:402CC0003049280003F023FA02AC4C220021200003F026FA2C4B0293A5602C4BA3810523A3732B4B5B681B6923612A4B6361C82323836383C53B2377013363770233A377E1
:402D00000A332022A3540132A35438323433E252583A0433E2542048FFF79EFA05F045FE05F049FE08A805F0B1FE002828D11B4B0393174B5B68996B002904D022222A3050
:402D4000684403F0E4F902A805F048FE002814D10122134B1A700023124A1370124A13700B4B5B681A6A00929B6ADB886A469380A023D38068460DF09FFC00220B4B1A6051
:402D80001BB030BDF4710010D1370010902E00006C3E00084A0C0000E0000008DC0B0008644D00086C4D00086D4D0008804D0008014B024AD050704778F0010000003C40CC
:402DC00010B51AF0CBFA044B1B68002B02D0002800D0984710BDC046783E000810B5002809D0FA23FF33994207D80A00044903F08EF9002002E0034800E0024810BDC0461E
:402E00000708001601001600F0B55F4656464D464446F0B4B14CA54481460E00904605930B00AF4A914204D942468A18AD498A4211D9AD4A934204D94246B218AB498A4241
:402E400009D9AB4A934200D823E14346F318A94A934200D922E1A84B5B695B0010D5A64B5B6907241C40022C25D10520FFF7AEFB0190A24B9842F8D003940123049324E001
:402E80009F4B9D4AD3581F221A40E823DB00B0214905CB5C9B1A5A1E9341DBB20493002B0FD10120FFF7E2FB944B9842F9D001900523039309E00394012304930023019368
:402EC00003E005230393002301938E4B019A9A4204D1D621FF318C48FEF750FFF0231B069C466644730A9A465C0200210320FEF731F90028F9D100250023029399E0B442FA
:402F00001BD3BD4219D24A4652191078804606A84146C154594600290DD1802149058846A044414609786846017001781278914201D001229346013505E080225205A21847
:402F4000127806A8C2540134013304E0002100238B46844647466D4A9342D0D959466046B846002962D0019B002B5FD1059B002B51D1C83300951D00B3465646A2468023C6
:402F80001B03F7187F023800FDF7E0FE0400013D0120FEF7E7FEA423DB0322001A409A4201D1002DEBD122000294009D5446B2465E46574B9A4205D1FDF7C4FE554B984255
:402FC000FAD00290029B002B19D1C83300971F00A34606A90098FDF70FFF0400013F0120FEF7C0FEA423DB0322001A409A4204D1002FEED102945C4601E002945C46444B28
:40300000029A9A4211D1FDF79DFE424B9842FAD0029001200AE0802000035044400206A9FDF740FE0290012000E0012001239C46E244029B019A134301D1454586D3002834
:4030400001D0FEF7A9FE00210320FEF7C9F80028F9D1019B002B25D1274B5B695B0009D5039B022B06D10220FFF7B0FA0190234B9842F8D0204B1B681B0213D4049B002B0A
:4030800010D10020FFF7F2FA01901C4B9842F8D008E000230193204B029303E0002301931D4B0293019B002B0CD11C4B029999420AD0194B994207D0002901D1002004E0ED
:4030C000174802E0174800E0174887239B009D443CBC90469946A246AB46F0BDE4FDFFFFFFFFFF0F00001010FFFFFF1300800014FF070016000A0016000026400400420001
:403100001CFF00000300420008730010FF0100000100500002005000060052000200520013001600120016000100160010B500280AD0FA23FF33994208D8F93BFF3B0A00A4
:403140000349FFF761FE02E0024800E0014810BD070800160100160070B5C0B005000C001600802252000849684602F0D0FF05E02A7872406B469E5C0135013C002CF7D195
:40318000300040B070BDC0460872001010B50022FFF7E2FF10BDC0460020704710B50C000088AE235843044B9C4660440A2101F021FA208010BDC04691FCFFFF10B50C002A
:4031C0000023C05E044B5843044901F09DFABD23181A208010BDC0464B280000102700000020704710B513F06BF810BD10B5FEF7B9FD10BD064B1B685B6B00229A5E002AB6
:4032000005DB1F231A401E3B9340024A13607047703E000800E100E0094B1B685B6B00229A5E002A0ADB1F231A401E3B9340802204498B50BFF34F8FBFF36F8F7047C046A4
:40324000703E000800E100E0A023DB00024AD358032018407047C04600002640024B034AD058C00F7047C0461C0500000000264010B5FEF759FC10BD70B504000D00160027
:403280000320FDF7F3FF054B984205D0320029002000FEF77BFB00E0014870BD0101880003004A0070B5431ADC171B196340934227D3164B164CE458A405A40D884208D9D4
:4032C000401A51084018110001F094F9201A0ED50AE0081A51084018110001F08BF900190C4B984202D802E0002000E00A48084D06496B589B0A9B028205920D13436B509C
:4033000001E000240020201A70BDC0463C05000000002640FE030000FF03000010B5034B1A6880210902FFF7BDFF10BDF800000810B500F0B9FF0220FFF73AFD094C2368F5
:40334000586B0949FEF7ACFC23685B6B00229A5E002A05DB1F231A401E3B9340034A136010BDC046703E0008C12D001000E100E00420704710B5FEF7C8FD10BD10B5FEF775
:40338000C8FD10BD10B5FFF72FF810BD10B50021FEF72CFF10BDC0467047C0467047C046002070470048704711001600004870471100160000487047110016000048704731
:4033C0001100160000487047110016000048704711001600004870471100160000487047110016000048704711001600004870471100160000487047110016007047C046DF
:4034000010B5024800F0BAFD10BDC0466C03000870B5022875D8002975D10022002306E03C4CE45C012C01D90132D2B20133002BF6D0012A0CD1384B1B681C688A00521825
:403440009300E3185B681B79023BDBB2012B5CD8324B1B78002B5AD1314B197000281DD12D4E34688B005B189A0023689D18CB00591A4B006168C9188988298221688918B4
:4034800049686468E45A0C8031680C68A446624452684968CB185B8853801FE001281DD11D4D2C688B005B189A0023689E18CB00591A4B006168C918898931822168891815
:4034C0004E686168C9180989318029680C68A446624452684968CB185B895380114B18700D4B1B6818680E4B1B789A00D3189A00801808F0FDFF00280AD10122074B1A70B7
:4035000006E0094804E0084802E0084800E0084870BDC0466C4D0008703E00086D4D0008624D00087D4D00080100160002001600FF00160070B5002907D1154B1B681B68F9
:403540009968CE7F002300250FE0114B1B681B68D968CE7FF6E7CA5C002A0AD00133CC5C1B2C01D09B1800E00125B34201D2002DF1D0002D0BD001338279CA54002204E091
:40358000D4180134855C0D550132052AF8D970BD703E000870B505000DF0ACF8041E24D1134B19682B899A00D2189300143B0A6A944663445A68920117D5EA7B1B695B68D4
:4035C000C8691B1A90008018C0180A4BC018AA88296802F09CFDEB7B074AD35C012B04D1064A117802230B431370200070BDC046703E0008704D0008684D0008634D0008F1
:4036000070B586B004000289164B1B685B699B889A4223D101A80300220062CA62C300238381A389C38140230374FFF7B3FF051E0ED123681B789B0705D50B4B1B68210037
:403640000A48984704E0084B1B68210008489847084A137801218B43137000E00025280006B070BD703E0008743E00080500010006000100784D000810B54288531E9BB218
:40368000132B1CD84478002C1BD1104B196893009A189300143B0A6A944663445A68920111D51B695868C969411AA3001C19641807496118022202F02AFD002004E0012081
:4036C00002E0012000E0002010BDC046703E0008704D000830B583B004000D0006220021684602F01DFDA3896A4613802389538012231371074B1B78DB0709D4002D04D001
:40370000557168460CF032F902E0E0680CF05EF903B030BD784D000810B5002811D00023002406E09A0011495258904200D1012401330E4A1279934206D2002CF2D00023CE
:4037400003E000240A4B00E00023002B0CD1002C0AD1064A1279002A05D104499400605001320A7100E0034B180010BD844D0008010016000300160070B506000D0000204D
:40378000002406E0A200074BD3582900300098470134044B1B799C4203D2034B1B78DB07F0D470BD844D0008784D00088379002B06D000200AE0C25C002A06D1013300E049
:4037C0000023052BF7D9002000E001207047C046F0B5474680B48CB004000D00C64A117801230B43DBB21370C44B984200D17AE232D8C34B984200D1DAE015D8C14B984294
:4038000000D1FEE007D8023B984265D0BE4B984200D1F2E097E3BD4B984200D12FE1BC4B984200D18AE38EE3BA4B98424BD008D8B94B984200D1ADE0B84B984200D1A9E00E
:4038400081E3B74B984200D151E200D900E2B54B984200D128E176E3B34B984200D1FCE216D8B24B984200D181E208D8B04B984200D1E9E1AF4B984200D1E9E163E3AE4BBE
:40388000984200D1C5E2AD4B984200D1DDE25AE3AB4B984200D118E308D8AA4B984200D10BE3A94B984200D10BE34CE3A74B984200D13BE3A64B984200D154E2A54B9842FA
:4038C00000D040E305E3280005F02AFA8A4A137801218B43137036E39F4B1E683000FFF765FF00280CD0300009F0D0FE9A4E00213068FFF71FFE30680121FFF71BFE37E038
:40390000964B19688B6A1B79002B22D0B0204005934BC35C3F221340924E865D324092011A43914BC65C1F2333401B031343C022D200805C7F220240520413430A6B137056
:40394000864A1168096B180A48701268126B1B0C9370824E3368186B09F098FE3368186B0021FFF7E7FD3368186B0121FFF7E2FD7A4B1B68986A02300AF07EF908227B4909
:4039800005A802F0C4FB05A809F0C2FE0222784B1A70D8E20023764A1370764A1370764A13705E4B9C4200D0CDE2FFF74FF9CAE2724B1B68DB0700D5C5E205AE03220021A5
:4039C000300002F0ADFB654F3B689B6A1B785BB23370300009F0DEFE3B689B6A5B785BB2337001277770FF23B370300009F0D2FE624B1A6817431F60A5E22900FFF7BCFE79
:403A0000A1E26B78984602225849083105A802F07EFB00261DE002AF73005949C9180222380002F074FB7B78002B02D1554AD35C00E00023012B0BD97300514A9B5C9845F1
:403A400006D17300D118022205A802F060FB02E00136002EDFD005AB5B78FF2B04D103D149494A48FEF78AF905AB1B8808AA138007AA13801B0A2978454AD15463E22B78CF
:403A8000002B00D05FE22B7A002B07D1414B0922DA8097329A80404A1A606B60164A137801218B4313704EE26B79984602222F49083105A802F02BFB002670E003AF7300DA
:403AC0002F49C9180222380002F021FB7B78002B02D12C4AD35C00E00023012B5ED97300274A9B5C984559D17300D118022205A802F00DFB55E0C046784D000808400000AE
:403B0000042000000210000001100000031000000410000019300000013000001230000006400000044000000C500000015000000A400000104000000250000003500000E5
:403B4000105000000E5000000F500000175000000160000014500000FC000008703E000804060000050600000306000044730010644D00086D4D0008903E0008804D000837
:403B8000604D00086C4D0008CA030000507300107C4D0008983E00086C3A00080136002E8CD005AB5B78FF2B04D103D1CB49CC48FEF7E4F805AA138809A90B8013801B0A43
:403BC0006978C84AD154EB78002B00D0BBE16B7998460222C449083105A802F098FA00261DE004AF7300C149C9180222380002F08EFA7B78002B02D1BD4AD35C00E0002322
:403C0000012B0BD97300B94A9B5C984506D176009119022205A802F07AFA02E00136002EDFD005AB5B78FF2B04D103D1AB49AC48FEF7A4F805AA13880AA90B8013801B0AF7
:403C40000121AC4AD1547EE12900FFF795FD7AE12B78002B43D1AB78012B02D10022A64B1A706B78984602229F49083104A802F04EFA00261DE005AF73009C49C9180222DB
:403C8000380002F044FA7B78002B02D1984AD35C00E00023012B0BD97300944A9B5C984506D176009119022204A802F030FA02E00136002EDFD004AB5B78FF2B04D103D134
:403CC00086498748FEF75AF804AA13880BA90B8013801B0AFF2B02D0A978884AD1540222874B1A702FE10222854B1A702BE12900FFF742FD834B1B78DB0700D423E17E4B2F
:403D00001B78012B03D102227B4B1A701BE1032B03D10022784B1A7015E1022B00D012E10022754B1A70784B1B685868774B1978CA00531A5B00C3189A79002A00D102E106
:403D40009B88002B00D1FEE0714B1B78002B00D0F9E00120FFF75CFB002800D0F3E00122654B1A70EFE02900FFF706FDEBE002222900684602F0CBF96B465B78002B03D19D
:403D800002215B4AD15405E0002B03D161495448FDF7F4FF68784000544B18180222290002F0B5F96B7800215B4AD1549800C0185A4E8019544B1B6819692B789A00D318DE
:403DC000574A94466344C9180231052202F09FF96B789800C01880190421FFF7D7F96B789A00D318F618337998420DD04D4B1B6800214D4898476B789800C3184748181867
:403E00000522002102F08CF929002000FFF7B4FC99E001AE02222900300002F078F97378002B03D10021324AD15405E0002B03D138492B48FDF7A2FF6B7800212D4AD15413
:403E400029002000FFF798FC7DE005A82B880380C82343800BF098FD75E02800FFF7D0FB011E04D129002000FFF786FC01002800FFF730FC234B1A7811231A4204D0294BDB
:403E80001B682900200098472A891E4B1B78DB070DD5531E9BB2132B09D905A8122303714280AB890380012343710BF05FFD154A137801218B43137045E02900FFF75CFC0F
:403EC00041E02900FFF758FC3DE02900FFF754FC39E02900FFF750FC35E0C046CA03000050730010684D000844730010604D00086C4D0008903E00086D4D0008943E0008F7
:403F0000644D0008784D0008703E0008624D00087D4D0008860300007C4D0008704D0008480C0000743E0008040001002800FFF7A3FB29002000FFF71FFC04E00B4A1178B2
:403F400001230B4313700A4B1A7811231A4209D0074A137801218B431370064B1B682900200098470CB004BC9046F0BD634D0008784D0008743E00080020704710B50028AF
:403F800005D0044B18600448FFF7C6FB00E0034810BDC046A43E0008793F00100100160070B50D000F4B184300040F4BD861FA24A40003E0013C0120FDF7D4FE0A4B1B6C78
:403FC000DB0701D4002CF5D1002C08D0064B196C01220A431A64DB6A2B80002000E0034870BDC0460080FFFF00003C400400160010B500040E4B184001430E4BD961FA245F
:40400000A40003E0013C0120FDF7ACFE094B1B6CDB0701D4002CF5D1002C06D0054A116C01230B431364002000E0034810BDC0460000FF7F00003C4004001600F0B583B0B8
:4040400006000A24C02149017548FFF7D1FF002804D16B46991D7248FFF7A2FF002C01D0013C00E06F48002805D16B46DA88C0235B019A42E6D1002825D16B46991D6A48BE
:40408000FFF78EFF00281ED16B4606331B885B0519D40A248021C9006348FFF7A9FF002804D16B46991D6048FFF77AFF002C01D0013C00E05B48002805D16B46DA888023BF
:4040C000DB009A42E6D1002804D16B46991D5748FFF766FF002844D16B4606331B883F229343B278012A15D1F178012904D88FB20222D21B95B201E00025022740221343C9
:404100009BB2302213436A46D380494BCB40494A136013E0F178002904D18FB20122D21B95B201E00025012740229343102213436A46D380404BCB403E4A13606B469C1D04
:40414000D9883943D9803948FFF752FFF378DB1B03221340AA0092B213432380374A38498B50B0235B055B78002B04D0B0235B055B78DBB200E02123212B4FD0314BB0222F
:404180005205D35A9BB2002B48D0002804D16B46991D2D48FFF704FF002824D16B469A1DDB8860218B4318001380B0256D05254C2B5B60310B405B08034324490B40138029
:4041C000295BC901F020C00001400B43204919401180285BC0239B000340DB00194311801948FFF705FF002804D16B46991D1948FFF7D6FE002811D16B469A1DD988C02313
:40420000994311800F4BB0204005C05A302303409B00194311800F48FFF7EAFE03B0F0BD021E000004001600031E0000091E00000048E801C00000080024F40064F00100ED
:4042400000003C4016180000071E00007FF5FFFFFFE7FFFF061E000070B50C004000084901430848FFF7C4FE051E04D106490748FFF7BEFE05006001FDF774FD280070BD7F
:4042800001100000081E0000376800000F1E00000349044A8858102303438B507047C04600003C4070F00100F0B59DB013A9144B0A00180070C870C270C870C270C870C226
:4042C0000AAD28001A002432D0CAD0C0D0CAD0C0D0CAD0C001AC22004833C1CBC1C2C1CBC1C2C1CBC1C20748FCF7E0FD29000648FCF7DCFD21000548FCF7D8FD1DB0F0BD68
:4043000088730010000132408001324000023240F8B5051E00D1DDE0734B5B689B0301D5FEF7A8F8714C03E0013C0120FDF71AFD6F4B704AD358002B01D0002CF4D16E4B62
:404340006C4AD358DB0704D56C4BD358DB0700D5C2E0674B674AD358002B00D0BEE0FFF7A3FF644B6649674A99502A78A02109030A4365495A506549654A99508022520061
:404380009B58DB0700D5ABE0624B1B6F1B0709D4614B1868614B984206D9190000F02AF9013802E0012000E00020524B1B68002803D040035A4A104300E05A4818434D4BCF
:4043C0001860494B5B695B0017D501210320FDF70DFF454B5B699B0F01221340524A116844228A5C002A0ED0002B0CD03E4A93698021C9050B43936105E03E494B4A885867
:40440000032303438B503B4C3B4AA658484B3343A3504020FDF7A6FC464BE358DB070BD42700444C01233B514020FDF79BFC03233B514020FDF796FC3F4F37403F4E3E43AF
:404440002D4B2C4AD650FA24E40003E0013C0120FDF788FC3A4B3B4AD358DB0601D4002CF4D1002C01D0002400E0374C002C23D12049364A8858082303438B500120FDF7C3
:4044800087FE002801D1324E3E43324B1E4001231E43194B174AD650144E03E0013E0120FDF760FC154B134AD358DB0701D4002EF4D1002E00D1244C002C03D12800FFF71D
:4044C000BDFD0400002C0CD168782978FFF7C4FE040006E0204C04E0204C02E01F4C00E01F4C2000F8BDC04600002640F07E0E006CF0010000003C40A0F00100B4F00100B2
:4045000006000001A4F00100A8F0010001000100ACF0010000F03D40C800000800093D00041A0080040A00805C4D0008C4F0010030000300B0F00100EFFFFEFF20000200B1
:4045400010400000000032400400160068F0010028000200FFFFFBFF010016000300160002001600014B18687047C046C000000810B5002405E02000FDF7B8F8032804D0BA
:404580000134042CF7D9002000E0012010BDC046A023DB00064AD35803221340012B03D0032B03D1012002E0012000E0002070470000264010B5002803D00B4BD86200208F
:4045C00000E00A4800280DD1094B1B78002B05D10548FEF743FB0122054B1A70002801D1FEF76AFB10BDC0460001000801001600A83E0008002243088B4274D303098B428F
:404600005FD3030A8B4244D3030B8B4228D3030C8B420DD3FF22090212BA030C8B4202D31212090265D0030B8B4219D300E0090AC30B8B4201D3CB03C01A5241830B8B42F9
:4046400001D38B03C01A5241430B8B4201D34B03C01A5241030B8B4201D30B03C01A5241C30A8B4201D3CB02C01A5241830A8B4201D38B02C01A5241430A8B4201D34B028C
:40468000C01A5241030A8B4201D30B02C01A5241CDD2C3098B4201D3CB01C01A524183098B4201D38B01C01A524143098B4201D34B01C01A524103098B4201D30B01C01AC1
:4046C0005241C3088B4201D3CB00C01A524183088B4201D38B00C01A524143088B4201D34B00C01A5241411A00D20146524110467047FFE701B5002000F0F0F802BDC0464E
:404700000029F7D076E7704703460B437FD4002243088B4274D303098B425FD3030A8B4244D3030B8B4228D3030C8B420DD3FF22090212BA030C8B4202D31212090265D06F
:40474000030B8B4219D300E0090AC30B8B4201D3CB03C01A5241830B8B4201D38B03C01A5241430B8B4201D34B03C01A5241030B8B4201D30B03C01A5241C30A8B4201D369
:40478000CB02C01A5241830A8B4201D38B02C01A5241430A8B4201D34B02C01A5241030A8B4201D30B02C01A5241CDD2C3098B4201D3CB01C01A524183098B4201D38B01C9
:4047C000C01A524143098B4201D34B01C01A524103098B4201D30B01C01A5241C3088B4201D3CB00C01A524183088B4201D38B00C01A524143088B4201D34B00C01A524114
:40480000411A00D201465241104670475DE0CA0F00D04942031000D34042534000229C4603098B422DD3030A8B4212D3FC22890112BA030A8B420CD3890192118B4208D35A
:40484000890192118B4204D389013AD0921100E08909C3098B4201D3CB01C01A524183098B4201D38B01C01A524143098B4201D34B01C01A524103098B4201D30B01C01AB9
:404880005241C3088B4201D3CB00C01A524183088B4201D38B00C01A5241D9D243088B4201D34B00C01A5241411A00D20146634652415B10104601D34042002B00D54942FC
:4048C000704763465B1000D3404201B5002000F005F802BD0029F8D016E770477047C046002B11D1002A0FD1002900D1002802D00021C943081C07B4024802A140180290C6
:4049000003BDC046D9FFFFFF03B4684601B5029800F050F8019B9E4602B00CBC7047C046F0B54F464646C0B41604360C9946330005042C0C070C150C63437E436F43654359
:404940001C0CAD1964199C46A64203D980235B02984647446346250CEF191D044B464A4343432D0C240464199918C91920000CBC90469946F0BDC04670B500220C4B0400B3
:404980000D0001F05DFA002804D12000290001F0B5F970BD064B00222000290000F05AFE01F0ACF980231B069C466044F1E7C0460000E041F0B54D46564644465F46F0B406
:4049C000924683B004000D0099468B422FD82CD04946504601F05CFA29000600200001F057FA331A9846203B9B4600D574E053465A4693401F005346424693401E00AF4231
:404A000029D826D05B46A41BBD41002B00DA79E0002200230092019301235A4693400193012342469340009319E08242D0D900220023009201930C9B002B01D01C605D606E
:404A40000098019903B03CBC90469946A246AB46F0BDA342D6D900220023009201934346002BE8D0FB0772081A4346467B080EE0AB4201D1A2420CD8A41A9D41012024195C
:404A80006D410021013E24184D41002E06D0AB42EED9013E24196D41002EF8D15B460098019900196941002B22DB2B005A46D3402A004446E2401C005B461500002B2CDBCF
:404AC00026009E40330026004746BE403200801A994100900191AEE7424620239B1A5246DA40414613004A468A4017001F4382E7424620239B1A2A0046469A402300F34003
:404B00001343D5E74246202300219B1A0022009101920122DA40019282E74246202326009B1ADE402F00B446974066463B003343C9E7C046F0B556464D4644465F46F0B4C5
:404B40001D000E034C00CB0F87B0070092468146360B640D98466AD06D4B9C4235D08022430F12041343F6001E43C3009946694B00279C460023644402932B0368001B0B6D
:404B8000ED0F51469B46400D009500D178E0604B98426CD05B46DA004B0F802109040B4313439B465346D9005A4B9C46002360444246201A6A40924601901F430F2F00D99F
:404BC000B0E05548BF00C0598746374300D088E0002399460233082700260293CDE74346B34649460093029B009A9246022B00D0BFE1002153460122002689461A40444B51
:404C0000002136030C0D2405360B2643434C1B0526401E437600D207760816434846310007B03CBC90469946A246AB46F0BD330003434FD0002E00D1BCE1300001F00AF991
:404C400003000B3B1C2B00DDADE11D220100D31A08393A008F408E40DA40B9461643304B00279C46002360444442029385E753465A4613432CD1002300219B46023397E74C
:404C80000B4320D05B46002B00D19EE1584601F0E1F803000B3B1C2B00DD8FE102005946083A91408B461D21CB1A5146D9400B0059460B4351469B469140194B9C466044D2
:404CC0004042002374E7002300219B4601336FE703236DE70023994601330427002602934BE703230C27029347E70122D51A382D00DCB0E153461A40002100230026894611
:404D00007EE700238026994600223603004B77E7FF07000001FCFFFFBC850010FFFF0F80F30300005E4500D972E100D16DE1019B4D46013B01930023340002935B461E02F3
:404D40000B0E1E430B020393330C994633041B0C494620000093FFF74DFC009B370043430600494620009846FFF7CAFC2C0C09040C43A04509D9E419731EA74200D95CE18A
:404D8000A04500D859E1023EE4194346E41A49462000FFF72FFC0300009A80465343494620009B46FFF7ACFC2A040904120C0A4393450DD94346D219013B974200D93AE160
:404DC000934500D837E102235B429C46D219E0445B46D21A4346360433439B460399180C0B0C1D00059309045B46090C0C001B041B0C4443049159436B4368431B190D0C92
:404E0000EB189C4203D980246402A44660441C0C09041B04090C20185D18824200D2DEE000D1D7E0161A029B9C465D1BAC459B415B42F61AB74200D106E149463000FFF724
:404E4000D9FB009B04004343494630009846FFF757FC2E0C09040E43B04509D9F619631EB74200D9F3E0B04500D8F0E0023CF6194346F31A494618000293FFF7BBFB009BAC
:404E800006004343494602989846FFF739FC2D0409042D0C0D43A84509D9ED19731EAF4200D9D6E0A84500D8D3E0023EED192404210043463143049E059A3000ED1A0B04FC
:404EC0000C0C1B0C58436643534354439A19030C9B189E4203D980225202944664441A0C00041B04000C14191B18A54250D34DD001231943964A019B94466344002B00DCF9
:404F0000F3E64A0709D00F220A40042A05D00A1D8A42894149428B4411005A46D20108D55A468C4B1A4093468022D2009446019B6344894A934200DD5BE65A46C9085007AF
:404F400008435602514601225B058146360B5B0D0A4055E680231B031E4211D05A461A420ED15E461E433603360B2A0089467B4B46E6032B00D1E1E0012BBBD11A40BBE6C5
:404F80001E433603360B4246744B39E6002BB1D07D194A1EAF4252D91100A542A8D1039A9A42A5D1A6E703003E00283B9E400023994654E600F04EFF203041E603005246F0
:404FC000283B9A400021934677E6504600F042FF20305EE6029B0026AB4200D323E7039E0299B44661448846B045B6415B467642F619B218013B0291974213D290424FD8E8
:4050000000D18EE0161A9B460DE7894500D28EE674084B46F60735005B081D434B46DB0702938BE69742EDD10399029CA142E5D93E1A9B46F7E69846CAE61E00A5E6AC42F0
:405040003ED874D0110053E70121494252E71C000EE71E002BE71F2D3CDC20230A0058465B1B9840EA4099400243481E81415E461143EE404B0709D00F230B40042B05D085
:405080000B00191D99429B415B42F61833023CD55346012200211A40002601238946AFE502235B429C46039CE344A446029B63449846A045B6417642F6190293B218B1E614
:4050C00003988A1E41008142B6417642F619AD19039161E71F225242D31A5A46DA401300202D29D040225846551BA8400143481E814107200B4318400026002809D00F224B
:4051000000261A401900042ABBD10B0070077602360BDB0803439946012253461A4000236EE502998D42BBD89B4600267BE603989842C5D3110032E70020D7E780265B468C
:4051400036031E433603360B009A8946034B57E5FF030000FFFFFFFEFE070000FF070000F0B55F4656464D464446F0B40D0399464E002B0B87B00700924680469B46760DC6
:40518000CC0F002E69D06D4B9E4235D05B468022DD001204430F13432B439B46C3009846674B00279C460023664401934A4615035000D20F53462D0B400D914600D176E031
:4051C0005E4A90426CD080225B0F120413435C4AED0094461D4353460022DB00604449463618701C6140029017430F2F00D9AFE05448BF00C759BF465B461F4300D088E023
:4052000000239B469846023308270193CEE74946022A6AD0032A00D109E2012A00D0BBE111400022002300259046CCB200212D030A0D12052D0B1543434A1B0515401D43EA
:405240006D00E4076D0825434046290007B03CBC90469946A246AB46F0BD034352D05B46002B00D18AE1584600F0F4FD03000B3B1C2B00DD7BE11D22D31A3A0001005D469E
:40528000DA4008398D4013008F402B439B46B8462E4B00279C46002360444642019385E752462A432CD100250023022297E752462A4321D0002D00D154E1280000F0CAFDD2
:4052C00003000B3B1C2B00DD46E11D21CB1A51460200D9405346083A954093400D431B4A944660444042002279E7012400220C40124B0025904699E70025002301226EE760
:4053000003226CE700239B4698460133042701934CE703230C27019348E700238025984600242D03054B81E75D464346019A6FE75D4643462100019A6AE7C046FF070000BD
:4053400001FCFFFFFC850010FFFF0F80F30300004246120C91461A0C9446424617044A461B041B0C5A43604690464A4642431000039262461C003F0C7A437C4342440192B1
:40538000220C9246019A5244904506D98246802040028046C24450460390100C049048462404240C1204121905922A0C2D042D0C68432C00824648467C4350438146200CE3
:4053C0008046574357444744BA4503D9802040028046C144380C3F04B84648442404240C01900498A044404404905846000C814658460404200C8246070048465F434C4639
:405400004343604660436446834650464443380C8446E4186444A34203D980235B029C46E34448463F04230C3F0C2404E419574668436F4384464D46504655434243380CD3
:40544000814662444A445B44944503D9802040028446654403983F04834604983F0C8446E344C345804140428246100484460198674484466744A344BC46A345A4419946CA
:40548000D44464428742BF41D4458041E144A04699459B417F424042C8440743120CBA18A045A4415F423B0064422343D71843467D19DB0D6D021D435B465A02059B1A43CC
:4054C000531E9A415B46DB0D1A4343465B021343EA0107D501225C0813402343EA07029E13436D08574AB218002A4BDD580709D00F201840042805D0181D98429B415B42D6
:40550000ED180300E80104D54F4A15408022D200B2184E48824200DDE7E60124DB08680718436D02530580462D0B5B0D0C407DE6802259461203114208D0154206D11543BC
:405540002D0398462D0B4C46414B6FE65D4615432D032D0B3E4B69E603005546283B9D400023BCE6504600F075FC2030A8E60300283B9F400023BB46984689E600F06AFCB3
:40558000203073E60124A61A382E07DD00220C4000230025904649E6029EA3E71F2E20DC20222C001800921BF040944093400443581E83411C43F540630709D00F232340EE
:4055C000042B05D023001C1D9C4292415242AD182B021FD5012400220C4001230025904624E61F202C004042821AD440202E1CD04022961BB5402B43581E83410720234350
:4056000018400025002809D00F2200251A401C00042AD8D1230068076D022D0B0124DB08034398460C40002300E60025E3E780220124120315432D0398462D0B0C40044B8B
:40564000F4E5C046FF030000FFFFFFFEFE070000FF070000F0B557464E464546E0B40E001100F20F9246C500420F180337037400400A4E0F7F0A3043CF4E17435A00640D92
:40568000520DDB0FC900B24200D1E5E001267340A61AB446534500D1AFE0002E00DC0DE1002A3AD103000B4300D0E4E06B0709D00F232B40042B05D02B1DAB42AD416D42F2
:4056C0007F191D003B0200D488E0BB4B01349C4200D110E13A00B94B51461A4001235007ED08520264050543120B640D0B400021280012030D0D120B64052D051543620832
:40570000AF4CDB072C401443640064081C4321001CBC90469946A246F0BDA74B9C42C5D080231B0418436346382B00DDFDE01F2B00DD30E1624620239B1A02009A406646AF
:4057400090460A009940F24046464B1E99413243114363460200DA40691A8D429B410D00BA1A5B42D71A3B0235D57A02530A98464346002B00D1C4E0404600F06BFB03003E
:40578000083B1F2B00DDC5E020222900D21A4746D1409F400A009D403A439C4200DDC0E01C1B631C1F2B00DDE4E0202114002800C91AD8408C408D400443DA40681E8541E8
:4057C00017002543002471E7424663461A4300D14CE2674645466B0700D069E7012351467807ED08FA080B40054373498C4238D012036405120B640D79E7002E00DC9AE011
:40580000002A47D06C4A944200D14FE78022120410436246382A00DC08E10143481E81410022C9B24919D219A942BF410D007F42BF183A0200D442E15F4A0134944200D11C
:405840004EE101205D4A69083A4028400843D507054357089A4629E706000E4300D017E714E72900114300D1F9E1802109030A431203120B3BE701235B429846C44463463A
:40588000002B72D1691A8D429B413F1A5B42FF1A0D0068E702000A4300D107E7012252429046C4446246002A00D0E6E06918A942B6413F187642F7190D00BAE7002E00D0A8
:4058C00080E0621C5205520D012A00DCF9E06A1A91464D45B6413A1A7642921B9046120200D499E04D1BA9428941C71B49427A1A90469A463CE75246012300251340002213
:40590000F5E6280000F0A6FA20300300083B1F2B00DC39E72A002838824000259C4200DC3EE7264FE41A1740C0E60143481E81410022C9B210E7002E00D0F1E0621C944611
:405940005205520D012A00DCA0E01B4A944500D1C5E06918A94292413F185242D2194908D5070D4357086446A0E6134B9C4200D0D9E69BE611001F3CE1400C00202B00D114
:4059800080E04021CB1A9A4015436A1E95410027254300241FE763460200203BDA406346202B71D0402366469B1B98400143481E814111430022CFE6FF070000FFFF7FFFED
:4059C000FFFF0F80002C48D0CA4CA24200D1A2E07442A1468024240427434C46382C00DDDBE01F2C00DD44E14E462024A41B3E00A640A246B0464C462E00E640B4464646D6
:405A0000644626435446A5406C1EA54134002C434D46EF400D1B28E04A4643464D461A4300D0A5E6002300240025DEE61F2A5ADC66462022921B060096409146B0466246D0
:405A40000E00D640424616434A4691404A1E9141020060463143C240E4E63C002C435AD0F443A146002C52D14D1BA9428941C71B49427F1A14009A4675E69E4A944200D05C
:405A8000C7E613E600227FE700208FE7002C00D0C8E03B002B4300D10FE103000B4300D104E66918A9429B413F185B42DF193B0200D41AE1904B0D001F406446F6E59A461C
:405AC00089E63A002A43002C5CD1002A75D102000A4300D1CAE007000D009A46E6E564460022002581E662460600203AD6406246B046202A00D1B7E040226646921B9040ED
:405B000001434246481E8141114300228AE6794CA24200D061E707000D0014009A46C5E5002C41D13C002C4378D0F443A146002C20D0704CA24271D04C46382C00DDB2E067
:405B40001F2C00DDBCE02026341BA2463C005646B4404E46A0462C00F440A446444666463443A4465446A54064466E1EB54125434C46E7406D188D4289413F184942CF1909
:405B8000140056E6002A2FD102000A4300D184E007000D009A46574C88E53D436F1EBD41ECB200270D1B60E7524CA24236D0744280263604A1463743BEE702000A4300D160
:405BC00074E56A1A90464545B6413A1A7642921B9446120200D4F7E54D1BA9428941C71B49427F1A9A4661E502000A433AD0ED087C072C438025FA082D032A4208D0C708A7
:405C00002F4205D145072C003A009A46C9080C43670FD200E5001743364C47E507000D00140043E53A002A4343D002000A4319D0ED087C072C438025FA082D032A4207D0F3
:405C4000C6082E4204D147073C003200C9080C43D700620FE50017439A46264C26E50022002544E5234C21E5002049E700230025BBE54C463E00203CE6404C46B446202C0A
:405C800031D040244E46A61BB7403D436C1EA54164462C4300270D1BE7E6802200231203144C0025A1E53D436F1EBD410027EDB260E707000D000F4CF8E407000D00F5E4D9
:405CC0004E463C00203EF440A0464C46202C0ED040244E46A41BA7403D436F1EBD4144460027254346E70027CFE70D0073E50027F2E7C046FF070000FFFF7FFF0B0330B5F4
:405D0000134D1A0B4B005B0DC90F0024AB4211DD104CA34210DC8024640322430E4CE41A1F2C0CDD0D48C31ADA4013005C42002900D11C00200030BD094BCC18FAE7E040D2
:405D4000084CA44663449A4013000343EEE7C046FE0300001D0400003304000013040000FFFFFF7FEDFBFFFF70B5051E28D000F071F8154B154A1B1AD21A1F2A16DD2C007D
:405D8000134A0025D21A94405A052403240B520D002124030B0D240B1B0523430D4C1205234013435B002800590870BD0B212C00081AC440954024035A05240B520DE7E709
:405DC00000220024E4E7C0461E0400003304000013040000FFFF0F808446101C62468C46191C634600E0C0461FB500F001F9002801D40021C8421FBD10B500F055F8404215
:405E0000013010BD10B500F0F3F8002801DB002010BD012010BDC04610B500F0E9F8002801DD002010BD012010BDC04610B500F07BF8002801DC002010BD012010BDC04654
:405E400010B500F071F8002801DA002010BD012010BDC0461C2101231B04984201D3000C10391B0A984201D3000A08391B09984201D30009043902A2105C40187047C04642
:405E80000403020201010101000000000000000010B5002903D1FFF7DDFF203002E0081CFFF7D8FF10BDC046F0B55F4656464D464446F0B41F035C00DB0F9A46194B0E03E5
:405EC0004D00C90F8046360B6D0D8B4691463F0B640D9D4219D0134B9C421BD00123A54206D018003CBC90469946A246AB46F0BDBE42F6D1C845F4D1D34510D0002DF0D1FF
:405F0000304303005A1E9341EBE7310001230143E7D1E0E73A430123002AE2D1DEE70023DFE7C046FF070000F0B55F46444656464D46F0B41F033C0B2C4F0E034D00A346AB
:405F40005C008446360B6D0DC90F9046640DDB0FBD422BD0254FBC422ED0002D0ED130430700814678427841002C17D15F463A4314D14B460020002B0AD006E0002C02D157
:405F80005846024301D099421AD00123484218433CBC90469946A246AB46F0BD0028F2D058425841012240421043F1E737000743D0D002204042EBE75F461743CDD0F8E72D
:405FC000A542E2DC05DB5E45DFD808D000205E45DED248424841012340421843D8E7C445D3D80020C445F4D3D2E7C046FF070000F0B55F464D4644465646F0B41C03240B46
:40600000A4462F4C0F034D005E00C90F80463F0B6D0D8B469146760DDB0FA54220D0284CA64222D0002D12D1384344424441002E20D0002C0DD05C42634101245B421C4382
:4060400020003CBC90469946A246AB46F0BD002E17D05B4519D05B465C4201231C43EFE7390002240143EBD1D9E7614602241143E6D1D7E761460A43DBD100240028DFD047
:40608000E9E761460A43E4D1E5E7B54203DD01225C421443D4E7B542CDDB6745DBD809D000246745CCD259464C426141012449420C43C5E7C845CED80024C845F3D3BFE7E2
:4060C000FF070000084B10B50400002B02D0002100E000BF054B1868836A002B00D09847200000F07BFCC046000000004086001030B50024A24208D0035D651C0C5DA342D3
:4061000001D0181B02E02C00F4E7002030BD002310B59A4203D0CC5CC4540133F9E710BD03008218934202D019700133FAE770470CB430B5164B9DB00C1E1D6804DA8B2386
:4061400001202B6040421DE0822302A99B008B810023029008619C4200D0631E8B604B6101235B42CB81209A21AB2800019300F087F8431C01DA8B232B60002C02D00023C7
:40618000029A13701DB030BC08BC02B01847C0467C060008030030B5002A0DD00C7801335D1E013A2C700131002CF5D19A189A4202D01C700133FAE730BD0000F0B58E68FC
:4061C00085B007000C00039201939E4243D890238A89DB001A423ED003250969236801985B1A029363695D43EB0F5D19029B6D1001331B18AB4200D91D00530510D52900BA
:40620000380000F037FB061E14D0029A2169FFF77EFFA289194B134080221343A38112E02A00380000F086FB061E0CD12169380000F0D4FA0C23402201203B60A389404224
:406240001343A38117E0029B2661F61826606561019EED1AA560019BB34200D21E0032000399206800F0A5FA0020A3689B1BA36023689E19266005B0F0BDC0467FFBFFFF92
:40628000F0B59FB0029005938B890F0016001B0610D50B69002B0DD1402100F0EBFA38603861002804D10C23029A01381360D8E040237B61002306AD6B6120336B76103319
:4062C000AB7634002378002B03D1A31B049312D003E0252BF9D00134F4E7A31B320039000298FFF76BFF431C00D1B4E06A69049B944663446B612378002B00D1ABE0012281
:40630000002352426A6002A95432521801342B60EB60AB601370AB65534E21780522300000F03CFA002807D00123801B83402A68013413432B60EFE72B68DA0604D5532221
:40634000202102A8121811701A0704D553222B2102A81218117022782A2A03D0099B00200A210EE0059A111D12680591002A01DB099204E05242EA60022213432B6001345F
:406380000BE02278303A092A04D84B4301349B180120F6E7002800D0099323782E2B1ED163782A2B0AD1059B02341A1D1B680592002B01DA01235B42079310E000230A2024
:4063C0001A0001346B6021783039092904D84243013452180123F6E7002B00D00792234E21780322300000F0D9F9002806D04023801B83402A68013413432B602178062271
:406400001B48661C297600F0C9F9002812D0194B002B06D10722059B073393430833059314E005AB00933A00134B2900029800E000BF07E005AB00933A000F4B2900029858
:4064400000F08AF80390039B013304D06B69039A9B186B6135E7BB890B985B0601D5012040421FB0F0BDC046448600104A8600104E86001000000000BD610010F7B5170093
:4064800001938A680B6900900C00934200DA130022003B6043321278002A01D001333B6023689B0602D53B6802333B60062523681D401ED0230043331B785A1E9341226885
:4064C00092061CD53020E1184331087021005A1C45310978A2184332023311700FE022000123193201990098089EB047431C0ED00135E3683A689B1A9D42F0DBDAE722007A
:40650000019943320098089DA847431C02D10120404220E006232068E1683A6803400025042B03D18D1AEB43DB171D40A3682269934201DD9B1AED180027BD420AD02200FB
:4065400001231A3201990098089EB047431CDED00137F2E70020FEBDF0B58BB006920A0043320793059004920A7E0C00109B6E2A00D1ABE011D8632A22D009D8002A00D1B0
:40658000B5E0582A00D0C5E045310A70814A4FE0642A1DD0692A1BD0BCE0732A00D1AAE009D86F2A29D0702A00D0B3E0202209680A43226037E0752A1FD0782A33D0A9E013
:4065C0000E001A684236111D196013683370A4E021681A68080606D4490604D5111D19600023D55E02E0111D19601568002D3BDA2D23049A6D42137036E021681A6808069B
:4066000006D4490604D51568111D1960ADB202E0111D196015685F4B227E039308276F2A1DD00A271BE022007821453211705A4A19680392081D226818600D68100602D419
:40664000500600D5ADB2D30702D520231A4322601027002D03D1202322689A4322602300002243331A7002E00A274A4B03936368A360002B09DB0422216891432160002DC8
:4066800005D1049E002B11D07BE0002D79D0049E28003900FEF734F8039B013E5B5C280033703900FDF7A6FF051EF1D1082F09D12368DB0706D563682269934202DC302396
:4066C000013E3370049B9B1B23612BE009681A68080607D4490605D5111D19601368A28A1A8004E0111D1960136862691A600023049E236116E01A68111D19601668002195
:406700006268300000F04AF8002801D0801B6060636803E0260042363270012323610023049A1370079B09AA00932100069B0598FFF7A4FE431C02D10120404227E02369B8
:40674000320006990598079DA847431CF4D0236800259B070FD4099BE068984217DA180015E022000123193206990598079EB047431CE1D00135E368099A9B1A9D42F0DB00
:40678000E9E72600039B42361B7833708EE70BB0F0BDC0465586001066860010C9B28218904204D003788B4202D00130F8E70020704710B5884202D98B18984201D3002333
:4067C00005E09B1A013A08D3995C8154FAE7934203D0CC5CC4540133F9E710BD70B50500002944D00C1F2368002B00DAE418280000F0D8F81E4A13681100002B02D16360BA
:40680000146031E0A3420DD92268A018834203D118685B688218226063600C6024E0A24203D813005A68002AF9D11E689819A0420BD12168711858181960824214D1106802
:406840005268411819605A600EE0A04202D90C232B6009E021686018824203D1106852684118216062605C60280000F09CF870BD504D0008032370B5CD1C9D43083506008C
:406880000C2D01D20C2501E0002D01DBA94202D90C23336048E0300000F084F8234B1C681A002100002913D00B685B1B0DD40B2B02D90B60CC181EE08C4202D16368136025
:4068C0001AE04B6863600C0016E00C004968E9E7174C2368002B03D1300000F051F820602900300000F04CF8431C18D00323C41C9C43A0420DD12560300000F054F8200039
:4069000007220B30231D9043C31A0ED05A42E2500BE0211A300000F033F8431CEBD10C233000336000F03FF8002070BD504D00084C4D0008F8B506000C001500002904D14D
:406940001100FFF797FF040018E0002A03D1FFF745FF2C0012E000F027F885420ED929003000FFF787FF071E07D021002A00FFF7CEFB21003000FFF731FF3C002000F8BD08
:40698000002370B5064C05000800236000F018F8431C03D12368002B00D02B6070BDC046C44D0008704770470B1F1A68101F002A04DA891804390B68D018043870470000A0
:4069C000044A1368002B03D01818106018007047014BF9E7544D0008C84D0008FEE7C046F8B5C046F8BC08BC9E467047F8B5C046F8BC08BC9E46704701B40248844601BC72
:406A0000604700BF550700085374617274206164766572746973696E670A000044657669636520646973636F6E6E65637465643B20737461727420616476657274697369DD
:406A40006E670A006761747420636F6E6E65637420696E64210A000047415020636F6E6E65637465640D0A0043595F424C455F4556545F444154415F4C454E4754485F43DD
:406A800048414E4745200D0A000000004661696C656420746F20736574205048592E2E5B626448616E646C65203078253032585D203A2030782534780D0A00005365747400
:406AC000696E67205048592E5B626448616E646C65203078253032585D200D0A000000005570646174696E6720746865205068792E2E2E2E2E0D0A00534554205048592069
:406B00007570646174656420746F2032204D6270730D0A005345542050485920436F756C64206E6F742075706461746520746F2032204D6270730D0A00000000726563656B
:406B400069766564204741545420577269746520526571756573740A000000007374617274206E6F74696669636174696F6E730A000000006576656E743A2025580A00000A
:406B80000A5541525420776F726B696E670A00006D61696E5F636D30702E63007374617274206E6F7469660A00000000436F756C646E27742073656E64206E6F7469666974
:406BC000636174696F6E2E205B43595F424C455F4552524F525F494E56414C49445F504152414D455445525D0A0000004174747268616E646C65203D203078202043795F63
:406C0000424C455F47415454535F4E6F74696669636174696F6E20415049204572726F723A2030780A0000006E6F74696669636174696F6E2073656E740A0000030000003B
:406C400001000000010000000000000005036000040000000100000000000000010000000604600008000000E03D0008D504001073797374656D5F70736F63365F636D30D6
:406C8000706C75732E63000008005A00030000000300180003000000F4010000140004010A00090508000000630100000300000000000000000000006800000000000000FF
:406CC00000000000000000001212000000000000000000000000000000000000000000BA0000000000000000000000000000000000001D1D47656E6572617465645F536FCC
:406D0000757263655C50536F43365C70646C5C647269766572732F7065726970686572616C2F6970632F63795F6970635F6472762E68000047656E6572617465645F536F69
:406D4000757263655C50536F43365C70646C5C647269766572735C7065726970686572616C5C6770696F5C63795F6770696F2E630000000047656E6572617465645F536F6C
:406D8000757263655C50536F43365C70646C5C647269766572735C7065726970686572616C5C6770696F5C63795F6770696F2E680000000047656E6572617465645F536F27
:406DC000757263655C50536F43365C70646C5C647269766572735C7065726970686572616C5C6970635C63795F6970635F6472762E68000047656E6572617465645F536F22
:406E0000757263655C50536F43365C70646C5C647269766572735C7065726970686572616C5C6970635C63795F6970635F6472762E63000047656E6572617465645F536FE6
:406E4000757263655C50536F43365C70646C5C647269766572735C7065726970686572616C5C6970635C63795F6970635F706970652E630047656E6572617465645F536F44
:406E8000757263655C50536F43365C70646C5C647269766572735C7065726970686572616C5C70726F745C63795F70726F742E630000000047656E6572617465645F536FFF
:406EC000757263655C50536F43365C70646C5C647269766572735C7065726970686572616C5C737973636C6B5C63795F737973636C6B2E630000000047656E65726174659C
:406F0000645F536F757263655C50536F43365C70646C5C647269766572735C7065726970686572616C5C737973636C6B5C63795F737973636C6B2E680000000047656E657D
:406F400072617465645F536F757263655C50536F43365C70646C5C647269766572735C7065726970686572616C5C737973696E745C63795F737973696E742E6300000000F3
:406F800047656E6572617465645F536F757263655C50536F43365C70646C5C647269766572735C7065726970686572616C5C737973706D5C63795F737973706D2E63000010
:406FC0000000204000002440000000400000000000002340000030400000314000009F40000022400000104002020202020202020210101D800017007500FF030602063617
:4070000004102000000000007FC0000000040000000000000019324B647D00804000080B100000000000FF012002001F00800004FF081018001000140018001C4044484C1B
:4070400050000000081000000800000004000000041000000012000004210000002100000016000040114002C41300138013A013200000001C000000000021400000254055
:40708000000001400000344000002440000031400000324000001F410000234000001140010101010101010101101010800019005500F0000501053B04101C010100000031
:4070C0000FC000000004000001010101011D3A57789600082000101208000000001F00000010000F002000023F06080E00080009000A000B24282C303400000010000000DD
:407100009000000088000000080000008000000004F0000000F00000400200002005A000D00100018001A001200000001000000047656E6572617465645F536F7572636541
:407140005C50536F43365C70646C5C647269766572735C7065726970686572616C5C7363625C63795F7363625F756172742E680047656E6572617465645F536F7572636536
:407180005C50536F43365C70646C5C647269766572735C7065726970686572616C5C7363625C63795F7363625F636F6D6D6F6E2E6800000047656E6572617465645F536FD8
:4071C000757263655C50536F43365C70646C5C647269766572735C7065726970686572616C5C7363625C63795F7363625F756172742E6300D4000500300001002800020037
:40720000D40002000C00010000316253C4F5A697B988DBEA7D4C1F2E4372211087B6E5D4FACB98A93E0F5C6D86B7E4D5427320113F0E5D6CFBCA99A8C5F4A79601306352A7
