:020000041000EA
:4000000000000208230100100D0000008501001000000000000000000000000000000000000000000000000000000000810100100000000000000000810100108101001029
:400040008101001081010010810100108101001081010010810100108101001081010010810100108101001081010010810100108101001081010010810100108101001060
:400080008101001081010010810100108101001081010010810100108101001081010010810100108101001081010010810100108101001081010010810100108101001020
:4000C00010B5064C2378002B07D1054B002B02D0044800E000BF0123237010BD983800080000000028750010084B10B5002B03D00749084800E000BF07480368002B00D1FF
:4001000010BD064B002BFBD09847F9E7000000009C380008287500106C060008000000007047FFF7FDFF72B60F4C104DAC4209DA21686268A368043B02DBC858D050FAE7F4
:400140000C34F3E70A490B4A0020521A02DD043A8850FCDC084809490860BFF34F8F00F097F800F03FFCFEE7189002103090021098380008D84900080000000808ED00E0D1
:40018000FEE7FEE700B504207146084202D0EFF3098001E0EFF30880043002F021FAFEE710B5314A8EB0030090425BD00CD82F4A90422CD02E4A904239D08022520190422A
:4001C0004BD1002108000CE02A4A90420CD02A4A904231D0294A90423FD100200100284B187000F003FE3DE0264C0222200004F072FC200002221030210004F06CFC224B60
:4002000020781B685B88A381A523238111E01D4B01AC1B78237000236370A3800233E370A37007F020FB20000CF0E4F91AE0154B18780CF0A7F915E0134B0A891B68DB88F3
:400240009A420FD10B681B78012B0BD10C4A137000220C4B1A7540BF04E00C4A322101A804F062FD0EB010BD074000000920000015200000015000000C5000000840000026
:4002800000000208B4380008C00000081A630010B022E0213020F0B5D74BD84CD84FD2003B60A35889005B005B08A3506358D54E8343635080235B04A350D34BA022A351F4
:4002C000B1239201DB00E250FF22C025CF4B6D00E25080226359D2059B009B0813438022635163591206134301226351635995B09343635102F05AFD8023C4491B01E358D0
:4003000062680291FF2103970596C14F0A4213D1002B11D180231B06BB64BB6C6359FE39BC4A0B4203D1A3588B40CB40A3508021A35809060B43A350012002F07FF9E82057
:400340007A6CB54B80011A4002437A647A6CB049120AD2B204933A2A04D14B6CAF4A134003434B64AE49AF4802F022FE80213220C90502F01DFE3422002107A804F0B4FBBB
:4003800007A9002002F060FD3422002107A804F0ABFB07A9012002F057FD082204263B68A14D13433B603B69334207D1002D04D0012002F017F9013DF5E701E0002D00D163
:4003C000FEE7A0220321D200A358049D8B43A350039B8A4E1B681A00180088321968126808308A1811682940802511601A68C16F6D0451180A681202120A2A430A60C26F1B
:40040000196804988A181168014011601A003E321178002907D0E0200F2580003158A9430E3D294331501178002905D0E020302580002158A94321501178002906D0E020A4
:400440008025800021582D06294321501178012905D9E1200F2580002158A94321501178012905D9E120302580002158A94321501278012A06D9E1218020890062580006F6
:40048000024362503C331A78022A03D9D22200219200A1501A78032A03D9D32200219200A1501A78042A03D9D42200219200A1501B78002B06D0C02311229B00E2500D3A7C
:4004C0004033E250B022D200A1584C4B002929DB56498020995001220599B2265A50B1225349D2009950029A00069958514A524D0A40802189000A430299F6005A50029AFC
:4005000099584E4A0A40DB2109040A4302995A504B4A995801439950029A02999A5802435A5006E0FEE7002D07D0012002F05AF8013D0422A3591342F5D0B1208026C0009D
:4005400023584049B6050B4033432C4A23500E00002D0DD0B0218020C900535800060343535005E0002D1FD0012002F03BF8013DB2220121D200A258204B0A42F2D0002D39
:4005800012D0B121C020C9005A58800502435A50039A11680A003C321278012A18D9D12200209200985013E0B1228021D200A358890533400B43A350083AA3585B005B0886
:4005C000A350029B029AE3585B005B08A350FEE73D310B78002B0ED0C023DB00E058074A002808DB1848D050D0583040D050097800292BD140E0FEE7D8550010000026402C
:40060000103B000884050000010002008C050000000027400C050000FF00FFFFFFC5FFDF070E0040050E000020A10700B80B000145C80000FFF8FFFF400D0300FFFF00FEF1
:40064000087F0000FFFFFFCF4B0202008020C826D15800060143C04DD150F6000120A259BE4B024206D1002D03D001F0BBFF013DF4E701E0002D00D1FEE7B94AB9499C58F2
:400680000426214099509C58B7492140995080219C5809060C439C50043A9D58B34C2C409C509D58B24C2C4080256D012C4380259C509C582D022C439C503C68AD4A224032
:4006C0008024640022433A60039A12681500A03514682A68A84DA218002414602A68B2432A60A64D5A59114359515A5982431043585102F05BFB039B1B681A003F321178F7
:400700009A68052901D99E495450190074310988049889180A6800240240D420800102430A6018001A00723070320078127899687333824018780323834013438022120632
:40074000134380220625D2008B508B588D4A8E4B1A602B0063438D4A0134D31838335A79197912020A4359781F7898780902394300040E000100D87831430006084300215B
:4007800004F0B2F90C2CE4D1002523006B43804A01359E5CD3185A78987812023243000411000200D8780A430006597A10431F7A1A00090239430E000832997AD27809049B
:4007C000314312065E790A43197936020E439979090431430E00D9790906314304F07BF9122DD2D181216B4A4900136807AC0B43136000212422200004F076F92100664826
:4008000002F066F9654D22002B00583343CB43C243CB43C243CB43C22100614802F058F92B0022007C3323CB23C223CB23C223CB23C221005B4802F04BF922005A4B20330E
:4008400023CB23C223CB23C223CB23C22100574802F03EF9564A574B1A6002F0F5F900F077FF212803D10022534BDA605A60534B80221F0052499A610A682037DF613132E2
:40088000127802910393042A14D9042001F03CFE06004C4D102228600021380004F024F90021300002F0C6F82868039B02681833002A48DB444D2B68002B02D1039B303304
:4008C0002B60029B414F1B681A0051321278002A1CD0012639002680DB8E10310333A37066603B4B08220020009401F0CBFF0021384B0A000091300001F0C4FF36492000E0
:4009000001F044FF0023E05E01F0B2FD3B00334A3033136002221A70FD325A7000237B86029B1B681A0050321278002A11D051331B78002B0DD02B68DA69022A09D91B6A50
:40094000274A9A6005E00021C360816002F072F8B0E715B0F0BDC046102700000000264004050000FEFCFFFFFFFF00FFFFF0FFFFFF8FFFFFFFFCFFFF10E000E00C050000A9
:40098000140C00000300FA05F001214058560010D85600100079344000003240585700108002324000033240D85700100005324001001180000E1F41E0002340B438000853
:4009C000103B0008B43A0008043B0008343A00080503600006046000552A00100C3B0008D5060008F0B59DB062B6A54DA54A2B003433A5491B781163A44F002B1CD10432AB
:400A00003A60A34A1160A34A1370A34A1370A34A1360A34A1370A34B1A79002A03D1A24A1A6001221A710023A04A1370A04A13702B00012234331A709E4904AE09AC1422BB
:400A40004431300004F047F84C220021200004F04BF8994B1D220993984B02A9A3810523A3733B6852181B69A6602361944B6361C82323836383C53B2377013363770233F7
:400A8000A3770A33D3771E225218D377592212335B18DA87583A1BAB1A708A4BDA68002A17D01A68002A14D01979874889000A5800269446002A04D09A420AD016005269A2
:400AC000F8E76246002A00D0D7E0435000221E615A6106F0C2FE06F0C6FE0FA806F02EFF061E27D1794B63603B68996B002905D03E2002AB2222C01803F0EDFF200006F021
:400B0000C5FE061E13D10123714A1370714B1870714B18703B681A6A9B6A0292DB8802AA9380A0231000D3800EF01EFD060000225A4B1A60694B6A4A6A491A600022C02001
:400B40001A64996407218000195010301A5001205864802080001950C12189005A500139FF391A655A5060495A5060495A508021EA636A64AA63AA656A662A64AA661A68BB
:400B800009060A431A60524B1B78022B02D027F00DFEF8E7002E27D1554C02F036FBE36F0700DB43534D544E9B070CD102F02DFBE36F524A2B401343E367102332681A42D1
:400BC000FCD002F026FBB0234D494E4A9B00D150E36F1D404C4B1D431023E56732681A42FCD0380002F015FB0023AA26474A484913700B60474901920B7527F0D7FD019B0B
:400C00001B78002BF9D0424C434B22681B689A42F3D0404D204A6B78D25C002AEDD1002BEBD12C4B1B78012BE7D920680A21013002F062FC21602368384F73432A7DA033A1
:400C4000FA54206821687043354BA130890038185918042203F03FFF23687343FF180E4B6F601B78002BC8D1281D0DF0F9FD0028C3D12B7D01332B75BFE7736126E7C0469C
:400C8000343A0008C0000008A1010010CC3A0008F43A0008C83A0008D83A0008D43A0008EB3A0008A83A00083D170010F83A0008E83A0008D8570010F11B0010902E0000CE
:400CC0004A0C000034030008143B0008D8080008D03A0008EC3A0008D13A0008000066400B08000201000A00C80F0000880F000004002140FCFF0000880021400100FA0550
:400D000000000810000021400300FA0500000208A8060208B4380008AC06020804000208B0060208F8B5060000200F0004000125074B1A7994420AD2064A12782A4206D039
:400D4000A200D3583900300098470134F0E7F8BDA83A0008C83A00080C4B82B05A78002A09D10B490978012905D91B781900834203D0FF3200E0FF221100FF231940080063
:400D800013401B02184302B07047C046ED3A0008EC3A0008144B70B51B681B68002903D19A68D47F00230EE0DA68FAE7A3420CD200290CD1D55C002D14D00133D65C0121F9
:400DC0001B2EF3D05B190021F0E700290AD08479D1184C700021455C5C1814190131A5700629F8D170BDC046CC3A000870B502282FD800292DD11E4B1B78012B2DD81D4CE0
:400E00002378002B27D11C4A13701C4B002809D11A681168526895880D82158849680D8052880AE0012809D11A681168526895890D82158949680D8052894A80104A1B68DF
:400E4000107018680AF0ACFA00280FD1012323700CE00C480AE00C4808E0084B1B681B685B681B79023B012BC9D9084870BDC046EC3A0008D13A0008EA3A0008CC3A0008F4
:400E8000EB3A000801001600FF001600020016007047000000487047110016000048704711001600004870471100160000487047110016000048704711001600004870474D
:400EC0001100160000487047110016000048704711001600004870471100160000487047110016000048704711001600002070477047704710B5054B1B6844331B78002BFB
:400F000002D0002101F078FB10BDC046103B000810B501F0B9FA10BD10B502F07AF910BD10B502F072F910BD04207047174B70B5C318DA179B185340042B22DD8023144E71
:400F4000144D1B027459A405A40D984209D9124B0521C01802F060F9201AC343DB17184009E00E4B0521181A02F056F90C4B0019984200D90B4873599B0A9B020343735177
:400F800001E000242000201A70BDC0460080FFFF000026403C0500000280FFFF02800000FE030000FF030000F7B5070003200C00150001F09BFC474B984200D185E0464BC3
:400FC0009F4200D983E09D4200D980E0434B9C427DD8FF2F06D80F223B00160013401100072719E03E4B9F4202D80F22174008E03C4B380A9F4206D8FF22390111400143B6
:401000000F00160006E0F0213B0209010B4003431F00354E00210B00FF2D0BD8FF222D011540E0200F3A1143F022C0022B43384312031DE0F0222A481203854203D8280468
:401040001040384314E0280202401743254A954207D8F022280512041040FF223843120406E0F0202D060005054028001F4A38431F4D32432E6807273500B0352D886F43CA
:401080003D000197376AED192F68002FFCDA194F194D2F60194F1A4D2F60A327FF00BC46184DEF598F4361463B436B5016496B589343184368500020144B019A9C60144BB3
:4010C000EC50336AD318586002E0124800E01248FEBDC046010188000F060000FFFFFF00FF040000FF0500000F0F000000000F0F103B00081F1F0000080126403D3D0000E4
:40110000040126400000264014050000A83A00081C05000003004A0001004A00F8B5224B0A00196804000B00B033188807234343096A5B1819680029FCDA1C491C480D6897
:401140000021854205D11B4908681B49401841424141A420194DC0002F5800255D602E00A9421FD03F023E0AAE421BD0144BAC420AD198682100230003F0DEFC23007A0A7D
:401180008018594132000AE09C6830002B00290003F0D2FC2B00620880185941220003F0ABFC06003000F8BD103B0008080126401F1F000004012640C3C2FFFF00002640D6
:4011C000A83A0008024B034AD058C00F7047C0461C05000000002640A023034ADB00D058032318407047C04600002640084B1B685B6B00229A5E002A09DB1F231A401E3BC3
:401200009340044AD367BFF34F8FBFF36F8F7047CC3A000804E100E0044B10B51B685B6B0020185E01F024F910BDC046CC3A000810B501F0D7F910BD10B513F099FF10BD27
:40124000002070470023C05E044B10B558430C00034902F06BF8BD30208010BD4B280000F0D8FFFFAE23008810B55843034B0C00C0180A2101F0D0FF208010BD91FCFFFF99
:401280000020704770B515008022C0B004000E0052000849684603F01EFCA619B44205D0237801345D406B465D5DF7E7280040B070BDC04625630010F0B5CD4CA5440A9334
:4012C000CC4B09900C000692994200D8FBE18B18C94A93420ED9C94A914200D8F3E1C84A934207D9C74A914200D8ECE1C64A934200D9E8E100F024FA002816D0C34B5A6943
:4013000007231340022B05D0DBB2039301230027049327E0052001F0F1F9BD4B07009842F8D001230493DB1815E0BA4BB74AD158E823B022DB005205D25C1F230B40934200
:401340000BD1012001F07AF9B14B07009842F8D0002304930533039304E001230700049304330393F02308261B06E3185D0A07936D02A94BDB68DC682268032AFBD901F0A8
:4013800044FFA54B0190D8680368002B01DBA34C0AE0626813681C00344000D095E133431360002101F046FB019801F032FF002CDFD1802326005B05EB1802930CAB5B1B02
:4013C0000593019433003B4300D042E1019A06998A4200D33CE180229200AA180892079AAA4215D8069A01998A4211D9099A525C05994A55002B07D180235B05EB181B7802
:40140000D31A5A1E9341DBB2019A0132019205E080225205AA18127805994A55089A01359542DCD10026B34200D1D3E00A9BB34200D0A2E0C82401F007FCE022764B52053D
:401440001A61774A11780B92002904D080211A6949000A431A6100256F4B029A5A619D61DD61704B1B68543318780100A84216D001F0DEFB060001F0CDFBFA210130013634
:401480004643694B694889004643186801F0C4FE0100300001F0C0FE654BC118280004F093F80600012001F09DF8A4233200DB031A409A4203D1013C002CBCD152E05D4B8B
:4014C0009E4200D003E101F035FB5B4B06009842F9D0002846D1C025C824ED0401F0B4FB4D4B0B9A1D611278002A04D080211A6949000A431A618022474B52005A61029AF2
:401500009A610CAADA61474B1B6853331878011E17D001F08DFB060001F07CFBFA21013001364643404B454889004643186801F073FE0100300001F06FFEE1239B00C11888
:40154000002004F041F80600012001F04BF8A4233200DB031A409A4204D1013C002CBDD1013437E0334B01249E4233D101F0E2FA314B06009842F9D02BE001F065FB264B58
:401580002F4A31001A61029A5E619A610CAADA61244B1B6852331B78002B15D001F048FB040001F037FBFA210130013444431E4B244889004443186801F02EFE010020009F
:4015C00001F02AFE204BC1188020400003F0FCFF06000124802292009446029B1B4A634494460293059B089D63440593EAE6C046CCFDFFFFFFFFFF0F00001010FFFFFF1312
:4016000000800014FF070016000A001600002640040042001CFF0000A83A0008030188000B000016103B00082C03000860F59000980800000100500002005000808D5B0062
:4016400000010005C0EA21014826000000FEFFFF1E00002C04D00122214B1B685B689A600021032001F05EF90028F9D1002F01D01C4830E000F064F8002809D0039B022B37
:4016800006D1022001F03AF8174B07009842F8D0164B1B681B0209D4049B002B06D1002000F0CCFF104B07009842F8D0002FDFD10F4B9E4207D00F4B9E4204D03800002E41
:4016C00009D00D4807E00D4805E00D4C69E6002E00D100E77DE78D239B009D44F0BDC046103B000812001600040042000000264002005200060052001300160001001600B7
:401700000201880010B501F035FD0221074A084C084BD15023680849586B01F037F823685B6B0020185E00F0A3FE10BD00003C40CC3A000878F00100F12300100020704708
:40174000024B58694000C00F7047C04600002640B0235B055A782120002A01D05878C0B270470000F0B587B00290002800D184E1C64C63689B030ED501F047FDE8216368BC
:40178000C34A890113400B43636063681A406260636801F03EFDBF4DBF4AC04BD15801921A00002906D0013D002D03D0012000F019FFF1E7BA4B0199C8580121039308425B
:4017C00005D0B84BB448C3580B4200D057E1019BB14D9B58002B00D051E101F0CBFCB24AB24BEA50A022029B12031B781343B04AAB50B04AB04BEA50B04B5A6801231A4242
:4018000000D03EE1AE4A116F08220A4008D1AD4BAD4918681300884202D901F0FDFC431E019A1268002B03D05803A84B034300E0A74B1343019A984D1360FFF781FF002823
:4018400018D0A44D2B6844331B78002B03D00121032000F0D1FEFFF773FF2B6844331B78002B0CD000280AD08022A369D2051343A36104E00321984AAB580B43AB50019B31
:40188000039A03999F58954B019A3B435350402000F0A8FE924D019B7F4E5A5901231A4208D17351402000F09DFE03234020735100F098FEFA258B4B8B4E1F40039A019B2D
:4018C0003E439E50ED00894A894BD3581022134207D1002D00D1D6E00120013D00F082FEF1E7002D00D1CEE00821824A019B9B580B4301998B50774B1B6844331B78002B93
:4019000006D0A3695B0005D4604B9B69002B01DB794E3E43794B019A1E4001231D0003991E43774C56505F4B019AD3582B4207D1002C00D1A7E00120013C00F053FEF2E77E
:40194000002C00D19FE0C0270B267F01C0216D48490101F0C5FB041E05D104AB991D694801F0E2FB0400013E002E00D12EE1002C24D104AB9D1D2B88BB42E7D129006248D0
:4019800001F0D2FB041E19D180272B88FF003B4200D0D9E00B2680215B48C90001F0A0FB041E04D12900584801F0BEFB0400013E002E00D10AE1002C00D1C1E0FFF7C8FE43
:4019C000212843D0B027514E7F05BB5B002B3DD0002C00D0FCE004AB9D1D29004C4801F0A3FB041E00D0F3E0C021B85B2C88084060398C434008474920430140F020BA5BF8
:401A0000C000BB5BD201024011439B05424A9B0F1140DB0219433E48298001F061FB041E00D0D5E029003D4801F07EFB041E00D0CEE0C022BB5B29889B069B0F9B019143C8
:401A400019433648298001F04BFB0400002C00D0BEE0029B324859781D78324B4900194301F03EFB041E04D12F49304801F038FB0400680100F0B6FDAAE02D4CA8E02D4C26
:401A8000A6E02D4CA4E02D4CA2E0C04600002640FF00FC0FF17E0E0000003C406CF00100A0F00100B4F0010006000001A4F00100A8F0010001000100ACF00100FC003C405A
:401AC00000F03D403003000800093D00041A0080040A0080103B0008C4F0010030000300B0F00100EFFFFEFF20000200000032401040000068F0010028000200FFFFFBFFA6
:401B0000F07E0E00021E0000031E000016180000071E00007FF5FFFFFFE7FFFF061E0000081E000001100000376800000F1E000001001600030016000200160004001600B6
:401B40002B88BB4200D026E72900234801F0ECFA041E00D032E72A883F2310009843029B1E499E78DB78012E0DD10222012B03D89FB2D61BB6B201E0260017007022104311
:401B80002880174A0CE0002B02D02600012701E001261F007F2082436F3802432A80114ADA400A6029880C483943298001F098FA029BB600DB78019ADF1B03231F403E43F7
:401BC000094BB6B22E800400D650F7E6074CF5E6200007B0F0BDC046091E0000500300080048E8010024F40064F00100040016000122F0B5C44F89B03B78050013433B70B5
:401C0000C24B0C003E00984200D10AE133D8C04B984200D192E018D8BE4B984200D1AEE004D8023B984265D0BB4B5BE0BB4B984200D1AFE0BA4B984200D072E23B00012743
:401C400030331A7817431F706BE2B64B98424DD006D8B54BB54A98425AD0904258D060E2B34B984200D1DFE000D9C3E0B14B984200D1A6E055E2B04B984200D191E11DD8CF
:401C8000AE4B984200D102E108D8AD4B984200D11EE2AC4B984200D1ACE042E2AA4B984200D173E1A94B984200D03AE20B8803A80380C82343800CF0BFFD32E2A44B984216
:401CC00000D105E205D8A34B984200D100E2A24B08E0A24B984200D1FDE1A14B984200D1F6E1A04B9D4200D1F2E11AE2080005F06FFFE8E19C4B9A79002A00D039E29B4A89
:401D00001978002900D01AE201339342F8D130E2002333727372B372954200D001E2944B944A197A1F1D89008E583000002800D1F7E1B84200D1EDE14069F7E70123F9683C
:401D4000194000D0EDE103AE0322300002F0CCFE7B6830009B6A1B7833700AF073FC7B6830009B6A5B78337001237370FF23B3700AF068FC0122FB681343FB60D1E1487812
:401D8000FEF7EAFF03AA83B210801B0A2278FB181A74C6E10B78002B00D0C2E10B7A002B0AD109337B8397333B83734A734B9B187B613B0014334B600122337893433370E0
:401DC000AFE14879FEF7C8FF03AF83B23880721C1B0AD3186278DA77E378002B00D0A0E16079FEF7B9FF012381B2090A76183880B37296E12378002B10D1A278012A00D108
:401E000073726078FEF7A8FF03AA83B210801B0AFF2B03D0A278B11CCB18DA77022333727FE102233B727CE1FEF77CFF01223B78134200D175E17B7A934202D102237B72D0
:401E40006FE1032B01D100231FE0022B00D068E100237B72FB1CD97F0E237A684B435268D3189A79002A00D15BE19B88002B00D157E13B1DDB7F002B00D052E10120FEF74E
:401E8000B5FF002800D04CE10123737249E14B78002B02D102217A1DD17730005B002530C0180222210002F016FE0022607833181A740523052258432178314B51431818BA
:401EC00073681B6959182F4BC91802F004FE0523677800225F432A4B0421DF193800FFF7D1F93B7983420CD0F36A0021264898470523607805225843214B0021181802F0DD
:401F0000F3FD21000D4802E1C83A000808400000042000000210000001100000031000000410000019300000013000001230000006400000044000000C50000001500000A5
:401F40000A400000104000000250000003500000105000000E5000000F500000175000000160000014500000000800160608001630030008143B0008902E0000D80800085F
:401F8000EF3A00084A0C0000040001004978002901D17B1DD97700237618B37221009748B5E07B680A895B699B889A4205D021009348FEF7B7FE00904FE00A0003AB43CA4E
:401FC00043C3002302AA138202A9A28912335B181A80402303A80B750DF0E4FA061E009034D102AB998914234B437A68143B116ACB18596889011FD502A9C97C0520019124
:40200000390027318C4601991B694843D2695B6803999B1AC01802AB1A89604402F05BFD019A7B1C9B18DB7F012B05D13A000221303213780B43137023681A78714B920761
:4020400000D4D4E02100DB6A6F48984701216D4A13788B431370002EA9D003AE06220021300002F041FDA389664F338023897380122333713B78DB070CD4009B002B06D009
:402080006B461B78300073710CF0C8FB02E0E0680CF0F4FB11233A781A4203D021005848FB6A984701223B7813420CD02389591E132908D912217380A389300031713380BC
:4020C00072710CF0ABFB01223B7893433B7028E0210028001BE049884B1E132B15D86378002B12D114334B437A68143B116ACB185968890109D539001B6927315868D369CC
:402100000222C31AC91802F0E6FC21003F48FEF709FE06E0864262D19B6953500022002B63D11122374B1978114264D001211A7828008A431A702100DB6A98475BE0344840
:402140000AF0FCF900213248FEF724FE01213048FEF720FE2B4E7368986A02300AF0E4FC08222C4903A802F0B6FC03A80AF028FA54E67068836A1B79002B24D0B026264B01
:402180007605F25C254B3F27F15C254B3940F35C17409C46C023DB00F35C1F26009363467F221E4089013603009B314339431A400B0052041343026B1370016B1A0A4A709C
:4021C000026B1B0C9370006B0AF0B8F90D4B00215E68306BFEF7DEFD0121306BB8E75A69996951619B69002B9BD01A6199E7DB6A21000C4829E709B0F0BDC0460250000098
:402200000C500000C83A00080500010017500000000800162564001004060000050600000306000006000100B0235B059A89002A02D0988980B201E08020400070470000D2
:4022400070B5FFF7F1FF8022144B52001B6890420CD1190098311A680B68D2181168104B0B408021C9010B43136015E01A00983219681268B0258A18C0210A4C6D052E5947
:402280008900106831430143116019009C311A680B68D3182A591A6070BDC046103B0008FF8FFFFF4C18000010B5FFF7BDFF8022104B52001B6890420CD1190098311A685F
:4022C0000B68D21811680C4B0B40C021C9010B4313600EE0B021094A49058858190098311A680B68D318C0221968920002430A431A6010BD103B0008FF8FFFFF181800001B
:4023000070B5FFF791FF8022194B5200904215D119680F240B00032098330A681B68D3181A68A24302431A600A009C320B6812689A181368A3430343136017E01B68B0254F
:402340001A00983219681268C1248A18C0216D0564012E598900106831430143116019009C311A680B68D3182A591A6070BDC046103B000870B5FFF757FF8022194B52007C
:40238000904215D119680F240B00022098330A681B68D3181A68A24302431A600A009C320B6812689A181368A3430343136017E0B0241B680C4A6405A5581A0098321968B3
:4023C00012688A18C0211068890029430143116019009C311A680B68D318044AA2581A6070BDC046103B0008481800004418000010B519F00BFF10BD084B10B51B681A6931
:402400008023DB01D458FFF7A3F90123222803D80E33234058424341180010BD103B000810B50A00002808D0FA23FF33994204D8034902F050FB002000E0024810BDC046A1
:40244000070800160100160010B50A00002809D0FA23FF33994205D8F93BFF3B0249FEF72BFF00E0014810BD0708001601001600002805DB1F2318401E3B8340014A1360C3
:402480007047C04600E100E070B5174C06002368002B09D100F0B9FE23680500002B0DD0042000F0ABFD09E0012000F0A7FD0028F0D0022000F0A2FD0C4813E004210C4A8C
:4024C00013698B431361012E01D030BF00E020BF280000F09EFE2368181E03D0082000F08DFD002070BDC046143B0008FF00420000ED00E0034B1B68B4331B68C018006853
:40250000C00F7047103B0008044B1B681A00B03212881B6A5043C0187047C046103B0008F8B50500FFF714F984B2FFF77DFE8022234BD2011B6807001969802688580F2258
:40254000760010400FD1B7420FD1222C30D880225C681C491C4B66582D065204154033401D4365502AE0B74220D00020FFF7CCFF0400B74203D1002D05D1144B06E0002D16
:4025800003D1134B02E0134B00E0134B2268002A13DAE3600123A3602000FFF7ABFF0028FAD1E3681B0EA02B07D107E0222C04D90020FFF7A9FF0400DDE70848F8BDC046F3
:4025C000103B000818F00000FFFFFFFE010000300100000C010100300300000C04004200FEE7000010B5034B1B78584300F004FE10BDC0464C030008002270B50D4B1B685C
:4026000044331B78934203D00B4B9A6907231A4090420DD00723084DAC699C4303402343AB61002904D0904202D9C820FFF7DAFF70BDC046103B000800002640F7B5070034
:40264000FFF7F2FD80235B00984209D000F0DDFDB0230190234D244A5B05002F06D012E0FFF7CAFE0028F1D1204E38E0AF50E8220120D2009C5CFFF753FFE4B2061E20D14C
:40268000FFF778FE11E01A4903205958A9501F21184A9C5C184AE4B2AB588B4314390B43AB50FFF79FFFFFF7CBFD1F2312491C406A589A4314436C50002F06D1FFF7F4FDAA
:4026C0003E00019800F0A5FD09E00720FFF78AFFFFF716FE0020FFF723FF0600F1E73000FEBDC04600002640307F00000300420010180000410700001CFF000070B50400C3
:40270000FFF792FD80235B00984205D000F07DFD0500022C0ED105E0FFF76EFE0028F5D1184E2DE00120FFF7FBFE061E1AD1FFF721FE0BE00721144A342053698B43043983
:402740000B435361FFF74EFFFFF77AFD07230E494A699A43234013434B61022C06D1FFF7A3FD0026280000F054FD09E09120FFF739FFFFF7C5FD0020FFF7D2FE0600F1E7C3
:40278000300070BD0300420000002640F7B5051E01916AD00022835E002B2ADB8278344807683800283004780720012C15D19C0826008643002086421CD1A6009C1BE10072
:4027C0008A403C682034A419266872401700FF228A403A40724022600CE08021802689013C68184036065218304392001051002000E020486E68B601002B15DB0325FF214D
:402800001D40ED00A940C0278C461B4A9C08A400A418BF00E259110062469143FF223240AA400A43E25113E00F249DB22C40083C124AA408A400A418032215409540FC32B5
:4028400011003240A940AA40E7698F433A43E2610A4C0B4DA268AA4208D1A468A24205D1103301999B00995000E00248FEBDC046103B00080100560000E100E000ED00E059
:4028800000000008F7B501922C225043144A1D0A1468FF222418180015401E0C10406560A66020600F00FFF72FFE0E4B20611B681A6A2B0080335B01D318636133041E43CC
:4028C0006D01094B5519ED18019B2E60E3610023A361089B2762002B01D01B88A381F7BD043B0008103B0008081000000A4B1B68DA68136883420DD9430999005B01C31A5B
:402900000120984052688B581840431E9841034BC01800E002487047B43A00080001880004018A00194BF7B51A680193D76804003B680E00834223D90025A94202D100F0AC
:4029400064FC0500019B18680368002B01DB104C10E063095A01A41A0122A24079689B00CB18196811420DD0002491431960002100F060F8002E07D1280000F04AFC03E05D
:40298000044C01E0044CF2E72000FEBDB43A00080301880004018A0002018800F8B50F00012906D0082938D11E4B586800F031FC35E01D4B1B78012B2FD00320FFF796FF21
:4029C0001A4B984229D000F069FB012825D0022004F04FFF060000F018FC124D686025F0E9FE040006281AD0022E0AD1033CB4433000E4B212F092FD002C0BD100280ED0DA
:402A000008E0380012F08AFD022C03D0002801D1FFF73AFD686800F0FCFB054800E00020F8BDC046043B0008D03A000801018800FF00420070B505000C00FFF75BFD002836
:402A400003D0A4B26C60002000E0014870BDC04601008A00F8B51D4B1C686269D5682B0C1FD01B04136020691368FFF743FD002817D0276900263800FFF73CFDB0420CD0CD
:402A8000F868E26903681E0C0378934205D2226A9B009B58002B00D0984731002069FFF7C9FFADB2002D0ED063691D6000251B68636AAB4202D09847656203E0A36A002B9B
:402AC00000D09847A56163691B68F8BD043B0008174B30B51B68CD689A695C69821AD209120112190C6804601C007D342478241825601C007E3424780D69241825601C009B
:402B00007F3424784D69241825601C007C3424788D68241825604C68803384611B7818188B690360CB69002013600B6A536030BD103B000810B50020FFF7E6FCFFF7DAFC93
:402B4000002847D1244B254A1B681800934238D010D8402B2ED005D8002B31D0102B2DD11F482EE0802B27D08021100049008B4227D023E01B4A934214D008D8A02212067C
:402B800093421DD0184AA020934211D016E0174A934209D0164A934208D0164A93420DD115480EE0A42003E014480AE0144808E0C00306E0134804E0134802E0134800E07A
:402BC00000200122124B1B685B689A609A68002AFCD100E00B4810BDB83A00080600520001005000010000F0090000A0040000F0050000F0030000F001005200020052003C
:402C0000030052000200500005005200FF005200103B0008054B1B68190008311A68CB6FD3181868000AC0B27047C046103B0008044B1B68190008311A68CB6FD3181868CF
:402C4000000E7047103B0008E02370B54C4C9B00E2580F231340D022990092000919885807220240032A05D0042A06D0002A10D0444812E0444A10680FE0C02292008958C0
:402C80001F220A40112A01D0132A04D18020000203E03E4801E0FA20C001002B27D1B223B1210322DB00C900E558635866581B0F360F1340164205D0314E7158090F0A40C2
:402CC000012A01D1EA0701D4032B3AD1B023304ADB00E558A158E658C904C90C00F09CFAAD03F101AD0BC90F6843013127E0012B27D1C823C0210322DB00C900E55863584D
:402D00006658360F164205D01D4E7158090F0A40012A01D1EA0703D49B009B0F032B10D1C0227F23D200A658A15833401F26A558090A3140584300F06FFA290C314000F0A4
:402D40006BFAE0239B00E3589B069B0FD840114B1860114B1C691969240A090E013100F05BFA0E4BE1B21860013100F055FA0C4B0C49C01800F050FA0B4B187070BDC0461B
:402D80000000264000366E015003000800127A00840500002C03000800002140300300083F420F0040420F004C030008244B03211B6801201A0070B5A83215881A68AC181A
:402DC00022688A43024322601A681E4CAA181568254015601A00AA3216881A68B5182A688A4302432A601A68B21815682C4014601A00553214780022952C1AD81A00563252
:402E000014780200952C14D81A0057321078022295280ED81A00583210780A00952808D81A005932117895228A429241052152428A1A0F2059680B6883431A430A6070BD93
:402E4000103B0008FFFCFFFF0123F7B50A688340002A02D1544A536001E0534A936083000193524B85001A6813007D331C784E4BE4180F231F00AF404D6826682B40850028
:402E8000AB40BE43334323600B7A474C00939369E41AE40953692401E4181F2303280BD81D00C700BD402668AE43009D1D402B00BB401E4326600BE01D00061FF600B540EF
:402EC0006768AF43009D1D402B00B3401F43676013007C331E78344B4400F6180323A340032537689F43CB682B40A3403B4333602D4B10349E6901231D0085400095EF43D3
:402F00000D693E401D4085402E43274DAE611500254E7E35B4462D784E69AC4465461E4086402D683D4035436646356015007F352E781D4D8F69761935681F40AC460325F6
:402F40008740C86980322840A04038432F00A7403C00009D2C436546A543284330601478114A0425A4184A6A20685600022216408A6A92002A400D6A32432B401A43CB6A47
:402F8000DD0018232B4013430A6BFF2152010A401343FE22019D92001540AB408843034323600020FEBDC04600003240103B0008F8B50D00040000F028F90F4BE4B21E68A1
:402FC000330031006E331B886C319A08B7680988013A2A40C9196A369200521831882940090A4B43D1180B689B0A9B021C430C6000F00FF90020F8BD103B00087FB5204B2C
:4030000005005C681E00042801D0012818D10020002C32D01B4B98420FD0A3682B420AD1E36829001A685B6802920193039302A823689847B4616469EAE7012DEDD11CE0B4
:40304000022804D06369002B05D01C00FAE79B69181E12D01C690020002C0ED0A3682B4209D1E36829001A685B6802920193039302A8236898472469EEE704B070BDC04698
:40308000103B0008FF004200A023034ADB00D058012318407047C0460000264030B5D020C025002307248000AD00094A990089180A582240042A01D14A5901E0032A04D0BF
:4030C0000133052BF1D1002000E0012030BDC04600002640014B18687047C0465003000870B5FA2401260D4B000418400C4D0143E961A4002B6C0A4A0120334205D1002C20
:403100000AD0013CFFF76EFAF4E7002C04D0136C18431064002000E0024870BD0000FF7F00003C4004001600F8B58023FA250C0001271B0218430D4E0004F061AD00326C50
:403140000A4B01203A4205D1002D0CD0013DFFF749FAF4E7002D06D01A6C10431864DB6A0020238000E00248F8BDC04600003C4004001600F0B5154B9DB013A90A00180021
:4031800070C870C270C870C270C870C20AAC1A0020002432E0CAE0C0E0CAE0C0E0CAE0C001AD2A004833C1CBC1C2C1CBC1C2C1CBC1C20748FFF78CFC21000648FFF788FC77
:4031C00029000548FFF784FC1DB0F0BD3064001000013240800132400002324010200349034A8B5803438B507047C04600003C4070F00100000000000230800803D00130C6
:403200000238FCD1C046C0467047EFF3108072B6704780F310887047002243088B4274D303098B425FD3030A8B4244D3030B8B4228D3030C8B420DD3FF22090212BA030C9B
:403240008B4202D31212090265D0030B8B4219D300E0090AC30B8B4201D3CB03C01A5241830B8B4201D38B03C01A5241430B8B4201D34B03C01A5241030B8B4201D30B0353
:40328000C01A5241C30A8B4201D3CB02C01A5241830A8B4201D38B02C01A5241430A8B4201D34B02C01A5241030A8B4201D30B02C01A5241CDD2C3098B4201D3CB01C01A4F
:4032C000524183098B4201D38B01C01A524143098B4201D34B01C01A524103098B4201D30B01C01A5241C3088B4201D3CB00C01A524183088B4201D38B00C01A5241430836
:403300008B4201D34B00C01A5241411A00D20146524110467047FFE701B5002000F0F0F802BDC0460029F7D076E7704703460B437FD4002243088B4274D303098B425FD34D
:40334000030A8B4244D3030B8B4228D3030C8B420DD3FF22090212BA030C8B4202D31212090265D0030B8B4219D300E0090AC30B8B4201D3CB03C01A5241830B8B4201D32A
:403380008B03C01A5241430B8B4201D34B03C01A5241030B8B4201D30B03C01A5241C30A8B4201D3CB02C01A5241830A8B4201D38B02C01A5241430A8B4201D34B02C01A59
:4033C0005241030A8B4201D30B02C01A5241CDD2C3098B4201D3CB01C01A524183098B4201D38B01C01A524143098B4201D34B01C01A524103098B4201D30B01C01A5241DB
:40340000C3088B4201D3CB00C01A524183088B4201D38B00C01A524143088B4201D34B00C01A5241411A00D201465241104670475DE0CA0F00D04942031000D340425340A0
:4034400000229C4603098B422DD3030A8B4212D3FC22890112BA030A8B420CD3890192118B4208D3890192118B4204D389013AD0921100E08909C3098B4201D3CB01C01A21
:40348000524183098B4201D38B01C01A524143098B4201D34B01C01A524103098B4201D30B01C01A5241C3088B4201D3CB00C01A524183088B4201D38B00C01A5241D9D214
:4034C00043088B4201D34B00C01A5241411A00D20146634652415B10104601D34042002B00D54942704763465B1000D3404201B5002000F005F802BD0029F8D016E770478F
:403500007047C04670B500220C4B04000D0001F09DF9002804D12000290001F0F5F870BD064B00222000290000F09AFD01F0ECF880231B069C466044F1E7C0460000E041E6
:40354000F0B556464D4644465F46F0B41D000E034C00CB0F87B0070092468146360B640D98466AD06D4B9C4235D08022430F12041343F6001E43C3009946694B00279C46F8
:403580000023644402932B0368001B0BED0F51469B46400D009500D178E0604B98426CD05B46DA004B0F802109040B4313439B465346D9005A4B9C46002360444246201A25
:4035C0006A40924601901F430F2F00D9B0E05548BF00C0598746374300D088E0002399460233082700260293CDE74346B34649460093029B009A9246022B00D0BFE1002175
:4036000053460122002689461A40444B002136030C0D2405360B2643434C1B0526401E437600D207760816434846310007B03CBC90469946A246AB46F0BD330003434FD0CD
:40364000002E00D1BCE1300001F00AF903000B3B1C2B00DDADE11D220100D31A08393A008F408E40DA40B9461643304B00279C46002360444442029385E753465A46134377
:403680002CD1002300219B46023397E70B4320D05B46002B00D19EE1584601F0E1F803000B3B1C2B00DD8FE102005946083A91408B461D21CB1A5146D9400B0059460B4346
:4036C00051469B469140194B9C4660444042002374E7002300219B4601336FE703236DE70023994601330427002602934BE703230C27029347E70122D51A382D00DCB0E120
:4037000053461A4000210023002689467EE700238026994600223603004B77E7FF07000001FCFFFF70740010FFFF0F80F30300005E4500D972E100D16DE1019B4D46013B7B
:4037400001930023340002935B461E020B0E1E430B020393330C994633041B0C494620000093FFF759FD009B370043430600494620009846FFF7D6FD2C0C09040C43A045B4
:4037800009D9E419731EA74200D95CE1A04500D859E1023EE4194346E41A49462000FFF73BFD0300009A80465343494620009B46FFF7B8FD2A040904120C0A4393450DD96A
:4037C0004346D219013B974200D93AE1934500D837E102235B429C46D219E0445B46D21A4346360433439B460399180C0B0C1D00059309045B46090C0C001B041B0C444302
:40380000049159436B4368431B190D0CEB189C4203D980246402A44660441C0C09041B04090C20185D18824200D2DEE000D1D7E0161A029B9C465D1BAC459B415B42F61AC9
:40384000B74200D106E149463000FFF7E5FC009B04004343494630009846FFF763FD2E0C09040E43B04509D9F619631EB74200D9F3E0B04500D8F0E0023CF6194346F31AC5
:40388000494618000293FFF7C7FC009B06004343494602989846FFF745FD2D0409042D0C0D43A84509D9ED19731EAF4200D9D6E0A84500D8D3E0023EED1924042100434670
:4038C0003143049E059A3000ED1A0B040C0C1B0C58436643534354439A19030C9B189E4203D980225202944664441A0C00041B04000C14191B18A54250D34DD00123194318
:40390000964A019B94466344002B00DCF3E64A0709D00F220A40042A05D00A1D8A42894149428B4411005A46D20108D55A468C4B1A4093468022D2009446019B6344894A7C
:40394000934200DD5BE65A46C908500708435602514601225B058146360B5B0D0A4055E680231B031E4211D05A461A420ED15E461E433603360B2A0089467B4B46E6032B65
:4039800000D1E1E0012BBBD11A40BBE61E433603360B4246744B39E6002BB1D07D194A1EAF4252D91100A542A8D1039A9A42A5D1A6E703003E00283B9E400023994654E610
:4039C00000F04EFF203041E603005246283B9A400021934677E6504600F042FF20305EE6029B0026AB4200D323E7039E0299B44661448846B045B6415B467642F619B21835
:403A0000013B0291974213D290424FD800D18EE0161A9B460DE7894500D28EE674084B46F60735005B081D434B46DB0702938BE69742EDD10399029CA142E5D93E1A9B4682
:403A4000F7E69846CAE61E00A5E6AC423ED874D0110053E70121494252E71C000EE71E002BE71F2D3CDC20230A0058465B1B9840EA4099400243481E81415E461143EE4045
:403A80004B0709D00F230B40042B05D00B00191D99429B415B42F61833023CD55346012200211A40002601238946AFE502235B429C46039CE344A446029B63449846A04532
:403AC000B6417642F6190293B218B1E603988A1E41008142B6417642F619AD19039161E71F225242D31A5A46DA401300202D29D040225846551BA8400143481E81410720AB
:403B00000B4318400026002809D00F2200261A401900042ABBD10B0070077602360BDB0803439946012253461A4000236EE502998D42BBD89B4600267BE603989842C5D3F3
:403B4000110032E70020D7E780265B4636031E433603360B009A8946034B57E5FF030000FFFFFFFEFE070000FF070000F0B55F4656464D464446F0B40D0399464E002B0BCD
:403B800087B00700924680469B46760DCC0F002E69D06D4B9E4235D05B468022DD001204430F13432B439B46C3009846674B00279C460023664401934A4615035000D20F23
:403BC00053462D0B400D914600D176E05E4A90426CD080225B0F120413435C4AED0094461D4353460022DB00604449463618701C6140029017430F2F00D9AFE05448BF007D
:403C0000C759BF465B461F4300D088E000239B469846023308270193CEE74946022A6AD0032A00D109E2012A00D0BBE111400022002300259046CCB200212D030A0D120592
:403C40002D0B1543434A1B0515401D436D00E4076D0825434046290007B03CBC90469946A246AB46F0BD034352D05B46002B00D18AE1584600F0F4FD03000B3B1C2B00DD28
:403C80007BE11D22D31A3A0001005D46DA4008398D4013008F402B439B46B8462E4B00279C46002360444642019385E752462A432CD100250023022297E752462A4321D094
:403CC000002D00D154E1280000F0CAFD03000B3B1C2B00DD46E11D21CB1A51460200D9405346083A954093400D431B4A944660444042002279E7012400220C40124B00257A
:403D0000904699E70025002301226EE703226CE700239B4698460133042701934CE703230C27019348E700238025984600242D03054B81E75D464346019A6FE75D464346D6
:403D40002100019A6AE7C046FF07000001FCFFFFB0740010FFFF0F80F30300004246120C91461A0C9446424617044A461B041B0C5A43604690464A46424310000392624607
:403D80001C003F0C7A437C4342440192220C9246019A5244904506D98246802040028046C24450460390100C049048462404240C1204121905922A0C2D042D0C68432C0098
:403DC000824648467C4350438146200C8046574357444744BA4503D9802040028046C144380C3F04B84648442404240C01900498A044404404905846000C81465846040471
:403E0000200C8246070048465F434C464343604660436446834650464443380C8446E4186444A34203D980235B029C46E34448463F04230C3F0C2404E419574668436F4380
:403E400084464D46504655434243380C814662444A445B44944503D9802040028446654403983F04834604983F0C8446E344C34580414042824610048446019867448446CC
:403E80006744A344BC46A345A4419946D44464428742BF41D4458041E144A04699459B417F424042C8440743120CBA18A045A4415F423B0064422343D71843467D19DB0D6B
:403EC0006D021D435B465A02059B1A43531E9A415B46DB0D1A4343465B021343EA0107D501225C0813402343EA07029E13436D08574AB218002A4BDD580709D00F201840AC
:403F0000042805D0181D98429B415B42ED180300E80104D54F4A15408022D200B2184E48824200DDE7E60124DB08680718436D02530580462D0B5B0D0C407DE6802259460F
:403F40001203114208D0154206D115432D0398462D0B4C46414B6FE65D4615432D032D0B3E4B69E603005546283B9D400023BCE6504600F075FC2030A8E60300283B9F40CA
:403F80000023BB46984689E600F06AFC203073E60124A61A382E07DD00220C4000230025904649E6029EA3E71F2E20DC20222C001800921BF040944093400443581E8341A9
:403FC0001C43F540630709D00F232340042B05D023001C1D9C4292415242AD182B021FD5012400220C4001230025904624E61F202C004042821AD440202E1CD04022961B24
:40400000B5402B43581E83410720234318400025002809D00F2200251A401C00042AD8D1230068076D022D0B0124DB08034398460C40002300E60025E3E7802201241203B0
:4040400015432D0398462D0B0C40044BF4E5C046FF030000FFFFFFFEFE070000FF070000F0B557464E464546E0B40E001100F20F9246C500420F180337037400400A4E0FAD
:404080007F0A3043CF4E17435A00640D520DDB0FC900B24200D1E5E001267340A61AB446534500D1AFE0002E00DC0DE1002A3AD103000B4300D0E4E06B0709D00F232B40A0
:4040C000042B05D02B1DAB42AD416D427F191D003B0200D488E0BB4B01349C4200D110E13A00B94B51461A4001235007ED08520264050543120B640D0B4000212800120306
:404100000D0D120B64052D0515436208AF4CDB072C401443640064081C4321001CBC90469946A246F0BDA74B9C42C5D080231B0418436346382B00DDFDE01F2B00DD30E159
:40414000624620239B1A02009A40664690460A009940F24046464B1E99413243114363460200DA40691A8D429B410D00BA1A5B42D71A3B0235D57A02530A98464346002B80
:4041800000D1C4E0404600F06BFB0300083B1F2B00DDC5E020222900D21A4746D1409F400A009D403A439C4200DDC0E01C1B631C1F2B00DDE4E0202114002800C91AD840F0
:4041C0008C408D400443DA40681E854117002543002471E7424663461A4300D14CE2674645466B0700D069E7012351467807ED08FA080B40054373498C4238D01203640553
:40420000120B640D79E7002E00DC9AE0002A47D06C4A944200D14FE78022120410436246382A00DC08E10143481E81410022C9B24919D219A942BF410D007F42BF183A023C
:4042400000D442E15F4A0134944200D14EE101205D4A69083A4028400843D507054357089A4629E706000E4300D017E714E72900114300D1F9E1802109030A431203120B46
:404280003BE701235B429846C4446346002B72D1691A8D429B413F1A5B42FF1A0D0068E702000A4300D107E7012252429046C4446246002A00D0E6E06918A942B6413F18C0
:4042C0007642F7190D00BAE7002E00D080E0621C5205520D012A00DCF9E06A1A91464D45B6413A1A7642921B9046120200D499E04D1BA9428941C71B49427A1A90469A462E
:404300003CE752460123002513400022F5E6280000F0A6FA20300300083B1F2B00DC39E72A002838824000259C4200DC3EE7264FE41A1740C0E60143481E81410022C9B2CC
:4043400010E7002E00D0F1E0621C94465205520D012A00DCA0E01B4A944500D1C5E06918A94292413F185242D2194908D5070D4357086446A0E6134B9C4200D0D9E69BE6C1
:4043800011001F3CE1400C00202B00D180E04021CB1A9A4015436A1E95410027254300241FE763460200203BDA406346202B71D0402366469B1B98400143481E81411143A7
:4043C0000022CFE6FF070000FFFF7FFFFFFF0F80002C48D0CA4CA24200D1A2E07442A1468024240427434C46382C00DDDBE01F2C00DD44E14E462024A41B3E00A640A246F5
:40440000B0464C462E00E640B4464646644626435446A5406C1EA54134002C434D46EF400D1B28E04A4643464D461A4300D0A5E6002300240025DEE61F2A5ADC6646202282
:40444000921B060096409146B04662460E00D640424616434A4691404A1E9141020060463143C240E4E63C002C435AD0F443A146002C52D14D1BA9428941C71B49427F1A51
:4044800014009A4675E69E4A944200D0C7E613E600227FE700208FE7002C00D0C8E03B002B4300D10FE103000B4300D104E66918A9429B413F185B42DF193B0200D41AE101
:4044C000904B0D001F406446F6E59A4689E63A002A43002C5CD1002A75D102000A4300D1CAE007000D009A46E6E564460022002581E662460600203AD6406246B046202A4A
:4045000000D1B7E040226646921B904001434246481E8141114300228AE6794CA24200D061E707000D0014009A46C5E5002C41D13C002C4378D0F443A146002C20D0704C14
:40454000A24271D04C46382C00DDB2E01F2C00DDBCE02026341BA2463C005646B4404E46A0462C00F440A446444666463443A4465446A54064466E1EB54125434C46E7407D
:404580006D188D4289413F184942CF19140056E6002A2FD102000A4300D184E007000D009A46574C88E53D436F1EBD41ECB200270D1B60E7524CA24236D0744280263604B4
:4045C000A1463743BEE702000A4300D174E56A1A90464545B6413A1A7642921B9446120200D4F7E54D1BA9428941C71B49427F1A9A4661E502000A433AD0ED087C072C4381
:404600008025FA082D032A4208D0C7082F4205D145072C003A009A46C9080C43670FD200E5001743364C47E507000D00140043E53A002A4343D002000A4319D0ED087C07A8
:404640002C438025FA082D032A4207D0C6082E4204D147073C003200C9080C43D700620FE50017439A46264C26E50022002544E5234C21E5002049E700230025BBE54C462F
:404680003E00203CE6404C46B446202C31D040244E46A61BB7403D436C1EA54164462C4300270D1BE7E6802200231203144C0025A1E53D436F1EBD410027EDB260E7070088
:4046C0000D000F4CF8E407000D00F5E44E463C00203EF440A0464C46202C0ED040244E46A41BA7403D436F1EBD4144460027254346E70027CFE70D0073E50027F2E7C0464E
:40470000FF070000FFFF7FFF0B0330B5134D1A0B4B005B0DC90F0024AB4211DD104CA34210DC8024640322430E4CE41A1F2C0CDD0D48C31ADA4013005C42002900D11C00B9
:40474000200030BD094BCC18FAE7E040084CA44663449A4013000343EEE7C046FE0300001D0400003304000013040000FFFFFF7FEDFBFFFF70B5051E28D000F071F8154B35
:40478000154A1B1AD21A1F2A16DD2C00134A0025D21A94405A052403240B520D002124030B0D240B1B0523430D4C1205234013435B002800590870BD0B212C00081AC440EE
:4047C000954024035A05240B520DE7E700220024E4E7C0461E0400003304000013040000FFFF0F808446101C62468C46191C634600E0C0461FB500F0F5F8002801D40021EB
:40480000C8421FBD10B500F049F84042013010BD10B500F0E7F8002801DB002010BD012010BDC04610B500F0DDF8002801DD002010BD012010BDC04610B500F06FF80028EE
:4048400001DC002010BD012010BDC04610B500F065F8002801DA002010BD012010BDC0461C2101231B04984201D3000C10391B0A984201D3000A08391B09984201D3000908
:40488000043902A2105C40187047C04604030202010101010000000000000000F0B55F4656464D464446F0B41F035C00DB0F9A46194B0E034D00C90F8046360B6D0D8B46AC
:4048C00091463F0B640D9D4219D0134B9C421BD00123A54206D018003CBC90469946A246AB46F0BDBE42F6D1C845F4D1D34510D0002DF0D1304303005A1E9341EBE73100C7
:4049000001230143E7D1E0E73A430123002AE2D1DEE70023DFE7C046FF070000F0B55F46444656464D46F0B41F033C0B2C4F0E034D00A3465C008446360B6D0DC90F9046F7
:40494000640DDB0FBD422BD0254FBC422ED0002D0ED130430700814678427841002C17D15F463A4314D14B460020002B0AD006E0002C02D15846024301D099421AD001235F
:40498000484218433CBC90469946A246AB46F0BD0028F2D058425841012240421043F1E737000743D0D002204042EBE75F461743CDD0F8E7A542E2DC05DB5E45DFD808D029
:4049C00000205E45DED248424841012340421843D8E7C445D3D80020C445F4D3D2E7C046FF070000F0B55F464D4644465646F0B41C03240BA4462F4C0F034D005E00C90F19
:404A000080463F0B6D0D8B469146760DDB0FA54220D0284CA64222D0002D12D1384344424441002E20D0002C0DD05C42634101245B421C4320003CBC90469946A246AB46EC
:404A4000F0BD002E17D05B4519D05B465C4201231C43EFE7390002240143EBD1D9E7614602241143E6D1D7E761460A43DBD100240028DFD0E9E761460A43E4D1E5E7B542C7
:404A800003DD01225C421443D4E7B542CDDB6745DBD809D000246745CCD259464C426141012449420C43C5E7C845CED80024C845F3D3BFE7FF07000030B50024A24208D069
:404AC000035D651C0C5DA34201D0181B02E02C00F4E7002030BD002310B59A4203D0CC5CC4540133F9E710BD03008218934202D019700133FAE77047002B11D1002A0FD125
:404B0000002900D1002802D00021C943081C07B4024802A14018029003BDC046E5E9FFFF03B4684601B5029800F032F8019B9E4602B00CBC7047C046F0B54F464646C0B44C
:404B40001604360C9946330005042C0C070C150C63437E436F4365431C0CAD1964199C46A64203D980235B02984647446346250CEF191D044B464A4343432D0C2404641992
:404B80009918C91920000CBC90469946F0BDC046F0B54D46564644465F46F0B4924683B004000D0099468B422FD82CD04946504600F0AEF829000600200000F0A9F8331AB8
:404BC0009846203B9B4600D574E053465A4693401F005346424693401E00AF4229D826D05B46A41BBD41002B00DA79E0002200230092019301235A4693400193012342464F
:404C00009340009319E08242D0D900220023009201930C9B002B01D01C605D600098019903B03CBC90469946A246AB46F0BDA342D6D900220023009201934346002BE8D0DE
:404C4000FB0772081A4346467B080EE0AB4201D1A2420CD8A41A9D41012024196D410021013E24184D41002E06D0AB42EED9013E24196D41002EF8D15B4600980199001940
:404C80006941002B22DB2B005A46D3402A004446E2401C005B461500002B2CDB26009E40330026004746BE403200801A994100900191AEE7424620239B1A5246DA4041466C
:404CC00013004A468A4017001F4382E7424620239B1A2A0046469A402300F3401343D5E74246202300219B1A0022009101920122DA40019282E74246202326009B1ADE4009
:404D00002F00B446974066463B003343C9E7C04610B5002903D1FFF7A3FD203002E0081CFFF79EFD10BDC0460CB430B5164B9DB00C1E1D6804DA8B2301202B6040421DE095
:404D4000822302A99B008B810023029008619C4200D0631E8B604B6101235B42CB81209A21AB2800019300F073F8431C01DA8B232B60002C02D00023029A13701DB030BC42
:404D800008BC02B01847C04660060008F0B58E6885B007000C00039201939E4243D890238A89DB001A423ED003250969236801985B1A029363695D43EB0F5D19029B6D10DA
:404DC00001331B18AB4200D91D00530510D52900380000F037FB061E14D0029A2169FFF77AFEA289194B134080221343A38112E02A00380000F086FB061E0CD12169380087
:404E000000F0D4FA0C23402201203B60A38940421343A38117E0029B2661F61826606561019EED1AA560019BB34200D21E0032000399206800F0A5FA0020A3689B1BA360D5
:404E400023689E19266005B0F0BDC0467FFBFFFFF0B59FB0029005938B890F0016001B0610D50B69002B0DD1402100F0EBFA38603861002804D10C23029A01381360D8E01D
:404E800040237B61002306AD6B6120336B761033AB7634002378002B03D1A31B049312D003E0252BF9D00134F4E7A31B320039000298FFF76BFF431C00D1B4E06A69049B0F
:404EC000944663446B612378002B00D1ABE00122002352426A6002A95432521801342B60EB60AB601370AB65534E21780522300000F03CFA002807D00123801B83402A6891
:404F0000013413432B60EFE72B68DA0604D55322202102A8121811701A0704D553222B2102A81218117022782A2A03D0099B00200A210EE0059A111D12680591002A01DB9D
:404F4000099204E05242EA60022213432B6001340BE02278303A092A04D84B4301349B180120F6E7002800D0099323782E2B1ED163782A2B0AD1059B02341A1D1B6805927F
:404F8000002B01DA01235B42079310E000230A201A0001346B6021783039092904D84243013452180123F6E7002B00D00792234E21780322300000F0D9F9002806D04023EE
:404FC000801B83402A68013413432B60217806221B48661C297600F0C9F9002812D0194B002B06D10722059B073393430833059314E005AB00933A00134B2900029800E026
:4050000000BF07E005AB00933A000F4B2900029800F08AF80390039B013304D06B69039A9B186B6135E7BB890B985B0601D5012040421FB0F0BDC046F2740010F874001044
:40504000FC740010000000008D4D0010F7B5170001938A680B6900900C00934200DA130022003B6043321278002A01D001333B6023689B0602D53B6802333B6006252368F9
:405080001D401ED0230043331B785A1E9341226892061CD53020E1184331087021005A1C45310978A2184332023311700FE022000123193201990098089EB047431C0ED0E6
:4050C0000135E3683A689B1A9D42F0DBDAE72200019943320098089DA847431C02D10120404220E006232068E1683A6803400025042B03D18D1AEB43DB171D40A36822697A
:40510000934201DD9B1AED180027BD420AD0220001231A3201990098089EB047431CDED00137F2E70020FEBDF0B58BB006920A0043320793059004920A7E0C00109B6E2A15
:4051400000D1ABE011D8632A22D009D8002A00D1B5E0582A00D0C5E045310A70814A4FE0642A1DD0692A1BD0BCE0732A00D1AAE009D86F2A29D0702A00D0B3E02022096869
:405180000A43226037E0752A1FD0782A33D0A9E00E001A684236111D196013683370A4E021681A68080606D4490604D5111D19600023D55E02E0111D19601568002D3BDA9C
:4051C0002D23049A6D42137036E021681A68080606D4490604D51568111D1960ADB202E0111D196015685F4B227E039308276F2A1DD00A271BE022007821453211705A4ABD
:4052000019680392081D226818600D68100602D4500600D5ADB2D30702D520231A4322601027002D03D1202322689A4322602300002243331A7002E00A274A4B03936368C1
:40524000A360002B09DB0422216891432160002D05D1049E002B11D07BE0002D79D0049E28003900FEF75EF8039B013E5B5C280033703900FDF7D0FF051EF1D1082F09D1F7
:405280002368DB0706D563682269934202DC3023013E3370049B9B1B23612BE009681A68080607D4490605D5111D19601368A28A1A8004E0111D1960136862691A60002329
:4052C000049E236116E01A68111D1960166800216268300000F04AF8002801D0801B6060636803E0260042363270012323610023049A1370079B09AA00932100069B059829
:40530000FFF7A4FE431C02D10120404227E02369320006990598079DA847431CF4D0236800259B070FD4099BE068984217DA180015E022000123193206990598079EB047E7
:40534000431CE1D00135E368099A9B1A9D42F0DBE9E72600039B42361B7833708EE70BB0F0BDC0460375001014750010C9B28218904204D003788B4202D00130F8E700204F
:40538000704710B5884202D98B18984201D3002305E09B1A013A08D3995C8154FAE7934203D0CC5CC4540133F9E710BD70B50500002944D00C1F2368002B00DAE4182800EE
:4053C00000F0D8F81E4A13681100002B02D16360146031E0A3420DD92268A018834203D118685B688218226063600C6024E0A24203D813005A68002AF9D11E689819A042DA
:405400000BD12168711858181960824214D110685268411819605A600EE0A04202D90C232B6009E021686018824203D1106852684118216062605C60280000F09CF870BDE4
:40544000CC490008032370B5CD1C9D43083506000C2D01D20C2501E0002D01DBA94202D90C23336048E0300000F084F8234B1C681A002100002913D00B685B1B0DD40B2B0C
:4054800002D90B60CC181EE08C4202D1636813601AE04B6863600C0016E00C004968E9E7174C2368002B03D1300000F051F820602900300000F04CF8431C18D00323C41C36
:4054C0009C43A0420DD12560300000F054F8200007220B30231D9043C31A0ED05A42E2500BE0211A300000F033F8431CEBD10C233000336000F03FF8002070BDCC490008ED
:40550000C8490008F8B506000C001500002904D11100FFF797FF040018E0002A03D1FFF745FF2C0012E000F027F885420ED929003000FFF787FF071E07D021002A00FFF7C2
:40554000CAFA21003000FFF731FF3C002000F8BD002370B5064C05000800236000F018F8431C03D12368002B00D02B6070BDC046D4490008704770470B1F1A68101F002AA6
:4055800004DA891804390B68D018043870470000044A1368002B03D01818106018007047014BF9E7D0490008D8490008F8B5C046F8BC08BC9E467047F8B5C046F8BC08BC44
:4055C0009E4670470000000001B40248844601BC604700BF030700080000214000002540000001400000344000002440000031400000324000001F4100002340000011403C
:40560000010101010101010101101010800019005500F0000501053B04101C01010000000FC000000004000001010101011D3A57789600082000101208000000001F0000D6
:405640000010000F002000023F06080E00080009000A000B24282C3034000000100000009000000088000000080000008000000004F0000000F00000400200002005A000F1
:40568000D00100018001A00120000000100000000020344074008020344074000022344074008022344074000024344074008024344074000026344074008026344074006E
:4056C000002834407400802834407400002A34407400802A34407400002134408A6200109000000000233440FA61001090000000002534406A610010900000000027344014
:40570000DA60001090000000002934404A60001090000000002B3440BA5F001090000000006034403E5F00107C00000080603440C25E00107C00000000613440465E0010CA
:405740007C00000080613440CA5D00107C000000006234404E5D00107C00000080623440D25C00107C00000000633440565C00107C00000080633440DA5B00107C0000005B
:40578000006434405E5B00107C00000080643440E25A00107C00000000653440665A00107C00000080653440EA5900107C00000003000000000000000000000068000000F4
:4057C0000000000000000000000000001212000000000000000000000000000000000000000000BA0000000000000000000000000000000000001D1D100000000000000081
:4058000000000000000086000000000000000000000000000000000015150000D40005003000010028000200D40002000C000100030018000300000000000000010014006E
:4058400001000028010000000B0000000018000000000000020003280100020003000000002A0000000000000300002A01000201030000000B0000005C02000804000328AA
:405880000100020005000000012A0000000000000500012A01000201050000000200000064020008060003280100020007000000A62A0000000000000700A62A0100020126
:4058C00007000000010000006C020008080003280100020009000000042A0000000000000900042A010002010900000008000000740200080A000328010002000B000000B0
:40590000C92A0000000000000B00C92A010002010B000000010000007C0200080C000028010000000F00000001180000000000000D000328010020000F000000052A0000EC
:40594000000000000E00052A000020010F00000004000000840200080F00022901010A030F000000020000008C02000810000028010000001400000084CF00000000000098
:40598000110003280100100014000000BCA70000000000001200BCA70000100114000000A000000094020008130055B90100000113000000A00000009C0200081400022990
:4059C00001010A031400000002000000A4020008010003000500090007000B000C000E000F00100012001300140000000000000000011F1F1F1F1F1F1F071F1F1F1F1F1FA3
:405A00001F051F1F1F171F1F1F1F1F1F1F1F1F1F1F1F0000000000070D00000000000000001F0000000600600000FFFFFFFFFFFFFFFFFFFFFFFF11111111D4111111111160
:405A400011111111111111111111111111111111111111111111E111111111E11E11151111111E19111100000000000000001F1F1F1F1F1F1F1F1F1F1F1F1F1F1F1F1F1FAC
:405A80001F1F1F1F1F1F1F1F1F1F1F1F1F1F0E000000000F00000C000D0000080E000000000000000000FFFFFFFFFFFFFFFFFFFFFFFF111111111111111111111111111106
:405AC000111111111111111111111111111111111111111111F111111111111111111111111100002000000000801F1F071F1F1F1F1F1F1F1F1F1F1F1F1F1F1F1F1F1F1F52
:405B00001F1F1F1F1F1F1F1F1F1F001F1F00001F001F1F070D0000070C00F0000F000000F0F0FFFFFFFFFFFBFFFFFFFFFF3F1111111E11111111111111111111111111111F
:405B40001111111111111111111141111111D11111E11D11111D11E111E111111D1100000000000002801F1F1F1F1F021F1F1F1F1F1F1F1F1F1F1F1F1F1F1F1F1F1F1F1F18
:405B8000071F1F1F1F1F0E001F0000001F00070C0001001F1F040000000000000000FFFFFFFDFFFFDFFFFFFFFF6D11111111111118111111111111111111111111111110E5
:405BC00011111111111C1111111111111F1111111111111111111111111000000000000000001F1F1F0A1F1F1F1F071F1F1F1F1F1F1F1F1F1F1F1F1F1F1F1F1F1F1F1F1F5E
:405C00001F1F040E0000061F000000001F00070001000000000000007FFFFFFFFFFFFFFFDFFFFF7FF7FF111111111111111111111D11011111111111111111111111111148
:405C400011111411111111111E111D111111111111111111D00100000000000000001F1F1F1F1F1F1F1F1F1F1F1F1F1F1F1F1F1F1F1F1F1F1F1F1F1F1F1F1F1F1F1F000003
:405C800000000000000000000000000000000000000000000060FFFFFFFFFFFFFFFFFFFFFFFF11111111111111111111111111111111111111111111111111111111111192
:405CC00011111111111111111103111111111111111100000000000000321F1F1F1F1F1F1F1F1F1F1F1F1F1F1F1F1F1F1F1F1F1F1F1F1F1F1F1F1F1F1F1F00000700000067
:405D00000607061F0000000004070065000F0F000000FFFFFFFFFFFFFFFFFFFFFFFC1111111111111111111111111111111111111111111111111111111011111111111072
:405D4000111111D1E111DE11D1111111111100000000000000401F1F1F1F1F1F011F1F1F1F1F1F1F1F1F1F1F1F1F1F1F1F1F1F1F1F1F1F1F1F1F001F00001F00001F001F9A
:405D80001F00001F1F000000000000000000FFFFFFFFFFFFBFFFFBFFFFFF11111117E111111111111111111111111111111111111111111111111111111E1111111111116D
:405DC00011111F111111E11E111E00000040000000101F1F1F1F1F060F1F1F1F1F1F1F1F1F1F1F1F1F1F1F1F1F1F1F081F1F1F1F1F1F000F0800000F1F0F0D0000000000B0
:405E00001F007650400000007070FFFFFFFFFFFFFFFFFFFFFFFF1111111141111111111111111111111111111111111111111101111111D111111101111111E111B11F1151
:405E400011111E1D141D00000000000040001F1F1F1F1F1F1F1F1F1F1F0D1F1F1F1F1F1F0F1F1F1F1F1F1F1F1F1F1F1F1F1F1F00060407000E000000061F000C001F007098
:405E8000050000050000FFFFFFFFFFFFF7FFFFFFF3FF1111111111111111111111111111111111111111111111111D111111111111110171611E111111111111111D111D19
:405EC000011E00000000000020101F1F1F1F1F1F1F1F1F1F1F1F1F1F001F1F1F1F1F071F1F161F1F1F1F1F1F1F1F000200001F0000000000000000001F000000000600006D
:405F0000F076FFFFFFFFFFFFFFFFFDFFFFFF11111111111111101111111111111111110111111111111111111111111111111111111191511111111D11111E1F711E000096
:405F40000000000010001F1F1F1F1F1F1F1F1F071F1F1F1F1F1F1F1F1F1F1F1F1F161F1F1F1F1F1F1F1F0000070500000000000006070000000000700000000000F0FFBF1B
:405F8000FFFFFFFFFFFFFEFFF7FF1111D11111111111111111111111111111D11111111111111111111111111111111111111111111111111111118E7D1F40000008000005
:405FC0000000000000206FFF7F7F77FFFFFFFFFFFF5FF7FF0F0F5FFFFFFFF0000000FFFFFFFFFFFFFFFFFFFFFFFFFFFFFFFFFFFFFFFFFF000000000000000000001F1F07B5
:40600000001F0000001F00F0000F05000000FFFFFFFFFFFFFFFFFFFFFFF5111111111111311111111111111111111111111111111111111117111111111111111121114148
:406040001811111D9158111111E10000216500000000000000C0FFFFFFFFFFFFFFFFFFFFFFFFFFFFFFFFFFFFFFFFFF000000FFFFFFFFFFFFFFFFFFFFFFFFFFFFFFFFFFFFAD
:40608000FFFFFF0000001F070000071F000C1F071F07001F1F000000000000000000FFDDFFFFFFFFFFFFFFFFFF3F1111111111111111111111111111111111111111111179
:4060C0001111111111111111111111111111111111111111111011011111000000600000000000000000FFFFFFF0FFFFFFFFFFFFFFFFFFFFFFFFFFFFFFFFFF000000FFFFBD
:40610000FFFFFFFFFFFFFFFFFFFFFFFFFFFFFFFFFFFFFF000000001F1F00001F0E1F1F000000001F1F00F00000000000F0F0FFFFFFFFFFFFFFF7FFFFFFFF11111111011179
:40614000011111111111111111111111111111111111111111111111111111111111111111111111111111111111000001890000000000000008FFFFFFFFFFFFFFFFFFFFDD
:40618000FFFFFFFFFFFFFFFFFF5FFF000000FFFFFFFFFFFFFFFFFFFFFFFFFFFFFFFFFFFFFFFFFF0000001F001F001F061F001F00001F001F0C1F0000000000000000FFFF97
:4061C000FFFFFFFFFFFFFFFFF5FB11111111111111111111111111111111111111111111111111111111110111111111111111111111181111111111111100201050000010
:40620000000000000000FFFFFFF7FFFFFFFFFFFFFFFFFFFFFFFFFFFFFFFFFF000000F1FFFFFFFFFFFFFFFFFFFFFFFFFFFFFFFFFFFFFFFF000000000000001F0F0000000070
:4062400007001F001F000000000F0000F5FFFFFFFFFFFFFFFFFFFFFFEFFF11D11111111111111111111111111111111111111111111111111111111111111121111111119C
:4062800011110111111111101111008000000000000000000000FFFF6FFFFFFFFFFFFFFFFFFFFFFFFFFFFFFFFFFFFF000000FFFFFFFFFFFFFFFFFFFFFFFFFFFFFFFFFFFF7C
:4062C000FFFFFF0000000000000000000000000000000000000000000000000000F0FFFFFFFFFFFFFFFFFFFFFFFF1111111111111111111111111111111111111111111147
:4063000011111111111111111111111111111111111111111011111111116576656E743A2025580A0000316253C4F5A697B988DBEA7D4C1F2E4372211087B6E5D4FACB9870
:40634000A93E0F5C6D86B7E4D5427320113F0E5D6CFBCA99A8C5F4A796013063527C4D1E2FB889DAEB3D0C5F6EF9C89BAA84B5E6D7407122137E4F1C2DBA8BD8E9C7F6A5F8
:406380009403326150BB8AD9E87F4E1D2C02336051C6F7A495F8C99AAB3C0D5E6F4170231285B4E7D67A4B1829BE8FDCEDC3F2A1900736655439085B6AFDCC9FAE80B1E24C
:4063C000D344752617FCCD9EAF38095A6B4574271681B0E3D2BF8EDDEC7B4A192806376455C2F3A0914776251483B2E1D0FECF9CAD3A0B586904356657C0F1A293BD8CDFE8
:40640000EE79481B2AC1F0A3920534675678491A2BBC8DDEEF82B3E0D1467724153B0A5968FFCE9DAC7F080000000000000000000000000000000000000000006666666659
:40644000000000000000FFFF000000001C1C1C1C1C1C1C1C00000000000000000000000066E6EE66000000000000FFFF000000001C1A1A1A1A1A0000000000000000000002
:406480000000000066E66666000000000000FFFF000000001A1A001C00000000D9AD001049B2001049B2001049B2001049B2001009980010D598001049B2001049B2001070
:4064C00049B2001049B2001049B2001049B2001049B2001049B2001049B2001049B20010F1AF00103DB000101DA70010DDA800107DAC00107987001000000000206900104C
:40650000C068001008000000411D01100000000078670010C46600100F00000000000000000000000000000000000000000000000120000091BF001006200000D1C000102C
:4065400007200000A5BF00100820000089C000100920000099C100100A20000089BE00100B2000005DC100100C20000021C1001010200000EDBE00101120000065BE001025
:406580001220000065C00010142000000DC100101520000009BF001017200000BDBE00100E200000F5BE0010ACFD00007BC30010ADFD00006DC20010A0FD0000E1C3001071
:4065C000A1FD0000CDC20010A2FD000011C30010A5FD0000D5C40010A6FD00003DC40010A8FD000035C20010A9FD000009C20010AAFD00003BC30010ABFD00009DC40010E1
:40660000AFFD000039C30010C3FD000089C40010B0FD000005C40010B2FD000051C40010051400004DBF00102D0C00001DC000107B0C0000CDBF00107C0C0000D1C1001083
:4066400027200F2028201020292010202B200A202C200B202D200D202E200C204E201720000001000100000100010202030002000000000002020100020000010001000513
:406680000100050202030002000000000002050100050000CD150110251701103916011001010B0102028102820503040403840906090709080909090A09050A0C0B0D0DD2
:4066C0000E0E0000010000000100000000000000020000000400000002000000030000000700000005000000040000000A00000008000000050000000C0000000B00000033
:40670000060000000E0000000D00000007000000100000000F0000000800000013000000110000000900000016000000140000000A0000001700000017000000FF0000007C
:4067400018000000180000000B0000001B000000190000000C0000001D0000001C0000000D0000001F0000001E0000000E000000210000002000000001000000F139011090
:40678000FEFFFFFFC538011001000000F139011006000000AD3B0110F8FFFFFFC538011018001200E1380110A000000C5936011047FFEDFBC5380110E8000C004138011038
:4067C00000012000553701101FFED3FFC5380110A000000C1D4001105FFFFFFBC5380110000200008D3E0110FFFDFFFFC5380110000C00007D350110FFF3FFFFC5380110AB
:40680000000A0000F13701100100000017380110FEF7FFFFC538011000200000A536011000400000353F0110FF9FFFFFC5380110FFFFFFFFCD380110FFFFFFFF753501106F
:406840000080000059350110000001003D350110FF7FFEFFC53801100080010005350110FF7FFEFFC538011000008003E9340110FFFF7FFCC538011000801F0A213501104F
:40688000FF7FE0F5C53801100000000000000000000000000000000087000000000000000000000000000000000404000104080002041400030C200004042C00050648000B
:4068C000810000000000000000000000820000000100000001000000010000000200000002000000020000000400000003000000030000000600000005000000F100000086
:406900000700000007000000F20000000900000008000000FF0000000A0000000A000000020000004944011001000000494401100E00000049430110020000009143011062
:406940000C0000003143011002000000CD4301100C000000314301100E000000494401100C0000008944011002000000314301100E000000D1440110F401FA009600640098
:406980004B0032001E00140003040506020D110075C50110D9C40110CBCB011029C60110DBC6011077CB01108FCB011051CC011055C7011005C8011039CA011067CA011057
:4069C0009FCC011065CB011033CC011033CC011033CC01100DCB0110B5CA0110F9CA01106D0302107903021049130210311402103D14021025C6011073C501100FCC0110F4
:406A0000D9C6011013C7011087CB0110A9CB01109DCC011001C80110A1C8011053CA01108DCA01100BCD01106FCB01109DCC01109DCC01109DCC01105DCB01109DCC01101A
:406A40009DCC01109DCC01109DCC01109DCC01109DCC01109DCC01100C000800020017000D00010001000200090009000100010006000200090018001800030001000100A2
:406A800009000900030003000500000033E401103BE4011037E4011031E401100FE401100BE4011029E4011027E4011003E4011007E401103FE401102BE4011025E401106F
:406AC00043E4011043E4011001E401102FE40110B9FA01106DFE011031FC0110DDF9011045ED0110F9E9011071F401100DF0011065E50110C9E50110C5FF0110FDF70110F9
:406B0000A5EF011079E90110FDF30110C54D0110ADF8011065000210FD030210490502101D06021035020210B10002108503021091010210D3010210E3010210E501021027
:406B4000E901021033CC0110D5010210DF010210DD0102108117021031110210ED1602109D160210391702104914021055130210ED130210B9140210A1A90110531102105A
:406B8000491102104F1102104D110210511102104B11021033CC011033CC011033CC011069980110212A0210032A0210032A0210032A0210392A021069860210032A021094
:406BC000598602107186021061860210BF2E0210B72E0210212E0210192E0210132A0210FB290210F1290210172A0210112E0210412E02100B2A0210392E0210992E021083
:406C0000032A0210492E0210312E0210292E0210032A0210412A0210492A0210512A0210072A0210072A0210212A0210032A0210032A0210032A0210392A021069860210CE
:406C4000032A0210598602107186021061860210BF2E0210B72E0210212E0210192E0210132A0210FB290210F1290210172A0210112E0210412E02100B2A0210392E02109C
:406C8000992E0210032A0210492E0210312E0210292E0210032A0210412A0210492A0210512A0210072A0210072A0210C9510210BD510210D5510210072A0210072A0210FB
:406CC000694E0210A54E0210754E0210994E02108D4E0210814E0210B14E0210BD4E0210B1510210155402101954021025540210FD53021009540210072A0210072A02100C
:406D0000072A0210072A0210072A0210072A0210072A0210072A0210072A0210072A0210072A0210072A0210072A0210072A0210072A0210072A0210072A0210072A021023
:406D4000072A0210072A0210072A0210072A0210072A0210072A0210072A0210C94E0210A3450210514402105144021051440210D5450210654502105144021049450210F7
:406D8000154602105F450210EF450210E5450210D343021051440210514402105144021057430210334502107D430210B5450210DB440210EB440210654402105144021029
:406DC0002B460210A144021093440210514402101F45021063460210514402105144021051440210595102104D51021065510210E944021083440210DD4D0210194E021062
:406E0000E94D02100D4E0210014E0210F54D0210254E0210314E021041510210515302105D5302106953021039530210455302105144021051440210514402105144021004
:406E400051440210514402105144021051440210514402105144021051440210514402105144021051440210514402105144021051440210514402105144021051440210A2
:406E800051440210514402105144021051440210514402103D4E0210D3480210014802100148021001480210174902107D48021001480210C5480210C54802106F48021009
:406EC0002D4902101B4902107D470210794702105D48021011470210034702100347021015470210F748021031480210454802100548021001480210614902101D4802103D
:406F00000948021001480210614802107D490210794902100148021001480210855002107950021091500210A5490210FF460210234D02102D4D0210394D0210454D021020
:406F40002D4D02102D4D0210514D02105D4D02106D5002105D52021069520210755202104552021051520210014802100148021001480210014802100148021001480210D7
:406F80000148021001480210014802100148021001480210014802100148021001480210014802100148021001480210014802100148021001480210014802100148021021
:406FC000014802100148021001480210694D021008000000060F0020200107021900000007070E05020220001C1202000103000E0306000400402707000007070102000223
:407000000307030400000000000000000000000000000000000000000000000000080000A3450210514402105144021051440210D545021065450210514402104945021019
:40704000154602105F450210EF450210E5450210D343021051440210514402105144021057430210334502107D430210B5450210DB440210EB440210654402105144021066
:407080002B460210A144021093440210514402101F45021063460210514402105144021051440210D3480210014802100148021001480210174902107D48021001480210BE
:4070C000C5480210C54802106F4802102D4902101B4902107D470210794702105D48021011470210034702100347021015470210F7480210314802104548021005480210C2
:4071000001480210614902101D4802100948021001480210614802107D49021079490210014802100148021008000000060F0020200107021900000007070E050202200021
:407140001C1202000103000E032000800000C00000000004000000A822000000000000040000F7FFFF7F0000003000000000000000000000000000000000000000000000F4
:40718000000000000000000000000000314C0210754D0210DB4C0210914C0210834D0210034D0210614C0210914D0210E74C02108F4C0210954D0210FF4C0210794C0210F7
:4071C000834D0210F74C0210634C0210834D0210EF4C0210A74C0210A14D02100B4D0210AD4C0210B14D0210134D02105144021001480210072A0210514402100148021025
:40720000072A02105144021001480210072A02105144021001480210072A02105144021001480210072A02105144021001480210072A02105144021001480210072A0210B2
