:020000041008E2
:4000000000780408EB0208100D00000051030810510308105103081051030810000000000000000000000000000000004D0308104D030810000000004D0308104D030810DA
:400040004D0308104D0308104D0308104D0308104D0308104D0308104D0308104D0308104D0308104D0308104D0308104D0308104D0308104D0308104D0308104D03081000
:400080004D0308104D0308104D0308104D0308104D0308104D0308104D0308104D0308104D0308104D0308104D0308104D0308104D0308104D0308104D0308104D030810C0
:4000C0004D0308104D0308104D0308104D0308104D0308104D0308104D0308104D0308104D0308104D0308104D0308104D0308104D0308104D0308104D0308104D03081080
:400100004D0308104D0308104D0308104D0308104D0308104D0308104D0308104D0308104D0308104D0308104D0308104D0308104D0308104D0308104D0308104D0308103F
:400140004D0308104D0308104D0308104D0308104D0308104D0308104D0308104D0308104D0308104D0308104D0308104D0308104D0308104D0308104D0308104D030810FF
:400180004D0308104D0308104D0308104D0308104D0308104D0308104D0308104D0308104D0308104D0308104D0308104D0308104D0308104D0308104D0308104D030810BF
:4001C0004D0308104D0308104D0308104D0308104D0308104D0308104D0308104D0308104D0308104D0308104D0308104D0308104D0308104D0308104D0308104D0308107F
:400200004D0308104D0308104D0308104D0308104D0308104D0308104D0308104D0308104D0308104D0308104D0308104D0308104D0308104D0308104D0308104D0308103E
:400240004D0308104D0308104D0308104D0308104D0308104D0308104D0308104D0308104D0308104D0308104D0308104D0308104D0308104D0308104D0308104D030810FE
:400280004D0308104D0308104D03081010B5054C237833B9044B13B10448AFF300800123237010BDA04E02080000000008B90910084B10B51BB108490848AFF3008008489B
:4002C000036803B910BD074B002BFBD0BDE81040184700BF00000000A44E020808B9091050490208000000007047FFF7FDFF72B6104C114DAC4209DA21686268A368043B3D
:40030000A2BFC858D050FAE70C34F3E70B490C4A00209142BCBF41F8040BFAE709480A490860BFF34F8F00F099F900F073F900F01DF8FEE70CB9091024B90910A04E0208B0
:40034000946902080040020808ED00E0FEE7FEE700B504207146084202D0EFF3098001E0EFF30880043004F0BDFFFEE72DE9F04F91B062B64FF4C86200214048404E05F01B
:4003800025FC4BF680323F4B114642F2107000F07BFF306018B93C493C4805F011F83C4C3C4F0020206005F0ADFC05F017FC3B7820BF002BFCD038493448DFF8EC80DFF8C9
:4003C000E09004F0FDFF3B787BB94BF680322D4B114642F2107000F057FF30600028F2D129492A4804F0ECFFEDE725680A226B1C93FBF2F502FB1535D8F800309D42E2D05B
:400400004FF0000A4FF0780B05F010FC0FFA8AF292FBFBF30BFB13231BB2A3F13C021F4B0340002BBEBF03F1FF3363F0030301334FEA4A0113440AF1010A1B02BAF5F07FB1
:4004400021F80930E0D1A023DFF830B0009303FB05FA0BEB0A0201920123114A3068002100F01EFF1BF80A3000930E4A0346322103A805F015FC2560A5E700BF0400020832
:40048000C8650208B0500208EC6908100000664048060208000002080A6A081003000080CC650208196A081044060208012004F0C9BE7047514B524AD3F8800300F00F0075
:4004C000810001F1804101F5181130B5D1F8403303F00704032C07D0042C07D0494B4A49002C08BF0B460EE013680CE0D1F8003303F01F03112B01D0132B02D14FF4004308
:4005000001E04FF4FA433D4930BBD1F89045D1F88805D1F8885515F0405FC0F3017005D0D1F88815C1F30171012901D1E40701D403283AD13149D1F88005D1F88445D1F811
:400540008015C0F31100C1F30061C4F30C040131B3FBF4F3434326E0012826D1D1F84046D1F80006D1F8005615F0405F05D0D1F80016C1F30171012901D1E10703D4C0F3AA
:400580000171032911D11D48D0F80016D0F80046D0F8000601F07F014B43C4F30421B3FBF1F3C0F30441B3FBF1F31449D1F88013C1F30111CB4015495360D1F8900009693F
:4005C000090E0131B3FBF1F19160C0F307210131B3FBF1F303F57421D360136101F23F210B48B1FBF0F103F2E73311754FF47A71B3FBF1F39361DB03D36130BD000026407D
:400600008C42020800366E0100127A000000214040420F0008B50D4804F0CCFEFFF749FFFFF748FF00221146042004F09FFC084804F020FD074B1B6893F8513013B10648F4
:4006400004F050FDBDE8084004F02ABC10B80910BC4E02088C690208246A081008B504F098FE074AD2F8883043F47003C2F88830BFF34F8FBFF36F8FBDE8084004F08DBE36
:4006800000ED00E02DE9F04F95B007460E4690460021402204A81D461E9C05F097FA3D23049395234B2205930793512306920C9364226FF00043012F0D930E920F9340F225
:4006C0009E80F31EDAB2012A00F29980BA1E03EB820314AA02EBC30353F8402C424500F38E8053F83C3C984500F38980022F4FF000070CBF4FF0030C4FF0040CADF1040EE3
:40070000B946032E4EF8049F34F9080C34F9063C34F9048C24D134F9021C034441444FEA630B491004F1040804F1A40A002238F9023C38F9040C1844401000EB4003A3EB49
:4007400081035B44DB1008F104085B43C2458B4602EB63120146EAD1A034CEF800202BE034F90AAC34F90C2C34F9021C52449844884402444FEAA8019210A31D04F1F60A77
:400780004FF0000833F906BC33F9040C584433F902BC5844801000EB400BABEB810B5A44D21006335243534508EB62180A460146E8D1F034CEF800800137BC45A1D195E889
:4007C00005000023194692108242B8BF02465DF8230002EB22140133B4EBE00FB8BF19469C45F0D1AB68B3EB5C0F85E8050003DC081C18BF012000E00120A96000E00020E5
:4008000015B0BDE8F08FCB688A6810B544689A1A22EAE272E3109342A8BF1346A4EBC304446053B1CA68541ECC60046802F8014C0268120A0260013BF3E74268072AC8BFBC
:40084000436010BD8368426893423EBF5A1C82601970704738B50368B3F57F0F04460D4601D3C368DBB1A368002B04DBE16828461944FFF7E7FF2369002B0BDDE368002B39
:400880000CBFFF2100212846FFF7DCFF2369013B2361F0E76388A3600023E36002E003690133036123681B0223F07F43236038BD8368426893423DBF5A1C8260187800202D
:4008C00070474268CB6870B50C681B1BD410A342A8BF2346A2EBC302426063B10468CD68240A6E1E0460CE6015F8015C44EA05640460013BF1E7072A0ADD816811442029EF
:40090000A8BF20218160016821FA02F280E80C0070BD0278436B002A0CBF042200221344026B0CBF03210021521A9B1A016A426A10B584681144DB00002214B1640801323D
:40094000FBE7C4684069C2F11A02002CA8BF013002EBC0025018181A10BD2DE9F0410446D71816460D4600290CBF4FF020084FF000083822002105F029F96FF07F43A36090
:400980004FF0FF332570E360C4F82080A662E76226636763CDB904F128010846FFF788FF000460600846FFF783FF636843EA002060600846FFF77CFF63681843606004F183
:4009C0001C00BDE8F041FFF77CBFBDE8F08108B5FFF79FFF20EAE07008BDF8B504460F46236AC3F120059542A8BF154616461C3035B1E26901FA03F31343E36120232362D7
:400A0000EF4004F12801751BFFF7FDFEE7612562F8BD2DE9F041436B056B5D1B036A0446071D00F11C0800F12806C3EBC505002D0FDD202D236A2A46A8BF20221344202B52
:400A400001DC236203E000212046FFF7C6FF203DEDE731464046FFF7D6FEA1684FF0000E0B461BB15B080EF1010EFAE76068CEF119056FF07F422A4102EB000C2CEA0203EE
:400A800001445FEA1C6C14BF4FF001084FF000085FEA116C14BF4FF0010C4FF0000CE04523F07F4313D121F07F4102EB030C614507D85208831823EA0203CEF11A0523F066
:400AC0007F432269984288BF42F0010222616360082D3146384603DDFFF7BCFE083DF7E7FFF7B8FE6369E168C5F108070BB9394111E03046FFF7A6FE6369012B07DDFF216F
:400B00003046FFF79FFE6369013B6361F4E7082D14BF0021FF21226BE36A9A420AD2FF2343FA05F513781D401570236B1A78B94011431970BDE8F08170B50446051D00F1D6
:400B40002806A368B3F5803F07D231462846FFF781FEA3681B02A360F3E770BD2DE9F04F164687B00D4600297FD004297DD8414A019201F1805352F82070013B4FF0000EF5
:400B800007EB031774465FFA8EF307EB830117F9232091F901A04FEA820B06EB0B0191ED007A00916FF00301C2EB0A0C02F101084A43D0450CDA009902EB0109D944D9ED38
:400BC000017A0431009137EE277A08F10108F0E7002B0CBF14220A220CFB02FC07EE90CAF8EEE77A0EF1010EB4EEE77AF1EE10FAA8BF5C1C5FFA8EF3A8BFE4B29D42C2D8F9
:400C0000AC422DD2019B17F9247004EB800003EB8000194BD0F810E00FCB0DF1180C0CE90F000CEB840313ED047ACEEB07035A1CCEEB030306EB8303013706EB8206974299
:400C400013DBF6EC017AD3ED016A043367EE277A0132F4EEE76AF1EE10FAF0DD204605E0AC42204638BF284600E0284607B0BDE8F08F00BF586A0810A86A081004280BD8B6
:400C8000012894BF00230123002818BF0133032894BF1846581C70470020704738B5054608461446FFF7EAFF021E0FDD296A5318202B05DCEA692B628C401443EC6138BD26
:400CC00021462846BDE83840FFF787BE38BD0000F0B51F46C0EBC00319442A4B53F82160294B87B053F82140002300930193274B054696460FCB0DF1180C0CE90F000CEB8B
:400D00008505236855F8100C0021301AB14228DA54F8045FEA1A07EE102A0EEB8302D2ED007A67EEA77A0133AB4205DA0432D2ED006AE6EEA67AF6E7B8EEC77A8142C7EE37
:400D4000876AB4BF0022012206AD05EB8202013152ED067AE7EC016A77EEA67A42ED067AD4E7DDED007AB3EE0E7A67EE877A9DED017AB4EEE77AF1EE10FACCBF0120002005
:400D800007B0F0BDA8BC08108C430208B86B0810F0B5124B8778047853F82730D0F8A06404FB0333D0F8A44400F2AC4505EB84045200002005EB460598420EDAB1F900609B
:400DC00025F81060B1F9006007EE906AF8EEE77A0130E4EC017A1144EEE7F0BD7CB50910F0B58678144C077854F82640D0F8A05407FB0447D0F8A44400F2AC43920003EB3B
:400E00008404002003EB4505B84213DA0B6807EE903AF8EEE77A1E1217EE903A13F0FF4F18BF03F17C4325F81060114444F8043B0130E9E7F0BD00BF7CB50910F0B58578E2
:400E4000184C077854F82540D0F8A06407FB0447D0F8A44400F2AC4302EB420203EB8404002003EB4606B8421ADA4B780D781B0443EA05238D7843EA056307EE903AF8EE4A
:400E8000E77A1D1417EE903A13F0FF4F18BF03F1784326F81050114444F8043B0130E2E7F0BD00BF7CB50910F0B586781A4C077854F82640D0F8A054DFF860C007FB0447C2
:400EC000D0F8A44400F2AC43920003EB8404002047F6FE7E03EB4505B8421BDA0B6813F0FF4F18BF03F1F06307EE903AFDEEE77A44F8043B17EE903A734504DC6345B8BF6B
:400F000063461BB201E047F6FF7325F8103011440130E1E7F0BD00BF7CB509100080FFFF70B503468678184C13F8B85B54F82640D0F8AC00154E05FB0444520003EB80004D
:400F4000B6EE007A47F6FE75002C1BDDF0EC017AF5EEC07AF1EE10FAACBF77EE877A77EEC77AFDEEE77A17EE903AAB4204DCB342B8BF33461BB201E047F6FF730B80013CB9
:400F80001144E1E770BD00BF7CB509100080FFFFF0B5034686781F4C13F8B85B54F82640D0F8AC001C4E1D4F05FB0444920003EB8000B6EE007A002C2ADD50F8043B07EEDA
:400FC000903AF5EEC07AF1EE10FA09DB13F0FF4F18BF03F1806307EE903A77EE877A08E013F0FF4F18BF03F1806307EE903A77EEC77AFDEEE77A17EE903AB34203DCBB42E1
:40100000B8BF3B4600E0064B0B60013C1144D2E7F0BD00BF7CB50910FEFF7F00000080FFFFFF7F00F0B503468678214C13F8B85B54F82640D0F8AC001E4E1F4F05FB0444E4
:4010400002EB420203EB8000B6EE007A002C2EDD50F8043B07EE903AF5EEC07AF1EE10FA09DB13F0FF4F18BF03F1806307EE903A77EE877A08E013F0FF4F18BF03F1806341
:4010800007EE903A77EEC77AFDEEE77A17EE903AB34203DCBB42B8BF3B4600E0074B0B701D121B144D708B70013C1144CEE7F0BD7CB50910FEFF7F00000080FFFFFF7F006E
:4010C000F8B58578114C034654F82540D0F8AC500E4613F8B81B970001FB044403EB8505002C11DD55F8040B094910F0FF4F18BFA0F1F06005F0C8FA4FF07E5105F0E2FA42
:40110000013C30603E44EBE7F8BD00BF7CB50910000080BF40F6C41398420FD041F2883398420DD019B941F64C5398420AD042F2107398420CBF0320042070470020704799
:40114000012070470220704799B9B0F5FA5F1AD0B0F57A5F19D045F6C053984217D0B0F5FA4F16D04BF68031884214BF0720042070474BF6803398420DD00849884214BF10
:40118000072006207047084670470120704702207047032070470520704700BF007701002DE9F74F8A46054601465046002BCCBF1E461646FFF7AEFF294607461046FFF713
:4011C000C3FF294683463046FFF7BEFF032F0C9C81464CD806284AD8834548D8002C48D0264A52F82050002107FB05534FF496626D10204605EB03080193022398FBF3F896
:4012000004F0E4FC019B1E4827700AFB06F208EB030792FBF0F1C4F8A0544FF44873022596FBF3F30B4493FBF5F341F64C551944144B92FBF3F240F2E243AA4514BF9A46C9
:401240004FF4FA6A0AFB06F696FBF0F632440A4484F801B084F80290C4F8A484C4F8A8749200002104F2AC4004F0B0FC01E0002000E0204603B0BDE8F08F00BF7CB5091038
:4012800040420F0080841E0007B5009313460A4601460020FFF784FF03B05DF804FB00002DE9F04FEBB09646749D0446002800F0E5804678042E40F2E4800078754F053EF3
:4012C00006EB400057F830209542C0F2D78007EBC0004068854200F3D1806F4A204652F8216071461A46B04704F2AC43D4F8A064049303EB4606049AD4F8A434A77894F86E
:40130000008094F801A002EB8309644B53F8271008FB01130593D4F8A834009602EB83034FEA610B06932A46231D39464046FFF7A9F90AAB0790009304F11002334639468D
:40134000404600F04BFC059B8DF825004FEA4B02CBEB030106EB4101B01A04F01CFC069B009352464B4639464046CDF8049001F045F92AAB4A4651464046FFF7A9FC0646CA
:4013800010B10AA800F08AFE51462AAA4046FFF7E5FB0DF1300B079B8DF824005146404613AFCDF80C90CDF8089000932A462AABCDF804B001F008FD324640469DF824104C
:4013C000CDF804902B46009703F0FAF827AE04F59362514640469DF82530CDF80890019203962A46009702F01DFD94F8018094F80090049BD4F8A4449DF824A0759A01213B
:401400002AA803EB84042B46FFF7A7FA524641462AA8FFF743FC3346424649462AA802F037FE39462AA803F01BFC329A9DF82510531C202B05DC9140319A329311433191AA
:4014400003E001222AA8FFF7C8FA59462AA802F0C9F89DF825301BB10AA92AA800F025FE5346424649462AA802948DE8600002F02DFE2AA8FFF7CDFA002007E04FF0FF305C
:4014800004E0132DFADD4FF4C87023E76BB0BDE8F08F00BF04B50910C86B08107CB509102DE9F74F894698460D99782393FBF0F35B005C00C1EB011AC4F1020B0021514595
:4014C00080F29F8091FBF0F600FB16175F430BEB46064FF0000E09EB47074644F4469E4507F11E0706F11E065CDA37F91E4C36F91E5C05FB04C536F91CCC37F91C4C0CFB77
:40150000045437F91A5C36F91ACC0CFB054C37F9184C36F9185C05FB04C536F916CC37F9164C0CFB045437F9145C36F914CC0CFB054C37F9124C36F9125C05FB04C536F914
:4015400010CC37F9104C0CFB045437F90E5C36F90ECC0CFB054C37F90C4C36F90C5C05FB04C536F90ACC37F90A4C0CFB045437F9085C36F908CC0CFB054C37F9064C36F937
:40158000065C05FB04C536F904CC37F9044C0CFB045436F902CC37F9025C0EF10F0E0CFB054C9CE7184C8CFB0445CDE90045DDE90067D2E9004536196F41D2E902454FEA0A
:4015C000967E124EC6FB0C45A6F18D66A6F58D264EEA870EA6F29726C6FB0E45DDE90067C2E900450A4CC4FB0E670C9C0EF5004E4FEA2E4EC2E9026724F802EB0F310C9405
:401600005DE703B0BDE8F08FC61BE63E72C83382BFEE2EC207B58DE80C000B46024603490820FFF73DFF03B05DF804FBE86B081007B58DE80C000B46024603490420FFF7D4
:401640002FFF03B05DF804FBC86D081007B58DE80C000B46024603490220FFF721FF03B05DF804FBA86F0810F0B51211002300240025934201EB43160BDA00F1200730F9E4
:4016800002CB36F902EBB842CCFB8E45F7D10133EFE7203445F10005A30943EA856307EE903AB8EEE70AF0BD2DE9F043304C30F9025C04EBC20230F9044C30F9026B03EB8C
:4016C00041018B4200F1080050D2B2F902E030F908CCB2F90090B2F90480B2F9067006FB0EFE0CFB09EE05FB08EE04FB07E4E4131C80B2F902E030F9064CB2F90090B2F93F
:401700000480B2F906700CFB0EFE04FB09EE06FB08EE05FB07E5ED135D80B2F9027030F9045CB2F90090B2F90480B2F906E0674305FB09770CFB087706FB0E76F6139E803E
:40174000B2F9027030F9026CB2F90090B2F90480B2F906E06F4306FB097704FB087708330CFB0E77FF1323F8027CAAE7BDE8F08388710810264A0B1D1A40002ABCBF02F153
:40178000FF3262F00302234BB8BF0132002903EB421307DA93ED007A50ED047A043327EE877A08E01BBFD0ED047A93ED077A9FED1A7A27EE877A50ED027A93ED010A50ED85
:4017C000036A27EE800AD3ED007AA6EEA70A50ED016AD3ED027AA6EEA70AD0ED006AD3ED037AA6EEA70AD0ED016AD3ED047AA6EEA70AD0ED026AD3ED057AA6EEA70AD0ED77
:40180000036AD3ED067AA6EEA70A30EE070A704703000080A8710810000000002DE9F04F9BB0DDED256A289F249D279C9FED676A002FCCBF01260026A6EBD77607EE106A27
:40184000F8EEE66AB8EEC77A02EB640287EE265AA5EB00069A4602AFF7EE007AC8BFF0EE467AB2EBA60FC8BF8A1A01F1804101F1FF3100EB810100912699C8BF05EB82024E
:4018800001EB8408D8BFA5EB82020021661EB14231DA009B92ED007AA7EC016A9A42FAEC015ADDF8989034BF04320246BC464FF0000EB1EE477A71450ADB7CED016AF9EC42
:4018C000014AE7EE246A0EF1010ECCED006AF2E7C146BC464FF0000E71450ADB3CED017AF9EC016AA5EEA67A0EF1010E8CED007AF2E70131CBE71AAB03EB860624EAE47138
:401900000023890007EE103A46F8603C01914FF0000C259B9C4555DAAE46214602AF0B1B9C424BDD009B92ED006ADEED006ADDF898909A4234BF04320246002601F1FF3BA8
:40194000B1EE466AA64213DAC6EB0B0A9AFBF4F304FB13A30DF1680A0AEB830353ED185AF9EC014AE6EE245A013643ED185AE9E7C146002601F1FF3BA64213DAC6EB0B0A90
:401980009AFBF4F304FB13A30DF1680A0AEB830313ED186AF9EC015AA6EEA56A013603ED186AE9E797ED006AA7EC017AE7EEC66A013177EE857AEEEC016AB0E7019BA44436
:4019C0001D44A6E71BB0BDE8F08F00BF0000000010B586B00B9C0494042403940A9C0294099C0194089C0094FFF718FF06B010BD10B586B00B9C0494062403940A9C0294DD
:401A0000099C0194089C0094FFF708FF06B010BD10B586B00B9C0494082403940A9C0294099C0194089C0094FFF7F8FE06B010BD10B586B00B9C04940C2403940A9C02945D
:401A4000099C0194089C0094FFF7E8FE06B010BD2DE9F74F894698460D99282393FBF0F35B005C0001EB810AC4F1020B0021514580F2818091FBF0F600FB16175F430BEBDE
:401A800046064FF0000E09EB47074644F4469E4507F1140706F114063EDA36F9145C37F9144C05FB04CC37F9124C36F9125C05FB04C536F910CC37F9104C0CFB045437F94F
:401AC0000E5C36F90ECC0CFB054C37F90C4C36F90C5C05FB04C536F90ACC37F90A4C0CFB045437F9085C36F908CC0CFB054C37F9064C36F9065C05FB04C536F904CC37F94F
:401B0000044C0CFB045436F902CC37F9025C0EF10A0E0CFB054CBAE7184C8CFB0445CDE90045DDE90067D2E9004536196F41D2E902454FEA967E124EC6FB0C45A6F18D66B5
:401B4000A6F58D264EEA870EA6F29726C6FB0E45DDE90067C2E900450A4CC4FB0E670C9C0EF5004E4FEA2E4EC2E9026724F802EB05310C947BE703B0BDE8F08FC61BE63E5B
:401B800072C83382BFEE2EC207B58DE80C000B46024603490820FFF75BFF03B05DF804FB2872081007B58DE80C000B46024603490420FFF74DFF03B05DF804FBC872081065
:401BC00007B58DE80C000B46024603490220FFF73FFF03B05DF804FB687308102DE9F04F00F101092DED048B4FEA4917C7F5C078ADF5277D4FEA48089A464FEA891902F170
:401C000020038DE80300164603EB09014246184603F0C1FF019AC74B03EB820300EB0804D3F82058224651463B4606F11000A847009B022B0CBF6FF057086FF02F087D10D8
:401C4000A044C5F1B20406F548734FEA450A640003EB0A012246184603F09DFF044404EB0A0E08F10203A44641F6A97AE64503F1040318D933F9060C33F90A1C33F908BCFC
:401C800001444FF47152514344F62D021BFB021133F90C0C33F9042C02440AFB021212142CF8022BE2E7009B2BB9AEEB8504C9EB08087F006D00D6F88434032B04DD5D2B06
:401CC000A3F1040904DC01E04FF00009043300E06123C9EB03030293A4F12201A4F1E60B0DF5887A8B1E2A4620460393FFF7BCFC039BAAEC010A9B451946F3D19DED447AC1
:401D0000DFED8D7ADFED8D5A45AAB0EE479A4FF0000A0123B2EC016A66EE276A77EEE57AB4EEE67AF1EE10FA48BF9A4603F1010344BFB0EE469AB0EE667A622BEAD144AB90
:401D400003EB8903B3EC018A01220021029890420BDBF3EC017AF4EEC87AF1EE10FAC4BF1146B0EE678A0132F0E7B5EEC09AF1EE10FA894419D92A4621462046FFF774FC07
:401D80000AF11101A4EB410108462A46B0EE407AFFF76AFC67EE007A17EE900A04F018FD07EE900AC9EE278A01E0DFED678AB5EEC08AF1EE10FA19D92A4621462046FFF7CC
:401DC00053FC09F11101A4EB410108462A46B0EE407AFFF749FC67EE007A17EE900A04F0F7FC07EE100AC8EE077A01E0DFED567A9FED537A28EE877AB4EEE77A9FED517A84
:401E0000F1EE10FAADBFF4EEC78AF4EEC77A4D465546F1EE10FACCBF4FF001094FF00009C6F88454B9F1000F00F0CF800F356D00202D2C46B8BF20240835E42DD4BFC4EB7B
:401E40000505C4F1E405610044ABC1F1080105F1090B414403EB8B0B9A46D3450AD98B1E3A4640460293FFF7FFFB029BAAEC010A1946F2E7DDED487A49AA01234FF0000A2B
:401E80009D420BDBB2EC017AB4EEE77AF1EE10FAC4BF9A46F0EE477A0133F1E744AB54440AF1040A03EB8A0A00215046FFF762FC4FF0000BB0EE406A5D467E2C0BF101034E
:401EC00007DD9C2C0BF00102D4BF0021012191421FD2194650460293FFF74CFC029BB4EEC60AF1EE10FAC4BFB0EE406A1D46202C0FDD6FEA0B0B594650460293FFF73AFC13
:401F0000B4EEC60AF1EE10FA029BC4BFB0EE406A5D46032B9B46D0D1002DA4EBD574ACBF002304232B447E2C03EB840516DCA5F180041BE0E86B081030AE7E3F3FE8A83B2A
:401F40009A99593F9A99193F000000006666663F3D0A573FCDCCCCBDD7A3703F9C2CDDBF5B1003EB44047E3404F21B14B49B00225C60394604AB4046FFF796FBA81044AB87
:401F800005F003023946A8EB4000FFF78DFB3A4644A904A8FFF768FB04A908463A46B0EE408AFFF761FB44A908463A46B0EE407AFFF75AFB67EE007A17EE900A04F008FCEC
:401FC00007EE100AC8EE077A02E05FED217A4D46337896ED027A4BB3019B7268042B48D8B9F1000F43D05FED276AF4EEE67AF1EE10FA19DC5FED2A6AF4EEE67AF1EE10FAFE
:4020000037DDAA421346A8BF2B46AA42ACBFC3EB0203C3EB0503072B2BDC77EEC76A1FED336AF4EEC66A1CE0012323E0019A042A20D8B9F1000F1AD0009A5FED396A032AE8
:4020400006D096ED036AB4EEE66AF1EE10FA11DDB4EEE67AF1EE10FA0BDD5FED416AF4EEE67AF1EE10FACCBF0123002302E04B4600E00023B49A03F001031370B49B1B78EA
:4020800033704846756086ED037AC6ED027A0DF5277DBDEC048BBDE8F08F00BF0023037070470A23584301307047026A38B5531C202B0D460446097805DC9140C2690362CA
:4020C0001143C16102E00122FEF787FC226A696802F10903202B05DC9140E26923621143E16138BD20460922BDE83840FEF775BC2DE9F04F91B018240F92052291FBF2F15C
:40210000CA00861804FB0164A4EB01159FEDDF7A9FEDDF6ADFEDDF6ADFEDDF5A9FEDDF5ADFEDDF4A0E932A440027B94200F1080003F1280306F1080604F1080405F108054E
:4021400002F1080240F3928054ED017A16ED011A14ED024A16ED023A15ED012A15ED020A71EE272A31EE671A52ED017A73EE040A72EE273A33EE443A32EE672A12ED024AA7
:4021800050ED027A70EE041A70EEA77A30EE444A77EEA17A013743ED0A7A50ED017A72EEA77A77EEA37A43ED097A50ED027AE0EE877AE1EE067AE1EEA67AE2EE257A43ED80
:4021C000087A50ED017AE2EE877AE3EE057AE3EEA67AE4EE247A43ED077A50ED027AE0EEA67AE1EE257AE1EE877AE2EE057A43ED067A50ED017AE2EEA67AE3EE247AE3EEA6
:40220000877AE4EE067A43ED057A50ED027AE0EEA67AE1EE247AE1EE877AE2EE067A43ED047A50ED017AE2EEA67AE3EE257AE3EE877AE4EE057A43ED037A50ED027AE0EE4B
:40224000877AE1EE057AE1EEA67AE2EE247A43ED027A50ED017AE2EE877AE3EE067AE3EEA67AE4EE257A43ED017A5EE74FF0000AD3464B1E4FEA8B020B40059200F02281D4
:40228000884B10AA53F82B3002EB8A021F6852F8088C5B680B938AF0010A10AA02EB8A023B010D930B9B52F808CC032291FBF2F13A0113440C9301FB07F308EBC30208EBEE
:4022C00003130A930CEBC70305930CEB0713079318237B43099327EAE77E002304924FEACE0E0893089B994240F3CD800C980190059802900D9C0C98049A0A9B0B9D0444D1
:40230000079803904646E146002006900198103001900298083002900398083003900698874206F1080602F1080203F1080305F1100509F1080904F1100440F3908052EDC5
:40234000024A15ED045A56ED027A52ED015A15ED036A53ED016A15ED017A0198E4EE857A53ED024A15ED025AE5EEC67AE4EE857AE6EEC77A49ED027A15ED044A56ED017AB4
:4023800052ED024A13ED025AE5EE847AE6EE247A15ED026AE6EE867AE7EE057A49ED017A10ED044A56ED027A52ED015A10ED036A53ED016A10ED017AE4EE847A50ED024A22
:4023C0000298E5EEC67AE5EE247AE6EEC77A40ED027A019856ED017A10ED044A52ED024A13ED025AE5EE847AE6EE247A10ED026A0298E6EE867AE7EE057A40ED017A14ED61
:40240000044A56ED027A52ED015A14ED036A53ED016A14ED017A0398E4EE847A54ED024AE5EEC67AE5EE247AE6EEC77A40ED027A14ED045A56ED017AE5EE857A52ED025A9C
:40244000E6EE257A14ED026AE6EE867A53ED026AE7EE267A40ED017A0698013055E7049B099A734404930A9B73440A93089B01330893099B9C44059B13440593079B1344CD
:40248000F04407932EE70BF1010BF2E67A379E3E7178733FBD1B4FBF1879163F717873BF187916BF18450208039B039A9E44029B0BF1010B13445945C4444444029328D1A8
:4024C000019B0C33012901934FEA8A036BDD3948019A02440598125810A803448AF0010A53F808CC156800EB8A03491053F808EC536804930EEBC50301FB05F4029325EAF0
:40250000E5782B010CEBC40403934FEAC8084FF0000B049B029E6046224677464FF000094D4500F1080002F1080203F1080307F1080706F10806B7DD52ED025A13ED026AEA
:4025400050ED027A52ED016A13ED017AE5EE867A09F10109E6EEC77A47ED027A53ED025A50ED017A12ED026AE6EEA57AE7EE067A47ED017A50ED027A52ED016A13ED017A4D
:40258000E5EEC67AE6EE877A46ED027A13ED026A50ED017AE6EEC67A52ED026AE7EE667A46ED017ABCE710AA134453F8080C11B0BDE8F08FDC440208891000238B4200F1A2
:4025C000100019DA50ED047A67EE807A013340ED047A50ED037A67EE807A40ED037A50ED027A67EE807A40ED027A50ED017A67EE807A40ED017AE1E7704700002DE9F04F08
:40260000ADF62C7DC0EBC0040C440993C54BDDF8506F53F82480C44B53F8222053F82130451C022805FB03F908BFC04B02FB05F208BF53F821300392BD4A4B4452F824508F
:402640005B104FEA8902A9189C00079228460A19099D0692C3EB0903022299FBF2F2089205EB8303089D0293344432460AAE06EB850501952E460F46DDF808E0019D05954F
:402680000EF10805029506F108050495099D9D4202F1080C00F1080B07F1080A3FD251ED017A13ED017A5CED026A019A019867EEC77A1BED027AE6EE877A083B08395CED56
:4026C000016A42ED017A029A12ED027A049A0CED027A5AED027A67EE877A93ED007A42ED027AD1ED007A67EEC77A1BED017AE6EE877A574617EE902A40F8082D029A0190C1
:4027000012ED017A049A0CED017A5AED017A67EE877A164642ED017A58466246ACE7079D2B449E4502F1080200F1080007F1080706F108064FD251ED017A14ED017A52ED89
:40274000026A059D67EEC77A10ED027AE6EE877A083C0839083B45ED017A754695ED007A069D02ED027AD3ED017A57ED026AC4ED017A15ED016A059D67EE867A0EF1080E9D
:40278000E7EE267A94ED007A46ED027AD1ED007A52ED016A67EEC77A10ED017AE6EE877A1EED017A17EE90CA02ED017A45F808CDD3ED007A0595069D57ED016AC4ED007A83
:4027C00015ED026A67EE867A083DE7EE267A069546ED017AA5E7D8F80030D8F80400DB000AAAD1180344914202F108022CD90446083010ED017A51ED013A52ED024A94EDA0
:40280000004A13ED025A52ED015A13ED016A51ED027A67EE246A27EE237AE3EEC46A0839083BA4EE247A42ED026A02ED017A25EE257AA7EEC67A67EEC57A81ED007AE5EE10
:40284000C67AC1ED017ACEE70AAADDF8543F08991046FFF74DFCD8F80020D8F804105310DB0018440B44DDF8541F01EB8202A0F10805A3F108041146DDF8546F8E4200F185
:40288000080003F10803A5F10805A4F1080402F108022AD250ED024A13ED027A50ED013A13ED014A95ED036A94ED025AD5ED027AD4ED035A64EE876A27EE637AE3EE846AF0
:4028C000A4EE247A42ED026A65EE466AE7EEA56A67EE857A42ED016AE5EE867A01ED017A17EE906A41F8086DC6E7039B994514D007EE903AB8EEE77A07EE909AF8EEE77A16
:40290000C7EE276A16EE900A03F062FF039900EE100ADDF8540FFFF74FFE0DF62C7DBDE8F08F00BF6C4402087CB5091044B50910FC4302082DE9F041B7EE005A079E089FC0
:40294000B0EE454A069CA3425ADA0C68D6ED005AD7ED004A640007EE904A8046F8EC016AF8EEE77A75EEA66A77EEA47A66EEA66A77EE857A4FF0010C0025944523DA51F8F3
:402980002C40B8EC016A640007EE104AB8EEC77A35EE866A37EE247A26EE066A37EE047A27EE863A66EE873AB4EE633AF1EE10FAC8BF6546C8BFF0EE477AC8BFF0EE466A86
:4029C0000CF1010CD9E700EB8504D4ED007A51F825C077EEA57A4FEA4C040134C6ED007A07EE904A97ED007AF8EEE77A0CF1010477EE277A0133C7ED007A41F82540A1E71D
:402A0000BDE8F0812DE9F043224D089CDFF8908005EB4010204D05EB4111204D05EBC303079D5B6803EB850393ED007A2546264600234FF0000C02F1400946F804CB174669
:402A400008EB831EB7EC016AFEEC016A56ED017AE6EE267A4F4546ED017AF3D10133102BEBD104F12003F0EC017AD5ED006AE7EE267AE5EC017A9D42F5D14034F1EC017A2F
:402A8000D3ED006AE7EE267AE3EC017A9C42F5D1BDE8F083A8B80810A8B4081040B40810387408102DE9F04300EB8100002650F8047D741C1FB90F2E01D02646F7E700262B
:402AC000166087EAE775FE0FDFF854E01E70A5EBE7754FF00B0C8C421FDA50F8049DB9F1000F08D0176893F8008048EA470717604FEAD9771F700CFB04F70A2D94BF7F19AD
:402B00000A3716685EF82770374489EAE976A6EBE976176001343544DDE7BDE8F08300BF80B1081038B5051F0C463C302A46002352F8041F824201FB0133F9D107EE903A57
:402B4000F8EEE77A17EE900A03F042FE06EE900AF7EE007A87EEA67A214604F1400355F8042F07EE902AF8EEE77A67EE877AE1EC017A8B42F3D138BD2DE9F047C4B08946F1
:402B80004D9901918046D2ED007A0BB1F1EE677A0DF1100A101DCDED057ACDED047A40325146B4EE003AF5EE083AB6EE044AB6EE0C5A90ED007A0BB1B1EE477A37EE676A5D
:402BC000043066EE036A904276EEA75A01F1100141ED025A66EE235A75EEA74A41ED014AF0EE674AE6EE044AE6EE057AC1ED004AC1ED017A02D0F0EE477ADAE74FEAC8071F
:402C0000C8EB07034B44604A52F8234077EE266A37EE257A1F2CCDED426A8DED437A25DC202393FBF4F36343C3F1200304A901EB0311E01A05AA14310DF1100EB5EE007A46
:402C400010328A4215D052ED046A52ED057A77EEA67A52ED036A77EEA67A52ED026A77EEA67A67EE877AEEEC017AE9E7C4F14000002304AA04A902EB031201EB830E04326D
:402C8000194603EB000CB6EE007A614502F108020BDA52ED037A52ED026A77EEA67A013167EE877AEEEC017AEFE7E21A4100121A01EB8301184404AB03EB8101920003EBA2
:402CC0008000C8EB070702F066FFB9442F4BDFED306A53F829009FED2F6ADFED2F5A9FED2F5ADFED2F4A2F4F00221146B7EE004AA24245DAFAEC017A4C9E36EEE77AF1EE7F
:402D0000677A8DED037A039B9DED037A37EE667AF0EE453A77EEC77AB0EE657AA7EE867A03F0070E07EB8E0EDB10E7EE873AB0EE637AF0EE643AE7EE873AB0EE637AF0EEFF
:402D4000443AE7EE873A9EED007A63EE877A17EE905A05EBC35307EE903A8B0006EB030E019E50F8045F3344A94207DABEEC017A27EE277A0131A3EC017AF5E70132B7E756
:402D800044B0BDE8F08700BFA8BC08108C4302080000C0490093243C2C26633D87FE753E1772313F3878081070B4066AB518202D0B4606DCC2690562B3401343C36170BCFC
:402DC000704770BCFDF709BE2DE9F04F1646C0EBC0020A442DED088B8946E14951F82220ADF5497D1F2A80469DF86873DB9D19DC202494FBF2F45443C4F12004111B9C460D
:402E00008BA803EB840AD44500F110000DD05CF804EB40F810EC40F814EC40F818EC40F81CECF0E7C2F140010024C8A800EB041003EB840CFC38A64601EB040BDE4500F1B6
:402E4000080008DA5CF804AB40F808AC40F80CAC0EF1010EF2E7121B4800521A214403EB810100EB840088AB920003EB800002F087FEBC4BDDED884ADFEDC57A03EB8903AB
:402E8000B0EE645AD3F82014F6EE003A0A468BAB01F1FC00F5EE005A25EE237A13ED024AD2ED006AA4EEA57A0C320C3353ED044AA4EE257A24EEA56A27EE267A64EE236A21
:402EC00003ED067AE5EE256A37EE277A76EE866A52ED027A13ED035A66EEA76A52ED017A43ED056A77EE266A24EEA37A9042A4EE257AF6EE008AA5EE257AB5EE008A27EE07
:402F0000277A03ED047A76EE877AC5D1B6EE087AA5EE076A88AC0DF5487B91ED3F7A9FED92BADFED92AA9FED92AADFED929A9FED929A26EE077A4FF03E518DEDC77A77EE52
:402F4000877A9FED8E7A67EE877AA24617EE900A03F09AFB03461946DAF80000059303F093FB20F0FF4242F07C5307EE903AB0EE6A7AA7EE8B7AC0F3C7507E38F0EE4A6A85
:402F8000E7EE276A059BB0EE667AF0EE696AE7EE276AB0EE667AF0EE496AE7EE276A07EE900AF8EEE77A76EEA77A67EEA87AEAEC017ADA45CFD1DDED886ADDED8B7A76EE30
:402FC000A77AB2EE087A77EEA77A09AB87EE876AC0AADDED8C7A76EEA76AC6EE877ADDED896A76EE277A9DED8A6A36EE866AF0EE086A26EE266AC6EE075A77EEA57ACDEDEF
:40300000087AD4ED075A94ED046AD4ED084A36EE256A103476EE065AB2EE085A85EE876A54ED015A75EEA45AC5EE874AD4ED015A36EE246AD4ED024A75EEA45A944265EEE3
:40304000A65AC5EE874A36EE246AA3EC016A77EE867AD6D1DDEDC75A9DEDC47A35EE877AB9F1040F37EE076A86EE057A9DEDC36A75EE865A85EE856ADDEDC65A37EE067A0C
:403080009DEDC56A36EE256AF0EE085A26EE256AC6EE055A37EE257A8DED177A77EE877A02D89FED377A11E0B8F1020F4FEAC6069FED347A00F28B8240F27E4308FB03334D
:4030C0009E4203DDB5EE006A26EE077A9FED2E6A08AB67EE867A18A81A46F0EE465A92ED006A36EE676A26EE076AA2EC016A8242F5D1002F6FD09DED084A9DED096A9DEDED
:403100000A5ADDED0B4A74EE067A0CAA75EE277AF1EE042A87EEA67A74EEA77A8DED087A67EE883A37EE237ACDED093AB2EC013A73EE277A8242C7EEA23A77EEC47A42ED77
:40314000033A37EE237AB0EE464AF0EE453AB0EE645A1FD0F0EE434AB0EE636AE6E700BFA8BC081038740810E7BBA5BF1EC4A3406AC406C174B00141F55C60C017B7D1356D
:403180009A99593F9A99193F0000803D9A99993E0000000027EE888A77EEC67A8DED168A87EEA66AB8F1020F5FED087A8DED176A38EE068A08BFF0EE678A38EE078A28EEEB
:4031C000258AD3ED007A77EEC87A67EEA87AE3EC017A9842F5D15FED125ADFF84CE3DFF84CA300236B602B60F0EE656A1A469FEDCD7A03EB0E0610A903EB0A0C203303EB01
:403200000E0B0C46F0EE477AB6EC015A14ED086A36EE456ABCEC015AE6EE067A5E4504F1040414ED016A36EE456AA6EE067AEBD122B1F4EEE67AF1EE10FA02D52A6012B911
:4032400006E0F0EE667AB4EEE57AF1EE10FA05D56A60F0EE676AF0EE475A01E0F0EE676A0132202AC3D12A68AF4B6C6803EB4213AE4A03F1200702EB441220ACB3EC017A6E
:4032800051ED087A77EEC77AB2EC017A44ED087AD1ED007A77EEC77ABB4201F10401E4EC017AEBD1A24E28AC0022DFED9E7A002302EB0311C7183144D7ED006A91ED007A9B
:4032C0000433402BE6EE877AF2D10432402AE4EC017AEAD138AB9FED937A194628AA9A46F2EC017AF0EEE77A8A42E3EC017A37EE277AF5D117EE100A8E499FED8A8A03F09E
:40330000C3F907EE100AF1EE047AC7EE879A00242346F0EE488A0AEB040292ED009A059369EE897A17EE900A03F05AF907EE900AFDEEE77A88AB17EE900A1A19059BC2ED38
:40334000307AF8EEE77A03444043E9EE278A0434402C07EE900AF8EEE77A38EE278ADAD106AE07AF4FF0060BC6ED008A87ED008A1022B8A9504602970196CDF800B0FFF755
:40338000D9FA0DF5387EBEE80F00A8AC0FC4BEE80F000FC4BEE80F000FC49EE80F0084E80F000823029710220093A8A95B4650460196FFF7BFFA0DF5287CBCE80F000DF5D4
:4033C000187EAEE80F00BCE80F00AEE80F00BCE80F00AEE80F0094E80F008EE80F00D6ED006A97ED007AA1A842A948AC08234FF0000E40F804EF026CF1EC017A06EE102AE8
:40340000B8EEC66A9B1A5243E6EE676AA14207EE902AF8EEE77A37EE677AEAD10A22C6ED006A87ED007A98A9009238A802970196FFF780FA0DF5187EBEE80F0088AC0FC44F
:40344000BEE80F000FC4BEE80F000FC49EE80F0084E80F00012302970622009392A90196002342A8FFF766FA28AC88AA0021F4EC017A002388A8C618F5EEC07AD058F1EEA8
:4034800010FA03F1400348BF4042B3F5807F46F82100EFD10131102902F10402E7D148A988A8FFF73FFB58A998A8FFF73BFB68A9A8A8FFF737FBB8A878A9FFF733FB1E4C0A
:4034C000DFED1E5A0023EB60AB6058A8002254F833E0DFED1A7A04EBC30C1646724531DADCF804109FED0F7A01EB820191ED006A28AFA0F14001B1EE466AB1EC015AF7EC2B
:40350000016AE6EE056A8842A6EEA67AF5D1B4EEE77AF1EE10FA44BF1646F0EE477A0132DCE700BF00000000A8B80810A8B4081038740810B3CE010C40B408100000807FB1
:403540003333B33EF4EEE57AF1EE10FA48BFAB6003F1010344BFEE60F0EE675A042B00F14000B3D108AF0197EB680093AB6848AA95E8030002EB8312FFF744FAAE6888AB33
:40358000022E03EB8614B4BF0A21102105F1180305F110022046FFF785FA46B905F1190305F11402062104F12800FFF77BFADD9B0193DC9B00933A46002349464046FFF700
:4035C000DBFA0DF5497DBDEC088BBDE8F08F41F230139E427FF77AAD1FED276A74E500BF2620704770B50C46064605220968FFF7DBFB052261683046FFF7D6FBA5686D104B
:40360000012229463046FFF7CFFBA268E1682369CDB912F0010001BF6269551C627E02EB4502194D18BF01F0010205FB0235014101223046FFF7B8FB0122217E3046FFF730
:40364000B3FB192219E012F001001EBF03F5E70301F0010503F5185341FA00F14FF0020230460CBF1D4605EB4305FFF79DFB0122217E3046FFF798FB182229463046BDE8EE
:403680007040FFF791BB00BFF477240004288CBF00F1FF33034601330A225A4303EB83036933C90091FBF2F17329D4BF5B18733305288CBFB520FF209842A8BF1846704798
:4036C0009FED0C7AF7EE007A002803DA1C3067EE877AF9E7B2EE047A1B2803DD1C3867EE877AF9E7044B03EB800090ED000A27EE800A7047CDCCCC3D847E081070B5064640
:4037000050421C46FFF7DCFF1A4B049D53F82100042906FB0000F6EE046AF6EE007A286088BFF0EE676A231D0021814221DA13ED017AD3ED007A20EE077A60EE277A03EDB4
:40374000017AB0EEC77AF4EEC76AF1EE10FAC3ED007A09D9F0EEE77AF4EEE76AF1EE10FA02D92A68023A00E002462A6002310833DBE770BD60B509102DE9F04F8DB00429E7
:403780000B938CBF01F1FF330B46DC1C142363439A42179E04DB05298CBF0025012500E00025283B9A4204DD05298CBF0023012300E00023784A52F8212000FB02220992B3
:4037C0000EB1F60201E06FF00046169A0024126806920429B5EE087AF6EE007A4FEA430388BFB0EE677A0893A446049401940294A346A646089BE3189B020A93099BC4F163
:40380000010202331341069A9342A8BF134607930B9B03EB8C08079B9C4504DB0134022C00F09780E6E7B645F8DCD8ED007ABDF80870F0EEE77A77EE877A0423FCEEE77A1A
:40384000184617EE901AD8ED017A0A9BF0EEE77A77EE877A10FB073AFCEEE77A4F4B17EE902A534412F1000918BF4FF00109059341EA0203002918BF09F101099B080EEB96
:40388000C92E39D0ADB1454F45481AF807704FF0220A0AFB070701293F8CA7F58057BE440CBF03270227012A08BF0137BB44012700E02F46EB400393039B9BB1032FBA4677
:4038C000059828BF4FF0030A222310F80AA0344803FB0A0A039BBAF820A05B08D64403930137E9E7032F0EEB073E21FA07F122FA07F228BF032700E01F46059B2848DB5D12
:4039000001EB820A03EB0313534430F813309E44B9F1000F06D07645A2BF0CF102030493CDF804E0012F029B9EBF0137521812FB07F74FEA03198CBF0C3701375FFA89F96D
:40394000FFB24F44FBB202930CF1020C08F1080861E7169B1A46049B1360189B4BB135B1019B03EBCB25AE42ACBF00250125189B1D706FF000439E4202BF019B03EBCB2392
:403980000193019B03F2FF704FF4006390FBF3F00DB0BDE8F08F00BF60B5091068990810E87F08100C4B53F8213000FB03302028CCBF052304234028C8BF01338028C8BF64
:4039C0000133B0F5807FC8BF0133B0F5007FD4BF1846581C704700BF60B509102DE9F04F2DED068B9846E04BADF57D7D53F82130DDF83C6400F10109042903FB09F34FF0F0
:403A0000040783460D461446B0EE409A93FBF7F740F283800DF1100A20220021504602F0D5F86FF00503CAF80030CAF804300223CAF818300523CAF81C3008FA03F87D23BB
:403A400003FB09F398FBF3F86B1F03EB4B0B5AF82B309844B8F1160F05DCB8F1060FB8BF4FF0060801E04FF017089FEDC07ADFEDC05A23460022F0EE477AF7EE006ABA42E6
:403A800003F1100329DA13ED046AB0EEC66AA5EE867A013277EE867A13ED036A35EEA65AB0EEC66AA5EE067A77EE867A13ED026A75EE265AB0EEC66AA5EE867A77EE867AAA
:403AC00013ED016A35EEA65AB0EEC66A77EE867A75EE265AA5EE067AD1E7DFEDA66A67EEA67A06EE909AF8EEE66A26EE877AC7EE876A16EE900A02F01DFE07EE900AFDEED2
:403B0000E77A17EE900A0828A8BF0820C0F1080007EE900AB8EEE78A03E09FED958A4FF000080DF1300A4FF000090020B94504F110042ADA54ED048A54ED037A14ED02AAAD
:403B400054ED019A68EEA88A67EEA7AA18EE901A2AEE0AAA02F098FD69EEA99A1AEE901A02F092FD1AEE101A02F08EFD19EE901A02F08AFD78EEAA7A09F1010977EE8A8A8B
:403B800078EEA98AEAEC018AD0E702F021FE042D08EE900A3FD9DFED786A9FED786A784A76EEC87A10F0FF4F0346CDED037A1CBFA0EBC85307EE103A039BDDED037A77EE0E
:403BC000E67AB1EE488A78EE677ADFED6E6AE7EE866A03F0070102EB81029FED6B6AA7EEA66A4FEAE303DFED696AE7EE866AB7EE008AA7EEA68AD2ED1C7A28EE278A08BF79
:403C0000B0EE687A18EE102A02EBC35308EE103A27EE088A01E09FED568ADFF864A10DF12C0800244CF2A909BC4223DAD8ED017A574978EE277A013417EE900A02F024FDA2
:403C400007EE900A67EEA77A17EE900AC0F384420AEB8202830DB2F89010B2F89220FE3BC0F38F0009FB0313504303EB204048F8040FD9E7DDF83024DDF8340407EE902A0A
:403C8000F8EEE77A434A37EE899AF6EE007A39EE279AC0F1FF00BDEEC99A7B1E19EE101A51430093019104464FF0080E4FF0800C0DF1300ACCEB04094BF2DB63009903FBE9
:403CC00009F800291BDB5AF82120904501DD0139F7E78B4600275AF82B20B2EB080208D42D4B9A42CABFA2F5901202F5E022520000E02A4A1BF1FF3B1744ECD200E0002713
:403D0000019BBB42A8BF4C46009BB8BF0B46BEF1010E00934FEA6C0CCCD1DFED216ADFED217A3060042D88BFF0EE676A082180253268521B1046FFF7C3FC26EE800A6D107F
:403D4000F4EEC08AF1EE10FA48BF32600139EFD13068844228DBF5EE408AF1EE10FA0CBF0123002321E000BF60B50910ACC5273700000000CDCCCC3F0000C0490093243C35
:403D8000847E08102C26633D87FE753E1772313FFFE6DB2E66660100FFFF2A0033B3020000FEFF4600FEFF4A0123DDF83824002B08BF204613700DF57D7DBDEC068BBDE866
:403DC000F08F00BF70B4066AB518202D0B4606DCC2690562B3401343C36170BC704770BCFCF7FBBD0122FFF7EDBF836830B401EB820531F8222041689B0A03FB0212698828
:403E00004B430169836041EA1261B3F5803F22F07F420161426002D230BCFCF78DBE30BC704700002DE9F04F2DED028BA1B098460D4617464FEAC2090646FFF7B3FD033026
:403E4000042994BF0446441CB2F5A07FD4BFA02302232846D8BF02F1FF31DDF8B4B0D8BF91FBF3F31C44FCF709FFC4EB0904241A4046FEF716F9241AFFF7B2FB241A2C98AB
:403E80009FED7D8A00F0B0FEDBED017ADBED008A7A49F8EEE77A201A77EEA87AA0F10B0417EE900A02F0F0FB754902F00BFC07EE900A27EE888ADFED737A39462846A8EEAC
:403EC000A78AFFF7E3FB0AAB804603930DF12703B0EE480A02932E9A3B4629468DE810013046FFF77BFD2F9B059003F1040A4FF0000902462E9BCDF800A029463046FFF7E3
:403F0000FDFBCDF80890CDF804902E9BCDF800A03A4629463046FFF72FFC9DF82720DFED5A7A059B07904A450CBF221A4A4618BFB0EE678ACBF804208BED008A0DF12C0BC2
:403F40005422524908EB030958460A9B069301F017FE0C226A43079B5BF802108B420BEB020E04DA03F1300101EB41011AE0DEF80400834211DA01F1300CC1EB000E0CEB06
:403F80004C0CC1EB030BCCEB00000EFB0CF1302200FB0B1102FB0EF005E0DEF808109942A8BF19463020042D4FF0020290FBF2F20A4492FBF0F21CD99C4246DA022E34BF54
:403FC00002200120B3F5027FACBF02210121002E18BF002101441B1B4B4393FBF2F3194401EB0903FF2BD4BFC9EB0309C9F1FF091FE0911C611A8B4208DA069B4344994593
:404000004FF0FF39D8BF4FF0000912E09C421CDAB9F1FE0FCCBF00210121B9F1FD0F05DC22449342B4BF0023012300E0002301EB0309B9F1000F0AD0CDF800A02E9B4A4607
:4040400029463046FFF75AFB01E04FF00009059B2F9A4B44434442F8083B294602920194CDF800A02E9B3A463046FFF785FB21B0BDEC028BBDE8F08FCDCC4C3E000020C289
:4040800000002042CDCC4C3F00000000947F081038B51D46044608461146FFF783FC696849100129B8BF0121024601392046FFF789FE297A20460122FFF784FE29682046AE
:4040C0000822BDE83840FFF77DBE00002DE9F04F2DED068B8BB0042B92461B9AB44D92F808805268029228BF0423012955F82360009501F101048CBF02230123029D1C9A73
:40410000022994BF1946591C6643BAF1040FF6EE007AB6EE047A4FF0060388BFB0EE677A6343B5420746A3EB01034FF00000A8BF3546DFEDA07A02EB83094FEA410C02466E
:40414000AB465B451BDAF9EC016AF0EEE66AF4EEC76AF1EE10FA0FD5013060450DDD1C9DC1EB030E05EB8E0EDEED006AF0EEE66A77EEA67A013200E000200133E1E70E4430
:40418000B34210DA013084450BDA1C9DC1EB030E05EB8E0E9EED007AB0EEC77A77EE877A01320133ECE7B6EE008AB2B1F3EE006A67EEA66A07EE902AB8EEE77AC6EE877A0F
:4041C00077EE887AFDEEE77A17EE901AC1F10801062902DC21EAE17100E0072103223846FFF7F0FDBAF1040F8CBF0AF1FF325246142302FB03331A9A9A4205DDBAF1050F42
:404200008CBF0023012300E00023009A52F82A20BAF1040F02FB04F2F5EE088A4FEA4303059288BFF0EE488A18F1000218BF0122069300230892009303930193069A019B34
:4042400013449B020993019A059BC2F1010202331341029A9342A8BF13460793009A1C9B03EB820B009B079A934280F2A980DBED007A099B039AF0EEE77A77EEA87A03EBBA
:404280008202FCEEE77A4C4B17EE906ADBED017AF0EEE77A77EEA87AD318FCEEE77A049317EE909A46EA0905AD083BD0B8F1000F0AD0414B995C414B01EB0111102203EBD9
:4042C00081013846FFF791FD089C25FA08F5FDB126FA04F101F001013846FFF783FD29FA04F101F001013846FFF77CFD032C2246049B28BF03223846995C304B01EB0111AA
:40430000102203EB8101FFF770FD6D080134DEE7032CC8EB040526FA08F629FA08F928BF032400E02C465EB1DBED007AF5EEC07AF1EE10FA4CBF012100213846FFF752FD14
:40434000B9F1000F0BD0DBED017AF5EEC07AF1EE10FA4CBF012100213846FFF743FD049B195D164BEE4029FA05F901EB011106EB890203EB81013846FFF737FD012C039B3C
:404380009EBF4E44621C16FB02F64FEA03118CBF0C340136C9B28CBFE4B2F4B20C44E3B20393009B023300930BF1080B5AE700BF60B509100000000068990810688808103A
:4043C000019B0133022B01937FF438AF3846FCF7FEFA0446B8F1000F5FD0DDF870804FF00009029B4B4540F3AF80002C40F3AC80D8ED007AF0EEE77A77EEA87AFCEEE77AC1
:4044000017EE906AD8ED017AF0EEE77A77EEA87AFCEEE77A17EE905A46EA05039B0837D006F001013846FFF7DDFC012E04F1FF3A10D1023CBAF1000F0DD0D8ED007AF5EEE1
:40444000C07AF1EE10FA4CBF012100213846FFF7C9FC00E05446002C04F1FF3604DD05F001013846FFF7BEFC012D10D1002EA4F102040DDDD8ED017AF5EEC07AF1EE10FAB4
:404480004CBF012100213846FFF7ACFC00E0344609F1020908F10808A3E7BAF1040FF6EE048AF6EE007A88BFF0EE678A28EE888A8CBF4FF0140A4FF0010A002C44DD1C9DDC
:4044C0004FF00009B1EE48AA029B4B4506DC08F10108D04528EE288AEFD135E0002CF6DDF5EC019AB0EEE99AF4EEC98AF1EE10FA27DC19EE100A02F057F907EE900A39EE4A
:40450000679A3846F4EEC98AF1EE10FAF5EEC09ACCBF01260026F1EE10FA4CBF012300235E403146FFF75EFC55ED017A002E14BFB0EE4A7AB0EE487A77EE877A013C45EDD4
:40454000017A09F10109BFE70BB0BDEC068BBDE8F08F00BF70B50B4E00238B4211DA50F8235085EAE574A4EBE57406EB8404D4ED007A002DB8BFF1EE677AE2EC017A0133E5
:40458000EBE770BD98B50910836830B401EB820531F8222041689B0A03FB021269884B430169836041EA1261B3F5803F22F07F420161426002D230BCFCF7BEBA30BC704713
:4045C0002DE9F04FE7B083460A92421C02920191029978224A43B2EBC30F709ACCBF01230023137128B1019B022B94BF0023012300E00346709A0133BBF1010F13604FF044
:4046000000018CBF0823042370224AA8009301F0DDFAB04B4A9303F10C024B9203F118024C9203F124024D9203F130024E924F92509203F13C02519203F14802529203F16D
:404640005402539203F16002549203F1740255925692579203F18802589203F19802599203F1A8025A9203F1B8025B9203F1D4025C9203F1F0025F9203F58072609203F538
:404680008872619203F59072629203F59E73019A639364936593CBEBCB03134466AA02EB830353F8708CBBF1000F0AD0019B022B94BF00270127BBF1010F03D94FF003090E
:4046C00002E05F464FF00209719BD8F8004003EB840424235F4307F128030593059A1DAB13440993009A4FEA890308932FAF0C231EAD03FB027204922E460B936C220021BE
:40470000384601F063FA2246CDF80C800021039B53F8044F0393719B03EB8404A01A831007938B00069300230798DFED6B7AC3EB000E02EB830A02EB8E0E9446F44506D059
:40474000FCEC016ABAEC017AE6EE877AF6E70B98864606980EFB030E2FA886440098CEED007A01339842DFDA013149452246CED107EE909A089B9DED2F7ADDED306AF8EEB1
:40478000E77AB9F1020F984446ED017A36D1534A3B463146B5EE407AF1EE10FA13D0F5EE406AF1EE10FA0ED093ED036AD3ED045AC6EE077A85EEA66A77EE867A92ED006A29
:4047C00067EE867A01E0DFED447A0498E1EC017A0C33984202F10402DCD1099B24369E428CD1059A2FA90A44B7EE005A0DF1340E30AB0392F0EE454A10A833E09DED316A4A
:40480000364A3B463146B5EE407AF1EE10FA1ED0F5EE406AF1EE10FA19D0B5EE406AF1EE10FA14D0D3ED035A93ED045AC5EE877AC5EE265A93ED055A77EEA57AC5EE065AFB
:4048400077EEA57AD2ED005A67EEA57A01E0DFED227A0498E1EC017A0C33834202F10402D1D1BAE755ED015A03ED015ACEED005A11AE1A462946F0EE657A0124B7EE006A3E
:4048800091ED007A8846B1EE477A9C46944506D0BCEC014A78ED016AA4EE667AF6E7C7EE276A8046924699464FF0010CB0EE647AA6EEE67A67EE277AA44515D0B9EC017ACC
:4048C0003AED014AA6EE847A0CF1010CA8EC017AF2E700BFBCB509100000000018B709109899193E00303D3F01F1040C9CED007A46ED016AB1EE477A80467CED016AB8EC1C
:40490000014AAC45A4EE667AF7D1C7EE276A9846B4468146B0EE647AA6EEE67A67EE277A3CED014AB9EC017AA6EE847A8445A8EC017AF5D1009FC2ED016A0234A74201F128
:40494000080106F1080602F1080299DA85EEA77A039A24339A4205F12405AEEC017A81D107F18043013B4FEA830909F104030593709B03F110071E1D009B023B9B001DACED
:404980002FAD06934FF0000A709B1B689A4580F2D580002346F8043F0A9B002B40F0C8800DAB03EB8A03D3ED007AB7EE087AF4EEC77AF1EE10FA40F2BB80709B1B798BB929
:4049C000059BEA18D2ED007A04EB0903B1EE677AF0EE466AC3ED007AE7EE276A2B1D16A9104620E0B0EE007AF4EEC77AF1EE10FAE6D577EE677A5FED466A66EEE77AF0EE32
:404A0000466AE7EE876A2B1D05F12402B7EE007AD3ED007A27EE267A67EE877AE3EC017A9342F5D1CCE79A420AD070ED015AF3EC017AE7EE257AC7EEA65AE1EC015AF2E7AE
:404A4000009BDDF818E0991E09EB040816AB1C200DF13C0C01F0010200FB02C203EB0E00D0ED007A0393B1EE677AF0EE465AE7EE275A0490134668ED017A4FF0000C039861
:404A8000F0EC017A0390049870ED016AE7EE267A0CF1010C8C450490C7EEA56AE3EC016AEDDB0139AEF1040E1346D0D113682360009B3360059B5FED756A07EB030E2046B9
:404AC0003B46F0EC017AB0EEE77AB4EEE67AF1EE10FAACBF042200221A6004229C4603921A683F4901EB8208D8ED685AB4EEE57AF1EE10FA05DB01321A60039A013A03923F
:404B0000EED1F5EEC07AF1EE10FA02D51A6852421A60DCF80020043312B93168013900E0009931607345CCD122463846FFF712FD0AF1010A20372034243525E7709B03F121
:404B40000806BBF1000F05D0019B022B94BF0027012700E05F46019B224A042B28BF0423002152F82340029B5C4320223C410FA803EB430501F02AF82246002356F823C0DD
:404B80009146BCF1000F06D071991DA801EB850100EB431A0AE001339F4222444D46EDDA67B0BDE8F08FE1EC017A0135AA42F2DD91ED007A0DF13C0ED046F0EE477A0020BB
:404BC0008445F0DD9EED006AF8EC016AAEEC017AB0EE467AA6EEA77A0130E6EE267AEFE798B5091060B5091002462DE9F04F52F80CCBDFF86480DFF864900025064600F1FE
:404C0000040E2846654524DA5EF8047F002FC3BF317907F1FF3303EBC1030023C8BF38F81330924603F500630021B9420ADA5AF8044F01EB011B08345C44013139F81440AC
:404C40002344F2E703F2FF7300EBE32001352032D8E7BDE8F08F00BFD8B00810A8AD08102DE9F74F04460D4601F10C0A01F1040B4FF000092B68994537DA5BF8047F226A3A
:404C8000002F02F10103D4BF00210121202B05DC9140E26923621143E16103E001222046FBF79BFE002F04DC09F101090AF1200AE0E70F4B29794FF0440808FB01317A1E4B
:404CC0002046FFF761FC0026534653F8042F00930193084B083208FB063120460136FFF753FCB742009BF0D1DEE703B0BDE8F08FF8B00810B8AE0810034B1B681A68D3F8A1
:404D00008430D058000E70478C690208044B1B681A68D3F88430D058C0F30720704700BF8C690208034B1B68B3F8B0201B6A00FB023070478C690208034B1B68D3F8B43055
:404D4000C058C00F704700BF8C6902081D4B984236D00FD840282CD005D800282FD010282BD119487047802825D0B0F5807F24D118467047154B984214D008D8B0F1204F9B
:404D80001DD0134B984218D14FF4A0007047114B98420AD00133984209D0023B98420CD10D4870474FF4A40070470C4870470C4870470C4870470C4870470C48704700205F
:404DC000704700BF0600520001005000010000F0090000A0040000F00100520002005200030052000200500005005200FF00520008B50120FFF796FFFFF79EFF60B9074BA9
:404E00001868FFF7A3FF064B1B685B6801229A609A68002AFCD108BD024808BD3C5002088C69020802005000184B13B5186128B102230370FF23437000234380144A136849
:404E400093F850101446F1B11B8FADF80030114900236846019300F015FABDF90030002B08DB5909012203F01F0302FA03F30A4A42F82130236893F8513023B102220749D0
:404E8000012000F08FF902B010BD00BF3C5002088C690208DF49020800E100E0AD4902080148FFF7C1BF00BF50500208054B1B68D3F8B430C358002BBDBF89B2416000202B
:404EC000014870478C69020801008A000368002BBBBF89B2C26002488160B8BF0020704701008A00054B1B68D3F8B430C358002BBDBFC3680B600020014870478C690208BE
:404F000001008A00F8B5154B0C46196891F83130834221D904B3226812F01F071CD1B1F8B0300D6A0E4E00FB0355D20839466068356000F04BFE39462846FFF7B7FF394651
:404F400022463068FFF7C2FF014618B93068FFF7ADFF10B10348F8BD0348F8BD8C6902085450020801018A0003018A0010B404465AB999B90B4B1A68B2F8B030106A04FB52
:404F80000300094B1860084609E039B1064B5DF8044B5960191D9A60FFF7B4BF03485DF8044B70478C6902085450020803018A001C4B1A682DE9F041D2F80C80D8F8002063
:404FC000824204460D461E4624D919B900F0E1F9074600E0002730680368002B01DB124C13E06209D8F804100123A4EB421403FA04F451F822301C420ED023EA040341F833
:40500000223000240021FFF751FF3DB9384600F0C4F903E0054C01E0054CF3E72046BDE8F08100BF545002080301880004018A00020188000B4B1B68DB681A6882420ED95A
:4050400042095968A0EB4210012303FA00F051F822301842044B054818BF184670470448704700BF54500208010188000001880004018A00024B1A6802B91860704700BF2F
:4050800060500208F0B52C246043144C059F25685FFA83FE45F800E02C1811480668306AB6F8B060C3F307250EFB0606266105F1800665601B0C00EB461600EB451041F213
:4050C0000805A36043EA0343666143510023E2612162A3610FB13B88A381F0BD605002088C690208F0B5174B41691B688269DB8EC668076985B002AD00950B440446C16A75
:40510000ADF808300392436A826A006AFFF7BAFF00223B46114600923046FFF7B3FF216B284600F0AFF8BDF90830002B08DB5909012203F01F0302FA03F3034A42F82130B0
:4051400005B0F0BD8C69020800E100E0F0B5124C26682C2707FB006425693DB107FB0161886928B92E68002E02DA03E00B48F0BD0B48F0BD4E68D4F804E0012404FA06F708
:40518000168846EA07461660EA608C6104FA0EF4A4B24B62AC60F0BD6050020804028A0007028A00074B10B51C682C2303FB0040C369934283BF036A002043F822100248DF
:4051C00010BD00BF605002080A028A0073B54369DD6800262A0C044601961ED012041A601B68174B00691B68D3F8B430C358B34213DA01A9FFF776FE58B90198E26903680E
:405200001E0CDBB2934204D2226A52F8233003B1984731462069FFF749FEADB265B163691D601B68636A002513B19847656202E0A36A03B19847A56163691B6802B070BDC0
:405240008C690208034B1B682C2202FB0030FFF7BDBF00BF60500208074B9A68074B9A4218BF074A00F1100306BF52F8230042F8231052F82300704700ED00E00040020870
:405280000000081010B5F0B1B0F900304268002BA8BF03F160434FEA4212ADBF03F5614303F00F030A4CD2B2B6BFD2B283F80023E254084B9A68084B9A4206D1B0F900007F
:4052C000FFF7CAFF01E0054810BD002010BD00BF14ED00E000ED00E00040020801005600FEE7000008B5234B02681A6042685A6082689A60C268DA6002691A6142695A610D
:4053000082699A61C269DA611B4A916A1962D16A5962516A9962516BD962926B1A63F1EE102A12F0900F21D0026A5A63426A9A63826ADA63C26A1A64026B5A64426B9A6403
:40534000826BDA64C26B1A65026C5A65426C9A65826CDA65C26C1A66026D5A66426D9A66826DDA66C26D1A67026E5A67FFF7B8FF08BD00BF284E020800ED00E00000000035
:405380000230800803D001300238FCD100BF00BF7047EFF3108072B6704780F3108870474FF0B0535A7812B15878C0B27047212070470000014B1860704700BF8C690208DF
:4053C000036813F4006F10B501F1FF3114BF8024402411F8012F42B1D0F80832C3F30803A342F9D0C0F84022F3E710BD81F0004102E000BF83F0004330B54FEA41044FEA07
:40540000430594EA050F08BF90EA020F1FBF54EA000C55EA020C7FEA645C7FEA655C00F0E2804FEA5454D4EB5555B8BF6D420CDD2C4480EA020281EA030382EA000083EAA5
:40544000010180EA020281EA0303362D88BF30BD11F0004F4FEA01314FF4801C4CEA113102D0404261EB410113F0004F4FEA03334CEA133302D0524263EB430394EA050FF7
:4054800000F0A780A4F10104D5F1200E0DDB02FA0EFC22FA05F2801841F1000103FA0EF2801843FA05F359410EE0A5F120050EF1200E012A03FA0EFC28BF4CF0020C43FAA1
:4054C00005F3C01851EBE37101F0004507D54FF0000EDCF1000C7EEB00006EEB0101B1F5801F1BD3B1F5001F0CD349085FEA30004FEA3C0C04F101044FEA445212F5800FCF
:4055000080F09A80BCF1004F08BF5FEA500C50F1000041EB045141EA050130BD5FEA4C0C404141EB010111F4801FA4F10104E9D191F0000F04BF01460020B1FA81F308BFB1
:405540002033A3F10B03B3F120020CDA0C3208DD02F1140CC2F10C0201FA0CF021FA02F10CE002F11402D8BFC2F1200C01FA02F120FA0CFCDCBF41EA0C019040E41AA2BF11
:4055800001EB0451294330BD6FEA04041F3C1CDA0C340EDC04F11404C4F1200220FA04F001FA02F340EA030021FA04F345EA030130BDC4F10C04C4F1200220FA02F001FA91
:4055C00004F340EA0300294630BD21FA04F0294630BD94F0000F83F4801306BF81F480110134013D4EE77FEA645C18BF7FEA655C29D094EA050F08BF90EA020F05D054EA96
:40560000000C04BF1946104630BD91EA030F1EBF0021002030BD5FEA545C05D14000494128BF41F0004130BD14F580043CBF01F5801130BD01F0004545F0FE4141F4700136
:405640004FF0000030BD7FEA645C1ABF194610467FEA655C1CBF0B46024650EA013406BF52EA033591EA030F41F4002130BD00BF90F0000F04BF0021704730B54FF480643C
:4056800004F132044FF000054FF0000150E700BF90F0000F04BF0021704730B54FF4806404F1320410F0004548BF40424FF000013EE700BF42004FEAE2014FEA31014FEAF0
:4056C00002701FBF12F07F4393F07F4F81F06051704792F0000F14BF93F07F4F704730B54FF4607401F0004521F0004120E700BF50EA010208BF704730B54FF000050AE0E8
:4057000050EA010208BF704730B511F0004502D5404261EB41014FF4806404F132045FEA915C3FF4DCAE4FF003025FEADC0C18BF03325FEADC0C18BF033202EBDC02C2F11B
:40574000200300FA03FC20FA02F001FA03FE40EA0E0021FA02F11444C1E600BF70B54FF0FF0C4CF4E06C1CEA11541DBF1CEA135594EA0C0F95EA0C0F00F0DEF82C4481EA7D
:40578000030621EA4C5123EA4C5350EA013518BF52EA033541F4801143F4801338D0A0FB02CE4FF00005E1FB02E506F00042E0FB03E54FF00006E1FB03569CF0000F18BFE0
:4057C0004EF0010EA4F1FF04B6F5007F64F5407404D25FEA4E0E6D4146EB060642EAC62141EA55514FEAC52040EA5E504FEACE2EB4F1FD0C88BFBCF5E06F1ED8BEF1004F2F
:4058000008BF5FEA500E50F1000041EB045170BD06F0004646EA010140EA020081EA0301B4EB5C04C2BFD4EB0C0541EA045170BD41F480114FF0000E013C00F3AB8014F192
:40584000360FDEBF002001F0004170BDC4F10004203C35DA0C341BDC04F11404C4F1200500FA05F320FA04F001FA05F240EA020001F0004221F0004110EBD37021FA04F68F
:4058800042EB06015EEA430E08BF20EAD37070BDC4F10C04C4F1200500FA04F320FA05F001FA04F240EA020001F0004110EBD37041F100015EEA430E08BF20EAD37070BDA1
:4058C000C4F1200500FA05F24EEA020E20FA04F301FA05F243EA020321FA04F001F0004121FA04F220EA020000EBD3705EEA430E08BF20EAD37070BD94F0000F0FD101F096
:405900000046400041EB010111F4801F08BF013CF7D041EA060195F0000F18BF704703F00046520043EB030313F4801F08BF013DF7D043EA0603704794EA0C0F0CEA1355DB
:4059400018BF95EA0C0F0CD050EA410618BF52EA4306D1D181EA030101F000414FF0000070BD50EA410606BF1046194652EA430619D094EA0C0F02D150EA013613D195EAA5
:405980000C0F05D152EA03361CBF104619460AD181EA030101F0004141F0FE4141F470014FF0000070BD41F0FE4141F4780170BD70B54FF0FF0C4CF4E06C1CEA11541DBF66
:4059C0001CEA135594EA0C0F95EA0C0F00F0A7F8A4EB050481EA030E52EA03354FEA013100F088804FEA03334FF0805545EA131343EA12634FEA022245EA111545EA1065BC
:405A00004FEA00260EF000419D4208BF964244F1FD0404F5407402D25B084FEA3202B61A65EB03055B084FEA32024FF480104FF4002CB6EB020E75EB030E22BFB61A7546FB
:405A400040EA0C005B084FEA3202B6EB020E75EB030E22BFB61A754640EA5C005B084FEA3202B6EB020E75EB030E22BFB61A754640EA9C005B084FEA3202B6EB020E75EB07
:405A8000030E22BFB61A754640EADC0055EA060E18D04FEA051545EA16754FEA06164FEAC30343EA52734FEAC2025FEA1C1CC0D111F4801F0BD141EA00014FF000004FF09C
:405AC000004CB6E711F4801F04BF01430020B4F1FD0C88BFBCF5E06F3FF6AFAEB5EB030C04BFB6EB020C5FEA500C50F1000041EB045170BD0EF0004E4EEA113114EB5C0491
:405B0000C2BFD4EB0C0541EA045170BD41F480114FF0000E013C90E645EA060E8DE60CEA135594EA0C0F08BF95EA0C0F3FF43BAF94EA0C0F0AD150EA01347FF434AF95EABE
:405B40000C0F7FF425AF104619462CE795EA0C0F06D152EA03353FF4FDAE1046194622E750EA410618BF52EA43067FF4C5AE50EA41047FF40DAF52EA43057FF4EBAE12E780
:405B800010B5431E0A44914204D011F8014B03F8014FF8E710BD884210B501EB020301D8421E0BE09842FBD28118D21AD34204D013F8014D01F8014DF8E710BD994204D0CA
:405BC00011F8014B02F8014FF8E710BD02440346934202D003F8011BFAE7704738B5124B1C68A36B0546D3B9182000F0B1F843F20E33A06303804AF6CD33438041F2342368
:405C000083804EF26D63C3804DF6EC630381052343810B23838101220023C0E90423A36B00221D615A6138BD40490208194B10B51C68A36BD3B9182000F08AF843F20E336C
:405C4000A06303804AF6CD33438041F2342383804EF26D63C3804DF6EC630381052343810B23838101220023C0E90423A16B0A4C0B694869094A5C4302FB0040A3FB0223F8
:405C80000132034443F10003C1E9042323F0004010BD00BF404902082DF451582D7F954C0CB430B5164B0C1E9DB01D6804DA8B232B604FF0FF301EE04FF40273ADF8143073
:405CC00014BF04F1FF332346049307934FF6FF7302900690ADF81630209A21AB02A92846019300F043F9431CBCBF8B232B6014B1029B00221A701DB0BDE8304002B070477B
:405D00004049020813B5084B044600221868694600F00CF80028BCBF4FF0FF330093009804B1206002B010BD4049020838B5074C0023054608461146236000F03BFC431C44
:405D400002D1236803B12B6038BD00BF90690208024B0146186800F051B800BF4049020838B50546002946D051F8043C0C1F002BB8BFE41800F0ECFB1F4A1368114613B9C9
:405D80006360146032E0A3420ED92268A018834204BF18685B68636004BF121822600C6024E0A24203D813465A68002AF9D118681918A1420BD12168014458188242196066
:405DC00014D1106852685A60014419600EE002D90C232B600AE021686018824204BF10685268626004BF091821605C602846BDE8384000F0AEBB38BDA450020870B5CD1C25
:405E000025F0030508350C2D38BF0C25002D064601DBA94202D90C23336046E000F098FB234B1C681A462146A1B10B685B1B0ED40B2B03D90B60CC18CD501EE08C420DBF35
:405E400063684B686360136018BF0C4615E00C464968E9E7174C23681BB9304600F016FB20602946304600F011FB431C18D0C41C24F00304A0420DD12560304600F069FB92
:405E800004F10B00231D20F00700C31A0ED05A42E25070BD211A304600F0F8FA0130EBD10C233360304600F054FB002070BD00BFA4500208A05002082DE9F0478E689E42B7
:405EC00082460C46914698463ED88A8912F4906F3AD0256809696F1A6569022305EB450595FBF3F57B1C43449D4238BF1D4653050FD52946FFF782FF064698B13A46216956
:405F0000FFF73EFEA38923F4906343F08003A38113E02A4600F01EFB064670B921695046FFF71EFF0C23CAF80030A38943F04003A3814FF0FF30BDE8F087266165613E44CB
:405F4000ED1B2660A5604646464528BF4646324649462068FFF71FFEA3689B1BA36023681E4426600020BDE8F08700002DE9F04F9DB0804603938B891C060D4616460DD52A
:405F80000B695BB94021FFF739FF2860286118B90C23C8F80030CDE040236B610023099320238DF82930DFF89CB130238DF82A3037463C4614F8013B1BB9B7EB060910D00B
:405FC00003E0252BF9D02746F3E74B46324629464046FFF771FF013000F0A780099B4B4409933B78002B00F0A08000234FF0FF3204930793059206938DF853301A93012625
:40600000052221784E4800F053FA671C049B38B14B4A801A06FA00F0184304903C46EFE7D90644BF20228DF853201A0744BF2B228DF8532022782A2A03D0079A00210A202A
:406040000BE0039A111D12680391002A10DA524243F00200079204900BE0274601343B78303B092B03D800FB02320121F5E701B107923B782E2B1ED17B782A2B0AD1039B64
:406080001A1D1B680392002BB8BF4FF0FF330237059310E000230593781C19460A24074601303A78303A092A03D804FB01210123F5E703B1059103223978224800F0F8F9AD
:4060C00040B14023CBEB000003FA00F0049B18430490013739781C488DF8281006227E1C00F0E6F988B1194B33B9039B073323F007030833039314E003AB00932A46144B2D
:4061000004A94046AFF3008007E003AB00932A460F4B04A9404600F093F8B0F1FF3F824603D0099B5344099342E7AB895B0601D4099801E04FF0FF301DB0BDE8F08F00BFE6
:40614000CAB80910D0B80910D4B8091000000000B95E08102DE9F04791461F460A698B68DDF820809342B8BF1346C9F8003091F8432006460C4612B10133C9F80030236818
:40618000990642BFD9F800300233C9F80030256815F0060510D104F1190A07E00123524639463046C04701301AD00135E368D9F800209B1A9D42F1DB94F84330226800333A
:4061C00018BF012392060FD5E1185A1C302081F84300224494F8451082F84310023303E04FF0FF30BDE8F08704F1430239463046C0470130F4D02268D9F80050E36802F0E4
:406200000602042A08BF5D1B2269A3680CBF25EAE57500259342C4BF9B1AED184FF000091A344D4509D00123224639463046C0470130D5D009F10109F3E70020BDE8F0876F
:406240002DE9F04317460A7E85B06E2A984606460C460C9B01F1430E00F0AE8011D8632A22D009D8002A00F0BB80582A40F0CA8081F84520834955E0642A1ED0692A1CD02B
:40628000C0E0732A00F0B08009D86F2A2ED0702A40F0B8800A6842F020020A603EE0752A24D0782A3AD0ADE01A6801F14205111D1960136884F84230A8E021681A6811F08E
:4062C000800F02D0111D196008E011F0400F02F10401196002D0B2F9003000E01368002B3CDA2D225B4284F8432037E021681A6811F0800F02D0111D196007E011F0400F77
:4063000002F10401196001D0138800E01368227E5C496F2A14BF0A2208221BE078225A4984F845202268186812F0800F00F104051D6003D1550601D5038800E00368D00741
:4063400044BF42F0200222601BB9226822F0200222601022002084F8430001E049490A226568A560002D08DB206820F0040020602BB9002D7DD175460CE0002B79D075464D
:40638000B3FBF2F002FB1033CB5C05F8013D03460028F5D1082A0BD12368DA0708D5236962689A42DEBF302305F8013C05F1FF35C5EB0E0323612EE008681A68496910F0A0
:4063C000800F03D0101D1860136808E010F0400F02F104001860136801D0198000E0196000232361754616E01A68111D1960156862680021284600F05BF808B1401B6060C9
:40640000636804E004F1420584F8422001232361002384F84330CDF800803B4603AA21463046FFF797FE013002D14FF0FF3026E023692A4639463046C0470130F5D023680D
:406440009B0710D5002504F1190907E001234A4639463046C0470130E7D00135E368039A9B1A9D42F2DBE068039B9842B8BF184605E00B7884F8423004F142058AE705B00E
:40648000BDE8F083DBB80910ECB8091038B5064C002305460846236000F094F8431C02D1236803B12B6038BD906902080000000001F0FF01102A2BDB10F0070F08D010F846
:4064C000013B013A8B422DD010F0070F42B3F6D1F0B441EA012141EA014122F007047FF000070023F0E80256083C85EA010586EA010685FA47F5A3FA87F586FA47F6A5FAE5
:4065000087F68EB9EED1F0BC01F0FF0102F0070232B110F8013B013A83EA010313B1F8D10020704701387047002D06BF35460338073815F0010F07D1013015F4807F02BF4B
:40654000013015F4C03F0130F0BC0138704700BF70477047F8B5074615460E4621B91146BDE8F840FFF74ABC1AB9FFF7F9FB2846F8BD00F015F885420ED929463846FFF7C7
:406580003DFC044650B131462A46FFF7F9FA31463846FFF7E5FB01E03046F8BD2046F8BD51F8040C0028BEBF091851F8043CC01804387047024B58221A604FF0FF307047BC
:4065C00090690208044A05491368002B08BF0B461844106018467047A85002089869020882B00190019A22F00041CB0D7F3B162B17DC002B104622DB214919410A4213D068
:40660000DFED207A9DED017A77EE277AF5EEC07AF1EE10FA22DD002A23DB20EA010002B07047B1F1FF4F02D2019802B07047DDED017A77EEA77A17EE900A02B07047DFEDE3
:40664000117A9DED017A77EE277AF5EEC07AF1EE10FAE9DD002A0ADB0020E6E717EE100AE3E74FF4000242FA03F31844D5E717EE100A0029FFEE007A18BF17EE900AD4E764
:40668000FFFF7F00CAF2497108B52DED028B08EE900A08EE101A00F033F820B918EE100ABDEC028B08BD18EE100A00F029F820B1F4EEC88AF1EE10FAF0DD18EE900ABDEC8F
:4066C000028B08BD08B52DED028B08EE900A08EE101A00F015F820B918EE100ABDEC028B08BD18EE100A00F00BF820B1F4EEC88AF1EE10FAF0D518EE900ABDEC028B08BDE2
:4067000030F0004001D102207047A0F50003B3F1FE4F01D204207047054B421E9A4201D803207047A0F1FF40B0FA80F040097047FEFF7F00C0F3C7537F3B162B14DC002B8F
:406740001EDB184A10B442FA03F4204223D04FF480021A41024422EA040207EE902A5DF8044B17EE900A7047802B07EE900A02D017EE900A704777EEA77A17EE900A704713
:4067800000F00042013308BF42F07E5207EE902A17EE900A704707EE900A5DF8044B17EE900A7047FFFF7F00C0F3C7537F3B162B024609DC002B00F0004005DB034941FAE8
:4067C00003F322EA03021043704700BFFFFF7F0010B52DED028B8AB008EE100A00F04CF8234B93F90040631C09D0B4EE488AF1EE10FA04D6B5EEC08AF1EE10FA03D40AB032
:40680000BDEC028B10BD01231A4A009318EE100A002301920893FEF74DFF0022CDE90401CDE902010023ACB110461946FFF7C0F8022CCDE906010FD100F0C6F821230360EF
:40684000089B7BB9DDE9060100F06EF80AB0BDEC028B10BDCDE90623684600F063F80028EED1E9E700F0B0F8089B0360EAE700BF4449020800B9091020F00042B2F1FF4FF8
:4068800070B407EE900A33D272B30028034641DBB2F5000F4FEAE05030D3A0F17F02C3F31603D10743F4000348BF5B00002456105B00254619214FF08072A818984202DCC4
:4068C0001B1A8518144401394FEA43034FEA5202F3D113B104F001031C44641004F17C5404EBC65307EE903A17EE900A70BC7047E7EEA77A70BC17EE900A704713F4000245
:4069000001D00CE00A465B001C0202F10101F9D5801AC2E737EEE77AC7EE077AE4E74FF0FF32F5E7002070474FEA4102B2F1E04324BFB3F5001CDCF1FE5C0DD901F0004CEE
:406940004FEAC0024CEA5070B2F1004F40EB830008BF20F00100704711F0804F21D113F13872BCBF01F00040704741F480114FEA5252C2F11802C2F1200C10FA0CF320FAB2
:4069800002F018BF40F001004FEAC1234FEAD32303FA0CFC40EA0C0023FA02F34FEA4303CCE77FEA625307D150EA01331EBF4FF0FE4040F44000704701F0004040F0FE408A
:4069C00040F40000704700BF014B1868704700BF40490208F8B500BFF8BC08BC9E467047F8B500BFF8BC08BC9E467047456E636F64657220696E697469616C697A6174692F
:406A00006F6E206661696C656400636D3420776F6B656E207570210A0025642C20307825580A00000300000001000000010000000000000005036000040000000100000006
:406A4000000000000100000006046000080000001C500208AD040810B86A0810F86A0810386B0810786B0810040000000400000003000000010000000400000004000000E6
:406A80000300000001000000040000000400000003000000020000000400000004000000030000000100000072FBFC41B78647430000C8420000C8421823000000000000F9
:406AC0000000000000000000182100002328000000000000000000001820000021270000272B000000000000161E00001F24000025290000292C00002732000000000000CD
:406B00000000000000000000232D00002F3400000000000000000000222B00002C3200003236000000000000202900002A2F000030340000343700003340000000000000AB
:406B400000000000000000002D3800003A40000000000000000000002A340000353B00003C400000000000002831000033380000393D00003D4000003540000000000000C0
:406B800000000000000000002F3900003B40000000000000000000002C350000363C00003C400000000000002932000033380000393D00003D4000000200000003000000E5
:406BC0000400000002000000910D0810E10D08103D0E0810A90E0810210F0810910F081025100810C1100810CEFF13008F00A3FFDEFE1601E5016EFD43FD7405850335F4AC
:406C0000EEFB242850442428EEFB35F48503740543FD6EFDE5011601DEFEA3FF8F001300CEFF0000D2FF00008D00D3FFCFFEB9001F020BFEAAFC8104E104C5F58CF808223F
:406C4000CE43FC2D000009F3E001390608FEE4FC8F016F01FBFE72FF8A002800CCFFFBFFD7FFEFFF85000000D0FE5B003E02B2FE41FC6E03EC05A1F7E2F5CE1B4B42693375
:406C8000B20459F20000C306F5FE74FC1F01BD0129FF44FF7D003E00CCFFF4FFDEFFE2FF78002900DDFE000041025CFF09FC4902A106AEF9F4F39E15D13F4638F0093AF222
:406CC000F5FD0807000027FC9800FD0164FF1AFF68005300D0FFEDFFE6FFD7FF67004C00F7FEADFF2A02000001FC2001FF06D2FBBFF29E0F723C723C9E0FBFF2D2FBFF06D3
:406D0000200101FC00002A02ADFFF7FE4C006700D7FFE6FFEDFFD0FF530068001AFF64FFFD01980027FC00000807F5FD3AF2F0094638D13F9E15F4F3AEF9A106490209FC63
:406D40005CFF41020000DDFE29007800E2FFDEFFF4FFCCFF3E007D0044FF29FFBD011F0174FCF5FEC306000059F2B20469334B42CE1BE2F5A1F7EC056E0341FCB2FE3E023C
:406D80005B00D0FE00008500EFFFD7FFFBFFCCFF28008A0072FFFBFE6F018F01E4FC08FE3906E00109F30000FC2DCE4308228CF8C5F5E1048104AAFC0BFE1F02B900CFFE1C
:406DC000D3FF8D000000D2FFF3FFE7FFECFF0A00330047002600D1FF7BFF6FFFD6FF8B001501F2000000B7FE01FEA1FE9000BA027F03C201E9FD1AFA5FF9F7FDCF071214B0
:406E0000391E2822391E1214CF07F7FD5FF91AFAE9FDC2017F03BA029000A1FE01FEB7FE0000F20015018B00D6FF6FFF7BFFD1FF2600470033000A00ECFFE7FFF3FF0000A7
:406E4000F7FFE9FFE8FF0000290047003400E9FF8DFF68FFB2FF5C00FE0010014C0005FF13FE55FE0000400284037002FAFEE3FA1DF946FCF8040411231CE721E91FFE1622
:406E8000CF0A0000FAF984F9D7FCF00050031C03240104FF05FE72FEAEFFC7002001B70000007EFF6FFFB9FF140045003C001400F1FFE6FFEFFFFDFFFAFFECFFE6FFF8FFA2
:406EC0001F0043003E000000A2FF68FF94FF2D00DF001F018F0059FF3AFE20FE7AFFB7016203F6020000D1FB2CF9F1FA5902E70DB41925212521B419E70D5902F1FA2CF9B0
:406F0000D1FB0000F6026203B7017AFF20FE3AFE59FF8F001F01DF002D0094FF68FFA2FF00003E0043001F00F8FFE6FFECFFFAFFFDFFEFFFE6FFF1FF14003C00450014002B
:406F4000B9FF6FFF7EFF0000B7002001C700AEFF72FE05FE04FF24011C035003F000D7FC84F9FAF90000CF0AFE16E91FE721231C0411F80446FC1DF9E3FAFAFE700284036F
:406F80004002000055FE13FE05FF4C001001FE005C00B2FF68FF8DFFE9FF3400470029000000E8FFE9FFF7FFFDFFF9FFF6FFF3FFF3FFF6FFFCFF05000F001A00210024004B
:406FC0001F0013000000E9FFD1FFBEFFB4FFB7FFCAFFEBFF170046006F008B008F00790048000000ACFF5BFF1DFF00FF10FF51FFBDFF4800DB005D01B101C0017B01E1009B
:407000000000F4FEE8FD0DFD96FCB0FC78FDFCFE2D01E803F406090ADA0C1D0F9310141193101D0FDA0C090AF406E8032D01FCFE78FDB0FC96FC0DFDE8FDF4FE0000E10078
:407040007B01C001B1015D01DB004800BDFF51FF10FF00FF1DFF5BFFACFF0000480079008F008B006F0046001700EBFFCAFFB7FFB4FFBEFFD1FFE9FF000013001F002400D7
:4070800021001A000F000500FCFFF6FFF3FFF3FFF6FFF9FFFDFF0000FFFFFBFFF8FFF4FFF3FFF4FFF8FF00000A0015001E00230022001A000A00F5FFDDFFC6FFB7FFB4FF62
:4070C000BFFFD9FF00002E005C007F009000880064002600D7FF83FF39FF0AFF02FF2AFF82FF0000920020018E01C201A801380178007DFF6BFE71FDC2FC8FFCFDFC23FEF6
:4071000000007C02680582087F0B110EF40FF410F410F40F110E7F0B820868057C02000023FEFDFC8FFCC2FC71FD6BFE7DFF78003801A801C2018E0120019200000082FF6F
:407140002AFF02FF0AFF39FF83FFD7FF26006400880090007F005C002E000000D9FFBFFFB4FFB7FFC6FFDDFFF5FF0A001A00220023001E0015000A000000F8FFF4FFF3FF8B
:40718000F4FFF8FFFBFFFFFFDD1AB14ADD1A0000B20D6946F82ADC001405C83AC83A1405DC00F82A6946B20D179D7B3CCAB941BD642BAB3D290D663F642BAB3DCAB941BDC0
:4071C000179D7B3C000000005FED333BA0AD963B88809ABDF046513FB10DA93E80C0D8BD3AF7EA3C22633CBBA3B044BB0FB2F13CAE6E05BEAC711A3FAC711A3FAE6E05BEF0
:407200000FB2F13CA3B044BB22633CBB3AF7EA3C80C0D8BDB10DA93EF046513F88809ABDA0AD963B5FED333BD600A101E4FB4FEE79664FEEE4FBA101D6000000B400000009
