:020000041008E2
:4000000000780408EB0208100D00000051030810510308105103081051030810000000000000000000000000000000004D0308104D030810000000004D0308104D030810DA
:400040004D0308104D0308104D0308104D0308104D0308104D0308104D0308104D0308104D0308104D0308104D0308104D0308104D0308104D0308104D0308104D03081000
:400080004D0308104D0308104D0308104D0308104D0308104D0308104D0308104D0308104D0308104D0308104D0308104D0308104D0308104D0308104D0308104D030810C0
:4000C0004D0308104D0308104D0308104D0308104D0308104D0308104D0308104D0308104D0308104D0308104D0308104D0308104D0308104D0308104D0308104D03081080
:400100004D0308104D0308104D0308104D0308104D0308104D0308104D0308104D0308104D0308104D0308104D0308104D0308104D0308104D0308104D0308104D0308103F
:400140004D0308104D0308104D0308104D0308104D0308104D0308104D0308104D0308104D0308104D0308104D0308104D0308104D0308104D0308104D0308104D030810FF
:400180004D0308104D0308104D0308104D0308104D0308104D0308104D0308104D0308104D0308104D0308104D0308104D0308104D0308104D0308104D0308104D030810BF
:4001C0004D0308104D0308104D0308104D0308104D0308104D0308104D0308104D0308104D0308104D0308104D0308104D0308104D0308104D0308104D0308104D0308107F
:400200004D0308104D0308104D0308104D0308104D0308104D0308104D0308104D0308104D0308104D0308104D0308104D0308104D0308104D0308104D0308104D0308103E
:400240004D0308104D0308104D0308104D0308104D0308104D0308104D0308104D0308104D0308104D0308104D0308104D0308104D0308104D0308104D0308104D030810FE
:400280004D0308104D0308104D03081010B5054C237833B9044B13B10448AFF300800123237010BD2848020800000000E0ED0910084B10B51BB108490848AFF3008008480D
:4002C000036803B910BD074B002BFBD0BDE81040184700BF000000002C480208E0ED0910C0460208000000007047FFF7FDFF72B6104C114DAC4209DA21686268A368043B42
:40030000A2BFC858D050FAE70C34F3E70B490C4A00209142BCBF41F8040BFAE709480A490860BFF34F8F08F0FBFB08F00DFC00F01DF8FEE7E4ED0910FCED09102848020805
:40034000206302080040020808ED00E0FEE7FEE700B504207146084202D0EFF3098001E0EFF30880043004F0EBFEFEE72DE98048ADF6B41D62B608F07DFAAA4CAA4D44F8AD
:40038000040B0023194640F2A462A8482B6008F033FDA749A748DFEDA8EA04F0DDFEA74B4FF480225A6008F089FA04F08BFEA44BA44A1B68A448B3F85A30946003F1804310
:4003C00003F520130121506099610DF5BE689F4B1B7803F0FF021592002B02F0E286924B9B4A1B689B491068013381FB0324DA17C2EBA40202EB8202A3EB420383428A4AA8
:40040000E5D0954B1B68002BE1D09FED946ADFED9D6A13689FED927A924AC6EE267A013381FB0301D817C0EBA10101EB8101A3EB41038D491F931C4601EB830340463221C3
:40044000C3ED007AD3ED007A67EE877AFDEEE77A17EE903A09F0C2FA724B74481B680B931A46AA2303FB04032093002A02F08A875378042B0ED91278053B03EB42036D4AB1
:4004800002EBC3039A68A02A02F37C87DB689F2B42F378870B9F7549754C0122384606F021FEBB78D7F8A05419463B7854F821607C78039118460A900130029407F2AC41A3
:4004C0000446189104FB06F4D7F8A4340D947410189E04930E94D7F8A8340C9006EB4504049D089440220021404606EB850A06EB83050F9508F080FC4B20C8F808000A98A8
:4005000095223D235121C8F80030C8F804206FF00043C8F80C2001284FF06402C8F82010C8F82430C8F82C30C8F8282044F2D4810399CB1EDAB2012A04F2CE81821E03EB40
:40054000820358F83320A02A04F3C68108EBC3035B689F2B44F3C0813A462346043208F021FA05900C9A0B9F53011E469201C3F5C0743B4630336400114659180792184638
:40058000224609F010FA2B4A0399199602EB8101051907F1100033468C6C089976102A4610300496A0470A98C6F1B20202284FEA420207F54C703B4600EB020914BF6FF09D
:4005C0002F036FF057034FEA460BEC1800EB0B0109EB0B06069409F0E6F9199B0993B145A4F1020456D24D464FF4715C44F62D0E41F6A97734F9021CB4F90220B4F90000D5
:4006000034F9043C114434F9042F0CFB01F110FB0E11134407FB03131B1425F8023BAE42E8D837E044480208AC060208040002089D8D0810D0A20810CDCCCC3D00E100E027
:40064000084C02080C4C02080803A24200000208A806020867666666D806020800803B4700007A4418DF0810B006020848480208CCEC091030AE7E3F3FE8A83B9A99593F1E
:400680009A99193F000000006666663F3D0A573FCDCCCCBD0A9B53B9069B079ACDF810B09B1A0693199B5B00CBEB0909099300270B9BBC97D3F89434032B44F309811F1F26
:4006C0005D2B08EB870B44F304816123DB1B1097049F0793A9F12204A9F1E6064546CDF844B00DF59E63214648464FF0000C3A464FF0000BC3E900BC08F07EF80DF59E6363
:40070000D3E90001203041F10001830943EA816307EE903A023CF8EEE77AA642E5EC017ADFD1D8ED007A109FDDF844B01FED2F7A5FED2F5AB0EE678A0DF2F4520024012357
:40074000B2EC016A66EE076A37EE657AF4EEE76AF1EE10FAC8BF1C4603F10103C8BFB0EE468AC8BFF0EE667A622BE9D1079B9BED007A0BF10401002B04F0D8830133184678
:4007800000220123F1EC017AF4EEC77AF1EE10FAC8BF1A4603F10103D4BFF0EE478AF0EE678A8342B0EE687AECD107921346B5EEC08AFB18F1EE10FA079303F1110504F129
:4007C000110644F28D80049F0DF59E634FF0000C3A46494648464FF0000BC3E900BC08F00BF80DF59E63D3E90023203243F100034FEA921E4EEA836EA9EB460107EE90EA9D
:400800000DF59E6308464FF0000C3A464FF0000BB8EEE79AC3E900BC07F0EEFF0DF59E63D3E90001203041F10001830943EA816307EE903AF8EEE77A69EE277AB1EEE77A01
:40084000B4EE477AF1EE10FA44F07A83F5EEC08AF1EE10FA88EE079A44F217820DF59E63494648464FF0000C049A4FF0000BC3E900BC07F0C1FF0DF59E63D3E9000120307D
:4008800041F100014FEA901E4EEA816E07EE90EAA9EB4509494648464FF0000C049A4FF0000BB8EEE78AC3E900BC07F0A5FF0DF59E63D3E90001203041F10001830943EA40
:4008C000816307EE903AF8EEE77A68EE277AB1EEE77AB4EE477AF1EE10FA44F09B82C8EE877A1FED9A7A29EE077AB4EEE77AF1EE10FA83F2FD870B9B079AC3F8942484F2F6
:4009000087821FEDA17AF4EEC77AF1EE10FACCBF01240024002C43F0FB870B991FEDA77A0B7C002B04F06280039B4A69BC9DD1ED067A042B04F2A681002C04F0A0815FEDAC
:40094000AE6AB4EEE67AF1EE10FA04F398815FEDB16AB4EEE67AF1EE10FA44F39381AA421346A8BF2B46AA42ACBFC3EB0203C3EB0503072B04F3868177EE676A1FEDBC6A52
:40098000F4EEC66AF1EE10FACCBF012300230E9A0D990B9F089EC7ED077A891A520006EB4101B01A3B747D6187ED067A8DF870328DF86D4208F0F7FF0A9C029E0F9B009358
:4009C0000399CDF804A053463246204604F0B4FD954BDFED967A0FCB3AAF87E80F00E5002B1B934A934957F824703595334402EB830251F82330526E2192002B1546169321
:400A00001268C8ED007AA3EB0707C8ED017A44F39182BCAC002019464FEA820C55F8046F0AEB0C0EB31A9EED007A0132964206EE903A27EE077A0BDD0CF1040353440AEBD1
:400A40008602F3EC017A9A42A7EEA77AF9D13246F8EEE66A874287EE266ACCBF0023012308EB830301308142D3ED007AA4EC016A77EE867AC3ED007ACED1D8ED017A98ED55
:400A8000007ACDED1A7AF0EE676AF3EE0E7A67EE277AB0EE677AF4EEC76AF1EE10FAC8BF0023CDED1B7AC8BF8DF87032029B002B03F00B87042B03F208870A9A4FEA8209D6
:400AC0005B4A4A4403F18053D2F8E420013B002702EB031C3E464FF0010EF8B20CEB80031CF9201093F90120BCAC8B00E5184C1CA242D5ED007AA2EB01010ADDBCAC04334A
:400B0000234404EB8202B3EC017A934277EE877AF9D100280CBF14230A2303FB01F307EE103AB8EEC77A7346B4EEE77AF1EE10FA03F1010298BF76465FFA82FE029A9A424D
:400B400007F10107C9D8B24244F276803A4B384D0FCB09EB060405EB84043EAD85E80F00D4F8F4301CF92610CA1A501C013105EB8604884294ED007A04F37D81D31ABCACAD
:400B800004EB830304EB820202E0884204F373810432D2ED007AD3ED016A043367EE277A0130F4EEE76AF1EE10FAEEDD4AAB0093BCAA059B02990A988DF86C629FED1B9A78
:400BC00007F002F91D4B9DED4A0ADDED523ADDED4B0A9DED534A9DED4C1ADDED544ADDED4D7A9DED555ADDED4E1ADDED565A9DED4F2A9DED576ADDED502ADDED586A9DEDAB
:400C0000513A9DED597A159F00229F9210469E921446154616461146F0EE499A03F58062B0EE49AA10E000BFA4A3081000000000D0A2081024E6091004A4081014A4081060
:400C4000B0EE689AF0EE489A93ED008AD2ED008A93ED01EA92ED01DAD3ED02CA92ED02CAD3ED03BA92ED03BAD3ED04AAD2ED04DA30EE488AB0EE4AFAA8EE08FA73EEE88A24
:400C8000B0EE4F8AB0EE4AFAA8EEA8FA34EE4DDA30EECEEAF0EE4F8AEDEE0D8AAEEE0E8A71EE6CCA34EECCCAACEEAC8AECEE0C8A77EEEBBA35EE4BBAABEEAB8AEBEE0B8A2C
:400CC00071EEEAAA75EEEDDAAAEEAA8A93ED05DAD2ED05CA93ED06CAD2ED06BA93ED07BAD2ED07AAEDEEAD8A32EE4DDA76EE6CCAADEE0D8AECEEAC8A32EECCCA76EEEBBAAA
:400D0000ACEE0C8AEBEEAB8A33EE4BBA77EE6AAAABEE0B8AEAEEAA8A002904F01C81F4EEC89AF1EE10FAB4EEE89ACABF0C46B0EE698A3846F1EE10FAC8BF0E4601F10101EF
:400D4000D4BFF0EE498A3D46202903F1200302F120027FF475AF002D44F0FA8000B19E94DFF800B49E9A9F9B9FEDFCEACDF80CB0ABF5006101EB4212D2ED01DA92ED02DABC
:400D8000D2ED00FA92ED03FAD2ED04CA92ED05CAD2ED06BA92ED07BACDF810B0ABF5806101EB4313D3ED00AA93ED01AAD3ED029A93ED039AD3ED048A93ED058A70EEED0A5C
:400DC00031EE4D1AD3ED07DA93ED06DA0BF5C07010230DF5B47930EE6F0A77EECF7A71EEEC1A32EE4C2A72EEEB2A33EE4B3A73EEEA3A34EE4A4A74EEE94A35EE495A75EE86
:400E0000E85A36EE486A76EECD6A37EE6D7A0BF1400E0BF180070BF1C0060BF580750BF5A0740BF5E0710BF50072CC469B46A0F5C07393ED008ABEEC01AAF7EC019AB6EC5E
:400E4000019AF5EC018AB4EC01DAF0EC01DAF1EC01CAB2EC01CAD3ED90BA93EDA0BAD3EDB0AAB0EE4EFAA8EE00FABBF1010B03F10403B0EE4F8AAAEE208A93EDBFAAA9EEC8
:400E8000818AD3EDCF9AA9EE278A93EDDF9AA8EEA18AD3EDEF8AADEE028A9FEDB0DAADEEA28AACEE838AACEE238AABEE848AABEE248AAAEE858AAAEE258AA9EE868AA9EEB7
:400EC000268AA8EE878AACEC018AB2D1DDED5A7A9DED5B7ACDED037AF0EEE77A77EE8D3AB0EEC74ADDED5C6A9DED5F5A9DED5D6A8DED085A73EE843AB0EE453AF0EEE64A5D
:400F00009DED605ADDED5E5A8DED095A73EEA43AF0EE452AB0EEC65A73EE853ACDED075AF0EEE55A73EEA53A8DED066AB0EEC36A73EE863ACDED056A9DED618ACDF834B00F
:400F4000F0EEE26A73EEA63ADDF810B0DDED628A8DED047AB0EEC87A73EE873AF0EEE8FA9DED639ADDED649A9DED65AADDED66AA9DED67BADDED68BA9DED69CA784988EDB5
:400F8000035A73EEAF3AB0EEC9FA73EE8F3AB0EEE9EA73EE8E3AF0EECADA73EEAD3AF0EEEA2A73EEA23AB0EECB2A73EE823AF0EEEB1A73EEA13AB0EECC1A73EE813AC8ED48
:400FC000024A13EE900ACDED174A88ED014A8DED1E4AC8ED007ACDED227A8DED145A88ED0F1A8DED1D1AC8ED0E1ACDED0F1A88ED0D2A8DED1C2AC8ED0C2ACDED0E2AC8EDD3
:40100000066ACDED136A88ED056A8DED116AC8ED045ACDED105A88ED077A8DED127AC8ED08FA88ED09FA88ED0AEAC8ED0BDA07F03FFF07EE900AF1EE043AC3EEA7CA0DF5C6
:40104000AE64DDED227A2CEEA77ACDED2D7A17EE100A07F0D9FE07EE900A9DED1E4AFDEEE77A8DED2C4A17EE905A6CEE847ACDF8B05517EE900A07F0C7FE07EE900ADDEDED
:40108000174AFDEEE77ACDED2B4A17EE907A6CEEA47ACDF8B47517EE900A07F0B5FE07EE900A9DED145AFDEEE77A8DED2A5A17EE906A6CEE857ACDF8B86517EE900A07F0F5
:4010C000A3FE07EE900ADDED105AFDEEE77A2CEEA57A17EE902A17EE100ACDED295ACDF8BC25CDED107A07F08FFE07EE900A9DED116AFDEEE77A2CEE867A17EE901A17EED0
:40110000100A8DED286ACDF8C015CDED117A07F07BFE07EE900ADDED136AFDEEE77ACDED276A17EE902A6CEEA67ACDF8C42517EE900A269207F068FE07EE900A9DED127A8D
:40114000FDEEE77A8DED257A17EE901A6CEE877ACDF8C81517EE900A06E000BF00000000B3CE010C14AC0810249107F04DFE07EE900AFDEEE77A2CEEAF7A17EE902A17EEDB
:40118000100ACDF8CC25CDED127A07F03DFE07EE900ABDEEE77A6CEE8F7A17EE101A17EE900ACDF8D0158DED137A07F02DFE07EE900AFDEEE77A2CEE8E7A17EE902A17EE87
:4011C000100ACDF8D425CDED147A07F01DFE07EE900AFDEEE77A2CEEAD7A17EE901A17EE100ACDF8D815CDED177A07F00DFE07EE900ADDED0E2AFDEEE77A2CEEA27A17EEBC
:40120000902A17EE100ACDED232ACDED0E7ACDF8DC2507F0F9FD07EE900A9DED1C2AFDEEE77A2CEE827A17EE902A17EE100A8DED222ACDED1C7ACDF8E02507F0E5FD07EE8C
:40124000900ADDED0F1AFDEEE77A2CEEA17A17EE902A17EE100ACDED1E1ACDF8E425CDED0F7A07F0D1FD07EE900A9DED1D1AFDEEE77A2CEE817A17EE901A17EE100AF0EE5D
:4012800067CACDF8E81507F0BFFD07EE905AB8EEE73ADDED2D7A9DED2C4A1099DDED2B4A119A9DED2A5ADDED295A9DED286ADDED1E1A9DED1D1AB0EE4D7AA3EE277AEB1909
:4012C00005FB05FE06EE902AF0EE477A07EE107AB8EEC73A07EE106AE3EE047A33440B44B8EEC74A07EE101AE4EE247A134407FB07F7B8EEC74A03EE90EAE4EE057A01FBE8
:4013000001FE249903EE10EAF8EEE64A02FB02FE269ADDED276A07EE102AE4EEA57A13440B44B8EEC75A07EE101AE5EE067A01FB01F106FB06F6F8EEC75A9DED127AE5EEFE
:40134000A67A02FB02F2DDED135A02EE901AB8EEC76A17EE101A17EE105A9DED257A05FB01F5E6EE077A0B4415EE901A04EE10EAF8EEE56A01FB01FE0B4407EE107A14990F
:40138000F8EEE33AE6EEAF7A01FB01F70B4473EE8D3A06EE901A06EE106AB8EEC77AF8EEE66A33EE877AB8EEC66A1799E6EE8F7A0E4606FB01F6F8EEC36A37EE067A03EE1F
:4013C000901A37EE267AF8EEC46A02EE107A0E9F9DED0E4ACDED0ECAF8EEE35A77EE266A07EE102A07FB07FC1C9FE5EE8E7A394601FB07F1F8EEC75AB8EEE27A76EEA56AFE
:4014000004EE901A0F99DDED232AB8EEC46A1CEE902A36EE877A06EE905A01FB01F105EE101AE6EE2D7A02FB02F1B8EEE66A13EE902A06EE90EA03EE907A37EE067AF8EE9B
:40144000E35AF8EEE66AE5EEA27A1344F8EEC25A37EE267A06EE906A14EE107A37EE257A9DED0F4A9DED222AF8EEE66AB8EEC46A37EE267A06EE90CA13EE905AE6EE027A9D
:401480003B442B44B8EEE66A14EE105A05EE900AF8EEEC6A37EE067AB8EEE46A2B44FDEEE55A1CEE905AE6EEA17A5A19062337EE067AB8EEC56A15EE905A37EE067A06EE62
:4014C000101A05FB05F0F8EEE55AB8EEC66AF0EE676A07EE900AE5EE816A37A836A937EE067AF8EEE77A2A4477EE277A0190009140460DF5B661CDF8EC550DF5B665CDED1A
:40150000366ACDED377A06F0F1F90FCD0FC40FCD0FC40FCD0FC495E80F0084E80F0037AA019236AA082300920DF5AE61062240460DF5AE6606F0DAF90FCE0DF5A6650FC53F
:401540000FCE0FC50FCE0FC594E80F0085E80F000D9E98ED0B7ADDF898358DED107AB0EE475A98ED0C7AD8ED0A7A8DED117AF0EE474A98ED0D7ADDF89C558DED127AB0EE2A
:40158000474A98ED0E7ACDED0F7AF0EE473A8DED137A98ED0F7ADDF8A0458DED147AB0EE473A07EE103AF0EE676AB8EEC77ADDED367ADDF8A4059DED376ACDF85865E7EEA6
:4015C000667A03FB03F7CDF85C6505EE905AF8EEE55A06EE904AE5EEC57A05FB05F604FB04FCF8EEE66A07EE107AE6EEE47A00FB00FEDDF8A815DDF8AC2506EE900AF8EE25
:40160000E66AB8EEC77AE6EEC47A01FB01F7C3F1080336EE477A06EE106AF0EE676AB8EEC66A07EE90CA37EE467AF8EEE77A06EE101A37EE677A07EE90EAF8EEE77AF8EE9B
:40164000C65A77EE677A07EE107AE5EEE36A02FB02F65B1BF8EEC74A07EE102A06EE106AB8EEC77A1B1B181A77EEE47AE7EE436A411A8C1AF8EEC64A0D9BCDF8603577EE74
:40168000E44A092CB0EE665ACDF86435CDF86835CDF86C35CDED374ACDED366A00F3B78198ED054AD8ED007A98ED017AD8ED026A98ED036AD8ED045A8DED178AF0EE443AB3
:4016C00098ED064ACDED1C8AB0EE443A98ED074A8DED1D9AF0EE442A98ED084ACDED1E9AB0EE442A98ED094A8DED22AA8DED0E4ACDED23AA8DED24BACDED25BA8DED26CA1F
:40170000B7EE004AB0EE678AF0EE478AB0EE669AF0EE469AB0EE65AAF0EE63AAB0EE43BAF0EE62BAB0EE42CA0DF5A6600DC84000520007EE900A07EE102AF8EEE77AB8EE2F
:40174000C77A35EE283A77EEA47A37EE247A75EE083A5B0006EE903ADDF83C1523EE031A37EE047A63EEA33A77EE847AF8EEE66A67EE81FA23EE87FA4B000DF5A86035EE07
:40178000092A76EEA46A06EE103A0FC8F4EECFFAF1EE10FA62EE021A76EE846AD4BFB0EE633AB0EE413AC8BFF0EE477AB8EEC66A27EEA1EA63EE26DA75EE292A36EE246AE1
:4017C0004000B4EEEDEA03EE900AF1EE10FA22EEA21A76EE045AD4BFB0EE432AB0EE612AD4BFB0EE677AB0EE667AF8EEE33A27EE01DA62EE25CA490075EE0A2A73EEA43A86
:4018000007EE901AB4EEECDAF1EE10FA62EEA21A73EE843AF8EEE77AD4BFF0EE422AF0EE412AD4BFB0EE476AB0EE656A26EE210A62EEA30A77EEA47A75EE2A6A520037EEA4
:40184000843AB4EEE00A07EE902AF1EE10FA26EEA62AD4BFF0EE465AF0EE635AC8BFF0EE612AF8EEE77A25EE821A62EE831A75EE0B6A77EEA47A5B00B4EEE11A06EE103A92
:40188000F1EE10FA66EEA63A37EE847AD4BFF0EE626AF0EE426AD4BFF0EE657AF0EE437AB8EEC66A66EE872A27EEA32A75EE2B5A36EE246AB4EEE22AF1EE10FA65EEA55AF6
:4018C00036EE046ADDF85035DDF85425C8BFF0EE477AC8BFF0EE636A5B0027EEA53A66EE863A07EE103AB4EEE33AF1EE10FAB8EEC77AF4EECFFAC8BFF0EE656AC8BFF0EEE1
:40190000467AF1EE10FAB4EEEDEACCBF0423002375EE0C5AF1EE10FA37EE247AB4EEECDA4FEA4202C8BF082306EE102AF1EE10FAB4EEE00AC8BF0C2337EE047AF1EE10FABF
:4019400065EEA55AB4EEE11AC8BF1023B8EEC66AF1EE10FAB4EEE22ADDED0E2A27EEA51A66EE871AC8BF142375EE222AF1EE10FA36EE246AB4EEE33AC8BF1823F1EE10FA14
:40198000B4EEE11AC8BF1C2362EEA22AF1EE10FA36EE046AC8BFF0EE477AD8BFF0EE665A67EEA27A26EE257AC8BF2023F4EEC77AF1EE10FAC8BF24230DF5A66208EB03000A
:4019C000D15890ED007A4A00013207EE902A0134F8EEE77A0DF5A66201310A2CD15074EEA74A35EE075A7FF49FAE9DED178ADDED1C8A9DED1D9ADDED1E9A9DED22AADDED77
:401A000023AA9DED24BADDED25BA9DED26CA0DF5A6650FCD0DF59E640FC40FCD0FC40FCD0FC495E80F0084E80F00DDF81825DDF81C359DED0F7ADDF82015DDED112A52007D
:401A40005B0006EE902A07EE903A77EE055AF8EEE66A9DED107ADDF82435F8EEE77A37EE056A76EEA46A77EEA47A4900B7EE004A07EE101A76EE846A65EEA55A77EE847A34
:401A800026EE066AB8EEC77A66EE263A25EEA73A72EE852A37EE247AB4EEE33AF1EE10FA37EE047A62EEA22A58BFF0EE667A58BFB0EE656A67EE065A62EEA76A48BF04223E
:401AC000F4EEE65A58BF00225B00F1EE10FA58BFB0EE677A07EE903ADDED126ADDF82835F8EEE77A58BFF0EE462A77EEA47A36EE856AF7EE006A77EEA67A26EE066A67EE8B
:401B0000A25A66EE076A48BF0822F4EEE65AF1EE10FA4FEA430358BFF0EE477A07EE103ADDED136ADDF82C35B8EEC77A76EE855A37EE247AF7EE006A77EE266A65EEA55A34
:401B400058BFB0EE626A25EEA77A26EE264A4FEA4303B4EEC74A07EE103A48BF0C22F1EE10FA58BFF0EE676AB8EEC77ADDED147A58BFF0EE465A37EE247A37EE856AF7EE47
:401B8000007A77EE277A26EE066A67EEA57A66EE266A48BF1022F4EE667AF1EE10FA48BF14220DF5A3610DF59E6588584100013107EE901A0DF5C361114491ED007AF8EE52
:401BC000E77A37EE055A77EEA44A0DF5A361013088500DF5B663CDED374A8DED365A2A460AE013D417D41BD4196843F8041B6AA9894502F104021CD0F9EC017AF5EEC07A05
:401C0000F1EE10FAEDD511684942116053F8801C494243F8801C53F8401C494243F8401C1968494243F8041B6AA9894502F10402E2D10DF57C7900224C46CDF87890F7EE22
:401C400000CACDF870B0CDF874A091460DF59E63D5F804A053F80930D5F808C0D5F80CE06F69AE69E869D5F83CB019462B690E932B6A0F936B6A17931A46AB6A1093EB6A0F
:401C800011932B6B12936B6B1393AB6B14930AFB0AF301FB01330CFB0C330E990EFB0E3301FB013307FB073306FB06330F9900FB003301FB013302FB0233109A02FB0233E9
:401CC000119A02FB0233129A02FB0233139A02FB0233149A02FB02330BFB0B3307EE903AF8EEE77AB1EEE77AB4EE477AF1EE10FA43F0A08006EE10CAF8EEC62A06EE10EAEF
:401D0000CCEE877A0DF59E63403553F8093009F14009B9F5807F04F14004B8EEC62A9DED0E6AB8EEC63A06EE107AF8EEC63A06EE106AB8EEC64A06EE100AF8EEC64A9DED6F
:401D40000F6A06EE903AB8EEC65A07EE10AA9DED176AF8EEE66AF8EEC60AB8EEC77A9DED106A66EEA76A27EE277AB8EEC61A9DED116A44ED106AF8EEC61ADDED136A9DEDED
:401D8000126A04ED0F7A9DED147AF8EEC65AB8EEE66AF8EEC76A07EE10BAB8EEC77A62EEA72A22EE272A23EE273A63EEA73A24EE274A64EEA74A25EE275A60EEA70A21EECE
:401DC000271A61EEA71A65EEA75A26EE276A66EEA76A67EE277A44ED0E2A04ED0D2A04ED0C3A44ED0B3A04ED0A4A44ED094A04ED085A44ED070A04ED061A44ED051A44ED10
:401E0000045A04ED036A44ED026A44ED017A7FF41DAFDFEDF27ADDF870B0DDF874A0DDF87890EF4EDFEDEF5ACDED0E7A00231D46A193A0939C461F469E461C46E84B53F8DF
:401E40003400002840F3A780002299ED00FA99ED01EAD9ED02DA99ED03DAD9ED04CA99ED050AD9ED060A99ED071AD9ED081A99ED092AD9ED0A2A99ED0B3AD9ED0C3A99EDF6
:401E80000D4AD9ED0E4A99ED0F5A7168DFEDD36A1346B1EC017ADDED037A9DED046AB1EE477AE7EE0F7AF0EE65FAE7EEA7FAA7EE0E6AF0EE6F7ADDED05FAE6EE067AE7EEF5
:401EC0002DFA9DED066AEFEEAF7AA7EE0D6ADDED07FAE6EE067AE7EE2CFA9DED086AEFEEAF7AA7EE006ADDED09FAE6EE067AE7EE20FAB0EE486AA7EE016AEFEEAF7AF0EE50
:401F000068FAE7EE21FAE6EE067AB0EE496AA7EE026AEFEEAF7AF0EE69FAE7EE22FAE6EE067AB0EE4A6AA7EE036AEFEEAF7AF0EE6AFAE7EE23FAE6EE067AB0EE4B6AA7EE53
:401F4000046AEFEEAF7AF0EE6BFAE6EE067AE7EE24FAB0EE4C6AA7EE056AEFEEAF7AE6EE067AF4EEE76AF1EE10FAC8BF1A4603F10103C8BFF0EE676A83428AD1DDED0E7A0E
:401F8000F4EEE76AF1EE10FA05D5159FCDED0E6A94463D46A6460134042C06F1080609F140097FF44BAF002F42F040870DB1CDF884C28B48A09D9E99A19B9F9A9FED899A86
:401FC000A0F6445404EBC504A0F5406606EB4111D4F8486DAC0106EB8306FCAB2344D3ED008A93ED018A93ED020AD3ED030A93ED041AD3ED051A93ED062AD3ED072A93ED7B
:40200000083AD3ED093A93ED0A4AD3ED0B4A93ED0C5AD3ED0D5A93ED0E6AD3ED0F6A96ED007AA0F5006303EB42124AABDBED007ADBED01BA9BED02BADBED03AA9BED04AA54
:40204000DBED059A9BED06EADBED07DA9BED08DADBED09CA9BED0ACAB0EE49FAA7EEA8FA0BF1400BF0EE4F7AEBEE887A5BED05BAEBEE007A1BED04BAEAEEA07A5BED03AA8F
:40208000EAEE017A1BED02AAE9EEA17A5BED019AEEEE027A8345EDEEA27AEDEE037AECEEA37AECEE047AEBEEA47AEBEE057AEAEEA57AEAEE067AE9EEA67AE3EC017AB5D121
:4020C0009DED4ABADDED4BAA9DED4CAADDED4D9A9DED4E9ADDED4F8A9DED508A9DED510ADDED520A9DED531A91ED002AD1ED012A91ED023AD1ED033A91ED044AD1ED054AC8
:4021000091ED065AD1ED075A92ED006AD2ED016ADDED541AD2ED027AE7EE2A2A0DF59E63012DA7EE0A3A1C44E7EE293AA7EE094AE7EE284AA7EE085AE7EE005AA7EE206ADD
:40214000E7EE016AE7EE217AA7EE0B2ACDED4B2A8DED4C3ACDED4D3A8DED4E4ACDED4F4A8DED505ACDED515A8DED526ACDED536A8DED4A2ACDED547ADDED552A9DED563A01
:40218000DDED573A9DED584ADDED594A92ED035AD2ED045A92ED056AD2ED066AD2ED077AA7EE225AE7EE035AA7EE236AE7EE046AE7EE247A8DED555ACDED565A8DED576AEC
:4021C000CDED586ACDED597A42F363852046A4ABA2AA102103F0F0F806E000BF0000807F14B0081000000000DDED4A3ADDED4B4A9DED4C1ADDED4D0A9DED4E2A9DED4F3A59
:402200009DED508AC8ED013A74EEE35AB4EE007AB0EE634AA5EE874AF5EE087AB6EE046AF6EE0C6A31EE649A70EEC18AB0EE63EAB0EE635AF0EE63DA32EE600AA5EE865AEB
:402240008DED034AA5EEA7EAE5EEA6DAB0EE64DAF0EE64CAF0EE645AB0EE644AB0EE41CAB0EE41FAF0EE41FA73EE421AA9EE264AA8EEA61AA9EE07DAE9EE27CAE9EE065A24
:40228000A8EE87CAA8EEA7FAE8EE86FAB0EE609AF0EE608AF0EE609AE0EE078AA0EE279AE0EE069AE0EE260AB0EE420A78EE432AA1EE870A8DED045AF0EE43BAE2EE86BAB8
:4022C0009DED035ADDED044A88ED025AC8ED044A8DED224A88ED094A8DED231A88ED0D1ACDED248AC8ED0E8A8DED259A88ED0F9ACDED269AC8ED003A88ED03EAC8ED05DA9F
:4023000088ED06DAC8ED07CAC8ED085A88ED0ACA88ED0BFAC8ED0CFAC8ED109A8DED280A88ED120A9DED510ACDED2EBAB0EE43BAC8ED18BA70EE48BAA2EEA7BAB0EE485A57
:40234000F0EE484AB0EE484AABEEA68ACDED270AC8ED110ADDED520A8DED2DBA88ED17BA30EEC0BA8DED058AB0EE408AABEE078AABEE875AABEE864AEBEEA74AF0EE48BAAC
:40238000B0EE408AABEE278AF0EE42AAE1EE86AA8DED068AB0EE408AABEE068A9DED531ACDED2AAAC8ED14AA71EE60AA8DED078AB0EE608AAAEEA78AB0EE42AAA1EEA7AAE0
:4023C000A1EEA62AF0EE431AE2EE871A8DED088AB0EE608AAAEE868ACDED2C1AC8ED161ADDED541A8DED29AA88ED13AA31EEC1AA8DED098AB0EE418AAAEE278AABEE260AE8
:40240000B0EE60BAAAEE87BAEAEEA60A8DED0E8AF0EE41AAB0EE418AAAEE261A8DED2B2A88ED152A9DED552A72EE619AAAEE068AEAEE07AAB0EE41AAB0EE611AA2EEA63ABD
:40244000A9EE871ADDED562A8DED2F3A88ED193A8DED0F8A9DED573A8DED101AB0EE611AA9EEA71A32EEC29A8DED111AB0EE611AE9EEA61AA9EE861AF0EE619AF0EE421AD1
:40248000E9EE071A73EE628ACDED131AF0EE421AE9EE271A9DED068ACDED141AF0EE421AA9EE262AE9EE061AB0EE429AB0EE622AA8EE872A8DED305A8DED172AB0EE622AB0
:4024C000A8EEA72A88ED1A5A9DED055A8DED121ACDED151A8DED1C2ADDED091A9DED082A88ED1D5A88ED1F8A9DED0F5A9DED078A9DED0E1A8DED314A88ED1C4A88ED208AF2
:4025000088ED232AC8ED241A88ED285AC8ED1B4AC8ED1EBA88ED210A88ED22BAC8ED250AC8ED26AA88ED271A88ED29AA9DED101ADDED131A9DED122A9DED114AC8ED2E1A9D
:40254000DDED581A9DED155A88ED2C2A9DED142A88ED2A1A88ED2B4A31EEC31A9DED1C4A88ED2F2A88ED305A9DED172A88ED334AB0EE625AA8EE865AE8EEA62AB0EE434AD9
:40258000F0EE438AB0EE438AA1EE263A88ED322A9DED592AC8ED2D9A8DED322A32EE612AA1EE274AA1EE068AE1EE078AB0EE431AB0EE613AA2EE063AB0EE616AA2EE266A2F
:4025C0008DED1D3A9DED323A8DED1E6AF0EE616AB0EE616AF0EE431AE2EE076AE2EE071AB0EE437AA2EE276AA2EE277A88ED319A8DED325A88ED345AC8ED352AC8ED368A14
:402600008DED334A88ED374A8DED348A88ED388A88ED391ADDED1D7A1699C8ED3C7ADDED1E7AC8ED3A6A1F29B0EE472AC8ED3D7A88ED3B6AC8ED3E1A88ED3F7A02F33C8176
:40264000202393FBF1F301FB03F3C3F12003CE1A002B02F0AC849DED033AF0EE007AA3EEA73A012BF5EE007A33EE0E4A24EE277A88ED007A02F09684DDED043A33EEAD5A36
:40268000022B35EE0D5A35EE2C5A25EE277A88ED017A02F082849DED224A75EE845A032B75EE8C5A75EE8F5A25EEA77A88ED027A02F06E849DED237A7FEE87FA9DED247ADE
:4026C0007FEE87FA9DED257A7FEE87FA042B2FEEA77A88ED037A02F05684DDED275A9DED267A37EE257ADDED285A37EE257ADDED295A37EE257A052B27EE277A88ED047A77
:4027000002F03C84DDED2B5A9DED2A7A37EE257ADDED2C5A37EE257ADDED2D5A37EE257A062B27EE277A88ED057A02F022849DED2E7A9DED2F3A9DED305A37EE033A072B3D
:4027400033EE053A33EE243A23EE277A88ED067A02F00A849DED057A9DED314A34EE078A9DED067A38EE2B8A082B38EE078A28EE278A88ED078A02F0BA839DED078A38EE86
:40278000000A9DED088A30EE0B0A092B30EE080A20EE277A88ED087A02F0A4839DED098A38EE207A9DED0E8A37EE2A7A0A2B37EE087A27EE277A88ED097A02F08E839DEDBE
:4027C0000F5ADDED105A9DED114A35EE0A7A0B2B37EE257A37EE047A27EE277A88ED0A7A02F076839DED127ADDED135A37EE297A0C2B37EE257ADDED145A37EE257A27EE58
:40280000277A88ED0B7A02F05E839DED155ADDED175A9DED1C4A35EE097A0D2B37EE257A37EE047A27EE277A88ED0C7A02F046839DED325A9DED334A35EE227A0E2B37EE1B
:40284000287A37EE047A27EE277A88ED0D7A02F030839DED348A38EE017A0F2B37EE267A37EE067A27EE277A88ED0E7A02F01C839DED1D3A9DED1E6A33EE067A1C4677EE90
:40288000211A980031EE822A002262EE277AC8ED0F7AF118994215DD194408EBC105F6EE006A08EB031108EB8303D1ED007A91ED017A77EE877A083167EEA67AA942E3EC70
:4028C000017AF2D100EB4601301908EB810108EB800007F068F8169B002B56DDDFEDCA6ADFEDCA3A9FEDCA4ADFEDCA4A9FEDCA5A219D08EB830644460023F7EE005AB4EC0B
:40290000016AC64F55F8040F76EEC67AB1EE466ACDED387A389ADDED387A77EEE67AB0EE643A36EE676AF0EE447AE6EE237A02F0070107EB810191ED007AA6EE273AD210CA
:402940009842F0EE437AB0EE453AA6EE273AF0EE437AB0EE653AA6EE273A23EE077A17EE101A01EBC25207EE102A0CDD0AEB83030AEB8002D3ED007A67EE877AE3EC017A5E
:402980009A42F7D10346B442B9D10C9BC3EB0313DB00B3F5A06F1193D4BF002301230F938DF898329DF86C3205930A9B002B01F075871A46059B022B94BF002301230133BB
:4029C000012AA5938CBF082304230393702200217FA806F011FA35990A9A05988B1A90497F910C3180910C3181910C3182910C318391849185910C3186910C3187910C317A
:402A000088910C31899114318A918B918C9114318D9110318E9110318F91103190911C3191911C3194911031959110319691103197911C310344989199919A917FA951F86B
:402A400023601346002A01F02187022894BF002301230133022A0893F0EE008AF0EE087A34BF0223032328BFF0EE678A0693039B32689FED6C8A9FED6CBADFED6CAA9FEDC9
:402A80006CAADFED6C9A9FED6C9A01339B000E930DF59E630793069B9B00109300230AEB820B0DF59E6509936C220021404606F0A3F9109BDDF838C01295F318DE46C1464E
:402AC000049356F8043F0AEB830BCEEB0B04A410594670460EEB0C074D460246DFED517A44B17346F3EC016AB2EC017A8B42E6EE877AF7D117EE903A0430874245F80C3B11
:402B000004F1FF34A1F10401E7D1049B9E4209F10409DE46D5D1069B129D022BC5ED008A01F0B385D8ED007A98ED017AD8ED026AF5EE407AF1EE10FA01F08D85B5EE407A96
:402B4000F1EE10FA01F02E86F5EE406AF1EE10FA01F02886D8ED033A98ED044A98ED06CAD8ED074A98ED095AD8ED0A5AD8ED0CBA98ED0D0AD8ED050A98ED081A98ED0B6AC5
:402B8000D8ED0ECADFED2D1A9FED2D2ADFED2D2A039B83EEA73A042BC4EE073A8CEE274A84EE87CAC5EE274A85EE875ACBEEA75AC0EE07BA80EEA60AC1EE260A86EE261A4D
:402BC0008CEEA66A34EE0C4A34EE855A75EEAB5A73EE233A74EE204A35EE866A73EE803A35EE015A23EE894A64EEA14A65EE025A26EE226A85ED014AC5ED024AC5ED035AFA
:402C000085ED046A77D023E00000C0490093243C2C26633D87FE753E1772313F34B0081054B00810000000001F66683F659E613F6EAC733F8E706E3FC47E7F3F96FC7D3F9F
:402C4000047E7B3F8A0A783F00F0BC3D9899193ED8ED0F3AD8ED105A98ED126A98ED134AD8ED114A98ED143A83EEA75AC5EE873AC6EE275A84EE076A84EEA64AC3EE264AC8
:402C800035EE866A35EE235A36EE246A75EE045A26EE296A65EE8A5A85ED066AC5ED055A98ED156A98ED165AD8ED174A039BC6EE275A082B85EE076A84EEA65A35EE866A8F
:402CC00036EE056A26EE0B6A85ED076A13D1D8ED184A98ED195AD8ED1A5A84EEA76AC5EE077A85EEA67A76EE277A77EE877A67EEAA7AC5ED087A099B0899049E01338B424F
:402D0000099305F124057FF4CFAE5AA901EB83030493C1468B464346B7EE004A079A14EE100AD2ED003A1946F0EE637A41F8080BCBED003AFCA84FF0000C4FF0FF3E0225EC
:402D4000012492ED015A012CF1EE454A01F03A8493ED016AD2ED002AD3ED026A12ED013AB0EE647AA6EE627A032CA6EEC37A19D093ED031A52ED021A93ED042A52ED035AB9
:402D8000A1EE617A052CA2EE657A0BD093ED051A52ED041A93ED062A52ED055AA1EE617AA2EE657A032CC7EE275A11ED037A11ED022AE7EE256AB0EE447AA5EE826AA5EE2F
:402DC000E57A8DEDFD6ACDEDFE6A27EE276A00F0038311ED042A93ED037A51ED056AD3ED047AA2EE257A0DF58066052CE6EEA57A8DEDFF7AC6ED007A00F0EE8211ED062A58
:402E0000D3ED056A11ED075A93ED067AD2ED027AE2EE256A0DF20446022DA5EE257AC6ED006A0DF5816686ED007AC0ED015ADDEDFD6AD4EEA67A40F0D78287EE867AF0EED6
:402E4000447AE7EE477AE7EE256A67EE867AC3ED016A17EE106A41F8086B039E0234A6420CF1020C02F1080205F1020500F108000EF1020EBFF665AF83EEA77A079A2432E1
:402E80000792049A2433ABEC017A5A457FF446AFDDF894C2BCF1000F40F361830E991FED966ACDF838A00B1F0DF59E60A1F10802821808EB03060B460992343308929BAA8F
:402EC000D31806930023049307960DF5277E834617466346DDED1A7A9DED1B7AF4EEC77A0022F1EE10FACEF8002000F31983049A5AA901EB8202D2ED007AB7EE087AF4EE0E
:402F0000C77AF1EE10FA40F20B83119BB3F5A06F4EDDF0EE002AF4EEE27AF1EE10FA47D572EEE77A1FEDB72A99ED023AD9ED033A99ED044AD9ED054A99ED017A99ED065A8B
:402F4000D9ED085AD9ED076A22EE672AF7EE007AE2EE227A27EEA72A27EE277A67EE822A23EE023A27EEA22A63EEA23A67EE822A24EE024A27EEA22A64EEA24A67EE822A0F
:402F800025EE025A67EEA27A66EEA26A65EEA77A89ED023AC9ED033A89ED044AC9ED054A89ED065AC9ED087AC9ED076A89ED017AD6ED007A089BB7EE007AF1EE676AA6EE86
:402FC000A77A09F104000146C3ED007A079B0DF20C4273ED015AF1EC017AE6EEA57A8342C7EE875AE2EC015AF3D1039B099CCDF840B06FF00302CBEB0202981E0DF20C41EC
:40300000B7EE005ACDF848E00B19134493ED007AD1ED006A24ED017A0B191344D3ED005AF1EE477AF0EE454AE7EE874A00F00105EB00E7EEA56A5B1BFCAD05EB8303C6EE25
:40304000A45A012801EB800BC3ED005A3BD05BED025AD1ED016AE7EEA56A0228C6EEA45AC3ED015A2FD05BED035AD1ED026AE7EEA56A0328C6EEA45AC3ED025A23D05BED2F
:40308000045AD1ED036AE7EEA56A0428C6EEA45AC3ED035A17D05BED055AD1ED046AE7EEA56A0628C6EEA45AC3ED045A0BD1D1ED056AD1ED005AE7EEA56AF0EE667AC7EEB4
:4030C000A46AC3ED056A013819469DD1DDF840B0DDF848E0039A1B68CEF80020CBF8003007F138025946DDF818C039E0F4EEC67AF1EE10FAC1F2A9859FEDA85ADFEDA85A03
:40310000DFEDA86AF4EEC57AF1EE10FA4FF002054FF003004FF001044FF004033EDBF4EEE57AF1EE10FAC1F21D86F4EEE67AF1EE10FABABF106003461360B5EEC07AF1EE70
:4031400010FA44BF5B421360002B40F0C581DEF800300432013B6245CEF8003000F0C381B1EC017ADFED906AF0EEC77AF4EEE67AF1EE10FABADB9FED8D5ADFED8D5ADFED99
:403180008D6AF4EEC57AF1EE10FA4FF006054FF007004FF005044FF00803C0DA14602346CBE7154629464FF49662834C824805F023FE03222270804A0423537093707E4BD8
:4031C0003C214FF4877040F2EE24C3F8A014C3F8A40441F26802294603F2AC40C3F8A84405F00AFE754B764A734911601A6A754942F001021A62C1F80858D3F8002342F4B4
:403200008032C3F80023D3F8002322F48032C3F800236D4B1B68B3F85A3003F1804303F520131A6842F000421A60FDF7D0B8D8F83420D8F83010511A21EAE170D910814285
:40324000A8BF0146A3EBC103C8F8203099B1D8F81C3001E0D8F83420501EC8F8340002F8013CD8F81C3001394FEA1323C8F81C30F0D1D8F82030D8F80810072BC4BF0023C8
:40328000C8F82030002901F0F9850B4600225B0802F10102FBD1C2F119046FF07F4323410C93DB430A93D8F804000C9BC3181D0E014414BF012600260D0E0A9D25F07F479C
:4032C00014BF01250025AE4203EA070301F03085082CC8F804300FDD2546083D0DF5C3610DF2F45004F09CF9082DF6DCA4F1090323F00703083CE41A0DF5C3610DF2F450FD
:4033000004F08EF9D8F81420D8F80C10C4F10805002A01F0C982D8F82C00D8F83030984209D95A1CC8F830201970D8F83030D8F81420D8F82C00012A12DDFF26984203F1C6
:40334000010108D9C8F830101E70D8F83030D8F82C00D8F81420013A012AC8F81420EDDC082C0CBFFF22002283420BD2FF2141FA04F4197821401970D8F830100B78AA405A
:4033800013430B70114A1F99114B1248116000214FF4802201605A60FDF719B8001C8C3E0038E43E00461A3F00303D3F00A8593F00B66E3F00A47B3F704C02080000A242E6
:4033C0004448020800002840084C0208AC06020800E100E0D8060208C0ED015ADDEDFD6AD2ED027AD6EEC57A042D9DEDFE5ADDEDFF4AE5EE627AE4EEC37A21D00DF58066D8
:4034000096ED002A52ED022A12ED037AE2EE627A0DF20446062D96ED003AE3EE477A0FD00DF5816696ED002A52ED042A12ED057AE2EE627A0DF20C4696ED003AE3EE477AD5
:4034400087EE867AF0EE447AE7EE477AE7EE256A67EE867AC3ED016AFCAE06EB8C0706EB8E0697ED006AD6ED006AA6EE075A042DE6EE874A83ED025AC3ED034A3FF4E9ACA7
:403480000DF5806696ED006A10ED025A50ED035A0DF20446D6ED006AA5EE076A062DE5EE876A83ED046AC3ED056A3FF4D2AC0DF5816696ED006A10ED045A50ED055A0DF259
:4034C0000C46D6ED006AA5EE076AE5EE876A83ED066AC3ED076ABCE40432039BCEF8003062457FF43DAE002B19DD0BEB830307F13404594654F8040F3A4D80EAE072A2EB7A
:40350000E07205EB8202D2ED007A0028B1EE677AB8BFF0EE477AE1EC017A9942EAD1A59B0699049A203106910999203109910899203108910799013224319A4204920EF1DA
:40354000040E0BF1200B07F1200709F1240906F124060791FFF6BEACDDF838A09C460A9B23B1059B022B94BF00230123059A1E49DFED1E2A042A28BF0422F0EE624A51F81D
:4035800022700C9A07FB02F71F410DF59E61013301EB43194FEA870EA6AB0893B0EE625AF0EE625AB0EE626AF0EE626AB0EE622AB0EE627A0AEB0E003C4602EB42010DF5DE
:4035C0009E63A6AD55F8042F2646002A00F084808C4240F381800AEB8101F0EE473AB0EE424A6DE0ACB1081088CD091000000000D3ED007AB0EE473AA3EEA73A012AB0EEA7
:40360000632AA7EE272AF0EE437A00F04D84D3ED013AB0EE443A022AA7EEA33AE4EE237A46D093ED024AF0EE663A032AE4EE273AE4EE267A00F03584D3ED036AB0EE464A61
:40364000042AA6EEA74AE6EE867A00F02884D3ED046AB0EE656A052AA6EEA76AE6EEA57A00F01B84D3ED056AF0EE455A062AE7EEA65AE6EE857A00F00E84D3ED066AF0EE22
:40368000641A072AE6EEA71AE6EEA47A00F0018493ED071AF0EE654AB0EE465AE2EE817AF0EE445AB0EE636AF0EE436AF0EE612AE1EC017A81420FD0F0EE473AB0EE424ADA
:4036C000002A91ED007A93DCF0EE477AE1EC017A8142B0EE637AEFD120334B453C44704431467FF46FAF029DD94A0C9B52F825409DF86D2204FB03F4212CB4BF04230523F4
:40370000402CC8BF0133802CC8BF0133B4F5807FC8BF0133B4F5007FC8BF0133042D29468CBF01210021C1F59F6101F10501A1EB030301F20282012D294694BF002101219D
:40374000002D18BF0131032D88BF01315B1A02EB8202A3EB4203BCF1000FA3F1270B41F3E9810F9B4FEA4C1C4FEAC3090DF5267E00275EF8046F002E41F38580B54A731EB4
:403780004B4402EB43030D9AB3F8000F02F138059BAB1D4400F50060002155F8043B01EB011208331344AB4A02EB43030131B3F8203F8E421844F0D100F2FF73DB120D9A33
:4037C000203294450D921F44D3D10B9AA249D2F89C340393DDED037A9FEDA0AA02F5936393ED008A0693F8EEE77AC7EB0B0777EE887AA7F10B0317EE900A039305F058FBF6
:40380000974905F073FB07EE100A0298DFED957A27EE0AAA0428A8EE27AA41F2148000EB800202F169034FF4A061520091FBF2F2732AD4BF9B187333052841F2D382B52BAE
:40384000A8BFB523002C0493C1F2D3822022002142A805F0D1FA029B0A9A053B03EB42036FF005024292439205220221499242AA489152F8233019990C9A8E1A02EB86066E
:403880004FF4A05292FBF6F61E44162E4FEAA40401F39D82062EB8BF0626002C41F39C829FED715ADFED715AF0EE457A53460AEB0412B7EE004A93ED007AD3ED014A93EDC8
:4038C000026AD3ED036AB0EEC77AA7EE255A1033934275EE845AF0EEE44AA5EEA45A37EE877A75EE845AB0EEC66A77EE247AA5EE865A77EE867A75EE845AB0EEE67AA5EE64
:40390000875A77EE877A75EE845AD4D19FED587A67EE877A9DED0C7AB8EEC77A27EE055A87EE857A17EE100A05F018FB07EE900AFDEEE77A17EE900A0828A8BF0820C0F1B6
:40394000080007EE900A002CF8EEE7AA41F35A8200235746C1460AEB041597ED008AD7ED019AD7ED027AD7ED038A28EE088A69EEA99A27EEA79A184618EE101A05F098FA7D
:4039800068EEA88A19EE901A05F092FA19EE101A05F08EFA18EE901A05F08AFA78EE297A103777EE897AAF4277EEA87A0346E9EC017AD2D107EE900AB1EEE78AB4EE488AF7
:4039C000F1EE10FA41F01882029B042B41F2288018EE103A13F0FF4F01F0F581A3EBC65307EE903ADFED236ADFED234A9FED235ADFED235A9FED236A234936EEEA7AF1EE2E
:403A00006AAA8DED397A399B9DED397A77EE666AB7EE007A7AEEE66A03F00702A6EEA45A01EB8202DB10D2ED008AE6EE855A002CA6EEA56AA6EE867A67EE288A18EE902A19
:403A400002EBC35308EE903A67EEA88A1EE000BF88CD0910D0A20810000020C2CDCC4C3E00002042CDCC4C3FACC5273700000000CDCCCC3F0000C0490093243C2C26633D5B
:403A800087FE753E1772313F34B008102ADD474600264CF2A905D7ED007A2C4978EEA77A013617EE900A05F003FA07EE900A67EEA77A274B17EE900AC0F3844103EB810133
:403AC000820D31F8C63C31F8C8ECFE3AC0F38F0005FB02E203FB00F002EB2043A64247F8043BD8DBDDED037A049A1A4B1A4ECDF81CA0F8EEE77AB6EE007A77EE8A7AC2F1C6
:403B0000FF0977EE877ACB46FDEEE77ACDF8249017EE902A03FB02F2082304F1FF3E05924FF0800C9946CCEB0B0A4BF2DB63BEF1000F03FB0AF0C0F2F98758F82E3098423B
:403B400040F3B58108EB8E03774610E0FFE6DB2EC8B3081066660100FFFF2A0000FEFF4600FEFF4A53F8042D904240F3A18117F1FF37F7D20024059B9C42CCBFBE46D346B7
:403B8000B9F101094FEA6C0CCDD1029B5FED0D7A1FED0D6ADDF81CA0DDF82490052B4FF0080338BFB0EE676A8022F2EE046A1846B9EB02010B46F7EE007A40F128851C3343
:403BC00067EEAE7AFBD4BD4C04EB830393ED007A67EE877A521067EE867AF4EE487AF1EE10FAC8BF89460138E2D1CB450C90C0F21885B5EE408AF1EE10FA00F01285029DAE
:403C00000A9CBAAB2946204600935A46534601F02DFB0C9B019300932946BAAB2046524603F038FD069B83ED00AA039B05461C1A0B9BA349C3F89C4454226AA805F0A8FECD
:403C4000029B6AA903EB43036AAA02EB830251F823300499AB420BEB010640F3718705F1300202EB4202182330211A44029B92FBF1F1042B40F27E870398A84280F28F87CA
:403C80000A9C012C23468CBF01230223B5F5027FB4BF01220222002C18BF002213442C1A03FB04F494FBF1F1CC183444FF2CD4BFC6EB0404C6F1FF043CB1BAAB009322464C
:403CC000534602990A9801F0D1FA049B02990A985C441C44BBAB0193039B00935246BAABB99403F0D7FC0B99189C4A78099215460A78D1F8A43402929DF86C22209E0392DE
:403D000004EB83030021174640463822079306F1A00405F071F801216FF07F424FF0FF33042D3046C8F82860C8F83060C8F82C40C8F8344088F80010C8F80820C8F80C3057
:403D400000F277858D4294BF00200120002D18BF0130032D88BF013000283A4608BF0022584B0999029D53F82110BA9B9DF8EC4205F1010901FB09F12129B4BF0425052506
:403D80004029C8BF01355B108029C8BF0135B1F5807FC8BF0135012BB8BF0123B1F5007FD4BF2946691C5D1E85400B18B998A5999C402A435D1C2243A8400933024300298C
:403DC000C8F82030C8F81C2040F39880DDF820B04FF0000AD8F820305BF8047F581C002FD4BF00210121202800F32785D8F81C20C8F82000994042EA0103C8F81C30002FF8
:403E000076DD9DF89812304C01EB0111A4F1880303EB81017A1E404601F0D2F99BAB03EB4A163836D8F80830002504E00135AF4204F144045CD056F8042BD8F80400D8F848
:403E40001010083204EB820E34F82220BEF802E09B0A03FB020203FB0EF341EA1261B3F5803F22F07F42C8F80830C8F81010C8F80420DBD20DF5C3610DF2F45003F0D0FB55
:403E8000D8F808301B02B3F5803FC8F80830F1D3CCE7F0EE654AB0EE465AF0EE445AB0EE636AF0EE436A03E4B0EE442A00E4774608EB870504353946002413E0E0DF081011
:403EC00080B3081088CD09105CB40810B342A3F59012CCBF530003F5E02301391C444B1C3FF449AE55F8043D1B1AEFD5BD4BF4E7A59B0AF1010A9A45FFF66CAF9DF86D12FB
:403F0000404601F01BFAD8F820009E99431D202B00F3FD86D8F81C40C8F8203001FA00F2581D22432028C8F81C209F9900F3FA86D8F81C20C8F82000994042EA0103C8F806
:403F40001C30A09C64102146404601F0F7F9A099002C40F03F8611F0010140F02987A39A9DF89142A19B013204EB4204D8F820209D4EA29D501C202843FA01F106FB04547B
:403F800000F30E87D8F81C50C8F8200001FA02F32B43C8F81C30431C202B9DF8901200F3F786D8F81C20C8F8203081400A43C8F81C2003F11902202A00F3D886D8F81C10D6
:403FC000C8F820209C4041EA0403C8F81C309DF86D32002B40F0E685D8F820C09DF8EC320493039B029ADDF8E8B2042B28BF0423022A7E4A88BF4FF0010E52F8230098BF80
:404000004FF0000E34BF012302239E44099B00FB09FA052BF6EE047AF6EE006A09EB490238BFF0EE676AD3455946CEEB4202A8BF51468A4280F22987079E0291002406EBC1
:40404000820006EB81079FED6A7A23464FEA4E05CEEB020231460CE0AB4206DDD6ED007AF0EEE77A37EE277A0134B84202F1010212D0F0EC017AF0EEE77AF4EEE67AF1EEF0
:4040800010FA01EB820603F10103E5D4B8424FF0000302F10102ECD102990AEB0E00884212DD079E0133CEEB0102AB4206EB820201F1010106DDD2ED007AF0EEE77A37EE20
:4040C000277A01348142EDDB002C00F0AD8407EE904AF3EE006A67EE266AB8EEE77AB6EE006AC6EE877A77EE867AFDEEE77A17EE901AC1F10801062900F396840CF10302F0
:40410000202A21EAE17100F39684D8F81C30C8F8202001FA0CF10B43C8F81C30099B042B88BF03F1FF33013303EB83039B009F2B00F38784099B052B8CBF0022012219464F
:404140002A48CDF834B050F821302A4803FB09F302330429B6EE008A4FF00001F5EE087A00EBC2220E934FF001030B91059298BFB0EE678A03910A930A9A0E9B13410D9AA5
:404180009342A8BF13460B9A06931946914240F3CD80079B194601EB820A93469AED007ADAED017A059B039AB0EEC77AF0EEE77A37EE087A77EE887ABCEEC77AFCEEE77A46
:4041C00017EE106A17EE907A46EA0705AD0803EB82095CD0049B002B40F0AC811C4608930FE000BF33B30200F477240088CD091000000000A4CD09106D0804F1010400F0FB
:40420000858126FA04F101F00101404601F096F827FA04F101F00101404601F08FF8032C224628BF0322D8F8083019F802200293D44BD8F80400D8F8101002EB021203EB1F
:404240008202029BB2F840E0B2F842209B0A03FB0E0003FB02F341EA1061B3F5803F20F07F40C8F80830C8F81010C8F80400C3D20DF5C3610DF2F45003F0D2F9D8F8083071
:404280001B02B3F5803FC8F80830F1D3B4E72C46002E40F0C680002F40F0D28019F80520B848D8F80830D8F80410E640E74002EB021200EB820206EB870002EB800E32F860
:4042C0002040BEF80200D8F810209B0A03FB041103FB00F342EA1162B3F5803F21F07F41C8F80830C8F81020C8F80410C0F08A80039B012D4FEA0313DAB240F2148105F14C
:404300000C03DBB21344DBB20393069B0BF1020B5B450AF1080A3FF741AF0B9A1946D3430B4423F00103023213440B930A9B059A013B0A9302F58062013305927FF41CAF42
:40434000D8F8342098F80030DDF834B01546002B00F07B83D8F830600024341BD8F82030D8F82400D8F808102D1BEF001D18002900F088850024490804F10104FBD1C4F1DB
:404380001A04D8F80C00D8F814100028A8BF013104EBC10129447D1A049925EAE575002940F05883099BB5EE047A052BF5EE009AF6EE047AB6EE009A38BFF0EE479A38BFA0
:4043C000B0EE679A042B0E468CBF4FF0140A4FF0010AD946002D78D0B9F1000F70DD079F0024B1EE69AAF7EC018AB0EEE88AB4EEC89AF1EE10FA2B462FDD0134A1455FD061
:404400001D46F0E70DF5C3610DF2F45003F008F9D8F808301B02B3F5803FC8F80830F1D366E7DAED007AF5EEC07AF1EE10FA4CBF01210021404600F081FF002F3FF42EAF86
:40444000DAED017AF5EEC07AF1EE10FA4CBF01210021404600F072FF20E718EE100A04F0B7FD07EE900A38EE678A4046B4EEC89AF1EE10FAF5EEC08ACCBF4FF0010B4FF095
:40448000000BF1EE10FA4CBF012300238BEA030B594600F053FFBBF1000F17ED017A14BFF0EE4A7AF0EE697A77EE277A0134A14505F1FF3347ED017A01D0002BA0D11D461A
:4044C0000136564569EE899A84D1D8F83420D8F82030D8F83060911BC3EBC104002C07DCFEF7AABEC8F82030203C002C7EF79FAE202C2246A8BF20221344202BF2DD0021A3
:40450000404603F05DF8D8F82030EDE7032C089B254628BF0325DE40DF40049BE41A002E3FF4B9AE7DE7F319013513FB05F30133DBB2E7E699F80020124CD8F80830D8F8AA
:404540000400D8F8101002EB021204EB82029B0AB2F84040B2F8422003FB040003FB02F341EA1061B3F5803F20F07F40C8F80830C8F81010C8F8040010D36D081DD001242B
:4045800008943EE67CB6081096FC7D3F047E7B3F8A0A783F000000009A99193F0DF5C3610DF2F45003F03CF8D8F808301B02B3F5803FC8F80830F1D3DFE7012508952C46BE
:4045C0002B46A8E784EEA76A022DB0EE447A80ED016AA6EE467ADDEDFD6AD2ED025AD4EEA65A67EE277A85EEA77AE7EE066AB0EE446AA7EE476AC3ED016A66EE277A3EF4D0
:4046000028AC9DEDFE5ADDEDFF4AFEF725BF1B297FF7D9AA1C3B1B2B67EEA67AFADCFFF7D2BA0A9D029EBAAB284600934A4653463146002400F01AFEBAAB524628460194B8
:404640000094314603F026F8069A002305461360CB46FFF7EDBA039B85ED018A042B85ED028A85ED038A85ED048A3EF444AB85ED058A85ED068A039B85ED078A082B7EF4BE
:404680003AAB5FED3C7AFEF734BB98ED007AD8ED017AB5EE407AF1EE10FA00F0B380F5EE407AF1EE10FA00F0AD80D8ED031AD8ED044A98ED065AD8ED075A98ED092A98EDA7
:4046C0000A6AD8ED0C6A98ED0D1A5FED512A1FED513A5FED513A039B81EE874A042BC4EEA71AC5EE074A85EEA75AC2EE075A86EE272A86EE876AC1EE276A34EE855A76EE52
:40470000266A34EE214A75EE825A64EE094A25EE225A25EE836A66EEA36AC5ED014A85ED025A85ED036AC5ED046A3EF4E4AA98ED0F4A98ED106AD8ED124AD8ED136A98ED39
:40474000155AD8ED163AC4EE075A082B86EE274A84EE876AC6EEA74AC5EE076A83EEA75A75EE845A36EE246A76EE856A65EE8A5A26EE296A66EE8B6AC5ED055A85ED066A8C
:40478000C5ED076A7EF4B7AAD8ED185A98ED196AC5EE876A86EE277A76EE877A67EEAA7AFEF7A7BA039B85ED018A042B85ED028A85ED038A85ED048A3EF49DAAF5EE407AFA
:4047C000F1EE10FA3FF453AFB5EE407AF1EE10FA40F04D82F5EE407AF1EE10FA85ED058A85ED068A3FF447AFB5EE407AF1EE10FA3FF441AFF5EE406AF1EE10FA3FF43BAFA8
:40480000FEF74EBA039B85ED018A042B85ED028A85ED038A85ED048A3EF46DAA082B85ED058A85ED068A85ED078A3FF42AAFFEF762BA00221046FFF793BA0122404602F0BF
:40484000BFFEFFF7DCBA0346013303EB830303F169014FF4A0625B0092FBF3F3732BD4BFC9187331FF290B46A8BFFF23002CB8BF0334A410002C049340F3D4825FEDBBAA4A
:404880000026FFF765B80123FEF799BF012308930223F0EE008A0693FEF7E9B80123A59304230393FEF792B841FA05F2D8F83030D8F82C00FEF758BDC1F1400600208A1B56
:4048C000920004460346FDF7E4BF1E46FCF76EB9C3460433FBF7FABE00230593FBF742BEF5EEC08AF1EE10FA1FEDD69A3BF6B6AF0B9BC3F894445FEDD87AB4EEE79AF1EEE6
:4049000010FACCBF012400243546002C3CF405A8DDF824902A46069DBCAB4946284602F00DFC0DF59E639D9000222846494602F0DDFDBC9A9010A5EB400002F003024346B9
:40494000494602F0D3FD00260027FCAB4A4641460DF59E60C3E9006703F04EFFFCABD3E90023203243F10003950945EA836507EE905A0DF59E61FCAB4A460846C3E900674C
:40498000F8EEE78A03F038FFFCABD3E90001203041F10001850945EA816507EE905A414640464A46B8EEE78AC3E9006703F024FFFCABD3E90001203041F10001830943EA90
:4049C000816307EE903AF8EEE77A68EE277AF1EEE76AF4EE666AF1EE10FA40F0A0820B990B7C88EEA67A002B7BF49EAF039A042A00F22881002C00F025810A9A032A00F028
:404A00007B82DFEDDE7AD1ED076AF4EEE76AF1EE10FA00F37182D1ED067ABC9DFBF7B7BFDFEDD98AFFF733B80CF10302202A4FF007017FF76AAB0322404602F0C1FDFFF7A6
:404A40006DBB00220999FFF77BBB151DD8F83060032482E4BBF1000F7FF73DAD002D3FF43AAD079F002697ED007AD7ED017AB0EEC77AF0EEE77A37EE087A77EE887ABCEEBE
:404A8000C77AFCEEE77A17EE109A17EE904A49EA04039B081ED009F00101404600F04EFCB9F1010F05F1FF3A1AD0BAF1000F0AF1FF3504DD04F00101404600F03FFC012CE5
:404AC00021D00236B3457FF700AD002D07F10807C9DCFAE40236B3457FF7F7AC0837C2E7023DBAF1000F00F01081D7ED007AF5EEC07AF1EE10FA4CBF012100214046AA4608
:404B000000F01CFCD1E7002DAAF1020A40F32881D7ED017AF5EEC07AF1EE10FA4CBF012100214046554600F009FCCAE777460024FFF721B80027FEF748BE0021FEF706BEFF
:404B40005068A84240F3D880C41A03F1300202EB420204EB4401801A0901EB1A04FB02F200FB03224B101A44029B92FBF1F1042B3FF682A8039A8B1CD31AAB426DDCAA423D
:404B80000DDAFE2ECCBF00240124FD2E61DC1144A942CCBF002501252C44FFF78DB80024FFF793B89DF87012404600F0C7FBD8F820209D9902F1090CBCF1200F00F3FD8097
:404BC000D8F81C30C8F820C091400B43C8F81C30FFF704BA11F0010140F08380A29CA198D8F82050AA1C202A40FA01F172DCD8F81C30C8F82020A9400B43C8F81C30531CD5
:404C0000202B9DF890125EDCD8F81C00C8F8203001FA02F21043C8F81C0003F1180120294ADCD8F81C20C8F820109C4042EA0403C8F81C30FFF7CBB9964238BF1646F6B2BE
:404C4000FBF7B4BFD1ED067AE7E600231360FEF774BA00252C44FFF72FB8049B09EB0304A6424FF0FF34D8BF0024FFF725B8F5EE406AF1EE10FA3FF4ADADFDF7E9BF23460F
:404C8000FBF785BE0023FBF782BEDFED3F7AFBF728BEA4ABA2AA0A21204600F08DFB002D7DF4A2AA04F128000DF29123A3AA062100F082FBFDF798BA21461822404602F06F
:404CC0007FFCFFF784B90122404602F079FCD8F82030A2E70222404602F072FCD8F820208DE7A29BA19803F5E70303F5185300F0010404EB430473E79268AA424FF018033F
:404D0000A8BF2A463021FEF7B0BFAA46CDE64046052202F055FCD8F820309F99581D20287FF706A90522404602F04AFCFFF709B90C9E21F07F419D19A94207D871084318AE
:404D400023EA0103C2F11A0423F07F43D8F81020984288BF42F00102C8F81020FEF7B8BA5546AEE615602B46FEF7E7B921461922404602F025FCFFF72AB900BFD7A3703F29
:404D8000BD378637ACC5273700000000D7A3703F0122404602F014FCD8F82030FFF709B94046012202F00CFCD8F82000FFF7F3B8A19B03F00104FFF7D9B80922404602F035
:404DC000FFFBFFF709B9F0EE487AFEF70BBE002C4FF017063EF764AD5FED177A1FED175AFEF798BDFF2BA8BFFF23002C0493BEF62DAD0334FEF72ABD04F0FEF808EE100A20
:404E0000FEF7E2BD1FED208AF0EE487AFEF7EABD2E4670E517EE900A04F0EEF807EE100AFBF75DBD1FED288AFEF75CBECDF880E2FDF7BCB817EE900A04F0DEF82B690E9395
:404E40002B6A0F936B6A1793AB6A1093EB6A11932B6B12936B6B139305F1040AAB6B6F69AE69149307EE100A9AE80054E869D5F83CB0FCF73FBF029EFBF798BE19240A460F
:404E8000FEF711BA1A24FFF77CBA0AEB0E008242BFF6CAAD00231FED447A079E11461C464FEA4E05FFF7FEB800223C201C46FDF7F0BC002238201C46FDF7EBBC00223420E5
:404EC0001C46FDF7E6BC002230201C46FDF7E1BC00222C201C46FDF7DCBC002228201C46FDF7D7BC002224201C46FDF7D2BC002220200824FDF7CDBC0B9A5FED5C6AD2EDDB
:404F0000067AF4EEE67AF1EE10FA7FF786ADB4EE667AF1EE10FAD4BF002323467DE517EE900A04F069F806EE900A58E5F0EE478AFBF73DBCCDED1B7ACDED1A7AFBF7B6BDD6
:404F400017EE900A04F058F807EE100AFBF77EBC9F96FBF703BF0C460E462033203238463D460121FBF76CBE00221C201C46FDF790BC002218201C46FDF78BBC0022142053
:404F80001C46FDF786BC002210201C46FDF781BC00220C201C46FDF77CBC002208201C46FDF777BC002204201C46FDF772BC1A4618461C46FDF76DBCF0B50F784C780D7A47
:404FC0008A780B798E7907F00307A40004F00C0447EA85771201274302F03002CC799B011743DBB2CA78B6061F4306F080664B79E4063E4304F000641206344302F08072AF
:405000001B07224303F04053CC6813430A69826080E81800032D4CD8DFE805F047361402254B1B6893F82A30012B42D9CA694B69C96A0161013AC3F30B0343EA0263C36012
:405040000020F0BD01F12004D0CC8B69D1F81CC04D691A4AC96A41614FEA033E0CF1FF3CC5F30B05013FC4F30B013603134645EA0C640EEA020241EA0761334022430B43C6
:40508000C26003610020F0BD01F1140234CAC96A0A4B0161013D2103C2F30B0242EA05620B401343C3600020F0BDCB6AC3600020F0BD0348F0BD00BF084C020800F0FF003C
:4050C00001004E0038B5184C1849251D2846FFF773FF174904F11C00FFF76EFF154904F13400FFF769FF04F14C001349FFF764FF236893F833202AB9104A136843F0004351
:40510000136038BDB3F85A2002F1804202F520120320D5609168090C0904916093F85E3000FA03F31360E7E7084C020820DF081050DF081080DF0810B0DF08100000284014
:40514000044B9A6ADA6A5A6A5A6B9B6BF1EE103AFEE700BF00ED00E000B3B0F900304268002B10B41CDB03F1604303F561435201D2B283F800230E4A0E4C9368A34203D046
:4051800000205DF8044B704792689A42F8D1B0F900301033002042F82310F2E706487047064C03F00F0352011C44D2B22276E2E700ED00E00040020801005600FCEC00E029
:4051C00031F8223001EB820170B484684A8846680569A40A04FB036304FB02F445EA1365B4F5803F23F07F4384600561436001D370BC70471C4D00260DE002696AB9426982
:405200000132426124021B0223F07F43B4F5803F43608460ECD2AB42EFD8C368002B08DB026BC16A914204D90169541C0B44046313704369002B11DD026BC46A0169002998
:405240000CBFFF210021944202F1010402D9046311704369013B002B4361EDDC436806611A0CC2608468CDE7FFFFFE00524270B4002A039D50DA9FED2E7AF7EE007A1C328E
:4052800067EE877AFBD42B4C2B4E04EB820256F8214092ED307A00FB0440002827EE877A286037DD421E52080429F6EE007A03EBC201B6EE046A88BFB0EE676A0C311A1D43
:4052C00004460BE0B4EEE56AF1EE10FA1BD908328A42A4F1020403F108031AD052ED017A67EE277A42ED017AD3ED016AF0EEE77A67EE266AB4EEE76AF1EE10FAF0EEE65A7E
:40530000C3ED016ADED808328A42044603F10803E4D12C6070BC70471B2AF7EE007AB2DDB2EE047A1C3A1B2A67EE877AFADCAAE7CDCCCC3D20DF081088CD0910F0B4056A46
:405340006B1C202B07DCC269036201FA05F51543C561F0BC7047C5F12007012FA8BF01270FBBEB10446B026BA21A22EAE2729A42A8BF1A46A5EBC203036262B1C36900E0FD
:40538000446B661E466304F8013CC369013A4FEA1323C361F4D121FA07F5C7F10107C5610762F0BC7047C26901FA05F31343C36120250423D6E700BF00EB81002DE9F0411D
:4053C00050F8045C002D40F0908050F8085CA0F1080E002D40F0938050F80C5CA0F10C0E002D40F08E8050F8105CA0F1100E002D40F0898050F8145CA0F1140E002D40F07E
:40540000848050F8185CA0F1180E002D7FD150F81C5CA0F11C0E002D7BD150F8205CA0F1200E002D77D150F8245CA0F1240E002D73D150F8285CA0F1280E002D6FD150F848
:405440002C5CA0F12C0E002D6BD150F8305CA0F1300E002D67D150F8345CA0F1340E002D63D150F8385CA0F1380E002D5FD150F83C5CA0F13C0E7DBB50F8405CA0F1400E96
:405480000F2455BB284610240027A1421760187020DDDFF8A0C05EF8046D04EB840004EB400086EAE6780A2D94BF40190A30A8EBE6780CEB8000013445442EB193F8008066
:4054C000F60F1E7048EA4707D0F83001A14207441760E0D1BDE8F0810E24002D4FEAD57004F10104B8BF6D42CEE7002DA0F1040E4FF001044FEAD570B8BF6D42C4E70124FA
:40550000EBE70224E9E70324E7E70424E5E70524E3E70624E1E70724DFE70824DDE70924DBE70A24D9E70B24D7E70C24D5E70D24D3E700BF20DF08102DE9F04FC0EBC004B9
:405540002DED088BDFF820E3BF4F0C440EEB8404ADF6647D57F82260D4F8F05357F82120D4F860440294471C022806FB07F408BF0EEB8101139407FB02F4129408BFD1F82B
:40558000D0241299029E0395881840100A1A8C0001EBD175DDF8A81F0494800003EB820206EB040B6D100DF160080BEB000C9342084408EB8501019180F03184DDF8A84F1A
:4055C0000592894606F1080E01F1080702F1080604F108010BF108051446DA4616ED025A54ED016A1AED016A1EED023A51ED022A01ED025A083CAAF1080A9AED007AD4ED8A
:40560000007A1EED014A51ED013A56ED015A55ED024A41ED015A67EE677A66EE666AE3EE847AA3420EF1080EB0EE667AA2EE837A01F1080106F1080655ED016A09ED017A20
:4056400024EE855A66EEA55A17EE902A07ED025A05F1080549F8082D07F1080747ED035ABCD3059A0299019DDB431344DB080133C3EB4374DB0019440291DDF8A81FE40023
:4056800019442F191D44CDF8A81F019511195C441A449B44049B1944914265D9029E019DDDF8A83F08360835083308320BF1080B814612ED023A14ED014A50ED014A56ED9C
:4056C000020A13ED020A03ED023A51ED016A1BED021A40ED016A52ED013A1CED016A59ED025A53ED011A16ED012A14ED025A43ED013A083C0839D1ED007A5BED012A17EEEB
:4057000090EA49F808EDACF1080C9CED007A66EE866A25EE656A67EE877A64EE644AB0EE467AA1EE827A91429646F0EE645AE0EE205AA0F1080006F10806E3EE016A03F13F
:4057400008030BF1080BE3EEA27A05F1080502F1080217EE10AA47ED015A45ED046A47F808AD45ED037AA4D8039A1368526814921146DA00159308EB020343450A4432D9EB
:405780000C4611461AAA2046083453ED013A53ED024A12ED023A12ED015A51ED027A14ED017A51ED015A90ED004A27EE036A67EE856A27EE237A64EEE77AA4EE037A083B2B
:4057C0000839A3EEC46AE4EEE56AE5EE657A02ED026A02ED017AC3ED006AC3ED017A934202F10802CFD81299184ACDF85C80CB1782FB0112C3EBA203002BDDF8AC2F16925D
:405800000593D8BF1A4640F3CE801F46D80003EB4301DDF8AC3F9FED0E0ADFED0E9ADFED0E0A9FED0E9ADFED0E8A9FED0E8A00F108044444404408EBC1011AAA283308EBA1
:40584000471608EB071511E0CCEC0910676666667A379E3E7178733FBD1B4FBF1879163F717873BF187916BF20DF081090ED006A90ED013AD6ED013AD6ED007A52ED025A60
:4058800012ED017A95ED014AD5ED00AA91ED00AAD1ED014A36EE275A73EE236AF0EE471AB0EE652AF0EE472AE6EE801A0832A242A5EE202A00F1080006F10806E6EEA02AB1
:4058C00005F1080501F10801B0EE651AA5EE001A03F1280376EE677A33EE636AF0EE61BAB0EE423AF0EE623AE7EEA8BAB0EE41BAA6EE093AE7EE883AA6EE29BAA6EE281A76
:40590000E7EEA91AA6EE082AE7EE892A3AEE8A6A74EE247AA6EE003AE7EEA0BAE7EE803AA6EE20BAA6EE201AE7EEA01AA6EE002AE7EE802A74EE644A3AEECAAA75EE255A43
:4059400036EE877AB0EE6B4AB0EE435AF0EE636AAAEE084AA4EE89BAA4EE881AEAEE091AA4EEA85AA4EEA92AEAEE296AEAEE282A35EE866A77EE277A03ED12BA03ED0C1A62
:4059800003ED114A43ED0B1A03ED146A03ED105A03ED0E2A43ED137A43ED0F6A43ED0D2A7FF464AF059A531E134000F03C8200230F9310938E4B11938E4B0893DDF8ACBF5A
:4059C000CDF8388005230793184646468A4981FB0213A3EBE2731D460593C3001A46114606EB020A0B93020100FB05F3144609920BEBC3020BEB0313039204930A460AEB04
:405A00000103089902930B190A930F9B002D83F001030D9340F3D08000EB400802F108034FEAC8080C9301964FF00009079B002B40F3B580039B0A98099E089DDDF804E0C8
:405A400003F10802049B083306930C9B04460BEB030C3044069B029E0BF10801574652ED023A95ED004A51ED027A52ED015A95ED016A53ED024A95ED025A53ED016A95ED49
:405A8000037AE3EE847A083110350EF1080EE5EEC67A103408370832E4EE857A103008330836E6EEC77A4EED027A55ED043A51ED037A52ED044A15ED024A13ED045AE5EE9A
:405AC000A37AE6EE247AE6EE847AE7EE057A4EED017A54ED043A51ED047A52ED035A14ED036A14ED024A14ED017A53ED036AE4EEA37AE5EEC67AE5EE047AE6EEC77A47EDE4
:405B0000027A54ED043A51ED037A52ED044A14ED024A13ED045AE5EEA37AE6EE247AE6EE847AE7EE057A47ED017A52ED035A10ED036A53ED036A50ED043A51ED047A10ED59
:405B4000024A10ED017AE4EEA37AE5EEC67AE5EE047AE6EEC77A46ED027A51ED037A50ED043A12ED044A50ED024A13ED045AE5EEA37A6145E6EE047AE6EEA47AE7EE057AB2
:405B800046ED017A7FF46BAF039B0B9A1946114413469344049A0391114619440491019B43440193029B43440293059B09F101094B45C2447FF43AAF059A1099531E013117
:405BC000134210911AD0119ADDF838B052F8043F11921A68079216A90F9A5B6851F822200E9208930D9B0F93059A07980E9EEDE60CE4081090420208565555550E981346E2
:405C0000012B40F38480109B9B000693002383460393039A8A4B069913440D9A5B5882F0010216A90D9251F82220049217461A685B680293059B01925B10194602FB01F8C0
:405C40004FEAC20905930BEBC80807EB090C4FEA021A4FF0000E019B002B48DD02990BF108020D46081D08F108033946644607EB090653ED025A10ED016A52ED027A53EDE7
:405C8000016A95ED017AE5EE867A083108350830E6EEC77A08320833083441ED027A50ED035A52ED037A13ED046AE6EEA57AE7EE067A41ED017A52ED047A53ED036A15ED6A
:405CC000017AE5EEC67A8E42E6EE877A44ED027A50ED035A52ED037A13ED046AE6EEE57AE7EE467A44ED017AC3D1CB44C844059B0EF1010E73455744D444ACD1039BDDF8D4
:405D000010B00C330393059B012B82D15846159ADDF8AC1F531001EB82021499DB0019440344DDF8AC0F904239D2064603F1080401F1080002F10805103B1039D3ED035A5F
:405D4000D1ED027AD3ED024A14ED023A10ED027A54ED013A91ED035A10ED014A67EEE56A64EEA77A23EE076AE5EE257A0834083027EE637AA3EE846A083B0839A4EE037A05
:405D80000835E4EE856A17EE907A05ED046A45ED036A02ED017A42F8087D9642CED3129B139A934235D007EE903A07EE102AF8EEE77AB8EEC77AC7EE276AF1EEE67AF4EE7E
:405DC000677AF1EE10FA34D1139B9910002920DDDDF8AC3F0022103353ED045A13ED036A53ED026A13ED017A65EEA75A26EE276A66EEA76A27EE277A01328A4243ED045A5F
:405E000003ED036A43ED026A03ED017A03F11003E2D10DF6647DBDEC088BBDE8F08F0F465C46114636E410930D93DDF8AC0F1346E6E616EE900A03F0DFF807EE900AC3E7FF
:405E400014E408102DE9F04FC3EB031389B0002B079040F3B380D0E90056CDE90056D0E90245DFF86CC1DFF86CE1CDE90245002505F0010A4FEA0A1025F0010BCAEB000A00
:405E8000ABF1EE0B8B440CEB0A1A0BF11E090AF11E0A0BF5877B002039F91E8C3AF91E4C39F91C7C3AF91C6C08FB040039F91A8C3AF91A4C07FB060039F9187C3AF9186C00
:405EC00008FB040039F9168C3AF9164C07FB060739F9140C3AF9146C08FB047739F9128C3AF9124C00FB067739F9106C3AF9100C08FB047739F90E8C3AF90E4C06FB00777B
:405F000039F90C0C3AF90C6C08FB047739F90A8C3AF90A4C00FB067739F9080C3AF9086C08FB047739F9068C3AF9064C00FB067739F9040C3AF9046C08FB047709F11E0975
:405F400039F9208C3AF9024C00FB0670D94508FB04000AF11E0A9FD1DDE9008980FB0E67CDE9046716EB080647EB0907DDE90289B40F144EC6FB0089134844EA8704DDE94E
:405F80000467C0FB0489114804F5004A0F354FEA2A4AC0FB04679D42CDE90089CDE9026722F802ABFFF664AF079A49464046C2E900013B4611463246C1E9022309B0BDE890
:405FC000F08F00BF72C83382DB5DC77DBFEE2EC2E8C50910C61BE63E2DE9F04FC3EB0313BFB0002B3B933D903C91069240F3ED826FF09009CDF85C906FF02909CDF8589054
:406000004FF08B09CDF8549040F21519CDF850904FF0F209CDF84C906FF4A479CDF848906FF4FF79CDF844906FF4AF79CDF840904FF09009484BCDF83C9040F2BA29CDF87D
:40604000389040F27F3919463393CDF83490A3F2CF334FF4E179D0E900453293CDF83090D0E902236FF4D469CDF82C906FF402796FF01800CDF8289040F2CF79CDE90245FC
:40608000CDE90423389000236FF02E0ECDF82490044641F212496FF013001A46332747253A931B900A262620CDF864E0CDF820906FF00C0341F639696FF0840E36971A9079
:4060C000399337963595CDF860E0CDF81C903492219201926FF029021D928B221E9240F215121F92F22220926FF4A47222926FF4FF7223926FF4AF7224929022259240F2CA
:40610000BA22269240F27F3227924FF4E17228926FF4D4622C926FF402722D9240F2CF722E9241F212422F9241F6396229913846A1F2CF316FF09007309242F228222A97E3
:406140002B916FF0130AB1461C954FF026086FF02E0C31922F46B9E0E9FDFFFF01F00303594A5949C3EB031302EBC30231F93330B2F90A101C91B2F912102A91B2F914107C
:406180001D91B2F916101E91B2F918101F91B2F91A102091B2F91C102191B2F91E102291B2F920102391B2F922102491B2F924102591B2F92610B2F90240B2F904A0B2F915
:4061C0000690B2F90800B2F90C80B2F90EC0B2F910E02691B2F928102791B2F92A102891B2F92C102991B2F92E102B91B2F930102C91B2F932102D91B2F934102E91B2F929
:4062000036102F91B2F938103091B2F93A103191B2F93C100791B2F93E100891B2F940100991B2F942100A91B2F944100B91B2F946103291B2F948103391B2F94A100C91D7
:40624000B2F94C100D91B2F94E100E91B2F950100F91B2F952101091B2F954101191B2F956101291B2F958103491B2F95A101391B2F95C101491B2F95E101591B2F96010EC
:406280001691B2F962101791B2F964101891B2F966101991B2F968101A91B2F96A103591B2F96C103691B2F96E103791B2F970101B91B2F9721038911C9FB2F97410B2F9E5
:4062C000762039913A9201E0C8C70910019A3C9D9110490076396A1835F901B0B2F90250B2F90460B2F9061005FB04F40BFB034406FB0A44B2F908B0B2F90A50B2F90C609B
:40630000B2F916A001FB09440BFB004305FB0733B2F90E40B2F91000B2F91210B2F91490B2F92070B2F9245006FB083304FB0C3300FB0E332A98B2F91A80B2F91CC0B2F917
:406340001EE0B2F92260B2F9264001FB00331D98B2F92A1009FB003BB2F92C301C93B2F92E301D931E9BB2F91890B2F928000AFB03BA1F9B09FB03AA209BB2F930B0B2F96D
:40638000349008FB03AA219BB2F936800CFB03AA229BB2F938C00EFB03AA239BB2F93AE007FB03AA249F1C9B06FB07AA259EB2F93C7005FB06AA269DB2F93E6004FB05AAA0
:4063C000279CB2F9405000FB04AAB2F94400289C1E90B2F948001F9001FB04AAB2F94A00299C2090B2F94C00219003FB04A3B2F94E00B2F94240B2F932A0B2F946101C943E
:406400002290B2F950002390B2F952002490B2F954002590B2F956002690B2F958002790B2F95A002890B2F95C002990B2F95E002A902B9804461D9800FB04332C981C9C76
:406440000BFB00332D980AFB00332E9809FB00332F9808FB003330980CFB003331980EFB0033079807FB0033089F1E9806FB0733099E05FB06330A9D04FB05330B9C00FB19
:406480000433329C01FB0433339C1F98B2F968E0B2F96A70B2F96C60B2F96E50B2F960A0B2F96290B2F96480B2F966C000FB04330C9C209800FB04330D9C219800FB0433C6
:4064C0000E9C229800FB04330F9C239800FB0433109C249800FB0433119C259800FB0433129C269800FB0433349C279800FB0433139C289800FB0433149C299800FB043197
:40650000B2F97040B2F97200B2F974300793159BB2F976209B462A9B03FB0B11169B0AFB0311179B09FB0311189B08FB0311199B0CFB03111A9B0EFB0311359B07FB031164
:40654000369B06FB0311379B05FB03111B9B04FB0311389B00FB03110798399B00FB03133A98019902FB0032DDE90267184B194882FB034536196F414FEA967E4EEA870EB4
:40658000DDE90467C0FB0267134AC2FB0E67134A0EF50043C2FB0E45069A1B1422F8023B3B9B06920F3199420191CDE90267CDE90445FFF6D3AD3D9A39463046C2E90001F8
:4065C0002B4611462246C1E902233FB0BDE8F08FC61BE63E72C83382DB5DC77DBFEE2EC22DE9F04FC3EB03139FB0002B1B931D901C91049240F37B81D0E90067BD4B16934B
:406600004FF48B7C1A46CDF828C040F2E51CCDE90067CDF824C0D0E902566FF42F7C0C92A2F5B872CDF820C00D9240F2745C6FF42F72A3F5B873CDF81CC00E9240F2853C4B
:4066400042F62402AC4CAD4915938F27CDE90256002013266FF031056FF05C03CDF818C0119242F6240C44F250421394189617970B93CDF814C01094BA46344614911A909F
:4066800019950F9184462B466FF05C0E4FF48B7840F2E51940F2745640F28537129259E00CF00703964A9649C3EB031302EB830231F92330B2F908100C91B2F90E100D910C
:4066C000B2F910100E91B2F916100F91B2F918101091B2F91A101191B2F91C101291B2F91E100591B2F920101391B2F922101491B2F924100691B2F92610B2F90240B2F9FB
:4067000004A0B2F906E0B2F90A80B2F90C90B2F91260B2F914700791B2F928100891B2F92A101591B2F92C100991B2F92E100A91B2F930101691B2F932100B91B2F93410AE
:406740001791B2F936101891B2F93810B2F93A2019911A921C984FEAEC0149003A3902460A44415EB2F90250B2F904B005FB04F001FB0300B2F90610B2F908400C9BB2F969
:406780000A500BFB0A0001FB0E0004FB0303B2F90CE0B2F90E40B2F91000B2F91210B2F914B0B2F916A005FB08330D9DB2F918800EFB093304FB05330E9CB2F92250B2F962
:4067C0001CE000FB0433B2F92A000E9001FB06330F98B2F926100C910BFB0739B2F92810B2F91A30B2F91E70B2F92060B2F92440B2F92CB00D910AFB009AB2F92E101098B8
:4068000008FB00AA119803FB00AA129B0E980EFB03AA059B07FB03AA139BB2F9307006FB03AA149BB2F9326005FB03AA069B0C9D04FB03AA079B0D9C05FB03AA089BB2F986
:40684000345004FB03AA159BB2F9364000FB03AA099BB2F93800B2F93A200BFB03AB0A9B01FB03BB169B07FB03BB0B9B06FB03BB179B05FB03BB189B04FB03BB199B00FB6B
:4068800003B01A9BDDE9008902FB03021D4B1E4882FB036718EB060849EB07094FEA987343EA8903DDE9028903F50041C0FB02890A141649C1FB03891549C1FB0367049B60
:4068C000CDE90089CDE9026723F8022B04931B9B0CF10F0C9C45FFF6E3AE1D9A49464046C2E900013B4611463246C1E902231FB0BDE8F08FDEFEFFFFEEFBFFFF35F4FFFFB4
:40690000A8C90910C61BE63E72C83382DB5DC77DBFEE2EC22DE9F04F03EB8303A9B0002B259327902691059240F3ED81354B1E931946A3F2CA631D461C9303F241131E4604
:406940001B93D0E90034CDE90034D0E902346FF01E00CDE90234229004462E200023074621906FF42A7A6B201A460F90CDF828A06FF0C60040F2922A0E906FF0A10ECDF82D
:4069800024A0129140F23F5A209211461F921D921592119204921046D122CDF834E0CDF820A04FF0D10E40F6B73A109240F292222493CDF830E0CDF81CA0139242F28F6A09
:4069C00040F23F526FF01D034FF4D77ECDF818A02393CDF82CE016951796149240F6B732189242F28F62199243F23C32BA461A924FF06B096FF0C6086FF0A10C6FF42A77E3
:406A00000A4678E0F2FDFFFF07F001039A001344BE4ABE491B011A44CB5EB2F90E101091B2F912101191B2F916101291B2F918101391B2F91A101491B2F91C101591B2F9BD
:406A40001E101691B2F920101791B2F922101891B2F924101991B2F926101A91B2F92810B2F90240B2F904A0B2F90690B2F90800B2F90A80B2F90CC0B2F910E0B2F914709A
:406A80000691B2F92A100791B2F92C101B91B2F92E101C91B2F930101D91B2F932100891B2F934100991B2F936101E91B2F938100A91B2F93A101F91B2F93C100B91B2F9E0
:406AC0003E100C91B2F940100D91B2F942100E91B2F944102091B2F946100F91B2F948102191B2F94A102291B2F94C10B2F94E202492049A2391269D22F001014E396A18B0
:406B000035F901B0B2F90250B2F90460B2F9061005FB04F40BFB034406FB0A44B2F908B0B2F90A50B2F90C6001FB09440BFB004305FB0833B2F90E40109DB2F91000B2F9BD
:406B40001210B2F914B0B2F91690B2F9188006FB0C3304FB053300FB0E331198B2F91AC0B2F91CE0B2F92060B2F92250B2F9244001FB00330BFB073AB2F92A301093B2F948
:406B80002E301193129BB2F91E70B2F92600B2F92810B2F92CB009FB03A9139B08FB0399149B0CFB0399159BB2F93480B2F930A0B2F936C00EFB0399169BB2F938E007FB1D
:406BC0000399179F109B06FB0799189EB2F93A7005FB0699199DB2F93C6004FB05991A9DB2F9404000FB05990698B2F93E5001FB0099B2F9441007980791B2F948101091F2
:406C0000B2F94A10129103FB0099B2F94C101B9813911C99B2F946300BFB009BB2F94200B2F932900690B2F94E200846119901FB00BB1D9906980AFB01BB089909FB01BB12
:406C4000099908FB01BB1E990CFB01BB0A990EFB01BB1F9907FB01BB0B9F079906FB07BB0C9E05FB06BB0D9D04FB05BB0E9D00FB05BB209801FB00BB0F98109903FB00BB9C
:406C8000219B01FB03BB229B129901FB03BB239B139901FB03BB249B02FB03B21C4B82FB0301DDE900341B184C412546DDE902899B0F43EA8503174D049CC5FB0289164D38
:406CC0000534C5FB03890D46144904942746044603F50046C1FB0345059B321423F8022B0593259B9F42CDE90089CDE90245FFF68BAE279A49464046C2E900011146DDE95E
:406D00000223C1E9022329B0BDE8F08F88CB0910C61BE63E72C83382DB5DC77DBFEE2EC22DE9F04F03EB830395B0002B11931390049240F30581D0E90056CDE90056D0E946
:406D40000245814B814A0E938946CDE9024580490A91D62441F26D764FF0000840F67E256FF03C0027460F94069640F2A1141E46089146F2796341F26D710595CDF84890AD
:406D80000B9210900D940792CDF830804546C44640F67E2B8A460993894633E06D4AB3F9027032F93600B3F90A200792B3F90E200892B3F912200992B3F916200A92B3F969
:406DC00018200592B3F91A200B92B3F91C200C92B3F91E200D92B3F920200E92B3F922200F92B3F90460B3F92420B3F90640B3F90850B3F90CB0B3F910A0B3F91490B3F961
:406E00002680109212994FEAAC025200263A0B461344895EB3F902E0B3F904200EFB07F701FB0077B3F90600B3F90810B3F90AE002FB0677B3F91220069200FB0477079A4C
:406E4000B3F90C60B3F91040B3F9160001FB05710EFB0211B3F90E50089AB3F91470B3F91EE006FB0B1105FB021104FB0A11099A069CB3F918A0B3F91CB0B3F92060B3F9E5
:406E8000225004FB02110A9AB3F91A4007FB091900FB0299059AB3F92410B3F926300AFB02990B9A04FB02990C9A0BFB02990D9A0EFB02990E9A06FB02990F9A05FB029970
:406EC000109A01FB029103FB0818DDE90045224B88FB030124184D41A20F42EA8502DDE902451E4BC3FB0845A9461D4D194BA046C5FB02890D461B49044602F50047C1FBA4
:406F00000245049A3F1422F8027B0CF1050C0492119A0CF0030606EB8606944503EBC603CDE90089CDE90245FFF638AF139A49464046C2E900012B4611462246C1E902239C
:406F400015B0BDE8F08F00BF72FEFFFFE4FBFFFF4FEEFFFF28CC0910C61BE63E72C83382DB5DC77DBFEE2EC22DE9F04F03EB83038BB0002B0893099040F3A3808B46904669
:406F8000D0E90212D0E900454F4BDFF85491CDF81890CDE9021246F27961CDE900454FF0000C0C464FF0D60E40F2A117CDF81C90C246D9460593664672463946A3469846E8
:406FC00017E0B3F90600414A0690B3F90A0032F927200790B3F90210B3F90C00B3F90480B3F908B0B3F90E70B3F910E0B3F912C00590F0104000123809EB000339F9000072
:40700000B3F90240B3F9045004FB01F100FB021105FB0811B3F90620069DB3F90840B3F90A00B3F90E8002FB051104FB0B1B0799B3F90C20B3F91050B3F9123000FB01BB90
:40704000059902FB01BB08FB07BB05FB0EBE03FB0CECDDE900451E4B8CFB030124184D41A20F42EA8502DDE902451A4BC3FB0C45AC46194D154BA346C5FB02BC0D461749B2
:40708000044602F5004E0536C1FB0245089A06F0070707EB87074FEA2E4EB24203EB8703CDE900BCCDE902452AF802EB89DC099A61465846C2E900012B4611462246C1E96B
:4070C00002230BB0BDE8F08FE4FBFFFFC8CC0910C61BE63E72C83382DB5DC77DBFEE2EC24FEEFFFF70B4144B8478067853F82450D0F8A044D0F8A43406FB0555002D18DD35
:407100009B0000F2AC40640003EB85050544044452001844B1F9003024F8023BB1F9003007EE903AF8EEE77A1144E0EC017AA842F0D170BC704700BFCCEC09102DE9F04F99
:40714000023A52002DED028B202A9346B8BF4FF0200B083297B0E42AD4BFCBEB0205CBF1E40505AF05F109084FEA4B0407EB8808C4F10804B8450093044423D981468A4661
:407180003E46CDF804B002AB524621464FF0000C48464FF0000BCDE902BC01F02DFBDDE90223203243F10003920942EA836207EE902AF8EEE77A023CE6EC017AB045E2D826
:4071C000DDF804B0DDED097A95B1681C012300250AAAB2EC017AB4EEE77AF1EE10FAC8BF1D4603F10103C8BFF0EE477A8342F0D12B1D07EB8307DFEDAC6A57ED025A9FED8D
:40720000AB7A17ED036ADFEDAA2A17ED015A97ED003ADFEDA81AD7ED014A97ED024AD7ED033A9FEDA52A65EEA67A5D44E6EE077A7E2DE5EE227AE3EE217AE4EEA27AE4EE83
