:020000041000EA
:4000000000000208230100100D0000008501001000000000000000000000000000000000000000000000000000000000810100100000000000000000810100108101001029
:400040008101001081010010810100108101001081010010810100108101001081010010810100108101001081010010810100108101001081010010810100108101001060
:400080008101001081010010810100108101001081010010810100108101001081010010810100108101001081010010810100108101001081010010810100108101001020
:4000C00010B5064C2378002B07D1054B002B02D0044800E000BF0123237010BD903A00080000000070730010084B10B5002B03D00749084800E000BF07480368002B00D1BF
:4001000010BD064B002BFBD09847F9E700000000943A00087073001088060008000000007047FFF7FDFF72B60F4C104DAC4209DA21686268A368043B02DBC858D050FAE798
:400140000C34F3E70A490B4A0020521A02DD043A8850FCDC084809490860BFF34F8F00F041FA00F0DFF8FEE7608E0210788E0210903A0008A44C00080000000808ED00E034
:40018000FEE7FEE700B504207146084202D0EFF3098001E0EFF30880043001F021FBFEE730B5484A8FB003000D0090423BD010D8454A904239D0454A90424ED08022520184
:4001C000904274D14249434801F0E4FE0021080010E0414A904210D0404A90424ED0404A904264D13F493B4801F0D4FE002001003D4B187002F0A2FB62E03C4C0222200002
:4002000005F039F8200021001030022205F033F8374B38491B685B88A381230014336360A123238123E0344947E03449294801F0B1FE2E4B01AC1B78237000236370A38017
:400240000233E370A37007F032FA20000CF0F6F82B49002831D12B492FE02B491D4801F099FE2B78214C2949002B00D02849194801F090FE20780CF0A9F821E02549154865
:4002800001F088FE1A4B2A891B68DB889A4217D12B681C78012C13D11F490E4801F07AFE0022114B1C701D4B1A7040BF08E032211B4A01A804F0F0FF01A9064801F06AFE2E
:4002C0000FB030BD074000000920000015200000485B001000006640015000000C500000084000005B5B001000000208AC3A00086C030008835B0010965B0010A65B00102A
:40030000C75B0010F65B0010175C00102F5C00104B5C0010705C00108D5C0010444C0008A25C0010F8B562B63C4803F0FBF93C4C05003C4A3C49200001F042FE002802D0C7
:40034000012004F073FF802223681206134323603649200001F01EFE354B1B78022B02D028F048F9F8E7002D04D1324B32481D7000F0B8F90023314D314A2B60137028F079
:4003800039F92C4B1B78002BF9D02E4B2A681B689A42F4D02C4C2D4A6378D25C002AEED1002BECD12A4B1B78012BE8D929491C4801F0F0FD2B680A21581C03F03FFB2300EB
:4003C0001F4EB433327827001A70A02329605943214B14375918A022380004F04CFF63781A4A6760D25C002AC9D1002BC7D1184B1B78012BC3D9201D0EF056F9174B18493F
:40040000984206D01749002803D13378164901333370034801F0BEFDB1E7C046A1010010000066406C4C0008A0620010AD5C0010504C0008000002080000081044060208DD
:40044000444C000848060208AC3A00085D4C0008524C0008BC5C00100400020801001600C95C0010075D0010415D001010B5002000F0CEFE10BD0000F8B5E023504C9B004E
:40048000E2580F231340D022990092000919885807224C4D0240032A05D0042A05D0002A0FD0494811E028680FE0C022920089581F220A40112A01D0132A04D180200002AB
:4004C00003E0424801E0FA20C001002B27D1B223B1210322DB00C900E658635867581B0F3F0F1340174205D0354F7958090F0A40012A01D1F20701D4032B3AD1B023344A83
:40050000DB00E658A158E758C904C90C03F026F9B603F901B60BC90F7043013127E0012B27D1C823C0210322DB00C900E658635867583F0F174205D0214F7958090F0A40EE
:40054000012A01D1F20703D49B009B0F032B10D1C0227F23D200A758A1583B401F27A658090A3940584303F0F9F8310C394003F0F5F8E0239B00E3589B069B0FD840154B10
:4005800068601C691969240A090E013103F0E6F8E1B2A860013103F0E1F80F4BE860286104000E49C01803F0D9F8FA210C4B28758900E01803F0D2F8A861C003E861F8BD52
:4005C00000002640C000000800366E0100127A0084050000000021403F420F0040420F00E703000010B5254801F0CEFCB022E0213020234CD200A35889005B005B08A35021
:4006000063588343635080235B04A3501D4A1E4BE250A02204339201E250FF221B4BE25001F0A0FCC02201215200A3588B43A35000F0A6F8FFF720FFB0235B055A78002AA7
:4006400002D05B78212B03D10022114BDA605A60104C80212200042000F032FC2000103000F0E4FC0C4B1B6851331B78002B02D00A4800F017FD00F09DFA10BDAC5E001000
:400680000000264001000200840500008C050000E0002340643B0008484C0008545D0010024BD86F032318407047C0460400214010B501F016F9074A074BD16F0B400749F9
:4006C0000B43D367102306490A681A42FCD001F00CF910BD04002140FCFF00000100FA058800214070B50F4C060001F0FAF8E36F0500DB439B0701D1FFF7DAFFB0230A4A02
:400700009B00D650E26F094B09491340094A1343E36710230A681A42FCD0280001F0E5F870BDC0460400214000002140FCFF0000880021400300FA0530B507281AD80E4BBA
:4007400003241B681A007032157803321278996894402A0072331B7828409A402300134380221206134318438023DB00C850CB58002000E0014830BD484C000801004A0094
:40078000F0B596218FB0002001F042F801F018F8914E002810D101F005F8C0235B00F3588E4ADB0703D4B3585B005B08B3508021B35809060B43B350012001F055FBE8211F
:4007C000874F88487B6C890103400B437B647A6C0190120AD2B23A2A04D17B6C824A13400B437B64A0220321D200B3587F4C8B43B350236801981A001D0088321968126880
:4008000008358A1811680140802011601A68E96F400451180A681202120A02430A601968EA6F01988A1811683E33014011601A780294002A07D0E0210F24674A8900525844
:400840006548A24342501A78002A05D0E021302089007258824372501B78002B06D0E02280219200B35809060B43B3500021012000F0E6FC0021022000F0E2FC00210320FB
:4008800000F0DEFC0021042000F0DAFC002105AD080000F0D5FC2B00554A13CA13C303CA03C3280000F008FD514B0393002800D0FEE780214F4A0906B3584F480B43B3504F
:4008C00000F056FD444C061E00D0FEE74B4B4C4AE1580A40E250E1584A4A0A408021E250E25809060A43E250043BE158464A0A40E250E158454A0A40802189010A4380210A
:40090000E250E25809020A43E2503A68404B13408022520013433B6001F006FB80212F4B0906E25830000A43E2500122E1580A43E250642100F06CFF029B1A6813003F33F8
:4009400019789368052901D932495E50743212880199D3181A6800200A408C2189010A431A60FFF7E9FE029B1B681A003F3211789A68132906D91900703108780121014040
:400980002548115074331B880432D2181368019901200B40C42189010B431360FFF7CCFE2A00039B143313CB13C213CB13C213CB13C22900194800F0DFF92B00039C3834DE
:4009C00007CC07C307CC07C307CC07C32900144800F0D2F90FB0F0BD000026400C05000000002740FF00FFFFFFC5FFDF484C0008985D0010087F0000400D03000405000076
:400A0000FEFCFFFFFFFF00FFFFF0FFFFFF8FFFFFFFFCFFFF140C00004C0C00008002324000033240044B1B68190008311A68CB6FD3181868000E7047484C0008054B1B68EF
:400A4000190008311A68CB6FD3181868000AC0B27047C046484C0008044B1B681A00B03212881B6A5043C0187047C046484C0008034B1B68B4331B68C0180068C00F704776
:400A8000484C00081E4A0300904238D010D840282ED005D8002831D010282DD119482EE0802827D08021100049008B4227D023E0154A904214D008D8A022120690421DD06E
:400AC000124AA020934211D016E0114A904209D0104A904208D0104A90420DD10F480EE0A42003E00E480AE00E4808E0C00306E00D4804E00D4802E00D4800E0002070478B
:400B00000600520001005000010000F0090000A0040000F0050000F0030000F00100520002005200030052000200500005005200FF00520010B50020FFF78EFFFFF798FFAB
:400B400000280CD1074B1868FFF79CFF0122064B1B685B689A609A68002AFCD100E0034810BDC046F43C0008484C0008020050000D4B10B51861002805D002230370FD33E1
:400B8000437000234380094B1B681A0050321278002A08D051331B78002B04D002220449002000F0DFFA10BDF43C0008484C0008F106000810B502481430FFF7D9FF10BD9F
:400BC000F43C000870B5C40506000D00E40D2AD1002928D0FFF750FC144B154A1A605C609E60DD60134B1B6852331978002915D0FFF718FF0400FFF721FFFA210134013091
:400C000060430D4B0D4C89004443186802F0A6FD0100200002F0A2FD094BC1188020400004F08AFF00E0074870BDC046F43C000800010005484C0008C4000008C0EA21012B
:400C4000482600000600520010B5FFF773FF10BD70B5C3050400002B33D1FFF70DFCE022194B52051A60194A1278002A04D080211A6849000A431A605C6000249C60DC6028
:400C8000134B1B68543318780100A04216D0FFF7C9FE0500FFF7D2FEFA210135013068430C4B0D4D89004543186802F057FD0100280002F053FD094BC118200004F03CFF4F
:400CC00000E0074870BDC046F43C00080B000016484C0008C400000860F59000980800000600520070B5C30505000C00002B34D1002932D0FFF7C0FBC0228021184BD2042E
:400D00001A60184A49001278002A02D01A680A431A6059609D60DC60134B1B6853331878011E17D0FFF77EFE0400FFF787FEFA210134013060430D4B0D4C8900444318687A
:400D400002F00CFD0100200002F008FDE1239B00C118002004F0F0FE00E0064870BDC046F43C00080B000016484C0008C4000008808D5B000600520030B5002830D00029CE
:400D80002ED0184BCD681B689A695C69821AD209120112190C6804601C007D342478241825601C007E3424780D69241825601C007F3424784D69241825601C007C342478B0
:400DC0008D68241825604C68803384611B7818188B690360CB69002013600B6A536000E0014830BD484C000801005A00064B1B68B4331B68C3181B68002B03DA89B241605B
:400E0000002000E001487047484C000801008A000368002B01DB034803E089B2C26081600020704701008A00064B1B68B4331B68C3181B68002B03DAC36800200B6000E011
:400E400001487047484C000801008A00F8B5184B0D001B681A0031321278824224D9002922D01F240A6814401ED11900B0310E88104F70431E6AD2088619210068683E609E
:400E800004F002FA21003000FFF7B0FF21002A003868FFF7BDFF011E04D13868FFF7A6FF031E02D0044B00E0044B1800F8BDC046484C00080C3D000801018A0003018A0035
:400EC00010B5002A0DD1002914D10B4B1A681300B0331B885843136AC018084B1860080009E0002906D0054B5960191D9A60FFF7ADFF00E0024810BD484C00080C3D00083C
:400F000003018A00194BF7B51A680193D76804003B680E00834223D90025A94202D100F0E0FC0500019B18680368002B01DB104C10E063095A01A41A012279689B00CB18B3
:400F40001968A2400C0014400CD10A431A600021FFF74CFF002E07D1280000F0C6FC03E0044C01E0044CF2E72000FEBD0C3D00080301880004018A0002018800194BF7B5A9
:400F80001A680193D76804003B680E00834223D90025A94202D100F0A4FC0500019B18680368002B01DB104C10E063095A01A41A0122A24079689B00CB18196811420DD07A
:400FC0000024914319600021FFF710FF002E07D1280000F08AFC03E0044C01E0044CF2E72000FEBD0C3D00080301880004018A00020188000A4B1B68DA68136883420DD967
:40100000430999005B01C31A0120984052688B581840431E9841034BC01800E0024870470C3D00080001880004018A00024B1A68002A00D118607047183D0008F0B52C24AF
:401040006043154C1F0024681E0A2018FF2427403440124E1B0C356807602E6A44608360B0352D886F43BF190761270080377F01F71964010A4D476134191F043B436419F0
:40108000236000238361059BC2610162002B01D01B888381F0BDC046183D0008484C000808100000F0B5038985B002AD2B80144B02681B68066ADB8E476A9B18AB7043680A
:4010C0000095826AC16A040003930369C068FFF7B5FF00213B000A0000913000FFF7AEFF216B280000F0FAFA0023EA5E002A05DB1F231A401E3B9340024A136005B0F0BDAC
:40110000484C000800E100E0F7B52C25124C6843276801933C182669002E08D04D4379198869002805D13568002D02DA03E00B4811E00B480FE06768012425004B689D4077
:4011400013882D041D431560F2608C61BC40019BA4B24B62B460FEBD183D000804028A0007028A002C235843064B1B681818C369934204D9036A9200D150002000E002486F
:401180007047C046183D00080A028A0073B5002642690400D56801962B0CB34221D01B0413601368194B00691B68B4331B68C3181B68B34215DA01A9FFF736FEB0420CD1E5
:4011C0000198E26903681E0C0378934205D2226A9B009B58002B00D0984731002069FFF705FEADB2002D0ED063691D6000251B68636AAB4202D09847656203E0A36A002B00
:4012000000D09847A56163691B6873BD484C00082C2310B55843034B1B681818FFF7B6FF10BDC046183D0008044B10301B6880021B69C0580F2318407047C046484C000840
:40124000104B1B683C331B78834219D904290FD94B1EFF3B132B13D81F2319400A4B8000C018C02304229B00C1504033C25005E00723D0301940044B8000C150002000E02C
:4012800002487047484C00080000264001004A00084B8200D218D0239B00D05807231840042806D1C0239B00D0581F231840E1331843704700002640F0B5B024244BE4004E
:4012C0001A59002A42DB02689203910BC279551EAA4112060A431A5102891E4D12042A4011008288C024D204D20C0A431A49A4055A50FF21C67A828936010E4017491202A0
:401300000A400F213243867A31400A431600827B12072240110032000A43B121C9005A50E0228779D2003F02174039000C4E0D4A9C59144021439951018A9A5909040D40D8
:40134000094900200A402A439A5100E00748F0BD000026400000FF018405000000FF1F008C050000FFF8FFFFFFFF00FE03004A00F7B580210600050004272F4B2F4C09061A
:40138000E2580A43E2500093B223DB00E3583B4206D1002D04D0012000F0F2F9013DF3E7B1218020C9006358254A80051340034363500192002E01D0002D06D0B02280214F
:4013C000D200A35809060B43A3500127B223DB00E3583B4206D1002D13D0012000F0D0F9013DF3E7002E01D0002D0CD0B122C0210020D200A35889050B43A350864217D13F
:4014000019E0002EF2D0B122D200A35801990B40802189050B43A350083AA3585B005B08A350009B009AE3585B005B08A35001E0002D00D10348FEBD8C05000000002640E3
:40144000FFFFFFCF02004A00F7B54A4B00911700984200D98BE09A4200D988E0464B994200D984E00123454E3370FF2805D80F24030025002340072017E0414B984202D80D
:401480000F2420400FE03F4B020A984204D8FF2400012040104306E0F02503022D012B4013431800384C00252B00FF2F0BD8FF223F011740E022D2020243F0200543F02060
:4014C0003B4300031EE0F0212D4A0903974204D83A040A4002430C4315E03A020A401043284A974207D8F0223F0512043A400243FF20000406E0F0223F06120517403A00DD
:401500000243224804432248072107683800B03000884143386A0191081801680029FCDA70781C4E002803D01B497058002817DA1A491B4801601B491B480160A321C90066
:401540007058A8431843194D705070590B4BA04302437251009A00205A600F4BF25000E013483B6A019AD31800225A6000E01048FEBDC0460F060000FFFFFF001C3D00086F
:40158000FF040000FF0500000F0F000000000F0F484C0008000026401C0500001F1F0000080126403D3D0000040126401405000001004A000A000021F8B5224B04001970FD
:4015C00021490D682900B031088807214843296A401801680029FCDA1C4900270D681C498D4205D11B490D681B496D186F426F41A4211A4DC9006958002545602E00AF429F
:401600001ED00F023E0AAE421AD0AC420AD158682100230002F038FA23007A0A8018594132000AE05C6830002B00290002F02CFA2B00620880185941220002F005FA060063
:401640003000F8BD1C3D0008484C0008080126401F1F000004012640C3C2FFFF00002640134B30B51D6807222B0028331B78012B13D183081C00944319D19C00021BD2007A
:4016800091402B6820331B191C6861400800FF21914001406140196009E00240802000060243802080012B6809188900CA5030BD484C0008064B10309A68064B9A4203D11B
:4016C00083009858995002E0034B8000C058704700ED00E00000000800000010F7B5061E019142D00023C05E002804DBB178FFF7B7FF002400E01E4C0023F05E7668B60125
:40170000002815DB0321FF250140C9008D40C027AC46184B82089200D218BF00D3591D0063469D43FF2333408B402B43D35113E00F2281B20A40083A0F4B92089200D2185A
:40174000032319409940FC331D0033408D408B40D769AF433B43D361074B9A68074B9A4204D10199FFF7A6FF00E0014C2000FEBD0100560000E100E000ED00E00000000855
:4017800010B5034B1B78584300F0A2F810BDC046D40000080122024B1B685B689A607047484C000880220020034B12069A649B6C834200DA01487047000027400300460030
:4017C0008022054B120198585B68DBB2002B02D08023DB021843704700002640FEE7000002680A4B10B51A6042685A6082689A60C268DA6002691A6142695A6182699A61EE
:40180000C269DA61FFF7EAFF10BDC046B00A0008F0B51924002800D14B342A4B03261A688C42A4411300A8331F8813686442FD182B68B34323432B601368234DFF183B68B7
:401840002B403B601300AA331B8815685F193D68B5432C433C6014681B4D1B191C6825401D60002808D00023102924D921338B429B415B4201331EE0130055331C7803005D
:40188000A14218D9130056331C780123A14212D9130057331C780223A1420CD9130058331C783300A14206D9130059331B788B42404105231B1A0F2152681068884303439D
:4018C0001360F0BD484C0008FFFCFFFF000000000230800803D001300238FCD1C046C0467047EFF3108072B6704780F310887047B0235B055A782120002A01D05878C0B215
:401900007047B0235B059A89002A02D0988980B201E080204000704770B5FFF7F2FF8022194B5200904215D119680F240B00022098330A681B68D3181A68A24302431A6005
:401940000A009C320B6812689A181368A3430343136017E0B0241B680C4A6405A5581A009832196812688A18C0211068890029430143116019009C311A680B68D318044A34
:40198000A2581A6070BDC046484C0008481800004418000070B5FFF7B4FF8022194B5200904215D119680F240B00032098330A681B68D3181A68A24302431A600A009C32BF
:4019C0000B6812689A181368A3430343136017E01B68B0251A00983219681268C1248A18C0216D0564012E598900106831430143116019009C311A680B68D3182A591A604D
:401A000070BDC046484C000810B5FFF77AFF8022104B52001B6890420CD1190098311A680B68D21811680C4B0B40C021C9010B4313600EE0B021094A4905885819009831B8
:401A40001A680B68D318C0221968920002430A431A6010BD484C0008FF8FFFFF1818000070B5FFF74EFF8022144B52001B6890420CD1190098311A680B68D2181168104BDE
:401A80000B408021C9010B43136015E01A00983219681268B0258A18C0210A4C6D052E598900106831430143116019009C311A680B68D3182A591A6070BDC046484C000878
:401AC000FF8FFFFF4C18000010B50020FFF7ACFB0400FFF70DFF0123222801D863426341180010BD03000020834202D10A4A5069C00F0A4A126844321278002A0BD0012B63
:401B000009D1054918008A69920F1A4201D18869C00F01231840704700002640484C000870B50C4B1B6844331B78002B11D00723094CA2691A4090420BD0A5699D430340D7
:401B40002B43A361002904D0904202D9C820FFF717FE70BD484C00080000264030B5031E1DD0C06800281AD01868002817D019790B4889000D5800242A00002A06D09A426E
:401B800002D014005269F8E7002008E0002D01D1435000E06361002201201C615A6130BD283D000810B5031E1CD002790E49920054582300002B15D0834201D05B69F9E743
:401BC0005869A34207D18850012300280AD000230361013306E0196948615A690123002A00D01161180010BD283D00087FB5204B80000D00C4581E00042901D0012918D181
:401C00000020002C32D01B4B98420FD0A3682B420AD1E36829001A685B6802920193039302A82368984774616469EAE7012DEDD11CE0022904D06369002B05D01C00FAE736
:401C40005B69181E12D01C690020002C0ED0A3682B4209D1E36829001A685B6802920193039302A8236898472469EEE704B070BD283D0008FF00420070B5194C06002368F0
:401C8000002B0AD1FFF72DFE23680500002B10D004210020FFF7AAFF0BE001210020FFF7A5FF0028EED002210020FFF79FFF0D4814E004210C4A13698B431361012E01D078
:401CC00030BF00E020BF2800FFF70FFE2368181E04D008210020FFF789FF002070BDC046283D0008FF00420000ED00E010B5E824FFF7F7FD064B07495A68A4010A4022436F
:401D00005A605A68114059605B68FFF7EEFD10BD00002640FF00FC0F70B50400FFF7E8FD85B2FFF7EEFD06000020FFF77DFA80235B00002811D19E4211D1222D35D88022C5
:401D40001D4B1E491B6824065D681D4B6E585204144033401C436C502CE09E4223D0164A1268156A9E4203D1002C05D1154A06E0002C03D1144A02E0144A00E0144A01218B
:401D80002800FFF745F8002813D10B4B1B68B4331B68EB181A68002AFCDBEB6800201B0EA02B06D106E0222D03D9034B1B681D6ADAE7084870BDC046484C000818F0000064
:401DC000FFFFFFFE010000300100000C010100300300000C0400420070B50400FFF791FD80235B00984205D0FFF77BFD0500022C0ED105E0FFF768FE0028F5D1184E2DE0A7
:401E00000120FFF789FF061E1AD1FFF785FD0BE00721144A342053698B4304390B435361FFF7AEFCFFF71CFE07230E494A699A43234013434B61022C06D1FFF7E5FD0026C5
:401E40002800FFF752FD09E09120FFF799FCFFF7A1FD0020FFF760FF0600F1E7300070BD0300420000002640F7B50700FFF749FD80235B00984209D0FFF733FDB0230190B7
:401E8000234D244A5B05002F06D012E0FFF71CFE0028F1D1204E38E0AF50E8220120D2009C5CFFF739FFE4B2061E20D1FFF734FD11E01A4903205958A9501F21184A9C5CBE
:401EC000184AE4B2AB588B4314390B43AB50FFF757FCFFF7C5FD1F2312491C406A589A4314436C50002F06D1FFF78EFD3E000198FFF7FBFC09E00720FFF742FCFFF74AFD0B
:401F00000020FFF709FF0600F1E73000FEBDC04600002640307F00000300420010180000410700001CFF000010B50C4B042803D11A68104318600FE0094A00061268140090
:401F4000A034116822688A18C02189040840042110601A688A431A6010BDC04610E000E0484C0008C0228020064952008B58C0059B009B08034380208B508B58000603439C
:401F80008B50704700002640014B18607047C046484C0008036870B580241B0500D4403C82259026AD00B6000A78002A07D04359DB05DB0DA342FAD082510131F4E770BD05
:401FC000F0B585B0002800D1D1E0002900D1CEE00B78022B03D100278C7FBC4201D04C68671E0D7F08266C1EA5412C0400948C68A44600246546AE42644107363E40802765
:40200000009DBF043E433543E4022C430460C0241D06A4042C4004644D7F6C1EA5418C7CAD01661EB4410E7CA402771EBE41360202964F7C7E1EB7417E02072703964E7B9D
:40204000013E3E4000968E7B293736013E400196CE6A771EF0263F0436033E40009F3E43019F3E4335432543029C2543039C254385640F7B3D006C1EA5412C020294CC7B22
:40208000002C04D19E1E754275416E0201E08026B60001246442A444654610342540AC466446029D25432E43C025AD0046518D692E04FF252D0435400E7D3543C426B60070
:4020C00085510025CE7FAE4203D05D1E6C426C412502009E019C013B2643354345647D1EAF415E425E4164463F023C43330423438024A4000351C125FF230C6BAD001C40E2
:4021000044514C1CE57F6C1EA5416C0600948C1CE47F013C674267410C00283424783E06013C654265414C6A2F04009D1C402C4334433C4304658C6B23408124A4000351B6
:402140004C6B0C4BC96B23400B4C03510B4B0B400B494350002310009A4209D0536093601360D36013621363D362180000E0054805B0F0BD6D0B0000C80F000073070000C3
:40218000880F00000160AA00F8B50F00012906D0082938D11E4B1868FFF7A7FB35E01D4B1B78012B2FD00320FEF724FF1A4B984229D001F09FFA012825D0022005F07DFA22
:4021C0000600FFF78EFB124D286026F017FA040006281AD0022E0AD1033CB4433000E4B213F0C0F8002C0BD100280ED008E0380013F0B8F8022C03D0002801D1FFF73CFD63
:402200002868FFF772FB054800E00020F8BDC046603D0008504C000801018800FF00420010B50248FFF7BEFC10BDC046E000000810B5002816D00C4BC26A5860002A00D00D
:402240009A600024094B1C70094B1C70094B1C60094B1C7000F06AFB084B20001C70084B1C7000E0074810BD603D00085C4C00085D4C0008604C00085E4C00084F4C000892
:40228000514C00080100160030B59BB002AD07AC14223049280002F0EEFF00214C22200002F0F2FF2C4BA56007932C4B2C4DA3810523A3736B681D221B696A442361294BE4
:4022C00029486361C82323836383C53B2377013363770233A3770A33D3771E226A44D377592212336B44DA87583A19AB1A70FFF735FC05F0D6F905F0DAF90DA805F042FA33
:40230000002825D1194B63606B68996B002904D03E302222684402F0AEFF200005F0DAF9002812D10122124B1A70124B1870124B18706B6868461A6A9B6A00926A46DB8811
:402340009380A023D3800DF033F800220B4B1A601BB030BD645F0010252C0010902E0000603D00084A0C0000E0000008D00A0008504C0008524C0008534C0008604C000806
:40238000014B024AD050704778F0010000003C4010B519F05FFE044B1B68002B02D0002800D0984710BDC0466C3D000810B50A00002808D0FA23FF33994204D8034902F061
:4023C0005AFF002000E0024810BDC0460708001601001600F0B5954C0D00A5440993944B08900592994200D816E18B18914A93420ED9914A914200D80EE1904A934207D91D
:402400008F4A914200D807E18E4A934200D903E101228D4F7C69A40F144014D0072379690B40022B04D0DBB202930392002423E00520FFF7D1FC854B04009842F8D001233F
:402440000393DB1817E0824BB021F858E8234905DB00C95C1F2303408B420AD10120FFF703FD7A4B04009842F8D000230393053301E0052303920293F0231B06EB185E0A23
:402480000693760200210320FEF73CFD0028F9D1802305005B05F31801930AAB9B1B049300902B00234300D081E0009A05998A427CD280229200B2180792069AB24215D842
:4024C000059A00998A4211D9089A525C04998A55002B07D180235B05F3181B78D31A5A1E9341DBB2009A0132009205E080225205B218127804998A55079A01369642DCD14E
:402500000025AB4245D0099BAB423CD1C8260198FEF79EFB05000120FFF732F9A423A422DB032B40D203934203D1013E002EEED11EE0484B9D4271D1FEF786FB464B05003C
:402540009842F9D0002813D1C8260AA90198FEF7C9FB05000120FFF713F9A423A422DB032B40D203934203D1013E002EEDD10FE0384B01209D420CD1FEF766FB364B0500E7
:402580009842F9D004E00AA90198FEF71BFB05000120802292009446019B304A634494460193049B079E634404937AE71D00002801D0FFF7EFF800210320FEF7DFFC0028CC
:4025C000F9D1002C01D026482BE07B695B0009D5029B022B06D10220FFF7FEFB1B4B04009842F8D03B681B0209D4039B002B06D10020FFF739FC154B04009842F8D0002C06
:40260000E1D1184B9D4207D0174B9D4204D02000002D06D0154804E0154802E0002D93D0B6E78B239B009D44F0BDC046D4FDFFFFFFFFFF0F00001010FFFFFF13008000146E
:40264000FF070016000A001600002640040042001CFF0000010050000200500000FEFFFF120016000200520006005200130016000100160010B50A00002809D0FA23FF3385
:40268000994205D8F93BFF3B0249FFF7A3FE00E0014810BD070800160100160070B515008022C0B004000E0052000849684602F0E2FDA619B44205D0237801345D406B46B8
:4026C0005D5DF7E7280040B070BDC046785F001010B50022FFF7E2FF10BD002070470000AE23008810B55843034B0C00C0180A2101F034F8208010BD91FCFFFF0023C05E42
:40270000044B10B558430C00034901F0B1F8BD30208010BD4B280000F0D8FFFF0020704710B512F049FC10BD10B5FFF729F810BD064B1B685B6B00229A5E002A05DB1F230C
:402740001A401E3B9340024A13607047643D000800E100E0084B1B685B6B00229A5E002A09DB1F231A401E3B9340044AD367BFF34F8FBFF36F8F7047643D000804E100E07A
:40278000A023034ADB00D058032318407047C04600002640024B034AD058C00F7047C0461C0500000000264010B5FEF703FF10BD70B5040003200D001600FEF71BFC054B3C
:4027C000984205D0320029002000FEF73DFE00E0014870BD0101880003004A00F8B50B001100C21AD417070010196040884220D3124E134D48087459A405A40D9F4207D93D
:40280000101800F0ABFF201AC343DB17184008E0C318D81B00F0A2FF0A4B0019984200D90948735982059B0A9B02920D1343735101E000242000201AF8BDC04600002640C5
:402840003C050000FE030000FF030000802110B5024B09021A68FFF7C1FF10BDF800000810B500F0EBFC0220FFF78AFD094C0A492368586BFEF732FF23685B6B00229A5E8F
:40288000002A05DB1F231A401E3B9340034A136010BDC046643D00089123001000E100E00420704710B5FFF71CF810BD10B5FFF71CF810BD10B5FFF7DFF910BD10B500212C
:4028C000FFF72EF910BD70477047002070470000004870471100160000487047110016000048704711001600004870471100160000487047110016000048704711001600C5
:40290000004870471100160000487047110016000048704711001600004870471100160000487047110016007047000010B5024800F01CFC10BDC0466C03000870B5022872
:402940002FD800292DD11E4B1B78012B2DD81D4C2378002B27D11C4A13701C4B002809D11A681168526895880D82158849680D8052880AE0012809D11A68116852689589AD
:402980000D82158949680D8052894A80104A1B681070186808F028FC00280FD1012323700CE00C480AE00C4808E0084B1B681B685B681B79023B012BC9D9084870BDC046AB
:4029C000524C0008534C00084E4C0008643D00085E4C000801001600FF00160002001600144B70B51B681B68002903D19A68D47F00230EE0DA68FAE7A3420CD200290CD170
:402A0000D55C002D14D00133D65C01211B2EF3D05B190021F0E700290AD08479D1184C700021455C5C1814190131A5700629F8D170BDC046643D000870B504000CF0D6FC3A
:402A4000051E22D1124B21891A6814234B43116A143BCB185968890117D50521E07B1B694843D2695B6821689B1AC018094BA288C01802F000FCE37B074AD35C012B04D147
:402A80000221064A13780B431370280070BDC046643D0008544C0008514C00084F4C0008164BF0B51B6802895B6987B09B88040000259A421FD101A803002200C2CAC2C34D
:402AC0001223A2896B441A80402385810374FFF7B3FF051E0AD1236821001A78084B1B68920701D5074800E0074898470121074A13788B431370280007B0F0BD643D000843
:402B0000683D000805000100060001005C4C000870B5458801246B1E132B16D84178002913D10B4B0C001A6814236B43106A143BC3185968890108D51B69D1695868054B36
:402B4000411AC918022202F096FB200070BDC046643D0008544C00080C4B82B05A78002A09D10B490978012905D91B781900834203D0FF3200E0FF221100FF231940080088
:402B800013401B02184302B07047C0464C4C0008524C000800280DD00A4B1A79002A04D019680023012A0AD106E0012118601971130004E0044B02E0814200D0034B1800D5
:402BC0007047C046644C00080100160003001600F8B5060000200F0004000125074B1A7994420AD2064A12782A4206D0A2009B583900300098470134F0E7F8BD644C00081B
:402C00005C4C0008002382799A4208D1821D0378002B03D101309042F9D100E00123180070470000F0B50126C84BC84A1B7885B033431370C64B04000D001700984200D1C2
:402C40004AE133D8C34B984200D1DAE016D8C24B984200D1F8E004D8023B98426AD0BF4B5CE0BF4B984200D1F8E0BE4B984200D04FE2BD4A13781E4316704AE2BB4B9842C4
:402C800050D008D8BA4BBB4A984200D1ACE0904200D1A9E03DE2B84B984200D120E100D906E1B64B984200D1E9E032E2B44B984200D1E5E11ED8B34B984200D19AE108D826
:402CC000B14B984200D120E2B04B984200D1EFE01FE2AF4B984200D1C7E1AE4B984200D017E20B8802AA1380C823100053800BF0C7FC0EE2A84B984200D106E205D8A74B29
:402D0000984200D101E2A64B08E0A64B984200D1F8E1A54B984200D1F7E1A44B9C4200D1F3E1F6E1080004F077FE884B874A1B78B343E2E09E4F3B6818000193FFF762FF08
:402D4000002809D0019809F01DFB00213868FFF747FE3100386836E0964B1868836A1B79002B24D0B026944B7605F25C934B3F27F15C934B3940F35C17409C46C023DB0018
:402D8000F35C1F26019363467F221E4089013603019B314339431A400B0052041343026B1370016B1A0A4A70026B1B0C9370006B09F0E8FA7F4E00213368186BFFF710FEBC
:402DC00001213368186BFFF70BFE7A4B1B68986A023009F0CDFD08227A4902A802F04BFA02A809F011FB77E0002377490B7077490B7077490B70944200D08AE1FFF710FA9C
:402E000087E1744B1968314000D082E1032202A802F03AFA674F02AA3B6810009B6A1B78137009F033FB3B6802AA9B6A10005B7856701370FF23937009F028FB654B1B6806
:402E40001E43644B1E6064E14878FFF785FE02AA83B210801B0A29785F4A27E00B78002B00D056E10B7A002B00D046E109225B4BDA8097329A805A4A4B601A603DE148794D
:402E8000FFF76AFE02AA108083B26978554A1B0AD154EB78002B00D03BE16879FFF75CFE012102AA83B21080494A1B0AD15430E12B78002B10D1AA78012A01D1434A13706F
:402EC0006878FFF749FE02AA83B210801B0AFF2B02D0A978444AD15402223B4B1A7018E1FFF776FE194B1B78334200D111E1374A13781600012B02D10133137009E1032B99
:402F000001D1002320E0022B00D002E100231370364B1978274B1A680E234B435268D3189A79002A00D1F4E09B88002B00D1F0E02F4B1B78002B00D0EBE00120FFF7FEFCF7
:402F4000002800D0E5E001233370E2E05C4C00080840000004200000021000000110000003100000041000004F4C00081930000001300000123000000640000004400000BC
:402F80000C500000015000000A400000104000000250000003500000105000000E5000000F500000175000000160000014500000FC000008643D000804060000050600001A
:402FC0000306000078600010504C0008534C0008813D0008604C00085D4C0008843D000860390008514C0008823D00084E4C00085E4C00084878002802D102224D4B1A703F
:403000004D4B400018180222290002F034F9002205266878494B4A4F1A542978494B71431B6870431B6932005918474BC019C91802F021F9687804217043C019FFF748FBEC
:403040006B787343FB181B7983420BD03F4B00213F481B6898476878320070430021C01902F012F929003B4851E04B78002B01D1304A13700021384A3848D154290046E0EF
:403080000800FFF70DFD061E04D129002000FFF79FFD06000622002102A802F0F5F8AB8902AA13802B895380122313713B78DB0709D4002E04D0100056710BF0D3FA02E0B4
:4030C000E8680BF0FFFA11233A781A4204D01F4B29001B682248984701233A781A420CD02A89511E132908D9122102A84280AA890171028043710BF0B5FA01223B789343FA
:403100003B7006E00800FFF703FD29002000FFF75FFD1122134B1978114208D001211A7820008A431A70094B29001B68984705B0F0BDC046524C00084C4C00085D4C0008AF
:40314000544C0008643D00084A0C0000683D00080400010001500000813D0008025000000C5000005C4C00080020704710B5002805D0044B18600448FFF70CFD00E00348AB
:4031800010BDC046903D00086931001001001600F8B58023FA250C0001271B0218430D4E0004F061AD00326C0A4B01203A4205D1002D0CD0013DFEF7E3FAF4E7002D06D0D1
:4031C0001A6C10431864DB6A0020238000E00248F8BDC04600003C400400160070B5FA2401260D4B000418400C4D0143E961A4002B6C0A4A0120334205D1002C0AD0013CB4
:40320000FEF7BEFAF4E7002C04D0136C18431064002000E0024870BD0000FF7F00003C400400160010200349034A8B5803438B507047C04600003C4070F00100F0B5154BC1
:403240009DB001A90A00180070C870C270C870C270C870C20AAC1A0020002432E0CAE0C0E0CAE0C0E0CAE0C013AD2A004833C1CBC1C2C1CBC1C2C1CBC1C20748FDF77CFD85
:4032800021000648FDF778FD29000548FDF774FD1DB0F0BD80600010000132408001324000023240F0B585B00090002800D15EE1C74F7B689B0301D5FEF718FDC54CC64DDA
:4032C000C64BEA58002A06D0013C002C03D00120FEF756FAF3E70122C14C2959114205D0C049BD484158114200D042E1EB58BA4E002B00D03DE1FFF7A1FFBB4ABB4BF250F1
:40330000A022009B12031B781343B94AB350B94AB94BF250B94B5A6801231A4200D02AE1B74A116F08220A4008D1B64BB64918681300884202D900F011FA431E2A68002BA3
:4033400003D0B2485B03034300E0B14B13432B607B69A1499E4E01275B0013D539000320FEF7DEFBAB4A7369126844321278002A0DD09B0F3B420AD08022B369D205134392
:40338000B36104E00320A44A8B5803438B502B5940200193019AA14BA14E13432B51FEF7EFF90123AA598C4F1A4208D1BB514020FEF7E6F903234020BB51FEF7E1F9FA276A
:4033C000019A984B984E1A4016430192FF002E51964A974BD3581022134207D1002F00D1CBE00120013FFEF7CBF9F1E7002F00D1C3E008218F4A0120AB580B43AB50FEF7B5
:4034000071FB002802D18C4E019B1E438B4B1E4001231E432E511E00894C724BEB58334207D1002C00D1A8E00120013CFEF7A8F9F3E7002C00D1A0E00B27C02181484901E0
:40344000FFF7CCFE041E05D102AB991D7D48FFF79FFE0400013F002F00D196E0002C25D1C02202AB9E1D338852019342E5D131007548FFF78DFE041E18D180233288DB0068
:403480001A4200D083E00B27019380216E48C900FFF7A4FE041E04D131006B48FFF778FE0400013F002F70D0002C68D0B0256D056B78002B44D06B78212B41D0634FEB5B00
:4034C000002B3DD0002C00D004E102AB9E1D31005F48FFF75DFE041E00D0FBE0C021E85B3488084060398C4340085A4920430140F020EA5BC000EB5BD201024011439B05D2
:40350000554A9B0F1140DB02194351483180FFF765FE041E00D0DDE031005048FFF738FE041E00D0D6E0C022EB5B31889B069B0F9B019143194349483180FFF74FFE040048
:40354000002C00D0C6E0009B454859781D78454B49001943FFF742FE041E04D142494348FFF73CFE04006801FEF70AF9B2E0404CB0E0404CAEE0404CACE0404CAAE033885D
:40358000019A934200D080E701E03C4C8EE731003B48FFF7FDFD041E00D087E732883F2310009843009B37499F78DB78012F6DD10222012B04D89FB2D21B92B2019201E066
:4035C000170001947022104330802F4A6CE0C04600002640F17E0E0000003C406CF00100A0F00100B4F0010006000001A4F00100A8F0010001000100ACF00100FC003C4081
:4036000000F03D40C800000800093D00041A0080040A0080484C0008C4F0010030000300B0F00100EFFFFEFF20000200000032401040000068F0010028000200FFFFFBFF6C
:40364000F07E0E00021E0000031E000016180000071E00007FF5FFFFFFE7FFFF061E0000081E000001100000376800000F1E0000010016000300160002001600040016005B
:40368000091E0000C00000080048E801002B02D00194012702E001201F0001907F2082436F38024332800D4ADA400A6031880C4839433180FFF792FD009B0400DB78DF1BF5
:4036C00003231F40019B9B001F43064BBFB23780EF50EBE6200005B0F0BDC0460024F400091E000064F00100014B18687047C046C000000810B500242000FDF7C9FD0328C8
:4037000004D00134052CF7D1002000E0012010BDA023034ADB00D058012318407047C0460000264010B5002810D0094C094B2278D862002A02D0FEF7A7FD08E01800FEF713
:4037400077FD01232370002801D1F4E7024810BD943D00080001000801001600002243088B4274D303098B425FD3030A8B4244D3030B8B4228D3030C8B420DD3FF220902FE
:4037800012BA030C8B4202D31212090265D0030B8B4219D300E0090AC30B8B4201D3CB03C01A5241830B8B4201D38B03C01A5241430B8B4201D34B03C01A5241030B8B4215
:4037C00001D30B03C01A5241C30A8B4201D3CB02C01A5241830A8B4201D38B02C01A5241430A8B4201D34B02C01A5241030A8B4201D30B02C01A5241CDD2C3098B4201D3CE
:40380000CB01C01A524183098B4201D38B01C01A524143098B4201D34B01C01A524103098B4201D30B01C01A5241C3088B4201D3CB00C01A524183088B4201D38B00C01A28
:40384000524143088B4201D34B00C01A5241411A00D20146524110467047FFE701B5002000F0F0F802BDC0460029F7D076E7704703460B437FD4002243088B4274D3030929
:403880008B425FD3030A8B4244D3030B8B4228D3030C8B420DD3FF22090212BA030C8B4202D31212090265D0030B8B4219D300E0090AC30B8B4201D3CB03C01A5241830B87
:4038C0008B4201D38B03C01A5241430B8B4201D34B03C01A5241030B8B4201D30B03C01A5241C30A8B4201D3CB02C01A5241830A8B4201D38B02C01A5241430A8B4201D39A
:403900004B02C01A5241030A8B4201D30B02C01A5241CDD2C3098B4201D3CB01C01A524183098B4201D38B01C01A524143098B4201D34B01C01A524103098B4201D30B01DB
:40394000C01A5241C3088B4201D3CB00C01A524183088B4201D38B00C01A524143088B4201D34B00C01A5241411A00D201465241104670475DE0CA0F00D04942031000D303
:403980004042534000229C4603098B422DD3030A8B4212D3FC22890112BA030A8B420CD3890192118B4208D3890192118B4204D389013AD0921100E08909C3098B4201D36D
:4039C000CB01C01A524183098B4201D38B01C01A524143098B4201D34B01C01A524103098B4201D30B01C01A5241C3088B4201D3CB00C01A524183088B4201D38B00C01A67
:403A00005241D9D243088B4201D34B00C01A5241411A00D20146634652415B10104601D34042002B00D54942704763465B1000D3404201B5002000F005F802BD0029F8D0BF
:403A400016E770477047C046002B11D1002A0FD1002900D1002802D00021C943081C07B4024802A14018029003BDC046D9FFFFFF03B4684601B5029800F050F8019B9E46DE
:403A800002B00CBC7047C046F0B54F464646C0B41604360C9946330005042C0C070C150C63437E436F4365431C0CAD1964199C46A64203D980235B02984647446346250C9D
:403AC000EF191D044B464A4343432D0C240464199918C91920000CBC90469946F0BDC04670B500220C4B04000D0001F05DFA002804D12000290001F0B5F970BD064B0022BC
:403B00002000290000F05AFE01F0ACF980231B069C466044F1E7C0460000E041F0B54D46564644465F46F0B4924683B004000D0099468B422FD82CD04946504601F05CFA37
:403B400029000600200001F057FA331A9846203B9B4600D574E053465A4693401F005346424693401E00AF4229D826D05B46A41BBD41002B00DA79E00022002300920193D8
:403B800001235A4693400193012342469340009319E08242D0D900220023009201930C9B002B01D01C605D600098019903B03CBC90469946A246AB46F0BDA342D6D900224D
:403BC0000023009201934346002BE8D0FB0772081A4346467B080EE0AB4201D1A2420CD8A41A9D41012024196D410021013E24184D41002E06D0AB42EED9013E24196D41FF
:403C0000002EF8D15B460098019900196941002B22DB2B005A46D3402A004446E2401C005B461500002B2CDB26009E40330026004746BE403200801A994100900191AEE7D2
:403C4000424620239B1A5246DA40414613004A468A4017001F4382E7424620239B1A2A0046469A402300F3401343D5E74246202300219B1A0022009101920122DA4001920D
:403C800082E74246202326009B1ADE402F00B446974066463B003343C9E7C046F0B556464D4644465F46F0B41D000E034C00CB0F87B0070092468146360B640D98466AD022
:403CC0006D4B9C4235D08022430F12041343F6001E43C3009946694B00279C460023644402932B0368001B0BED0F51469B46400D009500D178E0604B98426CD05B46DA003C
:403D00004B0F802109040B4313439B465346D9005A4B9C46002360444246201A6A40924601901F430F2F00D9B0E05548BF00C0598746374300D088E00023994602330827FE
:403D400000260293CDE74346B34649460093029B009A9246022B00D0BFE1002153460122002689461A40444B002136030C0D2405360B2643434C1B0526401E437600D207BE
:403D8000760816434846310007B03CBC90469946A246AB46F0BD330003434FD0002E00D1BCE1300001F00AF903000B3B1C2B00DDADE11D220100D31A08393A008F408E40EB
:403DC000DA40B9461643304B00279C46002360444442029385E753465A4613432CD1002300219B46023397E70B4320D05B46002B00D19EE1584601F0E1F803000B3B1C2BC9
:403E000000DD8FE102005946083A91408B461D21CB1A5146D9400B0059460B4351469B469140194B9C4660444042002374E7002300219B4601336FE703236DE70023994687
:403E400001330427002602934BE703230C27029347E70122D51A382D00DCB0E153461A4000210023002689467EE700238026994600223603004B77E7FF07000001FCFFFFB8
:403E8000B4720010FFFF0F80F30300005E4500D972E100D16DE1019B4D46013B01930023340002935B461E020B0E1E430B020393330C994633041B0C494620000093FFF7DE
:403EC0004DFC009B370043430600494620009846FFF7CAFC2C0C09040C43A04509D9E419731EA74200D95CE1A04500D859E1023EE4194346E41A49462000FFF72FFC03005C
:403F0000009A80465343494620009B46FFF7ACFC2A040904120C0A4393450DD94346D219013B974200D93AE1934500D837E102235B429C46D219E0445B46D21A43463604B1
:403F400033439B460399180C0B0C1D00059309045B46090C0C001B041B0C4443049159436B4368431B190D0CEB189C4203D980246402A44660441C0C09041B04090C2018F5
:403F80005D18824200D2DEE000D1D7E0161A029B9C465D1BAC459B415B42F61AB74200D106E149463000FFF7D9FB009B04004343494630009846FFF757FC2E0C09040E4332
:403FC000B04509D9F619631EB74200D9F3E0B04500D8F0E0023CF6194346F31A494618000293FFF7BBFB009B06004343494602989846FFF739FC2D0409042D0C0D43A84540
:4040000009D9ED19731EAF4200D9D6E0A84500D8D3E0023EED192404210043463143049E059A3000ED1A0B040C0C1B0C58436643534354439A19030C9B189E4203D9802279
:404040005202944664441A0C00041B04000C14191B18A54250D34DD001231943964A019B94466344002B00DCF3E64A0709D00F220A40042A05D00A1D8A42894149428B4472
:4040800011005A46D20108D55A468C4B1A4093468022D2009446019B6344894A934200DD5BE65A46C908500708435602514601225B058146360B5B0D0A4055E680231B0363
:4040C0001E4211D05A461A420ED15E461E433603360B2A0089467B4B46E6032B00D1E1E0012BBBD11A40BBE61E433603360B4246744B39E6002BB1D07D194A1EAF4252D9C0
:404100001100A542A8D1039A9A42A5D1A6E703003E00283B9E400023994654E600F04EFF203041E603005246283B9A400021934677E6504600F042FF20305EE6029B0026D3
:40414000AB4200D323E7039E0299B44661448846B045B6415B467642F619B218013B0291974213D290424FD800D18EE0161A9B460DE7894500D28EE674084B46F607350091
:404180005B081D434B46DB0702938BE69742EDD10399029CA142E5D93E1A9B46F7E69846CAE61E00A5E6AC423ED874D0110053E70121494252E71C000EE71E002BE71F2DFE
:4041C0003CDC20230A0058465B1B9840EA4099400243481E81415E461143EE404B0709D00F230B40042B05D00B00191D99429B415B42F61833023CD55346012200211A400C
:40420000002601238946AFE502235B429C46039CE344A446029B63449846A045B6417642F6190293B218B1E603988A1E41008142B6417642F619AD19039161E71F22524246
:40424000D31A5A46DA401300202D29D040225846551BA8400143481E814107200B4318400026002809D00F2200261A401900042ABBD10B0070077602360BDB0803439946BF
:40428000012253461A4000236EE502998D42BBD89B4600267BE603989842C5D3110032E70020D7E780265B4636031E433603360B009A8946034B57E5FF030000FFFFFFFEAD
:4042C000FE070000FF070000F0B55F4656464D464446F0B40D0399464E002B0B87B00700924680469B46760DCC0F002E69D06D4B9E4235D05B468022DD001204430F13439C
:404300002B439B46C3009846674B00279C460023664401934A4615035000D20F53462D0B400D914600D176E05E4A90426CD080225B0F120413435C4AED0094461D435346E8
:404340000022DB00604449463618701C6140029017430F2F00D9AFE05448BF00C759BF465B461F4300D088E000239B469846023308270193CEE74946022A6AD0032A00D1C3
:4043800009E2012A00D0BBE111400022002300259046CCB200212D030A0D12052D0B1543434A1B0515401D436D00E4076D0825434046290007B03CBC90469946A246AB46DA
:4043C000F0BD034352D05B46002B00D18AE1584600F0F4FD03000B3B1C2B00DD7BE11D22D31A3A0001005D46DA4008398D4013008F402B439B46B8462E4B00279C46002352
:4044000060444642019385E752462A432CD100250023022297E752462A4321D0002D00D154E1280000F0CAFD03000B3B1C2B00DD46E11D21CB1A51460200D9405346083A18
:40444000954093400D431B4A944660444042002279E7012400220C40124B0025904699E70025002301226EE703226CE700239B4698460133042701934CE703230C270193C5
:4044800048E700238025984600242D03054B81E75D464346019A6FE75D4643462100019A6AE7C046FF07000001FCFFFFF4720010FFFF0F80F30300004246120C91461A0C22
:4044C0009446424617044A461B041B0C5A43604690464A4642431000039262461C003F0C7A437C4342440192220C9246019A5244904506D98246802040028046C2445046FB
:404500000390100C049048462404240C1204121905922A0C2D042D0C68432C00824648467C4350438146200C8046574357444744BA4503D9802040028046C144380C3F04D3
:40454000B84648442404240C01900498A044404404905846000C814658460404200C8246070048465F434C464343604660436446834650464443380C8446E4186444A34266
:4045800003D980235B029C46E34448463F04230C3F0C2404E419574668436F4384464D46504655434243380C814662444A445B44944503D9802040028446654403983F04D6
:4045C000834604983F0C8446E344C345804140428246100484460198674484466744A344BC46A345A4419946D44464428742BF41D4458041E144A04699459B417F42404272
:40460000C8440743120CBA18A045A4415F423B0064422343D71843467D19DB0D6D021D435B465A02059B1A43531E9A415B46DB0D1A4343465B021343EA0107D501225C0807
:4046400013402343EA07029E13436D08574AB218002A4BDD580709D00F201840042805D0181D98429B415B42ED180300E80104D54F4A15408022D200B2184E48824200DDF3
:40468000E7E60124DB08680718436D02530580462D0B5B0D0C407DE6802259461203114208D0154206D115432D0398462D0B4C46414B6FE65D4615432D032D0B3E4B69E684
:4046C00003005546283B9D400023BCE6504600F075FC2030A8E60300283B9F400023BB46984689E600F06AFC203073E60124A61A382E07DD00220C4000230025904649E6A3
:40470000029EA3E71F2E20DC20222C001800921BF040944093400443581E83411C43F540630709D00F232340042B05D023001C1D9C4292415242AD182B021FD5012400223D
:404740000C4001230025904624E61F202C004042821AD440202E1CD04022961BB5402B43581E83410720234318400025002809D00F2200251A401C00042AD8D123006807FD
:404780006D022D0B0124DB08034398460C40002300E60025E3E780220124120315432D0398462D0B0C40044BF4E5C046FF030000FFFFFFFEFE070000FF070000F0B55746A4
:4047C0004E464546E0B40E001100F20F9246C500420F180337037400400A4E0F7F0A3043CF4E17435A00640D520DDB0FC900B24200D1E5E001267340A61AB446534500D1B1
:40480000AFE0002E00DC0DE1002A3AD103000B4300D0E4E06B0709D00F232B40042B05D02B1DAB42AD416D427F191D003B0200D488E0BB4B01349C4200D110E13A00B94BD2
:4048400051461A4001235007ED08520264050543120B640D0B400021280012030D0D120B64052D0515436208AF4CDB072C401443640064081C4321001CBC90469946A246A2
:40488000F0BDA74B9C42C5D080231B0418436346382B00DDFDE01F2B00DD30E1624620239B1A02009A40664690460A009940F24046464B1E99413243114363460200DA405B
:4048C000691A8D429B410D00BA1A5B42D71A3B0235D57A02530A98464346002B00D1C4E0404600F06BFB0300083B1F2B00DDC5E020222900D21A4746D1409F400A009D404B
:404900003A439C4200DDC0E01C1B631C1F2B00DDE4E0202114002800C91AD8408C408D400443DA40681E854117002543002471E7424663461A4300D14CE2674645466B070E
:4049400000D069E7012351467807ED08FA080B40054373498C4238D012036405120B640D79E7002E00DC9AE0002A47D06C4A944200D14FE78022120410436246382A00DC0C
:4049800008E10143481E81410022C9B24919D219A942BF410D007F42BF183A0200D442E15F4A0134944200D14EE101205D4A69083A4028400843D507054357089A4629E768
:4049C00006000E4300D017E714E72900114300D1F9E1802109030A431203120B3BE701235B429846C4446346002B72D1691A8D429B413F1A5B42FF1A0D0068E702000A437B
:404A000000D107E7012252429046C4446246002A00D0E6E06918A942B6413F187642F7190D00BAE7002E00D080E0621C5205520D012A00DCF9E06A1A91464D45B6413A1AE0
:404A40007642921B9046120200D499E04D1BA9428941C71B49427A1A90469A463CE752460123002513400022F5E6280000F0A6FA20300300083B1F2B00DC39E72A00283854
:404A8000824000259C4200DC3EE7264FE41A1740C0E60143481E81410022C9B210E7002E00D0F1E0621C94465205520D012A00DCA0E01B4A944500D1C5E06918A942924169
:404AC0003F185242D2194908D5070D4357086446A0E6134B9C4200D0D9E69BE611001F3CE1400C00202B00D180E04021CB1A9A4015436A1E95410027254300241FE763463B
:404B00000200203BDA406346202B71D0402366469B1B98400143481E814111430022CFE6FF070000FFFF7FFFFFFF0F80002C48D0CA4CA24200D1A2E07442A146802424048C
:404B400027434C46382C00DDDBE01F2C00DD44E14E462024A41B3E00A640A246B0464C462E00E640B4464646644626435446A5406C1EA54134002C434D46EF400D1B28E054
:404B80004A4643464D461A4300D0A5E6002300240025DEE61F2A5ADC66462022921B060096409146B04662460E00D640424616434A4691404A1E9141020060463143C24038
:404BC000E4E63C002C435AD0F443A146002C52D14D1BA9428941C71B49427F1A14009A4675E69E4A944200D0C7E613E600227FE700208FE7002C00D0C8E03B002B4300D1C7
:404C00000FE103000B4300D104E66918A9429B413F185B42DF193B0200D41AE1904B0D001F406446F6E59A4689E63A002A43002C5CD1002A75D102000A4300D1CAE00700DC
:404C40000D009A46E6E564460022002581E662460600203AD6406246B046202A00D1B7E040226646921B904001434246481E8141114300228AE6794CA24200D061E7070089
:404C80000D0014009A46C5E5002C41D13C002C4378D0F443A146002C20D0704CA24271D04C46382C00DDB2E01F2C00DDBCE02026341BA2463C005646B4404E46A0462C00E5
:404CC000F440A446444666463443A4465446A54064466E1EB54125434C46E7406D188D4289413F184942CF19140056E6002A2FD102000A4300D184E007000D009A46574CB6
:404D000088E53D436F1EBD41ECB200270D1B60E7524CA24236D0744280263604A1463743BEE702000A4300D174E56A1A90464545B6413A1A7642921B9446120200D4F7E5F8
:404D40004D1BA9428941C71B49427F1A9A4661E502000A433AD0ED087C072C438025FA082D032A4208D0C7082F4205D145072C003A009A46C9080C43670FD200E500174340
:404D8000364C47E507000D00140043E53A002A4343D002000A4319D0ED087C072C438025FA082D032A4207D0C6082E4204D147073C003200C9080C43D700620FE50017438C
:404DC0009A46264C26E50022002544E5234C21E5002049E700230025BBE54C463E00203CE6404C46B446202C31D040244E46A61BB7403D436C1EA54164462C4300270D1B06
:404E0000E7E6802200231203144C0025A1E53D436F1EBD410027EDB260E707000D000F4CF8E407000D00F5E44E463C00203EF440A0464C46202C0ED040244E46A41BA740CE
:404E40003D436F1EBD4144460027254346E70027CFE70D0073E50027F2E7C046FF070000FFFF7FFF0B0330B5134D1A0B4B005B0DC90F0024AB4211DD104CA34210DC802444
:404E8000640322430E4CE41A1F2C0CDD0D48C31ADA4013005C42002900D11C00200030BD094BCC18FAE7E040084CA44663449A4013000343EEE7C046FE0300001D0400002C
:404EC0003304000013040000FFFFFF7FEDFBFFFF70B5051E28D000F071F8154B154A1B1AD21A1F2A16DD2C00134A0025D21A94405A052403240B520D002124030B0D240B3C
:404F00001B0523430D4C1205234013435B002800590870BD0B212C00081AC440954024035A05240B520DE7E700220024E4E7C0461E0400003304000013040000FFFF0F8068
:404F40008446101C62468C46191C634600E0C0461FB500F001F9002801D40021C8421FBD10B500F055F84042013010BD10B500F0F3F8002801DB002010BD012010BDC04634
:404F800010B500F0E9F8002801DD002010BD012010BDC04610B500F07BF8002801DC002010BD012010BDC04610B500F071F8002801DA002010BD012010BDC0461C21012303
:404FC0001B04984201D3000C10391B0A984201D3000A08391B09984201D30009043902A2105C40187047C0460403020201010101000000000000000010B5002903D1FFF76D
:40500000DDFF203002E0081CFFF7D8FF10BDC046F0B55F4656464D464446F0B41F035C00DB0F9A46194B0E034D00C90F8046360B6D0D8B4691463F0B640D9D4219D0134B0B
:405040009C421BD00123A54206D018003CBC90469946A246AB46F0BDBE42F6D1C845F4D1D34510D0002DF0D1304303005A1E9341EBE7310001230143E7D1E0E73A4301236F
:40508000002AE2D1DEE70023DFE7C046FF070000F0B55F46444656464D46F0B41F033C0B2C4F0E034D00A3465C008446360B6D0DC90F9046640DDB0FBD422BD0254FBC4231
:4050C0002ED0002D0ED130430700814678427841002C17D15F463A4314D14B460020002B0AD006E0002C02D15846024301D099421AD00123484218433CBC90469946A24625
:40510000AB46F0BD0028F2D058425841012240421043F1E737000743D0D002204042EBE75F461743CDD0F8E7A542E2DC05DB5E45DFD808D000205E45DED248424841012371
:4051400040421843D8E7C445D3D80020C445F4D3D2E7C046FF070000F0B55F464D4644465646F0B41C03240BA4462F4C0F034D005E00C90F80463F0B6D0D8B469146760D86
:40518000DB0FA54220D0284CA64222D0002D12D1384344424441002E20D0002C0DD05C42634101245B421C4320003CBC90469946A246AB46F0BD002E17D05B4519D05B462E
:4051C0005C4201231C43EFE7390002240143EBD1D9E7614602241143E6D1D7E761460A43DBD100240028DFD0E9E761460A43E4D1E5E7B54203DD01225C421443D4E7B54282
:40520000CDDB6745DBD809D000246745CCD259464C426141012449420C43C5E7C845CED80024C845F3D3BFE7FF070000084B10B50400002B02D0002100E000BF054B1868A7
:40524000836A002B00D09847200000F067FCC046000000003873001030B50024A24208D0035D651C0C5DA34201D0181B02E02C00F4E7002030BD002310B59A4203D0CC5C86
:40528000C4540133F9E710BD03008218934202D019700133FAE770470CB430B5164B9DB00C1E1D6804DA8B2301202B6040421DE0822302A99B008B810023029008619C42B0
:4052C00000D0631E8B604B6101235B42CB81209A21AB2800019300F073F8431C01DA8B232B60002C02D00023029A13701DB030BC08BC02B01847C0467C060008F0B58E68B0
:4053000085B007000C00039201939E4243D890238A89DB001A423ED003250969236801985B1A029363695D43EB0F5D19029B6D1001331B18AB4200D91D00530510D5290088
:40534000380000F037FB061E14D0029A2169FFF792FFA289194B134080221343A38112E02A00380000F086FB061E0CD12169380000F0D4FA0C23402201203B60A3894042DF
:405380001343A38117E0029B2661F61826606561019EED1AA560019BB34200D21E0032000399206800F0A5FA0020A3689B1BA36023689E19266005B0F0BDC0467FFBFFFF61
:4053C000F0B59FB0029005938B890F0016001B0610D50B69002B0DD1402100F0EBFA38603861002804D10C23029A01381360D8E040237B61002306AD6B6120336B761033E8
:40540000AB7634002378002B03D1A31B049312D003E0252BF9D00134F4E7A31B320039000298FFF76BFF431C00D1B4E06A69049B944663446B612378002B00D1ABE001224F
:40544000002352426A6002A95432521801342B60EB60AB601370AB65534E21780522300000F03CFA002807D00123801B83402A68013413432B60EFE72B68DA0604D55322F0
:40548000202102A8121811701A0704D553222B2102A81218117022782A2A03D0099B00200A210EE0059A111D12680591002A01DB099204E05242EA60022213432B6001342E
:4054C0000BE02278303A092A04D84B4301349B180120F6E7002800D0099323782E2B1ED163782A2B0AD1059B02341A1D1B680592002B01DA01235B42079310E000230A20F3
:405500001A0001346B6021783039092904D84243013452180123F6E7002B00D00792234E21780322300000F0D9F9002806D04023801B83402A68013413432B60217806223F
:405540001B48661C297600F0C9F9002812D0194B002B06D10722059B073393430833059314E005AB00933A00134B2900029800E000BF07E005AB00933A000F4B2900029827
:4055800000F08AF80390039B013304D06B69039A9B186B6135E7BB890B985B0601D5012040421FB0F0BDC0463C730010427300104673001000000000FD520010F7B5170082
:4055C00001938A680B6900900C00934200DA130022003B6043321278002A01D001333B6023689B0602D53B6802333B60062523681D401ED0230043331B785A1E9341226854
:4056000092061CD53020E1184331087021005A1C45310978A2184332023311700FE022000123193201990098089EB047431C0ED00135E3683A689B1A9D42F0DBDAE7220048
:40564000019943320098089DA847431C02D10120404220E006232068E1683A6803400025042B03D18D1AEB43DB171D40A3682269934201DD9B1AED180027BD420AD02200CA
:4056800001231A3201990098089EB047431CDED00137F2E70020FEBDF0B58BB006920A0043320793059004920A7E0C00109B6E2A00D1ABE011D8632A22D009D8002A00D17F
:4056C000B5E0582A00D0C5E045310A70814A4FE0642A1DD0692A1BD0BCE0732A00D1AAE009D86F2A29D0702A00D0B3E0202209680A43226037E0752A1FD0782A33D0A9E0E2
:405700000E001A684236111D196013683370A4E021681A68080606D4490604D5111D19600023D55E02E0111D19601568002D3BDA2D23049A6D42137036E021681A68080669
:4057400006D4490604D51568111D1960ADB202E0111D196015685F4B227E039308276F2A1DD00A271BE022007821453211705A4A19680392081D226818600D68100602D4E8
:40578000500600D5ADB2D30702D520231A4322601027002D03D1202322689A4322602300002243331A7002E00A274A4B03936368A360002B09DB0422216891432160002D97
:4057C00005D1049E002B11D07BE0002D79D0049E28003900FEF748F8039B013E5B5C280033703900FDF7BAFF051EF1D1082F09D12368DB0706D563682269934202DC30233D
:40580000013E3370049B9B1B23612BE009681A68080607D4490605D5111D19601368A28A1A8004E0111D1960136862691A600023049E236116E01A68111D19601668002163
:405840006268300000F04AF8002801D0801B6060636803E0260042363270012323610023049A1370079B09AA00932100069B0598FFF7A4FE431C02D10120404227E0236987
:40588000320006990598079DA847431CF4D0236800259B070FD4099BE068984217DA180015E022000123193206990598079EB047431CE1D00135E368099A9B1A9D42F0DBCF
:4058C000E9E72600039B42361B7833708EE70BB0F0BDC0464D7300105E730010C9B28218904204D003788B4202D00130F8E70020704710B5884202D98B18984201D3002338
:4059000005E09B1A013A08D3995C8154FAE7934203D0CC5CC4540133F9E710BD70B50500002944D00C1F2368002B00DAE418280000F0D8F81E4A13681100002B02D1636088
:40594000146031E0A3420DD92268A018834203D118685B688218226063600C6024E0A24203D813005A68002AF9D11E689819A0420BD12168711858181960824214D11068D1
:405980005268411819605A600EE0A04202D90C232B6009E021686018824203D1106852684118216062605C60280000F09CF870BD3C4C0008032370B5CD1C9D430835060070
:4059C0000C2D01D20C2501E0002D01DBA94202D90C23336048E0300000F084F8234B1C681A002100002913D00B685B1B0DD40B2B02D90B60CC181EE08C4202D163681360F4
:405A00001AE04B6863600C0016E00C004968E9E7174C2368002B03D1300000F051F820602900300000F04CF8431C18D00323C41C9C43A0420DD12560300000F054F8200007
:405A400007220B30231D9043C31A0ED05A42E2500BE0211A300000F033F8431CEBD10C233000336000F03FF8002070BD3C4C0008384C0008F8B506000C001500002904D146
:405A80001100FFF797FF040018E0002A03D1FFF745FF2C0012E000F027F885420ED929003000FFF787FF071E07D021002A00FFF7E2FB21003000FFF731FF3C002000F8BDC3
:405AC000002370B5064C05000800236000F018F8431C03D12368002B00D02B6070BDC046A04C0008704770470B1F1A68101F002A04DA891804390B68D01804387047000094
:405B0000044A1368002B03D01818106018007047014BF9E7404C0008A84C0008FEE7C046F8B5C046F8BC08BC9E467047F8B5C046F8BC08BC9E46704701B40248844601BC76
:405B4000604700BF1F0700085374617274206164766572746973696E670A0044657669636520646973636F6E6E65637465643B207374617274206164766572746973696E74
:405B8000670A006761747420636F6E6E65637420696E64210A0047415020636F6E6E65637465640D0A0043595F424C455F4556545F444154415F4C454E4754485F43484191
:405BC0004E4745200D0A004661696C656420746F20736574205048592E2E5B626448616E646C65203078253032585D203A2030782534780D0A0053657474696E6720504862
:405C0000592E5B626448616E646C65203078253032585D200D0A005570646174696E6720746865205068792E2E2E2E2E0D0A005345542050485920757064617465642074B2
:405C40006F2032204D6270730D0A005345542050485920436F756C64206E6F742075706461746520746F2032204D6270730D0A0072656365697665642047415454205772D4
:405C800069746520526571756573740A007374617274206E6F74696669636174696F6E730A006576656E743A2025580A000A5541525420776F726B696E670A00737461728F
:405CC00074206E6F7469660A00436F756C646E27742073656E64206E6F74696669636174696F6E2E205B43595F424C455F4552524F525F494E56414C49445F504152414D5F
:405D0000455445525D0A004174747268616E646C65203D203078202043795F424C455F47415454535F4E6F74696669636174696F6E20415049204572726F723A2030780A1A
:405D4000006E6F74696669636174696F6E2073656E740A00030000000100000001000000000000000503600004000000010000000000000001000000060460000800000053
:405D8000D43C00086D04001008005A00030000000300180003000000F4010000140004010A00090508000000630100000300000000000000000000006800000000000000CA
:405DC00000000000000000001212000000000000000000000000000000000000000000BA0000000000000000000000000000000000001D1D00002040000024400000004087
:405E00000000000000002340000030400000314000009F40000022400000104002020202020202020210101D800017007500FF030602063604102000000000007FC0000079
:405E400000040000000000000019324B647D00804000080B100000000000FF012002001F00800004FF081018001000140018001C4044484C500000000810000008000000F0
:405E800004000000041000000012000004210000002100000016000040114002C41300138013A013200000001C00000000002140000025400000014000003440000024407E
:405EC000000031400000324000001F410000234000001140010101010101010101101010800019005500F0000501053B04101C01010000000FC00000000400000101010145
:405F0000011D3A57789600082000101208000000001F00000010000F002000023F06080E00080009000A000B24282C30340000001000000090000000880000000800000065
:405F40008000000004F0000000F00000400200002005A000D00100018001A0012000000010000000D40005003000010028000200D40002000C00010000316253C4F5A6979F
:405F8000B988DBEA7D4C1F2E4372211087B6E5D4FACB98A93E0F5C6D86B7E4D5427320113F0E5D6CFBCA99A8C5F4A796013063527C4D1E2FB889DAEB3D0C5F6EF9C89BAAC1
:405FC00084B5E6D7407122137E4F1C2DBA8BD8E9C7F6A59403326150BB8AD9E87F4E1D2C02336051C6F7A495F8C99AAB3C0D5E6F4170231285B4E7D67A4B1829BE8FDCEDC1
:40600000C3F2A1900736655439085B6AFDCC9FAE80B1E2D344752617FCCD9EAF38095A6B4574271681B0E3D2BF8EDDEC7B4A192806376455C2F3A0914776251483B2E1D0C0
:40604000FECF9CAD3A0B586904356657C0F1A293BD8CDFEE79481B2AC1F0A3920534675678491A2BBC8DDEEF82B3E0D1467724153B0A5968FFCE9DAC7F0800000000000095
:4060800000000000000000000000000066666666000000000000FFFF000000001C1C1C1C1C1C1C1C00000000000000000000000066E6EE66000000000000FFFF00000000CC
:4060C0001C1A1A1A1A1A000000000000000000000000000066E66666000000000000FFFF000000001A1A001C00000000000000000100140001000028010000000B00000052
:406100000018000000000000020003280100020003000000002A0000000000000300002A01000201030000000B0000004C010008040003280100020005000000012A0000F4
:40614000000000000500012A01000201050000000200000054010008060003280100020007000000A62A0000000000000700A62A0100020107000000010000005C01000834
:40618000080003280100020009000000042A0000000000000900042A010002010900000008000000640100080A000328010002000B000000C92A0000000000000B00C92A85
:4061C000010002010B000000010000006C0100080C000028010000000F00000001180000000000000D000328010020000F000000052A0000000000000E00052A00002001C8
:406200000F00000004000000740100080F00022901010A030F000000020000007C01000810000028010000001400000084CF000000000000110003280100100014000000EE
:40624000BCA70000000000001200BCA70000100114000000A000000084010008130055B90100000113000000A00000008C0100081400022901010A03140000000200000025
:4062800094010008010003000500090007000B000C000E000F0010001200130014000000000000000C00000008000000000200000000000000000000000000000000000095
:4062C0000000000000000000000000000B0000000000000000000000000000000000000021AC001091B0001091B0001091B0001091B00010519600101D97001091B0001066
:4063000091B0001091B0001091B0001091B0001091B0001091B0001091B0001091B0001091B0001039AE001085AE001065A5001025A70010C5AA0010C1850010000000007F
:40634000646700100467001008000000891B011000000000BC650010086500100F000000000000000000000000000000000000000000000001200000D9BD00100620000060
:4063800019BF001007200000EDBD001008200000D1BE001009200000E1BF00100A200000D1BC00100B200000A5BF00100C20000069BF00101020000035BD00101120000047
:4063C000ADBC001012200000ADBE00101420000055BF00101520000051BD00101720000005BD00100E2000003DBD0010ACFD0000C3C10010ADFD0000B5C00010A0FD000082
:4064000029C20010A1FD000015C10010A2FD000059C10010A5FD00001DC30010A6FD000085C20010A8FD00007DC00010A9FD000051C00010AAFD000083C10010ABFD00002C
:40644000E5C20010AFFD000081C10010C3FD0000D1C20010B0FD00004DC20010B2FD000099C200100514000095BD00102D0C000065BE00107B0C000015BE00107C0C000045
:4064800019C0001027200F2028201020292010202B200A202C200B202D200D202E200C204E20172000000100010000010001020203000200000000000202010002000001F2
:4064C000000100050100050202030002000000000002050100050000151401106D1501108114011001010B0102028102820503040403840906090709080909090A09050AEC
:406500000C0B0D0D0E0E0000010000000100000000000000020000000400000002000000030000000700000005000000040000000A00000008000000050000000C000000CE
:406540000B000000060000000E0000000D00000007000000100000000F0000000800000013000000110000000900000016000000140000000A000000170000001700000032
:40658000FF00000018000000180000000B0000001B000000190000000C0000001D0000001C0000000D0000001F0000001E0000000E0000002100000020000000010000008E
:4065C00039380110FEFFFFFF0D370110010000003938011006000000F5390110F8FFFFFF0D3701101800120029370110A000000CA134011047FFEDFB0D370110E8000C0013
:4066000089360110000120009D3501101FFED3FF0D370110A000000C653E01105FFFFFFB0D37011000020000D53C0110FFFDFFFF0D370110000C0000C5330110FFF3FFFFBD
:406640000D370110000A000039360110010000005F360110FEF7FFFF0D37011000200000ED340110004000007D3D0110FF9FFFFF0D370110FFFFFFFF15370110FFFFFFFFA9
:40668000BD33011000800000A13301100000010085330110FF7FFEFF0D370110008001004D330110FF7FFEFF0D3701100000800331330110FFFF7FFC0D37011000801F0A89
:4066C00069330110FF7FE0F50D3701100000000000000000000000000000000087000000000000000000000000000000000404000104080002041400030C200004042C002C
:4067000005064800810000000000000000000000820000000100000001000000010000000200000002000000020000000400000003000000030000000600000005000000E5
:40674000F10000000700000007000000F20000000900000008000000FF0000000A0000000A000000020000009142011001000000914201100E000000914101100200000046
:40678000D94101100C0000007941011002000000154201100C000000794101100E000000914201100C000000D142011002000000794101100E00000019430110F401FA003D
:4067C000960064004B0032001E00140003040506020D1100BDC3011021C3011013CA011071C4011023C50110BFC90110D7C9011099CA01109DC501104DC6011081C801105C
:40680000AFC80110E7CA0110ADC901107BCA01107BCA01107BCA011055C90110FDC8011041C90110B5010210C10102109111021079120210851202106DC40110BBC30110FE
:4068400057CA011021C501105BC50110CFC90110F1C90110E5CA011049C60110E9C601109BC80110D5C8011053CB0110B7C90110E5CA0110E5CA0110E5CA0110A5C9011009
:40688000E5CA0110E5CA0110E5CA0110E5CA0110E5CA0110E5CA0110E5CA01100C000800020017000D00010001000200090009000100010006000200090018001800030002
:4068C000010001000900090003000300050000007BE2011083E201107FE2011079E2011057E2011053E2011071E201106FE201104BE201104FE2011087E2011073E2011001
:406900006DE201108BE201108BE2011049E2011077E2011001F90110B5FC011079FA011025F801108DEB011041E80110B9F2011055EE0110ADE3011011E401100DFE011040
:4069400045F60110EDED0110C1E7011045F201100D4C0110F5F60110ADFE01104502021091030210650402107D000210F9FE0110CD010210D9FF01101B0002102B00021079
:406980002D000210310002107BCA01101D0002102700021025000210C9150210790F021035150210E514021081150210911202109D1102103512021001130210E9A7011032
:4069C0009B0F0210910F0210970F0210950F0210990F0210930F02107BCA01107BCA01107BCA0110B1960110692802104B2802104B2802104B28021081280210B1840210BF
:406A00004B280210A1840210B9840210A9840210072D0210FF2C0210692C0210612C02105B28021043280210392802105F280210592C0210892C021053280210812C02107B
:406A4000E12C02104B280210912C0210792C0210712C02104B2802108928021091280210992802104F2802104F280210692802104B2802104B2802104B2802108128021058
:406A8000B18402104B280210A1840210B9840210A9840210072D0210FF2C0210692C0210612C02105B28021043280210392802105F280210592C0210892C02105328021073
:406AC000812C0210E12C02104B280210912C0210792C0210712C02104B2802108928021091280210992802104F2802104F28021011500210055002101D5002104F28021024
:406B00004F280210B14C0210ED4C0210BD4C0210E14C0210D54C0210C94C0210F94C0210054D0210F94F02105D520210615202106D52021045520210515202104F2802106B
:406B40004F2802104F2802104F2802104F2802104F2802104F2802104F2802104F2802104F2802104F2802104F2802104F2802104F2802104F2802104F2802104F28021085
:406B80004F2802104F2802104F2802104F2802104F2802104F2802104F2802104F280210114D0210EB4302109942021099420210994202101D440210AD43021099420210B4
:406BC000914302105D440210A7430210374402102D4402101B4202109942021099420210994202109F4102107B430210C5410210FD4302102343021033430210AD4202108D
:406C00009942021073440210E9420210DB4202109942021067430210AB440210994202109942021099420210A14F0210954F0210AD4F021031430210CB420210254C021093
:406C4000614C0210314C0210554C0210494C02103D4C02106D4C0210794C0210894F021099510210A5510210B1510210815102108D51021099420210994202109942021092
:406C80009942021099420210994202109942021099420210994202109942021099420210994202109942021099420210994202109942021099420210994202109942021004
:406CC000994202109942021099420210994202109942021099420210854C02101B4702104946021049460210494602105F470210C5460210494602100D4702100D4702108A
:406D0000B74602107547021063470210C5450210C1450210A5460210594502104B4502104B4502105D4502103F470210794602108D4602104D46021049460210A94702104B
:406D4000654602105146021049460210A9460210C5470210C14702104946021049460210CD4E0210C14E0210D94E0210ED470210474502106B4B0210754B0210814B0210AE
:406D80008D4B0210754B0210754B0210994B0210A54B0210B54E0210A5500210B1500210BD5002108D500210995002104946021049460210494602104946021049460210F0
:406DC0004946021049460210494602104946021049460210494602104946021049460210494602104946021049460210494602104946021049460210494602104946021083
:406E000049460210494602104946021049460210B14B021008000000060F0020200107021900000007070E05020220001C1202000103000E03060004004027070000070730
:406E4000010200020307030400000000000000000000000000000000000000000000000000080000EB4302109942021099420210994202101D440210AD430210994202108B
:406E8000914302105D440210A7430210374402102D4402101B4202109942021099420210994202109F4102107B430210C5410210FD4302102343021033430210AD420210CA
:406EC0009942021073440210E9420210DB4202109942021067430210AB4402109942021099420210994202101B4702104946021049460210494602105F470210C5460210D3
:406F0000494602100D4702100D470210B74602107547021063470210C5450210C1450210A5460210594502104B4502104B4502105D4502103F470210794602108D46021024
:406F40004D46021049460210A9470210654602105146021049460210A9460210C5470210C1470210494602104946021008000000060F0020200107021900000007070E05A6
:406F8000020220001C1202000103000E032000800000C00000000004000000A822000000000000040000F7FFFF7F0000003000000000000000000000000000000000000092
:406FC00000000000000000000000000000000000794A0210BD4B0210234B0210D94A0210CB4B02104B4B0210A94A0210D94B02102F4B0210D74A0210DD4B0210474B021045
:40700000C14A0210CB4B02103F4B0210AB4A0210CB4B0210374B0210EF4A0210E94B0210534B0210F54A0210F94B02105B4B021099420210494602104F2802109942021008
:40704000494602104F28021099420210494602104F28021099420210494602104F28021099420210494602104F28021099420210494602104F2802109942021049460210FC
:407080004F28021099420210494602104F280210034B0210114C0210634B021099420210494602104F28021099420210494602104F28021099420210494602104F2802105C
:4070C00099420210494602104F28021099420210494602104F280210214D0210FD4E0210A54E02101F4D0210F14E02109D4E0210474D0210494F0210AD4E02101D4D0210DB
:40710000E54E0210954E021099420210494602104F28021099420210494602104F28021099420210494602104F28021099420210494602104F28021099420210494602102B
:407140004F28021049500210055102100000000057500210195102100914021065500210435102103914021029500210C95002108510021037500210E7500210A110021041
:4071800026002B00300036003C0043004B0055005F006A00770086009600A800BD00D400EE000B012B014F017801A601DA01130254029D02EE024A03B1032404A5043605EC
:4071C000D9058F065C0742084409650AAA0B160DAF0E79107C12BD1445171C1A4B1DDE203030303142383030303130323033303430353036303730383039304130423043C0
:4072000030443045304631303131313231333134313531363137313831393141314231433144314531463230323132323233323432353236323732383239324132423243E0
